{
  "contractName": "Counter",
  "abi": [
    {
      "inputs": [],
      "name": "incrementCounter",
      "outputs": [],
      "stateMutability": "nonpayable",
      "type": "function"
    },
    {
      "inputs": [],
      "name": "decrementCounter",
      "outputs": [],
      "stateMutability": "nonpayable",
      "type": "function"
    },
    {
      "inputs": [],
      "name": "addMoney",
      "outputs": [],
      "stateMutability": "payable",
      "type": "function",
      "payable": true
    },
    {
      "inputs": [],
      "name": "getCount",
      "outputs": [
        {
          "internalType": "uint256",
          "name": "",
          "type": "uint256"
        }
      ],
      "stateMutability": "view",
      "type": "function",
      "constant": true
    },
    {
      "inputs": [],
      "name": "getMoneyStored",
      "outputs": [
        {
          "internalType": "uint256",
          "name": "",
          "type": "uint256"
        }
      ],
      "stateMutability": "view",
      "type": "function",
      "constant": true
    }
  ],
  "bytecode": "0x608060405260008055600060015534801561001957600080fd5b5061015c806100296000396000f3fe60806040526004361061004a5760003560e01c80631b3f48421461004f5780635b34b96614610059578063a87d942c14610070578063e0a438fb1461009b578063f5c5ad83146100c6575b600080fd5b6100576100dd565b005b34801561006557600080fd5b5061006e6100ef565b005b34801561007c57600080fd5b50610085610101565b6040518082815260200191505060405180910390f35b3480156100a757600080fd5b506100b061010a565b6040518082815260200191505060405180910390f35b3480156100d257600080fd5b506100db610114565b005b34600160008282540192505081905550565b60016000808282540192505081905550565b60008054905090565b6000600154905090565b6001600080828254039250508190555056fea2646970667358221220980db8455b319fb596026274efb467bf749abb96e2d4ef1d4384c102528a9e3e64736f6c634300060c0033",
  "immutableReferences": {},
  "source": "pragma solidity >=0.4.22 <0.8.0;\r\n\r\ncontract Counter {\r\n    uint256 private count = 0;\r\n    uint256 moneyStored = 0;\r\n\r\n    function incrementCounter() public {\r\n        count += 1;\r\n    }\r\n    function decrementCounter() public {\r\n        count -= 1;\r\n    }\r\n\r\n    function addMoney() payable public {\r\n        moneyStored += msg.value;\r\n    }\r\n\r\n    function getCount() public view returns (uint256) {\r\n        return count;\r\n    }\r\n\r\n    function getMoneyStored() public view returns (uint256){\r\n        return moneyStored;\r\n    }\r\n}",
  "sourcePath": "C:/Users/swapp/Documents/MyProjects/Crypto/world_nft/contracts/Counter.sol",
  "compiler": {
    "name": "solc",
    "version": "0.6.12+commit.27d51765.Emscripten.clang"
  },
  "schemaVersion": "3.2.3",
  "updatedAt": "2021-07-06T06:22:56.811Z",
  "networkType": "ethereum",
  "devdoc": {
    "kind": "dev",
    "methods": {},
    "version": 1
  },
  "userdoc": {
    "kind": "user",
    "methods": {},
    "version": 1
  }
}