{
  "contractName": "LocationNFT",
  "abi": [
    {
      "inputs": [],
      "stateMutability": "nonpayable",
      "type": "constructor"
    },
    {
      "anonymous": false,
      "inputs": [
        {
          "indexed": true,
          "internalType": "address",
          "name": "owner",
          "type": "address"
        },
        {
          "indexed": true,
          "internalType": "address",
          "name": "approved",
          "type": "address"
        },
        {
          "indexed": true,
          "internalType": "uint256",
          "name": "tokenId",
          "type": "uint256"
        }
      ],
      "name": "Approval",
      "type": "event"
    },
    {
      "anonymous": false,
      "inputs": [
        {
          "indexed": true,
          "internalType": "address",
          "name": "owner",
          "type": "address"
        },
        {
          "indexed": true,
          "internalType": "address",
          "name": "operator",
          "type": "address"
        },
        {
          "indexed": false,
          "internalType": "bool",
          "name": "approved",
          "type": "bool"
        }
      ],
      "name": "ApprovalForAll",
      "type": "event"
    },
    {
      "anonymous": false,
      "inputs": [
        {
          "indexed": false,
          "internalType": "address",
          "name": "bidAddress",
          "type": "address"
        },
        {
          "indexed": false,
          "internalType": "uint256",
          "name": "bidValue",
          "type": "uint256"
        }
      ],
      "name": "AuctionEnded",
      "type": "event"
    },
    {
      "anonymous": false,
      "inputs": [
        {
          "indexed": false,
          "internalType": "address",
          "name": "ownerAddress",
          "type": "address"
        },
        {
          "indexed": false,
          "internalType": "uint256",
          "name": "_biddingTime",
          "type": "uint256"
        }
      ],
      "name": "AuctionStarted",
      "type": "event"
    },
    {
      "anonymous": false,
      "inputs": [
        {
          "indexed": false,
          "internalType": "address",
          "name": "bidAddress",
          "type": "address"
        },
        {
          "indexed": false,
          "internalType": "uint256",
          "name": "bidValue",
          "type": "uint256"
        }
      ],
      "name": "BidIncrease",
      "type": "event"
    },
    {
      "anonymous": false,
      "inputs": [
        {
          "indexed": false,
          "internalType": "address",
          "name": "_seller",
          "type": "address"
        },
        {
          "indexed": false,
          "internalType": "address",
          "name": "_buyer",
          "type": "address"
        },
        {
          "indexed": false,
          "internalType": "uint256",
          "name": "_price",
          "type": "uint256"
        }
      ],
      "name": "NftBought",
      "type": "event"
    },
    {
      "anonymous": false,
      "inputs": [
        {
          "indexed": true,
          "internalType": "address",
          "name": "previousOwner",
          "type": "address"
        },
        {
          "indexed": true,
          "internalType": "address",
          "name": "newOwner",
          "type": "address"
        }
      ],
      "name": "OwnershipTransferred",
      "type": "event"
    },
    {
      "anonymous": false,
      "inputs": [
        {
          "indexed": true,
          "internalType": "address",
          "name": "from",
          "type": "address"
        },
        {
          "indexed": true,
          "internalType": "address",
          "name": "to",
          "type": "address"
        },
        {
          "indexed": true,
          "internalType": "uint256",
          "name": "tokenId",
          "type": "uint256"
        }
      ],
      "name": "Transfer",
      "type": "event"
    },
    {
      "inputs": [],
      "name": "acceptedBidsIdx",
      "outputs": [
        {
          "internalType": "uint256",
          "name": "",
          "type": "uint256"
        }
      ],
      "stateMutability": "view",
      "type": "function",
      "constant": true
    },
    {
      "inputs": [
        {
          "internalType": "address",
          "name": "to",
          "type": "address"
        },
        {
          "internalType": "uint256",
          "name": "tokenId",
          "type": "uint256"
        }
      ],
      "name": "approve",
      "outputs": [],
      "stateMutability": "nonpayable",
      "type": "function"
    },
    {
      "inputs": [
        {
          "internalType": "address",
          "name": "owner",
          "type": "address"
        }
      ],
      "name": "balanceOf",
      "outputs": [
        {
          "internalType": "uint256",
          "name": "",
          "type": "uint256"
        }
      ],
      "stateMutability": "view",
      "type": "function",
      "constant": true
    },
    {
      "inputs": [],
      "name": "baseURI",
      "outputs": [
        {
          "internalType": "string",
          "name": "",
          "type": "string"
        }
      ],
      "stateMutability": "view",
      "type": "function",
      "constant": true
    },
    {
      "inputs": [
        {
          "internalType": "uint256",
          "name": "tokenId",
          "type": "uint256"
        }
      ],
      "name": "getApproved",
      "outputs": [
        {
          "internalType": "address",
          "name": "",
          "type": "address"
        }
      ],
      "stateMutability": "view",
      "type": "function",
      "constant": true
    },
    {
      "inputs": [
        {
          "internalType": "address",
          "name": "owner",
          "type": "address"
        },
        {
          "internalType": "address",
          "name": "operator",
          "type": "address"
        }
      ],
      "name": "isApprovedForAll",
      "outputs": [
        {
          "internalType": "bool",
          "name": "",
          "type": "bool"
        }
      ],
      "stateMutability": "view",
      "type": "function",
      "constant": true
    },
    {
      "inputs": [],
      "name": "name",
      "outputs": [
        {
          "internalType": "string",
          "name": "",
          "type": "string"
        }
      ],
      "stateMutability": "view",
      "type": "function",
      "constant": true
    },
    {
      "inputs": [],
      "name": "nextId",
      "outputs": [
        {
          "internalType": "uint256",
          "name": "",
          "type": "uint256"
        }
      ],
      "stateMutability": "view",
      "type": "function",
      "constant": true
    },
    {
      "inputs": [],
      "name": "owner",
      "outputs": [
        {
          "internalType": "address",
          "name": "",
          "type": "address"
        }
      ],
      "stateMutability": "view",
      "type": "function",
      "constant": true
    },
    {
      "inputs": [
        {
          "internalType": "uint256",
          "name": "tokenId",
          "type": "uint256"
        }
      ],
      "name": "ownerOf",
      "outputs": [
        {
          "internalType": "address",
          "name": "",
          "type": "address"
        }
      ],
      "stateMutability": "view",
      "type": "function",
      "constant": true
    },
    {
      "inputs": [],
      "name": "renounceOwnership",
      "outputs": [],
      "stateMutability": "nonpayable",
      "type": "function"
    },
    {
      "inputs": [
        {
          "internalType": "address",
          "name": "from",
          "type": "address"
        },
        {
          "internalType": "address",
          "name": "to",
          "type": "address"
        },
        {
          "internalType": "uint256",
          "name": "tokenId",
          "type": "uint256"
        }
      ],
      "name": "safeTransferFrom",
      "outputs": [],
      "stateMutability": "nonpayable",
      "type": "function"
    },
    {
      "inputs": [
        {
          "internalType": "address",
          "name": "from",
          "type": "address"
        },
        {
          "internalType": "address",
          "name": "to",
          "type": "address"
        },
        {
          "internalType": "uint256",
          "name": "tokenId",
          "type": "uint256"
        },
        {
          "internalType": "bytes",
          "name": "_data",
          "type": "bytes"
        }
      ],
      "name": "safeTransferFrom",
      "outputs": [],
      "stateMutability": "nonpayable",
      "type": "function"
    },
    {
      "inputs": [
        {
          "internalType": "address",
          "name": "operator",
          "type": "address"
        },
        {
          "internalType": "bool",
          "name": "approved",
          "type": "bool"
        }
      ],
      "name": "setApprovalForAll",
      "outputs": [],
      "stateMutability": "nonpayable",
      "type": "function"
    },
    {
      "inputs": [
        {
          "internalType": "bytes4",
          "name": "interfaceId",
          "type": "bytes4"
        }
      ],
      "name": "supportsInterface",
      "outputs": [
        {
          "internalType": "bool",
          "name": "",
          "type": "bool"
        }
      ],
      "stateMutability": "view",
      "type": "function",
      "constant": true
    },
    {
      "inputs": [],
      "name": "symbol",
      "outputs": [
        {
          "internalType": "string",
          "name": "",
          "type": "string"
        }
      ],
      "stateMutability": "view",
      "type": "function",
      "constant": true
    },
    {
      "inputs": [
        {
          "internalType": "uint256",
          "name": "index",
          "type": "uint256"
        }
      ],
      "name": "tokenByIndex",
      "outputs": [
        {
          "internalType": "uint256",
          "name": "",
          "type": "uint256"
        }
      ],
      "stateMutability": "view",
      "type": "function",
      "constant": true
    },
    {
      "inputs": [
        {
          "internalType": "uint256",
          "name": "",
          "type": "uint256"
        }
      ],
      "name": "tokenIdToPrice",
      "outputs": [
        {
          "internalType": "uint256",
          "name": "",
          "type": "uint256"
        }
      ],
      "stateMutability": "view",
      "type": "function",
      "constant": true
    },
    {
      "inputs": [
        {
          "internalType": "address",
          "name": "owner",
          "type": "address"
        },
        {
          "internalType": "uint256",
          "name": "index",
          "type": "uint256"
        }
      ],
      "name": "tokenOfOwnerByIndex",
      "outputs": [
        {
          "internalType": "uint256",
          "name": "",
          "type": "uint256"
        }
      ],
      "stateMutability": "view",
      "type": "function",
      "constant": true
    },
    {
      "inputs": [
        {
          "internalType": "uint256",
          "name": "tokenId",
          "type": "uint256"
        }
      ],
      "name": "tokenURI",
      "outputs": [
        {
          "internalType": "string",
          "name": "",
          "type": "string"
        }
      ],
      "stateMutability": "view",
      "type": "function",
      "constant": true
    },
    {
      "inputs": [],
      "name": "totalSupply",
      "outputs": [
        {
          "internalType": "uint256",
          "name": "",
          "type": "uint256"
        }
      ],
      "stateMutability": "view",
      "type": "function",
      "constant": true
    },
    {
      "inputs": [
        {
          "internalType": "address",
          "name": "from",
          "type": "address"
        },
        {
          "internalType": "address",
          "name": "to",
          "type": "address"
        },
        {
          "internalType": "uint256",
          "name": "tokenId",
          "type": "uint256"
        }
      ],
      "name": "transferFrom",
      "outputs": [],
      "stateMutability": "nonpayable",
      "type": "function"
    },
    {
      "inputs": [
        {
          "internalType": "address",
          "name": "newOwner",
          "type": "address"
        }
      ],
      "name": "transferOwnership",
      "outputs": [],
      "stateMutability": "nonpayable",
      "type": "function"
    },
    {
      "inputs": [
        {
          "internalType": "uint256",
          "name": "tokenId",
          "type": "uint256"
        }
      ],
      "name": "getTokenDetails",
      "outputs": [
        {
          "components": [
            {
              "internalType": "string",
              "name": "location_name",
              "type": "string"
            },
            {
              "internalType": "uint8",
              "name": "locn_type",
              "type": "uint8"
            },
            {
              "internalType": "uint256",
              "name": "latitude",
              "type": "uint256"
            },
            {
              "internalType": "uint256",
              "name": "longitude",
              "type": "uint256"
            },
            {
              "internalType": "bool",
              "name": "isExist",
              "type": "bool"
            }
          ],
          "internalType": "struct LocationNFT.Location",
          "name": "",
          "type": "tuple"
        }
      ],
      "stateMutability": "view",
      "type": "function",
      "constant": true
    },
    {
      "inputs": [
        {
          "internalType": "uint256",
          "name": "tokenId",
          "type": "uint256"
        }
      ],
      "name": "getPriceOf",
      "outputs": [
        {
          "internalType": "uint256",
          "name": "",
          "type": "uint256"
        }
      ],
      "stateMutability": "view",
      "type": "function",
      "constant": true
    },
    {
      "inputs": [
        {
          "internalType": "uint256",
          "name": "tokenId",
          "type": "uint256"
        }
      ],
      "name": "getOwnerOf",
      "outputs": [
        {
          "internalType": "address",
          "name": "",
          "type": "address"
        }
      ],
      "stateMutability": "view",
      "type": "function",
      "constant": true
    },
    {
      "inputs": [
        {
          "internalType": "uint256",
          "name": "tokenId",
          "type": "uint256"
        }
      ],
      "name": "getAuctionInfo",
      "outputs": [
        {
          "components": [
            {
              "internalType": "uint256",
              "name": "tokenId",
              "type": "uint256"
            },
            {
              "internalType": "address",
              "name": "beneficiary",
              "type": "address"
            },
            {
              "internalType": "bool",
              "name": "auctionGoingOn",
              "type": "bool"
            },
            {
              "internalType": "bool",
              "name": "auctionEnded",
              "type": "bool"
            },
            {
              "internalType": "uint256",
              "name": "auctionEndTime",
              "type": "uint256"
            },
            {
              "internalType": "uint256",
              "name": "biddingTime",
              "type": "uint256"
            },
            {
              "internalType": "address",
              "name": "highestBidder",
              "type": "address"
            },
            {
              "internalType": "uint256",
              "name": "highestBid",
              "type": "uint256"
            },
            {
              "internalType": "bool",
              "name": "isExist",
              "type": "bool"
            }
          ],
          "internalType": "struct LocationNFT.Auction",
          "name": "",
          "type": "tuple"
        }
      ],
      "stateMutability": "view",
      "type": "function",
      "constant": true
    },
    {
      "inputs": [
        {
          "internalType": "uint256",
          "name": "bidId",
          "type": "uint256"
        }
      ],
      "name": "getBiddingLog",
      "outputs": [
        {
          "components": [
            {
              "internalType": "uint256",
              "name": "tokenId",
              "type": "uint256"
            },
            {
              "internalType": "address",
              "name": "bidder",
              "type": "address"
            },
            {
              "internalType": "uint256",
              "name": "bidValue",
              "type": "uint256"
            },
            {
              "internalType": "uint256",
              "name": "timeBid",
              "type": "uint256"
            }
          ],
          "internalType": "struct LocationNFT.Bid",
          "name": "",
          "type": "tuple"
        }
      ],
      "stateMutability": "view",
      "type": "function",
      "constant": true
    },
    {
      "inputs": [
        {
          "internalType": "string",
          "name": "location_name",
          "type": "string"
        },
        {
          "internalType": "uint8",
          "name": "locn_type",
          "type": "uint8"
        },
        {
          "internalType": "uint256",
          "name": "latitude",
          "type": "uint256"
        },
        {
          "internalType": "uint256",
          "name": "longitude",
          "type": "uint256"
        },
        {
          "internalType": "bool",
          "name": "isSellable",
          "type": "bool"
        }
      ],
      "name": "mint",
      "outputs": [],
      "stateMutability": "nonpayable",
      "type": "function"
    },
    {
      "inputs": [
        {
          "internalType": "uint256",
          "name": "_tokenId",
          "type": "uint256"
        }
      ],
      "name": "buy",
      "outputs": [],
      "stateMutability": "payable",
      "type": "function",
      "payable": true
    },
    {
      "inputs": [
        {
          "internalType": "uint256",
          "name": "_tokenId",
          "type": "uint256"
        },
        {
          "internalType": "uint256",
          "name": "_biddingTime",
          "type": "uint256"
        }
      ],
      "name": "startAuction",
      "outputs": [],
      "stateMutability": "nonpayable",
      "type": "function"
    },
    {
      "inputs": [
        {
          "internalType": "uint256",
          "name": "_tokenId",
          "type": "uint256"
        }
      ],
      "name": "endAuction",
      "outputs": [],
      "stateMutability": "nonpayable",
      "type": "function"
    },
    {
      "inputs": [
        {
          "internalType": "uint256",
          "name": "_tokenId",
          "type": "uint256"
        }
      ],
      "name": "placeBid",
      "outputs": [],
      "stateMutability": "payable",
      "type": "function",
      "payable": true
    }
  ],
  "bytecode": "0x60806040526000600b556000600c553480156200001b57600080fd5b506040518060400160405280600b81526020017f556e6971756541737365740000000000000000000000000000000000000000008152506040518060400160405280600381526020017f554e410000000000000000000000000000000000000000000000000000000000815250620000a06301ffc9a760e01b620001d360201b60201c565b8160069080519060200190620000b8929190620002b3565b508060079080519060200190620000d1929190620002b3565b50620000ea6380ac58cd60e01b620001d360201b60201c565b62000102635b5e139f60e01b620001d360201b60201c565b6200011a63780e9d6360e01b620001d360201b60201c565b505060006200012e620002ab60201b60201c565b905080600a60006101000a81548173ffffffffffffffffffffffffffffffffffffffff021916908373ffffffffffffffffffffffffffffffffffffffff1602179055508073ffffffffffffffffffffffffffffffffffffffff16600073ffffffffffffffffffffffffffffffffffffffff167f8be0079c531659141344cd1fd0a4f28419497f9722a3daafe3b4186f6b6457e060405160405180910390a350620003ce565b63ffffffff60e01b817bffffffffffffffffffffffffffffffffffffffffffffffffffffffff191614156200023f576040517f08c379a000000000000000000000000000000000000000000000000000000000815260040162000236906200039b565b60405180910390fd5b6001600080837bffffffffffffffffffffffffffffffffffffffffffffffffffffffff19167bffffffffffffffffffffffffffffffffffffffffffffffffffffffff1916815260200190815260200160002060006101000a81548160ff02191690831515021790555050565b600033905090565b828054600181600116156101000203166002900490600052602060002090601f016020900481019282601f10620002f657805160ff191683800117855562000327565b8280016001018555821562000327579182015b828111156200032657825182559160200191906001019062000309565b5b5090506200033691906200033a565b5090565b5b80821115620003555760008160009055506001016200033b565b5090565b600062000368601c83620003bd565b91507f4552433136353a20696e76616c696420696e74657266616365206964000000006000830152602082019050919050565b60006020820190508181036000830152620003b68162000359565b9050919050565b600082825260208201905092915050565b61530180620003de6000396000f3fe6080604052600436106101ee5760003560e01c8063715018a61161010d578063b88d4fde116100a0578063d96a094a1161006f578063d96a094a1461073a578063e985e9c514610756578063f2fde38b14610793578063f4812eb9146107bc578063fc3fc4ed146107f9576101ee565b8063b88d4fde1461066e578063b9a2de3a14610697578063c1e03728146106c0578063c87b56dd146106fd576101ee565b80639979ef45116100dc5780639979ef45146105af578063a22cb465146105cb578063ad81bd1c146105f4578063b54b4fb914610631576101ee565b8063715018a614610505578063836387101461051c5780638da5cb5b1461055957806395d89b4114610584576101ee565b80632f745c591161018557806361b8ce8c1161015457806361b8ce8c146104355780636352211e146104605780636c0360eb1461049d57806370a08231146104c8576101ee565b80632f745c591461036957806342842e0e146103a65780634f6ccce7146103cf5780634fee13fc1461040c576101ee565b8063095ea7b3116101c1578063095ea7b3146102c357806318160ddd146102ec57806323b872dd146103175780632e54bd4114610340576101ee565b806301ffc9a7146101f3578063067fa8fc1461023057806306fdde031461025b578063081812fc14610286575b600080fd5b3480156101ff57600080fd5b5061021a60048036038101906102159190613c34565b610836565b6040516102279190614b8c565b60405180910390f35b34801561023c57600080fd5b5061024561089d565b6040516102529190614fe2565b60405180910390f35b34801561026757600080fd5b506102706108a3565b60405161027d9190614ba7565b60405180910390f35b34801561029257600080fd5b506102ad60048036038101906102a89190613d15565b610945565b6040516102ba9190614a9c565b60405180910390f35b3480156102cf57600080fd5b506102ea60048036038101906102e59190613bf8565b6109ca565b005b3480156102f857600080fd5b50610301610ae2565b60405161030e9190614fe2565b60405180910390f35b34801561032357600080fd5b5061033e60048036038101906103399190613af2565b610af3565b005b34801561034c57600080fd5b5061036760048036038101906103629190613c86565b610b53565b005b34801561037557600080fd5b50610390600480360381019061038b9190613bf8565b610dd8565b60405161039d9190614fe2565b60405180910390f35b3480156103b257600080fd5b506103cd60048036038101906103c89190613af2565b610e33565b005b3480156103db57600080fd5b506103f660048036038101906103f19190613d15565b610e53565b6040516104039190614fe2565b60405180910390f35b34801561041857600080fd5b50610433600480360381019061042e9190613d3e565b610e76565b005b34801561044157600080fd5b5061044a61119c565b6040516104579190614fe2565b60405180910390f35b34801561046c57600080fd5b5061048760048036038101906104829190613d15565b6111a2565b6040516104949190614a9c565b60405180910390f35b3480156104a957600080fd5b506104b26111d9565b6040516104bf9190614ba7565b60405180910390f35b3480156104d457600080fd5b506104ef60048036038101906104ea9190613a8d565b61127b565b6040516104fc9190614fe2565b60405180910390f35b34801561051157600080fd5b5061051a61133a565b005b34801561052857600080fd5b50610543600480360381019061053e9190613d15565b611477565b6040516105509190614a9c565b60405180910390f35b34801561056557600080fd5b5061056e611489565b60405161057b9190614a9c565b60405180910390f35b34801561059057600080fd5b506105996114b3565b6040516105a69190614ba7565b60405180910390f35b6105c960048036038101906105c49190613d15565b611555565b005b3480156105d757600080fd5b506105f260048036038101906105ed9190613bbc565b611908565b005b34801561060057600080fd5b5061061b60048036038101906106169190613d15565b611a89565b6040516106289190614fa5565b60405180910390f35b34801561063d57600080fd5b5061065860048036038101906106539190613d15565b611b2a565b6040516106659190614fe2565b60405180910390f35b34801561067a57600080fd5b5061069560048036038101906106909190613b41565b611b47565b005b3480156106a357600080fd5b506106be60048036038101906106b99190613d15565b611ba9565b005b3480156106cc57600080fd5b506106e760048036038101906106e29190613d15565b612080565b6040516106f49190614fc0565b60405180910390f35b34801561070957600080fd5b50610724600480360381019061071f9190613d15565b61219b565b6040516107319190614ba7565b60405180910390f35b610754600480360381019061074f9190613d15565b61231e565b005b34801561076257600080fd5b5061077d60048036038101906107789190613ab6565b612473565b60405161078a9190614b8c565b60405180910390f35b34801561079f57600080fd5b506107ba60048036038101906107b59190613a8d565b612507565b005b3480156107c857600080fd5b506107e360048036038101906107de9190613d15565b6126b3565b6040516107f09190614fe2565b60405180910390f35b34801561080557600080fd5b50610820600480360381019061081b9190613d15565b6126cb565b60405161082d9190614f89565b60405180910390f35b6000806000837bffffffffffffffffffffffffffffffffffffffffffffffffffffffff19167bffffffffffffffffffffffffffffffffffffffffffffffffffffffff1916815260200190815260200160002060009054906101000a900460ff169050919050565b600c5481565b606060068054600181600116156101000203166002900480601f01602080910402602001604051908101604052809291908181526020018280546001816001161561010002031660029004801561093b5780601f106109105761010080835404028352916020019161093b565b820191906000526020600020905b81548152906001019060200180831161091e57829003601f168201915b5050505050905090565b60006109508261281e565b61098f576040517f08c379a000000000000000000000000000000000000000000000000000000000815260040161098690614e09565b60405180910390fd5b6004600083815260200190815260200160002060009054906101000a900473ffffffffffffffffffffffffffffffffffffffff169050919050565b60006109d5826111a2565b90508073ffffffffffffffffffffffffffffffffffffffff168373ffffffffffffffffffffffffffffffffffffffff161415610a46576040517f08c379a0000000000000000000000000000000000000000000000000000000008152600401610a3d90614ec9565b60405180910390fd5b8073ffffffffffffffffffffffffffffffffffffffff16610a6561283b565b73ffffffffffffffffffffffffffffffffffffffff161480610a945750610a9381610a8e61283b565b612473565b5b610ad3576040517f08c379a0000000000000000000000000000000000000000000000000000000008152600401610aca90614d69565b60405180910390fd5b610add8383612843565b505050565b6000610aee60026128fc565b905090565b610b04610afe61283b565b82612911565b610b43576040517f08c379a0000000000000000000000000000000000000000000000000000000008152600401610b3a90614ee9565b60405180910390fd5b610b4e8383836129ef565b505050565b610b5b61283b565b73ffffffffffffffffffffffffffffffffffffffff16610b79611489565b73ffffffffffffffffffffffffffffffffffffffff1614610bcf576040517f08c379a0000000000000000000000000000000000000000000000000000000008152600401610bc690614e69565b60405180910390fd5b600e85604051610bdf9190614a61565b908152602001604051809103902060010160009054906101000a900460ff1615610c3e576040517f08c379a0000000000000000000000000000000000000000000000000000000008152600401610c3590614c89565b60405180910390fd5b6040518060a001604052808681526020018560ff16815260200184815260200183815260200160011515815250600d6000600b5481526020019081526020016000206000820151816000019080519060200190610c9c9291906137da565b5060208201518160010160006101000a81548160ff021916908360ff160217905550604082015181600201556060820151816003015560808201518160040160006101000a81548160ff021916908315150217905550905050604051806040016040528086815260200160011515815250600e86604051610d1d9190614a61565b90815260200160405180910390206000820151816000019080519060200190610d479291906137da565b5060208201518160010160006101000a81548160ff0219169083151502179055509050508015610d9757662386f26fc10000600f6000600b54815260200190815260200160002081905550610db3565b6000600f6000600b548152602001908152602001600020819055505b610dbf33600b54612c06565b600b600081548092919060010191905055505050505050565b6000610e2b82600160008673ffffffffffffffffffffffffffffffffffffffff1673ffffffffffffffffffffffffffffffffffffffff168152602001908152602001600020612c2490919063ffffffff16565b905092915050565b610e4e83838360405180602001604052806000815250611b47565b505050565b600080610e6a836002612c3e90919063ffffffff16565b50905080915050919050565b60008142019050600d600084815260200190815260200160002060040160009054906101000a900460ff16610ee0576040517f08c379a0000000000000000000000000000000000000000000000000000000008152600401610ed790614bc9565b60405180910390fd5b6010600084815260200190815260200160002060060160009054906101000a900460ff1615610f44576040517f08c379a0000000000000000000000000000000000000000000000000000000008152600401610f3b90614dc9565b60405180910390fd5b610f4d836111a2565b73ffffffffffffffffffffffffffffffffffffffff163373ffffffffffffffffffffffffffffffffffffffff1614610fba576040517f08c379a0000000000000000000000000000000000000000000000000000000008152600401610fb190614d29565b60405180910390fd5b6040518061012001604052808481526020013373ffffffffffffffffffffffffffffffffffffffff168152602001600115158152602001600015158152602001828152602001838152602001600073ffffffffffffffffffffffffffffffffffffffff1681526020016000815260200160011515815250601060008581526020019081526020016000206000820151816000015560208201518160010160006101000a81548173ffffffffffffffffffffffffffffffffffffffff021916908373ffffffffffffffffffffffffffffffffffffffff16021790555060408201518160010160146101000a81548160ff02191690831515021790555060608201518160010160156101000a81548160ff0219169083151502179055506080820151816002015560a0820151816003015560c08201518160040160006101000a81548173ffffffffffffffffffffffffffffffffffffffff021916908373ffffffffffffffffffffffffffffffffffffffff16021790555060e082015181600501556101008201518160060160006101000a81548160ff0219169083151502179055509050507fc087c4cdb16906b5ff7016a6bf927618f24ff32eb1de5e86eeaeb08b94831a68338360405161118f929190614b03565b60405180910390a1505050565b600b5481565b60006111d2826040518060600160405280602981526020016152a3602991396002612c6a9092919063ffffffff16565b9050919050565b606060098054600181600116156101000203166002900480601f0160208091040260200160405190810160405280929190818152602001828054600181600116156101000203166002900480156112715780601f1061124657610100808354040283529160200191611271565b820191906000526020600020905b81548152906001019060200180831161125457829003601f168201915b5050505050905090565b60008073ffffffffffffffffffffffffffffffffffffffff168273ffffffffffffffffffffffffffffffffffffffff1614156112ec576040517f08c379a00000000000000000000000000000000000000000000000000000000081526004016112e390614d89565b60405180910390fd5b611333600160008473ffffffffffffffffffffffffffffffffffffffff1673ffffffffffffffffffffffffffffffffffffffff168152602001908152602001600020612c89565b9050919050565b61134261283b565b73ffffffffffffffffffffffffffffffffffffffff16611360611489565b73ffffffffffffffffffffffffffffffffffffffff16146113b6576040517f08c379a00000000000000000000000000000000000000000000000000000000081526004016113ad90614e69565b60405180910390fd5b600073ffffffffffffffffffffffffffffffffffffffff16600a60009054906101000a900473ffffffffffffffffffffffffffffffffffffffff1673ffffffffffffffffffffffffffffffffffffffff167f8be0079c531659141344cd1fd0a4f28419497f9722a3daafe3b4186f6b6457e060405160405180910390a36000600a60006101000a81548173ffffffffffffffffffffffffffffffffffffffff021916908373ffffffffffffffffffffffffffffffffffffffff160217905550565b6000611482826111a2565b9050919050565b6000600a60009054906101000a900473ffffffffffffffffffffffffffffffffffffffff16905090565b606060078054600181600116156101000203166002900480601f01602080910402602001604051908101604052809291908181526020018280546001816001161561010002031660029004801561154b5780601f106115205761010080835404028352916020019161154b565b820191906000526020600020905b81548152906001019060200180831161152e57829003601f168201915b5050505050905090565b61155d61385a565b611566826126cb565b90508061010001516115ad576040517f08c379a00000000000000000000000000000000000000000000000000000000081526004016115a490614e29565b60405180910390fd5b600f6000838152602001908152602001600020543411611602576040517f08c379a00000000000000000000000000000000000000000000000000000000081526004016115f990614d49565b60405180910390fd5b8060e001513411611648576040517f08c379a000000000000000000000000000000000000000000000000000000000815260040161163f90614f69565b60405180910390fd5b348160e0018181525050338160c0019073ffffffffffffffffffffffffffffffffffffffff16908173ffffffffffffffffffffffffffffffffffffffff168152505080601060008481526020019081526020016000206000820151816000015560208201518160010160006101000a81548173ffffffffffffffffffffffffffffffffffffffff021916908373ffffffffffffffffffffffffffffffffffffffff16021790555060408201518160010160146101000a81548160ff02191690831515021790555060608201518160010160156101000a81548160ff0219169083151502179055506080820151816002015560a0820151816003015560c08201518160040160006101000a81548173ffffffffffffffffffffffffffffffffffffffff021916908373ffffffffffffffffffffffffffffffffffffffff16021790555060e082015181600501556101008201518160060160006101000a81548160ff02191690831515021790555090505034601160003373ffffffffffffffffffffffffffffffffffffffff1673ffffffffffffffffffffffffffffffffffffffff168152602001908152602001600020600082825401925050819055507fde11ebd9a4f52f9d475e408266bfa5a8a50ebd212fd91bc37f6b438b7aaa6ad53334604051611836929190614b03565b60405180910390a160405180608001604052808381526020013373ffffffffffffffffffffffffffffffffffffffff1681526020013481526020014281525060126000600c5481526020019081526020016000206000820151816000015560208201518160010160006101000a81548173ffffffffffffffffffffffffffffffffffffffff021916908373ffffffffffffffffffffffffffffffffffffffff1602179055506040820151816002015560608201518160030155905050600c600081548092919060010191905055505050565b61191061283b565b73ffffffffffffffffffffffffffffffffffffffff168273ffffffffffffffffffffffffffffffffffffffff16141561197e576040517f08c379a000000000000000000000000000000000000000000000000000000000815260040161197590614cc9565b60405180910390fd5b806005600061198b61283b565b73ffffffffffffffffffffffffffffffffffffffff1673ffffffffffffffffffffffffffffffffffffffff16815260200190815260200160002060008473ffffffffffffffffffffffffffffffffffffffff1673ffffffffffffffffffffffffffffffffffffffff16815260200190815260200160002060006101000a81548160ff0219169083151502179055508173ffffffffffffffffffffffffffffffffffffffff16611a3861283b565b73ffffffffffffffffffffffffffffffffffffffff167f17307eab39ab6107e8899845ad3d59bd9653f200f220920489ca2b5937696c3183604051611a7d9190614b8c565b60405180910390a35050565b611a916138d8565b60126000838152602001908152602001600020604051806080016040529081600082015481526020016001820160009054906101000a900473ffffffffffffffffffffffffffffffffffffffff1673ffffffffffffffffffffffffffffffffffffffff1673ffffffffffffffffffffffffffffffffffffffff168152602001600282015481526020016003820154815250509050919050565b6000600f6000838152602001908152602001600020549050919050565b611b58611b5261283b565b83612911565b611b97576040517f08c379a0000000000000000000000000000000000000000000000000000000008152600401611b8e90614ee9565b60405180910390fd5b611ba384848484612c9e565b50505050565b611bb161385a565b611bba826126cb565b9050806101000151611c01576040517f08c379a0000000000000000000000000000000000000000000000000000000008152600401611bf890614e29565b60405180910390fd5b8060800151421015611c48576040517f08c379a0000000000000000000000000000000000000000000000000000000008152600401611c3f90614f29565b60405180910390fd5b806060015115611c8d576040517f08c379a0000000000000000000000000000000000000000000000000000000008152600401611c8490614f49565b60405180910390fd5b60008160e001511415611e30576001816060019015159081151581525050600081604001901515908115158152505080601060008481526020019081526020016000206000820151816000015560208201518160010160006101000a81548173ffffffffffffffffffffffffffffffffffffffff021916908373ffffffffffffffffffffffffffffffffffffffff16021790555060408201518160010160146101000a81548160ff02191690831515021790555060608201518160010160156101000a81548160ff0219169083151502179055506080820151816002015560a0820151816003015560c08201518160040160006101000a81548173ffffffffffffffffffffffffffffffffffffffff021916908373ffffffffffffffffffffffffffffffffffffffff16021790555060e082015181600501556101008201518160060160006101000a81548160ff0219169083151502179055509050507fdaec4582d5d9595688c8c98545fdd1c696d41c6aeaeb636737e84ed2f5c00eda8160c001518260e00151604051611e23929190614b63565b60405180910390a161207c565b60018160600190151590811515815250506000816040019015159081151581525050806020015173ffffffffffffffffffffffffffffffffffffffff166108fc8260e001519081150290604051600060405180830381858888f19350505050158015611ea0573d6000803e3d6000fd5b50611eb481602001518260c00151846129ef565b8060c00151816020019073ffffffffffffffffffffffffffffffffffffffff16908173ffffffffffffffffffffffffffffffffffffffff168152505080601060008481526020019081526020016000206000820151816000015560208201518160010160006101000a81548173ffffffffffffffffffffffffffffffffffffffff021916908373ffffffffffffffffffffffffffffffffffffffff16021790555060408201518160010160146101000a81548160ff02191690831515021790555060608201518160010160156101000a81548160ff0219169083151502179055506080820151816002015560a0820151816003015560c08201518160040160006101000a81548173ffffffffffffffffffffffffffffffffffffffff021916908373ffffffffffffffffffffffffffffffffffffffff16021790555060e082015181600501556101008201518160060160006101000a81548160ff0219169083151502179055509050508060e00151600f6000848152602001908152602001600020819055507fdaec4582d5d9595688c8c98545fdd1c696d41c6aeaeb636737e84ed2f5c00eda8160c001518260e00151604051612073929190614b63565b60405180910390a15b5050565b612088613916565b600d60008381526020019081526020016000206040518060a0016040529081600082018054600181600116156101000203166002900480601f01602080910402602001604051908101604052809291908181526020018280546001816001161561010002031660029004801561213f5780601f106121145761010080835404028352916020019161213f565b820191906000526020600020905b81548152906001019060200180831161212257829003601f168201915b505050505081526020016001820160009054906101000a900460ff1660ff1660ff16815260200160028201548152602001600382015481526020016004820160009054906101000a900460ff1615151515815250509050919050565b60606121a68261281e565b6121e5576040517f08c379a00000000000000000000000000000000000000000000000000000000081526004016121dc90614ea9565b60405180910390fd5b6060600860008481526020019081526020016000208054600181600116156101000203166002900480601f01602080910402602001604051908101604052809291908181526020018280546001816001161561010002031660029004801561228e5780601f106122635761010080835404028352916020019161228e565b820191906000526020600020905b81548152906001019060200180831161227157829003601f168201915b50505050509050606061229f6111d9565b90506000815114156122b5578192505050612319565b6000825111156122ea5780826040516020016122d2929190614a78565b60405160208183030381529060405292505050612319565b806122f485612cfa565b604051602001612305929190614a78565b604051602081830303815290604052925050505b919050565b6000600f600083815260200190815260200160002054905060008111612379576040517f08c379a000000000000000000000000000000000000000000000000000000000815260040161237090614c29565b60405180910390fd5b8034146123bb576040517f08c379a00000000000000000000000000000000000000000000000000000000081526004016123b290614e49565b60405180910390fd5b60006123c6836111a2565b90506123d38133856129ef565b6000600f6000858152602001908152602001600020819055508073ffffffffffffffffffffffffffffffffffffffff166108fc349081150290604051600060405180830381858888f19350505050158015612432573d6000803e3d6000fd5b507f608f6ac9327c2bf4d3c77adf447d2c448ba7b0971e0aaa9aa03f7ac29d874a4481333460405161246693929190614b2c565b60405180910390a1505050565b6000600560008473ffffffffffffffffffffffffffffffffffffffff1673ffffffffffffffffffffffffffffffffffffffff16815260200190815260200160002060008373ffffffffffffffffffffffffffffffffffffffff1673ffffffffffffffffffffffffffffffffffffffff16815260200190815260200160002060009054906101000a900460ff16905092915050565b61250f61283b565b73ffffffffffffffffffffffffffffffffffffffff1661252d611489565b73ffffffffffffffffffffffffffffffffffffffff1614612583576040517f08c379a000000000000000000000000000000000000000000000000000000000815260040161257a90614e69565b60405180910390fd5b600073ffffffffffffffffffffffffffffffffffffffff168173ffffffffffffffffffffffffffffffffffffffff1614156125f3576040517f08c379a00000000000000000000000000000000000000000000000000000000081526004016125ea90614c49565b60405180910390fd5b8073ffffffffffffffffffffffffffffffffffffffff16600a60009054906101000a900473ffffffffffffffffffffffffffffffffffffffff1673ffffffffffffffffffffffffffffffffffffffff167f8be0079c531659141344cd1fd0a4f28419497f9722a3daafe3b4186f6b6457e060405160405180910390a380600a60006101000a81548173ffffffffffffffffffffffffffffffffffffffff021916908373ffffffffffffffffffffffffffffffffffffffff16021790555050565b600f6020528060005260406000206000915090505481565b6126d361385a565b6010600083815260200190815260200160002060405180610120016040529081600082015481526020016001820160009054906101000a900473ffffffffffffffffffffffffffffffffffffffff1673ffffffffffffffffffffffffffffffffffffffff1673ffffffffffffffffffffffffffffffffffffffff1681526020016001820160149054906101000a900460ff161515151581526020016001820160159054906101000a900460ff1615151515815260200160028201548152602001600382015481526020016004820160009054906101000a900473ffffffffffffffffffffffffffffffffffffffff1673ffffffffffffffffffffffffffffffffffffffff1673ffffffffffffffffffffffffffffffffffffffff168152602001600582015481526020016006820160009054906101000a900460ff1615151515815250509050919050565b6000612834826002612e4190919063ffffffff16565b9050919050565b600033905090565b816004600083815260200190815260200160002060006101000a81548173ffffffffffffffffffffffffffffffffffffffff021916908373ffffffffffffffffffffffffffffffffffffffff160217905550808273ffffffffffffffffffffffffffffffffffffffff166128b6836111a2565b73ffffffffffffffffffffffffffffffffffffffff167f8c5be1e5ebec7d5bd14f71427d1e84f3dd0314c0f7b2291e5b200ac8c7c3b92560405160405180910390a45050565b600061290a82600001612e5b565b9050919050565b600061291c8261281e565b61295b576040517f08c379a000000000000000000000000000000000000000000000000000000000815260040161295290614d09565b60405180910390fd5b6000612966836111a2565b90508073ffffffffffffffffffffffffffffffffffffffff168473ffffffffffffffffffffffffffffffffffffffff1614806129d557508373ffffffffffffffffffffffffffffffffffffffff166129bd84610945565b73ffffffffffffffffffffffffffffffffffffffff16145b806129e657506129e58185612473565b5b91505092915050565b8273ffffffffffffffffffffffffffffffffffffffff16612a0f826111a2565b73ffffffffffffffffffffffffffffffffffffffff1614612a65576040517f08c379a0000000000000000000000000000000000000000000000000000000008152600401612a5c90614e89565b60405180910390fd5b600073ffffffffffffffffffffffffffffffffffffffff168273ffffffffffffffffffffffffffffffffffffffff161415612ad5576040517f08c379a0000000000000000000000000000000000000000000000000000000008152600401612acc90614ca9565b60405180910390fd5b612ae0838383612e6c565b612aeb600082612843565b612b3c81600160008673ffffffffffffffffffffffffffffffffffffffff1673ffffffffffffffffffffffffffffffffffffffff168152602001908152602001600020612e7190919063ffffffff16565b50612b8e81600160008573ffffffffffffffffffffffffffffffffffffffff1673ffffffffffffffffffffffffffffffffffffffff168152602001908152602001600020612e8b90919063ffffffff16565b50612ba581836002612ea59092919063ffffffff16565b50808273ffffffffffffffffffffffffffffffffffffffff168473ffffffffffffffffffffffffffffffffffffffff167fddf252ad1be2c89b69c2b068fc378daa952ba7f163c4a11628f55a4df523b3ef60405160405180910390a4505050565b612c20828260405180602001604052806000815250612eda565b5050565b6000612c338360000183612f35565b60001c905092915050565b600080600080612c518660000186612fa2565b915091508160001c8160001c9350935050509250929050565b6000612c7d846000018460001b84613025565b60001c90509392505050565b6000612c97826000016130b6565b9050919050565b612ca98484846129ef565b612cb5848484846130c7565b612cf4576040517f08c379a0000000000000000000000000000000000000000000000000000000008152600401612ceb90614c09565b60405180910390fd5b50505050565b60606000821415612d42576040518060400160405280600181526020017f30000000000000000000000000000000000000000000000000000000000000008152509050612e3c565b600082905060005b60008214612d6c578080600101915050600a8281612d6457fe5b049150612d4a565b60608167ffffffffffffffff81118015612d8557600080fd5b506040519080825280601f01601f191660200182016040528015612db85781602001600182028036833780820191505090505b50905060006001830390508593505b60008414612e3457600a8481612dd957fe5b0660300160f81b82828060019003935081518110612df357fe5b60200101907effffffffffffffffffffffffffffffffffffffffffffffffffffffffffffff1916908160001a905350600a8481612e2c57fe5b049350612dc7565b819450505050505b919050565b6000612e53836000018360001b61322b565b905092915050565b600081600001805490509050919050565b505050565b6000612e83836000018360001b61324e565b905092915050565b6000612e9d836000018360001b613336565b905092915050565b6000612ed1846000018460001b8473ffffffffffffffffffffffffffffffffffffffff1660001b6133a6565b90509392505050565b612ee48383613482565b612ef160008484846130c7565b612f30576040517f08c379a0000000000000000000000000000000000000000000000000000000008152600401612f2790614c09565b60405180910390fd5b505050565b600081836000018054905011612f80576040517f08c379a0000000000000000000000000000000000000000000000000000000008152600401612f7790614be9565b60405180910390fd5b826000018281548110612f8f57fe5b9060005260206000200154905092915050565b60008082846000018054905011612fee576040517f08c379a0000000000000000000000000000000000000000000000000000000008152600401612fe590614da9565b60405180910390fd5b6000846000018481548110612fff57fe5b906000526020600020906002020190508060000154816001015492509250509250929050565b60008084600101600085815260200190815260200160002054905060008114158390613087576040517f08c379a000000000000000000000000000000000000000000000000000000000815260040161307e9190614ba7565b60405180910390fd5b5084600001600182038154811061309a57fe5b9060005260206000209060020201600101549150509392505050565b600081600001805490509050919050565b60006130e88473ffffffffffffffffffffffffffffffffffffffff16613610565b6130f55760019050613223565b60606131bc63150b7a0260e01b61310a61283b565b8887876040516024016131209493929190614ab7565b604051602081830303815290604052907bffffffffffffffffffffffffffffffffffffffffffffffffffffffff19166020820180517bffffffffffffffffffffffffffffffffffffffffffffffffffffffff8381831617835250505050604051806060016040528060328152602001615271603291398773ffffffffffffffffffffffffffffffffffffffff166136239092919063ffffffff16565b90506000818060200190518101906131d49190613c5d565b905063150b7a0260e01b7bffffffffffffffffffffffffffffffffffffffffffffffffffffffff1916817bffffffffffffffffffffffffffffffffffffffffffffffffffffffff191614925050505b949350505050565b600080836001016000848152602001908152602001600020541415905092915050565b6000808360010160008481526020019081526020016000205490506000811461332a576000600182039050600060018660000180549050039050600086600001828154811061329957fe5b90600052602060002001549050808760000184815481106132b657fe5b90600052602060002001819055506001830187600101600083815260200190815260200160002081905550866000018054806132ee57fe5b60019003818190600052602060002001600090559055866001016000878152602001908152602001600020600090556001945050505050613330565b60009150505b92915050565b6000613342838361363b565b61339b5782600001829080600181540180825580915050600190039060005260206000200160009091909190915055826000018054905083600101600084815260200190815260200160002081905550600190506133a0565b600090505b92915050565b600080846001016000858152602001908152602001600020549050600081141561344d5784600001604051806040016040528086815260200185815250908060018154018082558091505060019003906000526020600020906002020160009091909190915060008201518160000155602082015181600101555050846000018054905085600101600086815260200190815260200160002081905550600191505061347b565b8285600001600183038154811061346057fe5b90600052602060002090600202016001018190555060009150505b9392505050565b600073ffffffffffffffffffffffffffffffffffffffff168273ffffffffffffffffffffffffffffffffffffffff1614156134f2576040517f08c379a00000000000000000000000000000000000000000000000000000000081526004016134e990614de9565b60405180910390fd5b6134fb8161281e565b1561353b576040517f08c379a000000000000000000000000000000000000000000000000000000000815260040161353290614c69565b60405180910390fd5b61354760008383612e6c565b61359881600160008573ffffffffffffffffffffffffffffffffffffffff1673ffffffffffffffffffffffffffffffffffffffff168152602001908152602001600020612e8b90919063ffffffff16565b506135af81836002612ea59092919063ffffffff16565b50808273ffffffffffffffffffffffffffffffffffffffff16600073ffffffffffffffffffffffffffffffffffffffff167fddf252ad1be2c89b69c2b068fc378daa952ba7f163c4a11628f55a4df523b3ef60405160405180910390a45050565b600080823b905060008111915050919050565b6060613632848460008561365e565b90509392505050565b600080836001016000848152602001908152602001600020541415905092915050565b6060824710156136a3576040517f08c379a000000000000000000000000000000000000000000000000000000000815260040161369a90614ce9565b60405180910390fd5b6136ac85613610565b6136eb576040517f08c379a00000000000000000000000000000000000000000000000000000000081526004016136e290614f09565b60405180910390fd5b600060608673ffffffffffffffffffffffffffffffffffffffff1685876040516137159190614a4a565b60006040518083038185875af1925050503d8060008114613752576040519150601f19603f3d011682016040523d82523d6000602084013e613757565b606091505b5091509150613767828286613773565b92505050949350505050565b60608315613783578290506137d3565b6000835111156137965782518084602001fd5b816040517f08c379a00000000000000000000000000000000000000000000000000000000081526004016137ca9190614ba7565b60405180910390fd5b9392505050565b828054600181600116156101000203166002900490600052602060002090601f016020900481019282601f1061381b57805160ff1916838001178555613849565b82800160010185558215613849579182015b8281111561384857825182559160200191906001019061382d565b5b509050613856919061394a565b5090565b60405180610120016040528060008152602001600073ffffffffffffffffffffffffffffffffffffffff1681526020016000151581526020016000151581526020016000815260200160008152602001600073ffffffffffffffffffffffffffffffffffffffff168152602001600081526020016000151581525090565b604051806080016040528060008152602001600073ffffffffffffffffffffffffffffffffffffffff16815260200160008152602001600081525090565b6040518060a0016040528060608152602001600060ff16815260200160008152602001600081526020016000151581525090565b5b8082111561396357600081600090555060010161394b565b5090565b600081359050613976816151fd565b92915050565b60008135905061398b81615214565b92915050565b6000813590506139a08161522b565b92915050565b6000815190506139b58161522b565b92915050565b600082601f8301126139cc57600080fd5b81356139df6139da8261502a565b614ffd565b915080825260208301602083018583830111156139fb57600080fd5b613a068382846151aa565b50505092915050565b600082601f830112613a2057600080fd5b8135613a33613a2e82615056565b614ffd565b91508082526020830160208301858383011115613a4f57600080fd5b613a5a8382846151aa565b50505092915050565b600081359050613a7281615242565b92915050565b600081359050613a8781615259565b92915050565b600060208284031215613a9f57600080fd5b6000613aad84828501613967565b91505092915050565b60008060408385031215613ac957600080fd5b6000613ad785828601613967565b9250506020613ae885828601613967565b9150509250929050565b600080600060608486031215613b0757600080fd5b6000613b1586828701613967565b9350506020613b2686828701613967565b9250506040613b3786828701613a63565b9150509250925092565b60008060008060808587031215613b5757600080fd5b6000613b6587828801613967565b9450506020613b7687828801613967565b9350506040613b8787828801613a63565b925050606085013567ffffffffffffffff811115613ba457600080fd5b613bb0878288016139bb565b91505092959194509250565b60008060408385031215613bcf57600080fd5b6000613bdd85828601613967565b9250506020613bee8582860161397c565b9150509250929050565b60008060408385031215613c0b57600080fd5b6000613c1985828601613967565b9250506020613c2a85828601613a63565b9150509250929050565b600060208284031215613c4657600080fd5b6000613c5484828501613991565b91505092915050565b600060208284031215613c6f57600080fd5b6000613c7d848285016139a6565b91505092915050565b600080600080600060a08688031215613c9e57600080fd5b600086013567ffffffffffffffff811115613cb857600080fd5b613cc488828901613a0f565b9550506020613cd588828901613a78565b9450506040613ce688828901613a63565b9350506060613cf788828901613a63565b9250506080613d088882890161397c565b9150509295509295909350565b600060208284031215613d2757600080fd5b6000613d3584828501613a63565b91505092915050565b60008060408385031215613d5157600080fd5b6000613d5f85828601613a63565b9250506020613d7085828601613a63565b9150509250929050565b613d8381615174565b82525050565b613d92816150f3565b82525050565b613da1816150e1565b82525050565b613db0816150e1565b82525050565b613dbf81615105565b82525050565b613dce81615105565b82525050565b6000613ddf82615082565b613de98185615098565b9350613df98185602086016151b9565b613e02816151ec565b840191505092915050565b6000613e1882615082565b613e2281856150a9565b9350613e328185602086016151b9565b80840191505092915050565b6000613e498261508d565b613e5381856150b4565b9350613e638185602086016151b9565b613e6c816151ec565b840191505092915050565b6000613e828261508d565b613e8c81856150c5565b9350613e9c8185602086016151b9565b613ea5816151ec565b840191505092915050565b6000613ebb8261508d565b613ec581856150d6565b9350613ed58185602086016151b9565b80840191505092915050565b6000613eee6013836150c5565b91507f546f6b656e20646f65736e2774206578697374000000000000000000000000006000830152602082019050919050565b6000613f2e6022836150c5565b91507f456e756d657261626c655365743a20696e646578206f7574206f6620626f756e60008301527f64730000000000000000000000000000000000000000000000000000000000006020830152604082019050919050565b6000613f946032836150c5565b91507f4552433732313a207472616e7366657220746f206e6f6e20455243373231526560008301527f63656976657220696d706c656d656e74657200000000000000000000000000006020830152604082019050919050565b6000613ffa601a836150c5565b91507f5468697320746f6b656e206973206e6f7420666f722073616c650000000000006000830152602082019050919050565b600061403a6026836150c5565b91507f4f776e61626c653a206e6577206f776e657220697320746865207a65726f206160008301527f64647265737300000000000000000000000000000000000000000000000000006020830152604082019050919050565b60006140a0601c836150c5565b91507f4552433732313a20746f6b656e20616c7265616479206d696e746564000000006000830152602082019050919050565b60006140e06017836150c5565b91507f4c6f636174696f6e20616c7265616479206d696e7465640000000000000000006000830152602082019050919050565b60006141206024836150c5565b91507f4552433732313a207472616e7366657220746f20746865207a65726f2061646460008301527f72657373000000000000000000000000000000000000000000000000000000006020830152604082019050919050565b60006141866019836150c5565b91507f4552433732313a20617070726f766520746f2063616c6c6572000000000000006000830152602082019050919050565b60006141c66026836150c5565b91507f416464726573733a20696e73756666696369656e742062616c616e636520666f60008301527f722063616c6c00000000000000000000000000000000000000000000000000006020830152604082019050919050565b600061422c602c836150c5565b91507f4552433732313a206f70657261746f7220717565727920666f72206e6f6e657860008301527f697374656e7420746f6b656e00000000000000000000000000000000000000006020830152604082019050919050565b6000614292602c836150c5565b91507f43616e6e6f742073746172742061756374696f6e20666f7220746f6b656e207960008301527f6f7520646f6e2774206f776e00000000000000000000000000000000000000006020830152604082019050919050565b60006142f86018836150c5565b91507f426964207072696365206d7573742062652068696768657200000000000000006000830152602082019050919050565b60006143386038836150c5565b91507f4552433732313a20617070726f76652063616c6c6572206973206e6f74206f7760008301527f6e6572206e6f7220617070726f76656420666f7220616c6c00000000000000006020830152604082019050919050565b600061439e602a836150c5565b91507f4552433732313a2062616c616e636520717565727920666f7220746865207a6560008301527f726f2061646472657373000000000000000000000000000000000000000000006020830152604082019050919050565b60006144046022836150c5565b91507f456e756d657261626c654d61703a20696e646578206f7574206f6620626f756e60008301527f64730000000000000000000000000000000000000000000000000000000000006020830152604082019050919050565b600061446a6017836150c5565b91507f41756374696f6e20616c726561647920737461727465640000000000000000006000830152602082019050919050565b60006144aa6020836150c5565b91507f4552433732313a206d696e7420746f20746865207a65726f20616464726573736000830152602082019050919050565b60006144ea602c836150c5565b91507f4552433732313a20617070726f76656420717565727920666f72206e6f6e657860008301527f697374656e7420746f6b656e00000000000000000000000000000000000000006020830152604082019050919050565b60006145506015836150c5565b91507f41756374696f6e20646f65736e277420657869737400000000000000000000006000830152602082019050919050565b6000614590600f836150c5565b91507f496e636f72726563742076616c756500000000000000000000000000000000006000830152602082019050919050565b60006145d06020836150c5565b91507f4f776e61626c653a2063616c6c6572206973206e6f7420746865206f776e65726000830152602082019050919050565b60006146106029836150c5565b91507f4552433732313a207472616e73666572206f6620746f6b656e2074686174206960008301527f73206e6f74206f776e00000000000000000000000000000000000000000000006020830152604082019050919050565b6000614676602f836150c5565b91507f4552433732314d657461646174613a2055524920717565727920666f72206e6f60008301527f6e6578697374656e7420746f6b656e00000000000000000000000000000000006020830152604082019050919050565b60006146dc6021836150c5565b91507f4552433732313a20617070726f76616c20746f2063757272656e74206f776e6560008301527f72000000000000000000000000000000000000000000000000000000000000006020830152604082019050919050565b60006147426031836150c5565b91507f4552433732313a207472616e736665722063616c6c6572206973206e6f74206f60008301527f776e6572206e6f7220617070726f7665640000000000000000000000000000006020830152604082019050919050565b60006147a8601d836150c5565b91507f416464726573733a2063616c6c20746f206e6f6e2d636f6e74726163740000006000830152602082019050919050565b60006147e8601d836150c5565b91507f5468652061756374696f6e20686173206e6f7420656e646564207965740000006000830152602082019050919050565b60006148286015836150c5565b91507f5468652061756374696f6e2068617320656e64656400000000000000000000006000830152602082019050919050565b60006148686011836150c5565b91507f48696768657220626964206578697374730000000000000000000000000000006000830152602082019050919050565b610120820160008201516148b26000850182614a1d565b5060208201516148c56020850182613d98565b5060408201516148d86040850182613db6565b5060608201516148eb6060850182613db6565b5060808201516148fe6080850182614a1d565b5060a082015161491160a0850182614a1d565b5060c082015161492460c0850182613d98565b5060e082015161493760e0850182614a1d565b5061010082015161494c610100850182613db6565b50505050565b6080820160008201516149686000850182614a1d565b50602082015161497b6020850182613d98565b50604082015161498e6040850182614a1d565b5060608201516149a16060850182614a1d565b50505050565b600060a08301600083015184820360008601526149c48282613e3e565b91505060208301516149d96020860182614a3b565b5060408301516149ec6040860182614a1d565b5060608301516149ff6060860182614a1d565b506080830151614a126080860182613db6565b508091505092915050565b614a268161515d565b82525050565b614a358161515d565b82525050565b614a4481615167565b82525050565b6000614a568284613e0d565b915081905092915050565b6000614a6d8284613eb0565b915081905092915050565b6000614a848285613eb0565b9150614a908284613eb0565b91508190509392505050565b6000602082019050614ab16000830184613da7565b92915050565b6000608082019050614acc6000830187613d89565b614ad96020830186613da7565b614ae66040830185614a2c565b8181036060830152614af88184613dd4565b905095945050505050565b6000604082019050614b186000830185613d7a565b614b256020830184614a2c565b9392505050565b6000606082019050614b416000830186613da7565b614b4e6020830185613d7a565b614b5b6040830184614a2c565b949350505050565b6000604082019050614b786000830185613da7565b614b856020830184614a2c565b9392505050565b6000602082019050614ba16000830184613dc5565b92915050565b60006020820190508181036000830152614bc18184613e77565b905092915050565b60006020820190508181036000830152614be281613ee1565b9050919050565b60006020820190508181036000830152614c0281613f21565b9050919050565b60006020820190508181036000830152614c2281613f87565b9050919050565b60006020820190508181036000830152614c4281613fed565b9050919050565b60006020820190508181036000830152614c628161402d565b9050919050565b60006020820190508181036000830152614c8281614093565b9050919050565b60006020820190508181036000830152614ca2816140d3565b9050919050565b60006020820190508181036000830152614cc281614113565b9050919050565b60006020820190508181036000830152614ce281614179565b9050919050565b60006020820190508181036000830152614d02816141b9565b9050919050565b60006020820190508181036000830152614d228161421f565b9050919050565b60006020820190508181036000830152614d4281614285565b9050919050565b60006020820190508181036000830152614d62816142eb565b9050919050565b60006020820190508181036000830152614d828161432b565b9050919050565b60006020820190508181036000830152614da281614391565b9050919050565b60006020820190508181036000830152614dc2816143f7565b9050919050565b60006020820190508181036000830152614de28161445d565b9050919050565b60006020820190508181036000830152614e028161449d565b9050919050565b60006020820190508181036000830152614e22816144dd565b9050919050565b60006020820190508181036000830152614e4281614543565b9050919050565b60006020820190508181036000830152614e6281614583565b9050919050565b60006020820190508181036000830152614e82816145c3565b9050919050565b60006020820190508181036000830152614ea281614603565b9050919050565b60006020820190508181036000830152614ec281614669565b9050919050565b60006020820190508181036000830152614ee2816146cf565b9050919050565b60006020820190508181036000830152614f0281614735565b9050919050565b60006020820190508181036000830152614f228161479b565b9050919050565b60006020820190508181036000830152614f42816147db565b9050919050565b60006020820190508181036000830152614f628161481b565b9050919050565b60006020820190508181036000830152614f828161485b565b9050919050565b600061012082019050614f9f600083018461489b565b92915050565b6000608082019050614fba6000830184614952565b92915050565b60006020820190508181036000830152614fda81846149a7565b905092915050565b6000602082019050614ff76000830184614a2c565b92915050565b6000604051905081810181811067ffffffffffffffff8211171561502057600080fd5b8060405250919050565b600067ffffffffffffffff82111561504157600080fd5b601f19601f8301169050602081019050919050565b600067ffffffffffffffff82111561506d57600080fd5b601f19601f8301169050602081019050919050565b600081519050919050565b600081519050919050565b600082825260208201905092915050565b600081905092915050565b600082825260208201905092915050565b600082825260208201905092915050565b600081905092915050565b60006150ec8261513d565b9050919050565b60006150fe8261513d565b9050919050565b60008115159050919050565b60007fffffffff0000000000000000000000000000000000000000000000000000000082169050919050565b600073ffffffffffffffffffffffffffffffffffffffff82169050919050565b6000819050919050565b600060ff82169050919050565b600061517f82615186565b9050919050565b600061519182615198565b9050919050565b60006151a38261513d565b9050919050565b82818337600083830152505050565b60005b838110156151d75780820151818401526020810190506151bc565b838111156151e6576000848401525b50505050565b6000601f19601f8301169050919050565b615206816150e1565b811461521157600080fd5b50565b61521d81615105565b811461522857600080fd5b50565b61523481615111565b811461523f57600080fd5b50565b61524b8161515d565b811461525657600080fd5b50565b61526281615167565b811461526d57600080fd5b5056fe4552433732313a207472616e7366657220746f206e6f6e20455243373231526563656976657220696d706c656d656e7465724552433732313a206f776e657220717565727920666f72206e6f6e6578697374656e7420746f6b656ea2646970667358221220352a40f607d9adbf1830a43108fe59d0587feec44cece6fe8b4099c46dcca5ee64736f6c634300060c0033",
  "immutableReferences": {},
  "source": "// truffle migrate --reset --network rinkeby --skip-dry-run\r\npragma solidity =0.6.12;\r\npragma experimental ABIEncoderV2;\r\n\r\nimport \"@openzeppelin/contracts/token/ERC721/ERC721.sol\";\r\nimport \"@openzeppelin/contracts/access/Ownable.sol\";\r\n\r\ncontract LocationNFT is ERC721, Ownable {\r\n\tconstructor() ERC721(\"UniqueAsset\", \"UNA\") public {\r\n\r\n\t}\r\n\r\n\tstruct Location {\r\n\t\tstring location_name; //0-255\r\n\t\tuint8 locn_type;\r\n\t\tuint256 latitude;\r\n\t\tuint256 longitude;\r\n\t\tbool isExist;\r\n\t}\r\n\tstruct LocationName {\r\n\t    string location_name;\r\n\t    bool isExist;\r\n\t}\r\n\tstruct Auction {\r\n\t    uint256 tokenId;\r\n\t    address beneficiary;\r\n\t    bool auctionGoingOn;\r\n\t\tbool auctionEnded;\r\n\t    uint auctionEndTime;\r\n\t\tuint biddingTime;\r\n\t    address highestBidder;\r\n\t    uint highestBid;\r\n\t    bool isExist;\r\n\t}\r\n\tstruct Bid {\r\n\t\tuint256 tokenId;\r\n\t\taddress bidder;\r\n\t\tuint bidValue;\r\n\t\tuint timeBid;\r\n\t}\r\n\r\n\tuint public nextId = 0;\r\n\tuint public acceptedBidsIdx = 0;\r\n\r\n\tevent NftBought(address _seller, address _buyer, uint256 _price);\r\n\tevent AuctionStarted(address ownerAddress, uint _biddingTime);\r\n\tevent BidIncrease(address bidAddress, uint256 bidValue);\r\n\tevent AuctionEnded(address bidAddress, uint256 bidValue);\r\n\r\n\tmapping(uint256 => Location) private _locationDetails;\r\n\tmapping(string => LocationName) private _locationNames;\r\n\tmapping(uint256 => uint256) public tokenIdToPrice;\r\n\tmapping(uint256 => Auction) private _auctions;\r\n\tmapping(address => uint) private _pendingReturns;\r\n\tmapping(uint256 => Bid) private _biddingLogs;\r\n\t\r\n\tfunction getTokenDetails(uint256 tokenId) public view returns (Location memory) {\r\n\t\treturn _locationDetails[tokenId];\r\n\t}\r\n\r\n\tfunction getPriceOf(uint256 tokenId) public view returns (uint256) {\r\n\t\treturn tokenIdToPrice[tokenId];\r\n\t}\r\n\r\n\tfunction getOwnerOf(uint256 tokenId) public view returns (address){\r\n\t\treturn ownerOf(tokenId);\r\n\t}\r\n\t\r\n\tfunction getAuctionInfo(uint256 tokenId) public view returns(Auction memory) {\r\n\t    return _auctions[tokenId];\r\n\t}\r\n\r\n\tfunction getBiddingLog(uint256 bidId) public view returns(Bid memory) {\r\n\t\treturn _biddingLogs[bidId];\r\n\t}\r\n\r\n\tfunction mint(string memory location_name, uint8 locn_type, uint256 latitude, uint256 longitude, bool isSellable) public onlyOwner {\r\n\t    require(!_locationNames[location_name].isExist, \"Location already minted\");\r\n\t\t_locationDetails[nextId] = Location(location_name, locn_type, latitude, longitude, true);\r\n\t\t_locationNames[location_name] = LocationName(location_name, true);\r\n\t\tif (isSellable) {\r\n\t\t\ttokenIdToPrice[nextId] = 10000000000000000; //2000 wei\r\n\t\t} else {\r\n\t\t\ttokenIdToPrice[nextId] = 0;\r\n\t\t}\r\n\t\t//safeMint function calls _beforeTokenTransfer which we have overridden.\r\n\t\t_safeMint(msg.sender, nextId);\r\n\t\tnextId++;\r\n\t}\r\n\r\n\tfunction _beforeTokenTransfer(address from, address to, uint256 tokenId) internal override { \r\n\t\t\r\n\t}\r\n\r\n\tfunction buy(uint256 _tokenId) external payable {\r\n\t\tuint256 price = tokenIdToPrice[_tokenId];\r\n\t\trequire(price > 0, \"This token is not for sale\");\r\n\t\trequire(msg.value == price, 'Incorrect value');\r\n\t\taddress seller = ownerOf(_tokenId);\r\n\t\t_transfer(seller, msg.sender, _tokenId);\r\n\t\ttokenIdToPrice[_tokenId] = 0;\r\n\t\tpayable(seller).transfer(msg.value);\r\n\t\temit NftBought(seller, msg.sender, msg.value);\r\n\t}\r\n\t\r\n\tfunction startAuction(uint256 _tokenId, uint _biddingTime) external {\r\n\t    uint auctionEndTime = block.timestamp + _biddingTime;\r\n\t    require(_locationDetails[_tokenId].isExist, \"Token doesn't exist\");\r\n\t    require(!_auctions[_tokenId].isExist, \"Auction already started\");\r\n\t    require(msg.sender == ownerOf(_tokenId), \"Cannot start auction for token you don't own\");\r\n\t    _auctions[_tokenId] = Auction(_tokenId,msg.sender,true,false,auctionEndTime,_biddingTime,address(0x0),0,true);\r\n\t\temit AuctionStarted(msg.sender, _biddingTime);\r\n\t}\r\n\r\n\tfunction endAuction(uint256 _tokenId) external {\r\n\t    Auction memory auc = getAuctionInfo(_tokenId);\r\n\t    require(auc.isExist, \"Auction doesn't exist\");\r\n\t    if(block.timestamp < auc.auctionEndTime) {\r\n\t        revert (\"The auction has not ended yet\");\r\n\t    }\r\n\t    if(auc.auctionEnded) {\r\n\t        revert (\"The auction has ended\");\r\n\t    }\r\n\t\tif(auc.highestBid == 0) {\r\n\t\t\tauc.auctionEnded = true;\r\n\t    \tauc.auctionGoingOn = false;\r\n\t\t\t_auctions[_tokenId] = auc;\r\n\t\t\temit AuctionEnded(auc.highestBidder, auc.highestBid);\r\n\t\t} else {\r\n\t\t\tauc.auctionEnded = true;\r\n\t\t\tauc.auctionGoingOn = false;\r\n\t\t\tpayable(auc.beneficiary).transfer(auc.highestBid);\r\n\t\t\t_transfer(auc.beneficiary, auc.highestBidder, _tokenId);\r\n\t\t\tauc.beneficiary = auc.highestBidder;\r\n\t\t\t_auctions[_tokenId] = auc;\r\n\t\t\ttokenIdToPrice[_tokenId] = auc.highestBid;\r\n\t\t\temit AuctionEnded(auc.highestBidder, auc.highestBid);\r\n\t\t}\r\n\t}\r\n\t\r\n\tfunction placeBid(uint256 _tokenId) external payable {\r\n\t    Auction memory auc = getAuctionInfo(_tokenId);\r\n\t    require(auc.isExist, \"Auction doesn't exist\");\r\n\t\trequire(msg.value > tokenIdToPrice[_tokenId], \"Bid price must be higher\");\r\n\t    if(msg.value <= auc.highestBid) {\r\n\t        revert(\"Higher bid exists\");\r\n\t    }\r\n\t    auc.highestBid = msg.value;\r\n\t    auc.highestBidder = msg.sender;\r\n\t    _auctions[_tokenId] = auc;\r\n\t    _pendingReturns[msg.sender] += msg.value;\r\n\t    emit BidIncrease(msg.sender, msg.value);\r\n\r\n\t\t//Log bid into bidHistory\r\n\t\t_biddingLogs[acceptedBidsIdx] = Bid(_tokenId, msg.sender, msg.value, block.timestamp);\r\n\t\tacceptedBidsIdx++;\r\n\t}\r\n\t\r\n}",
  "sourcePath": "C:/Users/swapp/Documents/MyProjects/Crypto/world_nft/contracts/LocationNFT.sol",
  "compiler": {
    "name": "solc",
    "version": "0.6.12+commit.27d51765.Emscripten.clang"
  },
  "schemaVersion": "3.2.3",
  "updatedAt": "2021-06-29T05:20:35.949Z",
  "networkType": "ethereum",
  "devdoc": {
    "kind": "dev",
    "methods": {
      "approve(address,uint256)": {
        "details": "See {IERC721-approve}."
      },
      "balanceOf(address)": {
        "details": "See {IERC721-balanceOf}."
      },
      "baseURI()": {
        "details": "Returns the base URI set via {_setBaseURI}. This will be automatically added as a prefix in {tokenURI} to each token's URI, or to the token ID if no specific URI is set for that token ID."
      },
      "getApproved(uint256)": {
        "details": "See {IERC721-getApproved}."
      },
      "isApprovedForAll(address,address)": {
        "details": "See {IERC721-isApprovedForAll}."
      },
      "name()": {
        "details": "See {IERC721Metadata-name}."
      },
      "owner()": {
        "details": "Returns the address of the current owner."
      },
      "ownerOf(uint256)": {
        "details": "See {IERC721-ownerOf}."
      },
      "renounceOwnership()": {
        "details": "Leaves the contract without owner. It will not be possible to call `onlyOwner` functions anymore. Can only be called by the current owner. NOTE: Renouncing ownership will leave the contract without an owner, thereby removing any functionality that is only available to the owner."
      },
      "safeTransferFrom(address,address,uint256)": {
        "details": "See {IERC721-safeTransferFrom}."
      },
      "safeTransferFrom(address,address,uint256,bytes)": {
        "details": "See {IERC721-safeTransferFrom}."
      },
      "setApprovalForAll(address,bool)": {
        "details": "See {IERC721-setApprovalForAll}."
      },
      "supportsInterface(bytes4)": {
        "details": "See {IERC165-supportsInterface}. Time complexity O(1), guaranteed to always use less than 30 000 gas."
      },
      "symbol()": {
        "details": "See {IERC721Metadata-symbol}."
      },
      "tokenByIndex(uint256)": {
        "details": "See {IERC721Enumerable-tokenByIndex}."
      },
      "tokenOfOwnerByIndex(address,uint256)": {
        "details": "See {IERC721Enumerable-tokenOfOwnerByIndex}."
      },
      "tokenURI(uint256)": {
        "details": "See {IERC721Metadata-tokenURI}."
      },
      "totalSupply()": {
        "details": "See {IERC721Enumerable-totalSupply}."
      },
      "transferFrom(address,address,uint256)": {
        "details": "See {IERC721-transferFrom}."
      },
      "transferOwnership(address)": {
        "details": "Transfers ownership of the contract to a new account (`newOwner`). Can only be called by the current owner."
      }
    },
    "version": 1
  },
  "userdoc": {
    "kind": "user",
    "methods": {},
    "version": 1
  }
}