{
  "contractName": "LocationNFT",
  "abi": [
    {
      "inputs": [],
      "stateMutability": "nonpayable",
      "type": "constructor"
    },
    {
      "anonymous": false,
      "inputs": [
        {
          "indexed": true,
          "internalType": "address",
          "name": "owner",
          "type": "address"
        },
        {
          "indexed": true,
          "internalType": "address",
          "name": "approved",
          "type": "address"
        },
        {
          "indexed": true,
          "internalType": "uint256",
          "name": "tokenId",
          "type": "uint256"
        }
      ],
      "name": "Approval",
      "type": "event"
    },
    {
      "anonymous": false,
      "inputs": [
        {
          "indexed": true,
          "internalType": "address",
          "name": "owner",
          "type": "address"
        },
        {
          "indexed": true,
          "internalType": "address",
          "name": "operator",
          "type": "address"
        },
        {
          "indexed": false,
          "internalType": "bool",
          "name": "approved",
          "type": "bool"
        }
      ],
      "name": "ApprovalForAll",
      "type": "event"
    },
    {
      "anonymous": false,
      "inputs": [
        {
          "indexed": false,
          "internalType": "address",
          "name": "bidAddress",
          "type": "address"
        },
        {
          "indexed": false,
          "internalType": "uint256",
          "name": "bidValue",
          "type": "uint256"
        }
      ],
      "name": "AuctionEnded",
      "type": "event"
    },
    {
      "anonymous": false,
      "inputs": [
        {
          "indexed": false,
          "internalType": "address",
          "name": "ownerAddress",
          "type": "address"
        },
        {
          "indexed": false,
          "internalType": "uint256",
          "name": "_biddingTime",
          "type": "uint256"
        }
      ],
      "name": "AuctionStarted",
      "type": "event"
    },
    {
      "anonymous": false,
      "inputs": [
        {
          "indexed": false,
          "internalType": "address",
          "name": "bidAddress",
          "type": "address"
        },
        {
          "indexed": false,
          "internalType": "uint256",
          "name": "bidValue",
          "type": "uint256"
        }
      ],
      "name": "BidIncrease",
      "type": "event"
    },
    {
      "anonymous": false,
      "inputs": [
        {
          "indexed": false,
          "internalType": "address",
          "name": "_seller",
          "type": "address"
        },
        {
          "indexed": false,
          "internalType": "address",
          "name": "_buyer",
          "type": "address"
        },
        {
          "indexed": false,
          "internalType": "uint256",
          "name": "_price",
          "type": "uint256"
        }
      ],
      "name": "NftBought",
      "type": "event"
    },
    {
      "anonymous": false,
      "inputs": [
        {
          "indexed": true,
          "internalType": "address",
          "name": "previousOwner",
          "type": "address"
        },
        {
          "indexed": true,
          "internalType": "address",
          "name": "newOwner",
          "type": "address"
        }
      ],
      "name": "OwnershipTransferred",
      "type": "event"
    },
    {
      "anonymous": false,
      "inputs": [
        {
          "indexed": true,
          "internalType": "address",
          "name": "from",
          "type": "address"
        },
        {
          "indexed": true,
          "internalType": "address",
          "name": "to",
          "type": "address"
        },
        {
          "indexed": true,
          "internalType": "uint256",
          "name": "tokenId",
          "type": "uint256"
        }
      ],
      "name": "Transfer",
      "type": "event"
    },
    {
      "inputs": [],
      "name": "acceptedBidsIdx",
      "outputs": [
        {
          "internalType": "uint256",
          "name": "",
          "type": "uint256"
        }
      ],
      "stateMutability": "view",
      "type": "function",
      "constant": true
    },
    {
      "inputs": [
        {
          "internalType": "address",
          "name": "to",
          "type": "address"
        },
        {
          "internalType": "uint256",
          "name": "tokenId",
          "type": "uint256"
        }
      ],
      "name": "approve",
      "outputs": [],
      "stateMutability": "nonpayable",
      "type": "function"
    },
    {
      "inputs": [
        {
          "internalType": "address",
          "name": "owner",
          "type": "address"
        }
      ],
      "name": "balanceOf",
      "outputs": [
        {
          "internalType": "uint256",
          "name": "",
          "type": "uint256"
        }
      ],
      "stateMutability": "view",
      "type": "function",
      "constant": true
    },
    {
      "inputs": [],
      "name": "baseURI",
      "outputs": [
        {
          "internalType": "string",
          "name": "",
          "type": "string"
        }
      ],
      "stateMutability": "view",
      "type": "function",
      "constant": true
    },
    {
      "inputs": [
        {
          "internalType": "uint256",
          "name": "tokenId",
          "type": "uint256"
        }
      ],
      "name": "getApproved",
      "outputs": [
        {
          "internalType": "address",
          "name": "",
          "type": "address"
        }
      ],
      "stateMutability": "view",
      "type": "function",
      "constant": true
    },
    {
      "inputs": [
        {
          "internalType": "address",
          "name": "owner",
          "type": "address"
        },
        {
          "internalType": "address",
          "name": "operator",
          "type": "address"
        }
      ],
      "name": "isApprovedForAll",
      "outputs": [
        {
          "internalType": "bool",
          "name": "",
          "type": "bool"
        }
      ],
      "stateMutability": "view",
      "type": "function",
      "constant": true
    },
    {
      "inputs": [],
      "name": "name",
      "outputs": [
        {
          "internalType": "string",
          "name": "",
          "type": "string"
        }
      ],
      "stateMutability": "view",
      "type": "function",
      "constant": true
    },
    {
      "inputs": [],
      "name": "nextId",
      "outputs": [
        {
          "internalType": "uint256",
          "name": "",
          "type": "uint256"
        }
      ],
      "stateMutability": "view",
      "type": "function",
      "constant": true
    },
    {
      "inputs": [],
      "name": "owner",
      "outputs": [
        {
          "internalType": "address",
          "name": "",
          "type": "address"
        }
      ],
      "stateMutability": "view",
      "type": "function",
      "constant": true
    },
    {
      "inputs": [
        {
          "internalType": "uint256",
          "name": "tokenId",
          "type": "uint256"
        }
      ],
      "name": "ownerOf",
      "outputs": [
        {
          "internalType": "address",
          "name": "",
          "type": "address"
        }
      ],
      "stateMutability": "view",
      "type": "function",
      "constant": true
    },
    {
      "inputs": [],
      "name": "renounceOwnership",
      "outputs": [],
      "stateMutability": "nonpayable",
      "type": "function"
    },
    {
      "inputs": [
        {
          "internalType": "address",
          "name": "from",
          "type": "address"
        },
        {
          "internalType": "address",
          "name": "to",
          "type": "address"
        },
        {
          "internalType": "uint256",
          "name": "tokenId",
          "type": "uint256"
        }
      ],
      "name": "safeTransferFrom",
      "outputs": [],
      "stateMutability": "nonpayable",
      "type": "function"
    },
    {
      "inputs": [
        {
          "internalType": "address",
          "name": "from",
          "type": "address"
        },
        {
          "internalType": "address",
          "name": "to",
          "type": "address"
        },
        {
          "internalType": "uint256",
          "name": "tokenId",
          "type": "uint256"
        },
        {
          "internalType": "bytes",
          "name": "_data",
          "type": "bytes"
        }
      ],
      "name": "safeTransferFrom",
      "outputs": [],
      "stateMutability": "nonpayable",
      "type": "function"
    },
    {
      "inputs": [
        {
          "internalType": "address",
          "name": "operator",
          "type": "address"
        },
        {
          "internalType": "bool",
          "name": "approved",
          "type": "bool"
        }
      ],
      "name": "setApprovalForAll",
      "outputs": [],
      "stateMutability": "nonpayable",
      "type": "function"
    },
    {
      "inputs": [
        {
          "internalType": "bytes4",
          "name": "interfaceId",
          "type": "bytes4"
        }
      ],
      "name": "supportsInterface",
      "outputs": [
        {
          "internalType": "bool",
          "name": "",
          "type": "bool"
        }
      ],
      "stateMutability": "view",
      "type": "function",
      "constant": true
    },
    {
      "inputs": [],
      "name": "symbol",
      "outputs": [
        {
          "internalType": "string",
          "name": "",
          "type": "string"
        }
      ],
      "stateMutability": "view",
      "type": "function",
      "constant": true
    },
    {
      "inputs": [
        {
          "internalType": "uint256",
          "name": "index",
          "type": "uint256"
        }
      ],
      "name": "tokenByIndex",
      "outputs": [
        {
          "internalType": "uint256",
          "name": "",
          "type": "uint256"
        }
      ],
      "stateMutability": "view",
      "type": "function",
      "constant": true
    },
    {
      "inputs": [
        {
          "internalType": "uint256",
          "name": "",
          "type": "uint256"
        }
      ],
      "name": "tokenIdToPrice",
      "outputs": [
        {
          "internalType": "uint256",
          "name": "",
          "type": "uint256"
        }
      ],
      "stateMutability": "view",
      "type": "function",
      "constant": true
    },
    {
      "inputs": [
        {
          "internalType": "address",
          "name": "owner",
          "type": "address"
        },
        {
          "internalType": "uint256",
          "name": "index",
          "type": "uint256"
        }
      ],
      "name": "tokenOfOwnerByIndex",
      "outputs": [
        {
          "internalType": "uint256",
          "name": "",
          "type": "uint256"
        }
      ],
      "stateMutability": "view",
      "type": "function",
      "constant": true
    },
    {
      "inputs": [
        {
          "internalType": "uint256",
          "name": "tokenId",
          "type": "uint256"
        }
      ],
      "name": "tokenURI",
      "outputs": [
        {
          "internalType": "string",
          "name": "",
          "type": "string"
        }
      ],
      "stateMutability": "view",
      "type": "function",
      "constant": true
    },
    {
      "inputs": [],
      "name": "totalSupply",
      "outputs": [
        {
          "internalType": "uint256",
          "name": "",
          "type": "uint256"
        }
      ],
      "stateMutability": "view",
      "type": "function",
      "constant": true
    },
    {
      "inputs": [
        {
          "internalType": "address",
          "name": "from",
          "type": "address"
        },
        {
          "internalType": "address",
          "name": "to",
          "type": "address"
        },
        {
          "internalType": "uint256",
          "name": "tokenId",
          "type": "uint256"
        }
      ],
      "name": "transferFrom",
      "outputs": [],
      "stateMutability": "nonpayable",
      "type": "function"
    },
    {
      "inputs": [
        {
          "internalType": "address",
          "name": "newOwner",
          "type": "address"
        }
      ],
      "name": "transferOwnership",
      "outputs": [],
      "stateMutability": "nonpayable",
      "type": "function"
    },
    {
      "inputs": [
        {
          "internalType": "uint256",
          "name": "tokenId",
          "type": "uint256"
        }
      ],
      "name": "getTokenDetails",
      "outputs": [
        {
          "components": [
            {
              "internalType": "string",
              "name": "location_name",
              "type": "string"
            },
            {
              "internalType": "string",
              "name": "svg_image",
              "type": "string"
            },
            {
              "internalType": "uint8",
              "name": "locn_type",
              "type": "uint8"
            },
            {
              "internalType": "uint256",
              "name": "latitude",
              "type": "uint256"
            },
            {
              "internalType": "uint256",
              "name": "longitude",
              "type": "uint256"
            },
            {
              "internalType": "bool",
              "name": "isExist",
              "type": "bool"
            }
          ],
          "internalType": "struct LocationNFT.Location",
          "name": "",
          "type": "tuple"
        }
      ],
      "stateMutability": "view",
      "type": "function",
      "constant": true
    },
    {
      "inputs": [
        {
          "internalType": "uint256",
          "name": "tokenId",
          "type": "uint256"
        }
      ],
      "name": "getPriceOf",
      "outputs": [
        {
          "internalType": "uint256",
          "name": "",
          "type": "uint256"
        }
      ],
      "stateMutability": "view",
      "type": "function",
      "constant": true
    },
    {
      "inputs": [
        {
          "internalType": "uint256",
          "name": "tokenId",
          "type": "uint256"
        }
      ],
      "name": "getOwnerOf",
      "outputs": [
        {
          "internalType": "address",
          "name": "",
          "type": "address"
        }
      ],
      "stateMutability": "view",
      "type": "function",
      "constant": true
    },
    {
      "inputs": [
        {
          "internalType": "uint256",
          "name": "tokenId",
          "type": "uint256"
        }
      ],
      "name": "getAuctionInfo",
      "outputs": [
        {
          "components": [
            {
              "internalType": "uint256",
              "name": "tokenId",
              "type": "uint256"
            },
            {
              "internalType": "address",
              "name": "beneficiary",
              "type": "address"
            },
            {
              "internalType": "bool",
              "name": "auctionGoingOn",
              "type": "bool"
            },
            {
              "internalType": "bool",
              "name": "auctionEnded",
              "type": "bool"
            },
            {
              "internalType": "uint256",
              "name": "auctionEndTime",
              "type": "uint256"
            },
            {
              "internalType": "uint256",
              "name": "biddingTime",
              "type": "uint256"
            },
            {
              "internalType": "address",
              "name": "highestBidder",
              "type": "address"
            },
            {
              "internalType": "uint256",
              "name": "highestBid",
              "type": "uint256"
            },
            {
              "internalType": "bool",
              "name": "isExist",
              "type": "bool"
            }
          ],
          "internalType": "struct LocationNFT.Auction",
          "name": "",
          "type": "tuple"
        }
      ],
      "stateMutability": "view",
      "type": "function",
      "constant": true
    },
    {
      "inputs": [
        {
          "internalType": "uint256",
          "name": "bidId",
          "type": "uint256"
        }
      ],
      "name": "getBiddingLog",
      "outputs": [
        {
          "components": [
            {
              "internalType": "uint256",
              "name": "tokenId",
              "type": "uint256"
            },
            {
              "internalType": "address",
              "name": "bidder",
              "type": "address"
            },
            {
              "internalType": "uint256",
              "name": "bidValue",
              "type": "uint256"
            },
            {
              "internalType": "uint256",
              "name": "timeBid",
              "type": "uint256"
            }
          ],
          "internalType": "struct LocationNFT.Bid",
          "name": "",
          "type": "tuple"
        }
      ],
      "stateMutability": "view",
      "type": "function",
      "constant": true
    },
    {
      "inputs": [
        {
          "internalType": "string",
          "name": "location_name",
          "type": "string"
        },
        {
          "internalType": "string",
          "name": "svg_image",
          "type": "string"
        },
        {
          "internalType": "uint8",
          "name": "locn_type",
          "type": "uint8"
        },
        {
          "internalType": "uint256",
          "name": "latitude",
          "type": "uint256"
        },
        {
          "internalType": "uint256",
          "name": "longitude",
          "type": "uint256"
        },
        {
          "internalType": "bool",
          "name": "isSellable",
          "type": "bool"
        }
      ],
      "name": "mint",
      "outputs": [],
      "stateMutability": "nonpayable",
      "type": "function"
    },
    {
      "inputs": [
        {
          "internalType": "uint256",
          "name": "_tokenId",
          "type": "uint256"
        }
      ],
      "name": "buy",
      "outputs": [],
      "stateMutability": "payable",
      "type": "function",
      "payable": true
    },
    {
      "inputs": [
        {
          "internalType": "uint256",
          "name": "_tokenId",
          "type": "uint256"
        },
        {
          "internalType": "uint256",
          "name": "_biddingTime",
          "type": "uint256"
        }
      ],
      "name": "startAuction",
      "outputs": [],
      "stateMutability": "nonpayable",
      "type": "function"
    },
    {
      "inputs": [
        {
          "internalType": "uint256",
          "name": "_tokenId",
          "type": "uint256"
        }
      ],
      "name": "endAuction",
      "outputs": [],
      "stateMutability": "nonpayable",
      "type": "function"
    },
    {
      "inputs": [
        {
          "internalType": "uint256",
          "name": "_tokenId",
          "type": "uint256"
        }
      ],
      "name": "placeBid",
      "outputs": [],
      "stateMutability": "payable",
      "type": "function",
      "payable": true
    }
  ],
  "bytecode": "0x60806040526000600b556000600c553480156200001b57600080fd5b506040518060400160405280600b81526020017f556e6971756541737365740000000000000000000000000000000000000000008152506040518060400160405280600381526020017f554e410000000000000000000000000000000000000000000000000000000000815250620000a06301ffc9a760e01b620001d360201b60201c565b8160069080519060200190620000b8929190620002b3565b508060079080519060200190620000d1929190620002b3565b50620000ea6380ac58cd60e01b620001d360201b60201c565b62000102635b5e139f60e01b620001d360201b60201c565b6200011a63780e9d6360e01b620001d360201b60201c565b505060006200012e620002ab60201b60201c565b905080600a60006101000a81548173ffffffffffffffffffffffffffffffffffffffff021916908373ffffffffffffffffffffffffffffffffffffffff1602179055508073ffffffffffffffffffffffffffffffffffffffff16600073ffffffffffffffffffffffffffffffffffffffff167f8be0079c531659141344cd1fd0a4f28419497f9722a3daafe3b4186f6b6457e060405160405180910390a350620003ce565b63ffffffff60e01b817bffffffffffffffffffffffffffffffffffffffffffffffffffffffff191614156200023f576040517f08c379a000000000000000000000000000000000000000000000000000000000815260040162000236906200039b565b60405180910390fd5b6001600080837bffffffffffffffffffffffffffffffffffffffffffffffffffffffff19167bffffffffffffffffffffffffffffffffffffffffffffffffffffffff1916815260200190815260200160002060006101000a81548160ff02191690831515021790555050565b600033905090565b828054600181600116156101000203166002900490600052602060002090601f016020900481019282601f10620002f657805160ff191683800117855562000327565b8280016001018555821562000327579182015b828111156200032657825182559160200191906001019062000309565b5b5090506200033691906200033a565b5090565b5b80821115620003555760008160009055506001016200033b565b5090565b600062000368601c83620003bd565b91507f4552433136353a20696e76616c696420696e74657266616365206964000000006000830152602082019050919050565b60006020820190508181036000830152620003b68162000359565b9050919050565b600082825260208201905092915050565b6153df80620003de6000396000f3fe6080604052600436106101ee5760003560e01c8063836387101161010d578063b9a2de3a116100a0578063e985e9c51161006f578063e985e9c51461072d578063f2fde38b1461076a578063f4812eb914610793578063f901c4d8146107d0578063fc3fc4ed146107f9576101ee565b8063b9a2de3a1461066e578063c1e0372814610697578063c87b56dd146106d4578063d96a094a14610711576101ee565b8063a22cb465116100dc578063a22cb465146105a2578063ad81bd1c146105cb578063b54b4fb914610608578063b88d4fde14610645576101ee565b806383638710146104f35780638da5cb5b1461053057806395d89b411461055b5780639979ef4514610586576101ee565b806342842e0e116101855780636352211e116101545780636352211e146104375780636c0360eb1461047457806370a082311461049f578063715018a6146104dc576101ee565b806342842e0e1461037d5780634f6ccce7146103a65780634fee13fc146103e357806361b8ce8c1461040c576101ee565b8063095ea7b3116101c1578063095ea7b3146102c357806318160ddd146102ec57806323b872dd146103175780632f745c5914610340576101ee565b806301ffc9a7146101f3578063067fa8fc1461023057806306fdde031461025b578063081812fc14610286575b600080fd5b3480156101ff57600080fd5b5061021a60048036038101906102159190613d2e565b610836565b6040516102279190614c8a565b60405180910390f35b34801561023c57600080fd5b5061024561089d565b60405161025291906150c0565b60405180910390f35b34801561026757600080fd5b506102706108a3565b60405161027d9190614ca5565b60405180910390f35b34801561029257600080fd5b506102ad60048036038101906102a89190613e39565b610945565b6040516102ba9190614b9a565b60405180910390f35b3480156102cf57600080fd5b506102ea60048036038101906102e59190613cf2565b6109ca565b005b3480156102f857600080fd5b50610301610ae2565b60405161030e91906150c0565b60405180910390f35b34801561032357600080fd5b5061033e60048036038101906103399190613bec565b610af3565b005b34801561034c57600080fd5b5061036760048036038101906103629190613cf2565b610b53565b60405161037491906150c0565b60405180910390f35b34801561038957600080fd5b506103a4600480360381019061039f9190613bec565b610bae565b005b3480156103b257600080fd5b506103cd60048036038101906103c89190613e39565b610bce565b6040516103da91906150c0565b60405180910390f35b3480156103ef57600080fd5b5061040a60048036038101906104059190613e62565b610bf1565b005b34801561041857600080fd5b50610421610f44565b60405161042e91906150c0565b60405180910390f35b34801561044357600080fd5b5061045e60048036038101906104599190613e39565b610f4a565b60405161046b9190614b9a565b60405180910390f35b34801561048057600080fd5b50610489610f81565b6040516104969190614ca5565b60405180910390f35b3480156104ab57600080fd5b506104c660048036038101906104c19190613b87565b611023565b6040516104d391906150c0565b60405180910390f35b3480156104e857600080fd5b506104f16110e2565b005b3480156104ff57600080fd5b5061051a60048036038101906105159190613e39565b61121f565b6040516105279190614b9a565b60405180910390f35b34801561053c57600080fd5b50610545611231565b6040516105529190614b9a565b60405180910390f35b34801561056757600080fd5b5061057061125b565b60405161057d9190614ca5565b60405180910390f35b6105a0600480360381019061059b9190613e39565b6112fd565b005b3480156105ae57600080fd5b506105c960048036038101906105c49190613cb6565b6116b0565b005b3480156105d757600080fd5b506105f260048036038101906105ed9190613e39565b611831565b6040516105ff9190615083565b60405180910390f35b34801561061457600080fd5b5061062f600480360381019061062a9190613e39565b6118d2565b60405161063c91906150c0565b60405180910390f35b34801561065157600080fd5b5061066c60048036038101906106679190613c3b565b6118ef565b005b34801561067a57600080fd5b5061069560048036038101906106909190613e39565b611951565b005b3480156106a357600080fd5b506106be60048036038101906106b99190613e39565b611e28565b6040516106cb919061509e565b60405180910390f35b3480156106e057600080fd5b506106fb60048036038101906106f69190613e39565b611fe5565b6040516107089190614ca5565b60405180910390f35b61072b60048036038101906107269190613e39565b612168565b005b34801561073957600080fd5b50610754600480360381019061074f9190613bb0565b6122bd565b6040516107619190614c8a565b60405180910390f35b34801561077657600080fd5b50610791600480360381019061078c9190613b87565b612351565b005b34801561079f57600080fd5b506107ba60048036038101906107b59190613e39565b6124fd565b6040516107c791906150c0565b60405180910390f35b3480156107dc57600080fd5b506107f760048036038101906107f29190613d80565b612515565b005b34801561080557600080fd5b50610820600480360381019061081b9190613e39565b6127be565b60405161082d9190615067565b60405180910390f35b6000806000837bffffffffffffffffffffffffffffffffffffffffffffffffffffffff19167bffffffffffffffffffffffffffffffffffffffffffffffffffffffff1916815260200190815260200160002060009054906101000a900460ff169050919050565b600c5481565b606060068054600181600116156101000203166002900480601f01602080910402602001604051908101604052809291908181526020018280546001816001161561010002031660029004801561093b5780601f106109105761010080835404028352916020019161093b565b820191906000526020600020905b81548152906001019060200180831161091e57829003601f168201915b5050505050905090565b600061095082612911565b61098f576040517f08c379a000000000000000000000000000000000000000000000000000000000815260040161098690614ee7565b60405180910390fd5b6004600083815260200190815260200160002060009054906101000a900473ffffffffffffffffffffffffffffffffffffffff169050919050565b60006109d582610f4a565b90508073ffffffffffffffffffffffffffffffffffffffff168373ffffffffffffffffffffffffffffffffffffffff161415610a46576040517f08c379a0000000000000000000000000000000000000000000000000000000008152600401610a3d90614fa7565b60405180910390fd5b8073ffffffffffffffffffffffffffffffffffffffff16610a6561292e565b73ffffffffffffffffffffffffffffffffffffffff161480610a945750610a9381610a8e61292e565b6122bd565b5b610ad3576040517f08c379a0000000000000000000000000000000000000000000000000000000008152600401610aca90614e67565b60405180910390fd5b610add8383612936565b505050565b6000610aee60026129ef565b905090565b610b04610afe61292e565b82612a04565b610b43576040517f08c379a0000000000000000000000000000000000000000000000000000000008152600401610b3a90614fc7565b60405180910390fd5b610b4e838383612ae2565b505050565b6000610ba682600160008673ffffffffffffffffffffffffffffffffffffffff1673ffffffffffffffffffffffffffffffffffffffff168152602001908152602001600020612cf990919063ffffffff16565b905092915050565b610bc9838383604051806020016040528060008152506118ef565b505050565b600080610be5836002612d1390919063ffffffff16565b50905080915050919050565b60008142019050600d600084815260200190815260200160002060050160009054906101000a900460ff16610c5b576040517f08c379a0000000000000000000000000000000000000000000000000000000008152600401610c5290614cc7565b60405180910390fd5b610c6483610f4a565b73ffffffffffffffffffffffffffffffffffffffff163373ffffffffffffffffffffffffffffffffffffffff1614610cd1576040517f08c379a0000000000000000000000000000000000000000000000000000000008152600401610cc890614e27565b60405180910390fd5b6010600084815260200190815260200160002060060160009054906101000a900460ff168015610d2257506010600084815260200190815260200160002060010160159054906101000a900460ff16155b15610d62576040517f08c379a0000000000000000000000000000000000000000000000000000000008152600401610d5990615007565b60405180910390fd5b6040518061012001604052808481526020013373ffffffffffffffffffffffffffffffffffffffff168152602001600115158152602001600015158152602001828152602001838152602001600073ffffffffffffffffffffffffffffffffffffffff1681526020016000815260200160011515815250601060008581526020019081526020016000206000820151816000015560208201518160010160006101000a81548173ffffffffffffffffffffffffffffffffffffffff021916908373ffffffffffffffffffffffffffffffffffffffff16021790555060408201518160010160146101000a81548160ff02191690831515021790555060608201518160010160156101000a81548160ff0219169083151502179055506080820151816002015560a0820151816003015560c08201518160040160006101000a81548173ffffffffffffffffffffffffffffffffffffffff021916908373ffffffffffffffffffffffffffffffffffffffff16021790555060e082015181600501556101008201518160060160006101000a81548160ff0219169083151502179055509050507fc087c4cdb16906b5ff7016a6bf927618f24ff32eb1de5e86eeaeb08b94831a683383604051610f37929190614c01565b60405180910390a1505050565b600b5481565b6000610f7a82604051806060016040528060298152602001615381602991396002612d3f9092919063ffffffff16565b9050919050565b606060098054600181600116156101000203166002900480601f0160208091040260200160405190810160405280929190818152602001828054600181600116156101000203166002900480156110195780601f10610fee57610100808354040283529160200191611019565b820191906000526020600020905b815481529060010190602001808311610ffc57829003601f168201915b5050505050905090565b60008073ffffffffffffffffffffffffffffffffffffffff168273ffffffffffffffffffffffffffffffffffffffff161415611094576040517f08c379a000000000000000000000000000000000000000000000000000000000815260040161108b90614e87565b60405180910390fd5b6110db600160008473ffffffffffffffffffffffffffffffffffffffff1673ffffffffffffffffffffffffffffffffffffffff168152602001908152602001600020612d5e565b9050919050565b6110ea61292e565b73ffffffffffffffffffffffffffffffffffffffff16611108611231565b73ffffffffffffffffffffffffffffffffffffffff161461115e576040517f08c379a000000000000000000000000000000000000000000000000000000000815260040161115590614f47565b60405180910390fd5b600073ffffffffffffffffffffffffffffffffffffffff16600a60009054906101000a900473ffffffffffffffffffffffffffffffffffffffff1673ffffffffffffffffffffffffffffffffffffffff167f8be0079c531659141344cd1fd0a4f28419497f9722a3daafe3b4186f6b6457e060405160405180910390a36000600a60006101000a81548173ffffffffffffffffffffffffffffffffffffffff021916908373ffffffffffffffffffffffffffffffffffffffff160217905550565b600061122a82610f4a565b9050919050565b6000600a60009054906101000a900473ffffffffffffffffffffffffffffffffffffffff16905090565b606060078054600181600116156101000203166002900480601f0160208091040260200160405190810160405280929190818152602001828054600181600116156101000203166002900480156112f35780601f106112c8576101008083540402835291602001916112f3565b820191906000526020600020905b8154815290600101906020018083116112d657829003601f168201915b5050505050905090565b6113056138cd565b61130e826127be565b9050806101000151611355576040517f08c379a000000000000000000000000000000000000000000000000000000000815260040161134c90614f07565b60405180910390fd5b600f60008381526020019081526020016000205434116113aa576040517f08c379a00000000000000000000000000000000000000000000000000000000081526004016113a190614e47565b60405180910390fd5b8060e0015134116113f0576040517f08c379a00000000000000000000000000000000000000000000000000000000081526004016113e790615047565b60405180910390fd5b348160e0018181525050338160c0019073ffffffffffffffffffffffffffffffffffffffff16908173ffffffffffffffffffffffffffffffffffffffff168152505080601060008481526020019081526020016000206000820151816000015560208201518160010160006101000a81548173ffffffffffffffffffffffffffffffffffffffff021916908373ffffffffffffffffffffffffffffffffffffffff16021790555060408201518160010160146101000a81548160ff02191690831515021790555060608201518160010160156101000a81548160ff0219169083151502179055506080820151816002015560a0820151816003015560c08201518160040160006101000a81548173ffffffffffffffffffffffffffffffffffffffff021916908373ffffffffffffffffffffffffffffffffffffffff16021790555060e082015181600501556101008201518160060160006101000a81548160ff02191690831515021790555090505034601160003373ffffffffffffffffffffffffffffffffffffffff1673ffffffffffffffffffffffffffffffffffffffff168152602001908152602001600020600082825401925050819055507fde11ebd9a4f52f9d475e408266bfa5a8a50ebd212fd91bc37f6b438b7aaa6ad533346040516115de929190614c01565b60405180910390a160405180608001604052808381526020013373ffffffffffffffffffffffffffffffffffffffff1681526020013481526020014281525060126000600c5481526020019081526020016000206000820151816000015560208201518160010160006101000a81548173ffffffffffffffffffffffffffffffffffffffff021916908373ffffffffffffffffffffffffffffffffffffffff1602179055506040820151816002015560608201518160030155905050600c600081548092919060010191905055505050565b6116b861292e565b73ffffffffffffffffffffffffffffffffffffffff168273ffffffffffffffffffffffffffffffffffffffff161415611726576040517f08c379a000000000000000000000000000000000000000000000000000000000815260040161171d90614dc7565b60405180910390fd5b806005600061173361292e565b73ffffffffffffffffffffffffffffffffffffffff1673ffffffffffffffffffffffffffffffffffffffff16815260200190815260200160002060008473ffffffffffffffffffffffffffffffffffffffff1673ffffffffffffffffffffffffffffffffffffffff16815260200190815260200160002060006101000a81548160ff0219169083151502179055508173ffffffffffffffffffffffffffffffffffffffff166117e061292e565b73ffffffffffffffffffffffffffffffffffffffff167f17307eab39ab6107e8899845ad3d59bd9653f200f220920489ca2b5937696c31836040516118259190614c8a565b60405180910390a35050565b61183961394b565b60126000838152602001908152602001600020604051806080016040529081600082015481526020016001820160009054906101000a900473ffffffffffffffffffffffffffffffffffffffff1673ffffffffffffffffffffffffffffffffffffffff1673ffffffffffffffffffffffffffffffffffffffff168152602001600282015481526020016003820154815250509050919050565b6000600f6000838152602001908152602001600020549050919050565b6119006118fa61292e565b83612a04565b61193f576040517f08c379a000000000000000000000000000000000000000000000000000000000815260040161193690614fc7565b60405180910390fd5b61194b84848484612d73565b50505050565b6119596138cd565b611962826127be565b90508061010001516119a9576040517f08c379a00000000000000000000000000000000000000000000000000000000081526004016119a090614f07565b60405180910390fd5b80608001514210156119f0576040517f08c379a00000000000000000000000000000000000000000000000000000000081526004016119e790615007565b60405180910390fd5b806060015115611a35576040517f08c379a0000000000000000000000000000000000000000000000000000000008152600401611a2c90615027565b60405180910390fd5b60008160e001511415611bd8576001816060019015159081151581525050600081604001901515908115158152505080601060008481526020019081526020016000206000820151816000015560208201518160010160006101000a81548173ffffffffffffffffffffffffffffffffffffffff021916908373ffffffffffffffffffffffffffffffffffffffff16021790555060408201518160010160146101000a81548160ff02191690831515021790555060608201518160010160156101000a81548160ff0219169083151502179055506080820151816002015560a0820151816003015560c08201518160040160006101000a81548173ffffffffffffffffffffffffffffffffffffffff021916908373ffffffffffffffffffffffffffffffffffffffff16021790555060e082015181600501556101008201518160060160006101000a81548160ff0219169083151502179055509050507fdaec4582d5d9595688c8c98545fdd1c696d41c6aeaeb636737e84ed2f5c00eda8160c001518260e00151604051611bcb929190614c61565b60405180910390a1611e24565b60018160600190151590811515815250506000816040019015159081151581525050806020015173ffffffffffffffffffffffffffffffffffffffff166108fc8260e001519081150290604051600060405180830381858888f19350505050158015611c48573d6000803e3d6000fd5b50611c5c81602001518260c0015184612ae2565b8060c00151816020019073ffffffffffffffffffffffffffffffffffffffff16908173ffffffffffffffffffffffffffffffffffffffff168152505080601060008481526020019081526020016000206000820151816000015560208201518160010160006101000a81548173ffffffffffffffffffffffffffffffffffffffff021916908373ffffffffffffffffffffffffffffffffffffffff16021790555060408201518160010160146101000a81548160ff02191690831515021790555060608201518160010160156101000a81548160ff0219169083151502179055506080820151816002015560a0820151816003015560c08201518160040160006101000a81548173ffffffffffffffffffffffffffffffffffffffff021916908373ffffffffffffffffffffffffffffffffffffffff16021790555060e082015181600501556101008201518160060160006101000a81548160ff0219169083151502179055509050508060e00151600f6000848152602001908152602001600020819055507fdaec4582d5d9595688c8c98545fdd1c696d41c6aeaeb636737e84ed2f5c00eda8160c001518260e00151604051611e1b929190614c61565b60405180910390a15b5050565b611e30613989565b600d60008381526020019081526020016000206040518060c0016040529081600082018054600181600116156101000203166002900480601f016020809104026020016040519081016040528092919081815260200182805460018160011615610100020316600290048015611ee75780601f10611ebc57610100808354040283529160200191611ee7565b820191906000526020600020905b815481529060010190602001808311611eca57829003601f168201915b50505050508152602001600182018054600181600116156101000203166002900480601f016020809104026020016040519081016040528092919081815260200182805460018160011615610100020316600290048015611f895780601f10611f5e57610100808354040283529160200191611f89565b820191906000526020600020905b815481529060010190602001808311611f6c57829003601f168201915b505050505081526020016002820160009054906101000a900460ff1660ff1660ff16815260200160038201548152602001600482015481526020016005820160009054906101000a900460ff1615151515815250509050919050565b6060611ff082612911565b61202f576040517f08c379a000000000000000000000000000000000000000000000000000000000815260040161202690614f87565b60405180910390fd5b6060600860008481526020019081526020016000208054600181600116156101000203166002900480601f0160208091040260200160405190810160405280929190818152602001828054600181600116156101000203166002900480156120d85780601f106120ad576101008083540402835291602001916120d8565b820191906000526020600020905b8154815290600101906020018083116120bb57829003601f168201915b5050505050905060606120e9610f81565b90506000815114156120ff578192505050612163565b60008251111561213457808260405160200161211c929190614b76565b60405160208183030381529060405292505050612163565b8061213e85612dcf565b60405160200161214f929190614b76565b604051602081830303815290604052925050505b919050565b6000600f6000838152602001908152602001600020549050600081116121c3576040517f08c379a00000000000000000000000000000000000000000000000000000000081526004016121ba90614d27565b60405180910390fd5b803414612205576040517f08c379a00000000000000000000000000000000000000000000000000000000081526004016121fc90614f27565b60405180910390fd5b600061221083610f4a565b905061221d813385612ae2565b6000600f6000858152602001908152602001600020819055508073ffffffffffffffffffffffffffffffffffffffff166108fc349081150290604051600060405180830381858888f1935050505015801561227c573d6000803e3d6000fd5b507f608f6ac9327c2bf4d3c77adf447d2c448ba7b0971e0aaa9aa03f7ac29d874a448133346040516122b093929190614c2a565b60405180910390a1505050565b6000600560008473ffffffffffffffffffffffffffffffffffffffff1673ffffffffffffffffffffffffffffffffffffffff16815260200190815260200160002060008373ffffffffffffffffffffffffffffffffffffffff1673ffffffffffffffffffffffffffffffffffffffff16815260200190815260200160002060009054906101000a900460ff16905092915050565b61235961292e565b73ffffffffffffffffffffffffffffffffffffffff16612377611231565b73ffffffffffffffffffffffffffffffffffffffff16146123cd576040517f08c379a00000000000000000000000000000000000000000000000000000000081526004016123c490614f47565b60405180910390fd5b600073ffffffffffffffffffffffffffffffffffffffff168173ffffffffffffffffffffffffffffffffffffffff16141561243d576040517f08c379a000000000000000000000000000000000000000000000000000000000815260040161243490614d47565b60405180910390fd5b8073ffffffffffffffffffffffffffffffffffffffff16600a60009054906101000a900473ffffffffffffffffffffffffffffffffffffffff1673ffffffffffffffffffffffffffffffffffffffff167f8be0079c531659141344cd1fd0a4f28419497f9722a3daafe3b4186f6b6457e060405160405180910390a380600a60006101000a81548173ffffffffffffffffffffffffffffffffffffffff021916908373ffffffffffffffffffffffffffffffffffffffff16021790555050565b600f6020528060005260406000206000915090505481565b61251d61292e565b73ffffffffffffffffffffffffffffffffffffffff1661253b611231565b73ffffffffffffffffffffffffffffffffffffffff1614612591576040517f08c379a000000000000000000000000000000000000000000000000000000000815260040161258890614f47565b60405180910390fd5b600e866040516125a19190614b5f565b908152602001604051809103902060010160009054906101000a900460ff1615612600576040517f08c379a00000000000000000000000000000000000000000000000000000000081526004016125f790614d87565b60405180910390fd5b6040518060c001604052808781526020018681526020018560ff16815260200184815260200183815260200160011515815250600d6000600b54815260200190815260200160002060008201518160000190805190602001906126649291906139c4565b5060208201518160010190805190602001906126819291906139c4565b5060408201518160020160006101000a81548160ff021916908360ff160217905550606082015181600301556080820151816004015560a08201518160050160006101000a81548160ff021916908315150217905550905050604051806040016040528087815260200160011515815250600e876040516127029190614b5f565b9081526020016040518091039020600082015181600001908051906020019061272c9291906139c4565b5060208201518160010160006101000a81548160ff021916908315150217905550905050801561277c57662386f26fc10000600f6000600b54815260200190815260200160002081905550612798565b6000600f6000600b548152602001908152602001600020819055505b6127a433600b54612f16565b600b60008154809291906001019190505550505050505050565b6127c66138cd565b6010600083815260200190815260200160002060405180610120016040529081600082015481526020016001820160009054906101000a900473ffffffffffffffffffffffffffffffffffffffff1673ffffffffffffffffffffffffffffffffffffffff1673ffffffffffffffffffffffffffffffffffffffff1681526020016001820160149054906101000a900460ff161515151581526020016001820160159054906101000a900460ff1615151515815260200160028201548152602001600382015481526020016004820160009054906101000a900473ffffffffffffffffffffffffffffffffffffffff1673ffffffffffffffffffffffffffffffffffffffff1673ffffffffffffffffffffffffffffffffffffffff168152602001600582015481526020016006820160009054906101000a900460ff1615151515815250509050919050565b6000612927826002612f3490919063ffffffff16565b9050919050565b600033905090565b816004600083815260200190815260200160002060006101000a81548173ffffffffffffffffffffffffffffffffffffffff021916908373ffffffffffffffffffffffffffffffffffffffff160217905550808273ffffffffffffffffffffffffffffffffffffffff166129a983610f4a565b73ffffffffffffffffffffffffffffffffffffffff167f8c5be1e5ebec7d5bd14f71427d1e84f3dd0314c0f7b2291e5b200ac8c7c3b92560405160405180910390a45050565b60006129fd82600001612f4e565b9050919050565b6000612a0f82612911565b612a4e576040517f08c379a0000000000000000000000000000000000000000000000000000000008152600401612a4590614e07565b60405180910390fd5b6000612a5983610f4a565b90508073ffffffffffffffffffffffffffffffffffffffff168473ffffffffffffffffffffffffffffffffffffffff161480612ac857508373ffffffffffffffffffffffffffffffffffffffff16612ab084610945565b73ffffffffffffffffffffffffffffffffffffffff16145b80612ad95750612ad881856122bd565b5b91505092915050565b8273ffffffffffffffffffffffffffffffffffffffff16612b0282610f4a565b73ffffffffffffffffffffffffffffffffffffffff1614612b58576040517f08c379a0000000000000000000000000000000000000000000000000000000008152600401612b4f90614f67565b60405180910390fd5b600073ffffffffffffffffffffffffffffffffffffffff168273ffffffffffffffffffffffffffffffffffffffff161415612bc8576040517f08c379a0000000000000000000000000000000000000000000000000000000008152600401612bbf90614da7565b60405180910390fd5b612bd3838383612f5f565b612bde600082612936565b612c2f81600160008673ffffffffffffffffffffffffffffffffffffffff1673ffffffffffffffffffffffffffffffffffffffff168152602001908152602001600020612f6490919063ffffffff16565b50612c8181600160008573ffffffffffffffffffffffffffffffffffffffff1673ffffffffffffffffffffffffffffffffffffffff168152602001908152602001600020612f7e90919063ffffffff16565b50612c9881836002612f989092919063ffffffff16565b50808273ffffffffffffffffffffffffffffffffffffffff168473ffffffffffffffffffffffffffffffffffffffff167fddf252ad1be2c89b69c2b068fc378daa952ba7f163c4a11628f55a4df523b3ef60405160405180910390a4505050565b6000612d088360000183612fcd565b60001c905092915050565b600080600080612d26866000018661303a565b915091508160001c8160001c9350935050509250929050565b6000612d52846000018460001b846130bd565b60001c90509392505050565b6000612d6c8260000161314e565b9050919050565b612d7e848484612ae2565b612d8a8484848461315f565b612dc9576040517f08c379a0000000000000000000000000000000000000000000000000000000008152600401612dc090614d07565b60405180910390fd5b50505050565b60606000821415612e17576040518060400160405280600181526020017f30000000000000000000000000000000000000000000000000000000000000008152509050612f11565b600082905060005b60008214612e41578080600101915050600a8281612e3957fe5b049150612e1f565b60608167ffffffffffffffff81118015612e5a57600080fd5b506040519080825280601f01601f191660200182016040528015612e8d5781602001600182028036833780820191505090505b50905060006001830390508593505b60008414612f0957600a8481612eae57fe5b0660300160f81b82828060019003935081518110612ec857fe5b60200101907effffffffffffffffffffffffffffffffffffffffffffffffffffffffffffff1916908160001a905350600a8481612f0157fe5b049350612e9c565b819450505050505b919050565b612f308282604051806020016040528060008152506132c3565b5050565b6000612f46836000018360001b61331e565b905092915050565b600081600001805490509050919050565b505050565b6000612f76836000018360001b613341565b905092915050565b6000612f90836000018360001b613429565b905092915050565b6000612fc4846000018460001b8473ffffffffffffffffffffffffffffffffffffffff1660001b613499565b90509392505050565b600081836000018054905011613018576040517f08c379a000000000000000000000000000000000000000000000000000000000815260040161300f90614ce7565b60405180910390fd5b82600001828154811061302757fe5b9060005260206000200154905092915050565b60008082846000018054905011613086576040517f08c379a000000000000000000000000000000000000000000000000000000000815260040161307d90614ea7565b60405180910390fd5b600084600001848154811061309757fe5b906000526020600020906002020190508060000154816001015492509250509250929050565b6000808460010160008581526020019081526020016000205490506000811415839061311f576040517f08c379a00000000000000000000000000000000000000000000000000000000081526004016131169190614ca5565b60405180910390fd5b5084600001600182038154811061313257fe5b9060005260206000209060020201600101549150509392505050565b600081600001805490509050919050565b60006131808473ffffffffffffffffffffffffffffffffffffffff16613575565b61318d57600190506132bb565b606061325463150b7a0260e01b6131a261292e565b8887876040516024016131b89493929190614bb5565b604051602081830303815290604052907bffffffffffffffffffffffffffffffffffffffffffffffffffffffff19166020820180517bffffffffffffffffffffffffffffffffffffffffffffffffffffffff838183161783525050505060405180606001604052806032815260200161534f603291398773ffffffffffffffffffffffffffffffffffffffff166135889092919063ffffffff16565b905060008180602001905181019061326c9190613d57565b905063150b7a0260e01b7bffffffffffffffffffffffffffffffffffffffffffffffffffffffff1916817bffffffffffffffffffffffffffffffffffffffffffffffffffffffff191614925050505b949350505050565b6132cd83836135a0565b6132da600084848461315f565b613319576040517f08c379a000000000000000000000000000000000000000000000000000000000815260040161331090614d07565b60405180910390fd5b505050565b600080836001016000848152602001908152602001600020541415905092915050565b6000808360010160008481526020019081526020016000205490506000811461341d576000600182039050600060018660000180549050039050600086600001828154811061338c57fe5b90600052602060002001549050808760000184815481106133a957fe5b90600052602060002001819055506001830187600101600083815260200190815260200160002081905550866000018054806133e157fe5b60019003818190600052602060002001600090559055866001016000878152602001908152602001600020600090556001945050505050613423565b60009150505b92915050565b6000613435838361372e565b61348e578260000182908060018154018082558091505060019003906000526020600020016000909190919091505582600001805490508360010160008481526020019081526020016000208190555060019050613493565b600090505b92915050565b60008084600101600085815260200190815260200160002054905060008114156135405784600001604051806040016040528086815260200185815250908060018154018082558091505060019003906000526020600020906002020160009091909190915060008201518160000155602082015181600101555050846000018054905085600101600086815260200190815260200160002081905550600191505061356e565b8285600001600183038154811061355357fe5b90600052602060002090600202016001018190555060009150505b9392505050565b600080823b905060008111915050919050565b60606135978484600085613751565b90509392505050565b600073ffffffffffffffffffffffffffffffffffffffff168273ffffffffffffffffffffffffffffffffffffffff161415613610576040517f08c379a000000000000000000000000000000000000000000000000000000000815260040161360790614ec7565b60405180910390fd5b61361981612911565b15613659576040517f08c379a000000000000000000000000000000000000000000000000000000000815260040161365090614d67565b60405180910390fd5b61366560008383612f5f565b6136b681600160008573ffffffffffffffffffffffffffffffffffffffff1673ffffffffffffffffffffffffffffffffffffffff168152602001908152602001600020612f7e90919063ffffffff16565b506136cd81836002612f989092919063ffffffff16565b50808273ffffffffffffffffffffffffffffffffffffffff16600073ffffffffffffffffffffffffffffffffffffffff167fddf252ad1be2c89b69c2b068fc378daa952ba7f163c4a11628f55a4df523b3ef60405160405180910390a45050565b600080836001016000848152602001908152602001600020541415905092915050565b606082471015613796576040517f08c379a000000000000000000000000000000000000000000000000000000000815260040161378d90614de7565b60405180910390fd5b61379f85613575565b6137de576040517f08c379a00000000000000000000000000000000000000000000000000000000081526004016137d590614fe7565b60405180910390fd5b600060608673ffffffffffffffffffffffffffffffffffffffff1685876040516138089190614b48565b60006040518083038185875af1925050503d8060008114613845576040519150601f19603f3d011682016040523d82523d6000602084013e61384a565b606091505b509150915061385a828286613866565b92505050949350505050565b60608315613876578290506138c6565b6000835111156138895782518084602001fd5b816040517f08c379a00000000000000000000000000000000000000000000000000000000081526004016138bd9190614ca5565b60405180910390fd5b9392505050565b60405180610120016040528060008152602001600073ffffffffffffffffffffffffffffffffffffffff1681526020016000151581526020016000151581526020016000815260200160008152602001600073ffffffffffffffffffffffffffffffffffffffff168152602001600081526020016000151581525090565b604051806080016040528060008152602001600073ffffffffffffffffffffffffffffffffffffffff16815260200160008152602001600081525090565b6040518060c001604052806060815260200160608152602001600060ff16815260200160008152602001600081526020016000151581525090565b828054600181600116156101000203166002900490600052602060002090601f016020900481019282601f10613a0557805160ff1916838001178555613a33565b82800160010185558215613a33579182015b82811115613a32578251825591602001919060010190613a17565b5b509050613a409190613a44565b5090565b5b80821115613a5d576000816000905550600101613a45565b5090565b600081359050613a70816152db565b92915050565b600081359050613a85816152f2565b92915050565b600081359050613a9a81615309565b92915050565b600081519050613aaf81615309565b92915050565b600082601f830112613ac657600080fd5b8135613ad9613ad482615108565b6150db565b91508082526020830160208301858383011115613af557600080fd5b613b00838284615288565b50505092915050565b600082601f830112613b1a57600080fd5b8135613b2d613b2882615134565b6150db565b91508082526020830160208301858383011115613b4957600080fd5b613b54838284615288565b50505092915050565b600081359050613b6c81615320565b92915050565b600081359050613b8181615337565b92915050565b600060208284031215613b9957600080fd5b6000613ba784828501613a61565b91505092915050565b60008060408385031215613bc357600080fd5b6000613bd185828601613a61565b9250506020613be285828601613a61565b9150509250929050565b600080600060608486031215613c0157600080fd5b6000613c0f86828701613a61565b9350506020613c2086828701613a61565b9250506040613c3186828701613b5d565b9150509250925092565b60008060008060808587031215613c5157600080fd5b6000613c5f87828801613a61565b9450506020613c7087828801613a61565b9350506040613c8187828801613b5d565b925050606085013567ffffffffffffffff811115613c9e57600080fd5b613caa87828801613ab5565b91505092959194509250565b60008060408385031215613cc957600080fd5b6000613cd785828601613a61565b9250506020613ce885828601613a76565b9150509250929050565b60008060408385031215613d0557600080fd5b6000613d1385828601613a61565b9250506020613d2485828601613b5d565b9150509250929050565b600060208284031215613d4057600080fd5b6000613d4e84828501613a8b565b91505092915050565b600060208284031215613d6957600080fd5b6000613d7784828501613aa0565b91505092915050565b60008060008060008060c08789031215613d9957600080fd5b600087013567ffffffffffffffff811115613db357600080fd5b613dbf89828a01613b09565b965050602087013567ffffffffffffffff811115613ddc57600080fd5b613de889828a01613b09565b9550506040613df989828a01613b72565b9450506060613e0a89828a01613b5d565b9350506080613e1b89828a01613b5d565b92505060a0613e2c89828a01613a76565b9150509295509295509295565b600060208284031215613e4b57600080fd5b6000613e5984828501613b5d565b91505092915050565b60008060408385031215613e7557600080fd5b6000613e8385828601613b5d565b9250506020613e9485828601613b5d565b9150509250929050565b613ea781615252565b82525050565b613eb6816151d1565b82525050565b613ec5816151bf565b82525050565b613ed4816151bf565b82525050565b613ee3816151e3565b82525050565b613ef2816151e3565b82525050565b6000613f0382615160565b613f0d8185615176565b9350613f1d818560208601615297565b613f26816152ca565b840191505092915050565b6000613f3c82615160565b613f468185615187565b9350613f56818560208601615297565b80840191505092915050565b6000613f6d8261516b565b613f778185615192565b9350613f87818560208601615297565b613f90816152ca565b840191505092915050565b6000613fa68261516b565b613fb081856151a3565b9350613fc0818560208601615297565b613fc9816152ca565b840191505092915050565b6000613fdf8261516b565b613fe981856151b4565b9350613ff9818560208601615297565b80840191505092915050565b60006140126013836151a3565b91507f546f6b656e20646f65736e2774206578697374000000000000000000000000006000830152602082019050919050565b60006140526022836151a3565b91507f456e756d657261626c655365743a20696e646578206f7574206f6620626f756e60008301527f64730000000000000000000000000000000000000000000000000000000000006020830152604082019050919050565b60006140b86032836151a3565b91507f4552433732313a207472616e7366657220746f206e6f6e20455243373231526560008301527f63656976657220696d706c656d656e74657200000000000000000000000000006020830152604082019050919050565b600061411e601a836151a3565b91507f5468697320746f6b656e206973206e6f7420666f722073616c650000000000006000830152602082019050919050565b600061415e6026836151a3565b91507f4f776e61626c653a206e6577206f776e657220697320746865207a65726f206160008301527f64647265737300000000000000000000000000000000000000000000000000006020830152604082019050919050565b60006141c4601c836151a3565b91507f4552433732313a20746f6b656e20616c7265616479206d696e746564000000006000830152602082019050919050565b60006142046017836151a3565b91507f4c6f636174696f6e20616c7265616479206d696e7465640000000000000000006000830152602082019050919050565b60006142446024836151a3565b91507f4552433732313a207472616e7366657220746f20746865207a65726f2061646460008301527f72657373000000000000000000000000000000000000000000000000000000006020830152604082019050919050565b60006142aa6019836151a3565b91507f4552433732313a20617070726f766520746f2063616c6c6572000000000000006000830152602082019050919050565b60006142ea6026836151a3565b91507f416464726573733a20696e73756666696369656e742062616c616e636520666f60008301527f722063616c6c00000000000000000000000000000000000000000000000000006020830152604082019050919050565b6000614350602c836151a3565b91507f4552433732313a206f70657261746f7220717565727920666f72206e6f6e657860008301527f697374656e7420746f6b656e00000000000000000000000000000000000000006020830152604082019050919050565b60006143b6602c836151a3565b91507f43616e6e6f742073746172742061756374696f6e20666f7220746f6b656e207960008301527f6f7520646f6e2774206f776e00000000000000000000000000000000000000006020830152604082019050919050565b600061441c6018836151a3565b91507f426964207072696365206d7573742062652068696768657200000000000000006000830152602082019050919050565b600061445c6038836151a3565b91507f4552433732313a20617070726f76652063616c6c6572206973206e6f74206f7760008301527f6e6572206e6f7220617070726f76656420666f7220616c6c00000000000000006020830152604082019050919050565b60006144c2602a836151a3565b91507f4552433732313a2062616c616e636520717565727920666f7220746865207a6560008301527f726f2061646472657373000000000000000000000000000000000000000000006020830152604082019050919050565b60006145286022836151a3565b91507f456e756d657261626c654d61703a20696e646578206f7574206f6620626f756e60008301527f64730000000000000000000000000000000000000000000000000000000000006020830152604082019050919050565b600061458e6020836151a3565b91507f4552433732313a206d696e7420746f20746865207a65726f20616464726573736000830152602082019050919050565b60006145ce602c836151a3565b91507f4552433732313a20617070726f76656420717565727920666f72206e6f6e657860008301527f697374656e7420746f6b656e00000000000000000000000000000000000000006020830152604082019050919050565b60006146346015836151a3565b91507f41756374696f6e20646f65736e277420657869737400000000000000000000006000830152602082019050919050565b6000614674600f836151a3565b91507f496e636f72726563742076616c756500000000000000000000000000000000006000830152602082019050919050565b60006146b46020836151a3565b91507f4f776e61626c653a2063616c6c6572206973206e6f7420746865206f776e65726000830152602082019050919050565b60006146f46029836151a3565b91507f4552433732313a207472616e73666572206f6620746f6b656e2074686174206960008301527f73206e6f74206f776e00000000000000000000000000000000000000000000006020830152604082019050919050565b600061475a602f836151a3565b91507f4552433732314d657461646174613a2055524920717565727920666f72206e6f60008301527f6e6578697374656e7420746f6b656e00000000000000000000000000000000006020830152604082019050919050565b60006147c06021836151a3565b91507f4552433732313a20617070726f76616c20746f2063757272656e74206f776e6560008301527f72000000000000000000000000000000000000000000000000000000000000006020830152604082019050919050565b60006148266031836151a3565b91507f4552433732313a207472616e736665722063616c6c6572206973206e6f74206f60008301527f776e6572206e6f7220617070726f7665640000000000000000000000000000006020830152604082019050919050565b600061488c601d836151a3565b91507f416464726573733a2063616c6c20746f206e6f6e2d636f6e74726163740000006000830152602082019050919050565b60006148cc601d836151a3565b91507f5468652061756374696f6e20686173206e6f7420656e646564207965740000006000830152602082019050919050565b600061490c6015836151a3565b91507f5468652061756374696f6e2068617320656e64656400000000000000000000006000830152602082019050919050565b600061494c6011836151a3565b91507f48696768657220626964206578697374730000000000000000000000000000006000830152602082019050919050565b610120820160008201516149966000850182614b1b565b5060208201516149a96020850182613ebc565b5060408201516149bc6040850182613eda565b5060608201516149cf6060850182613eda565b5060808201516149e26080850182614b1b565b5060a08201516149f560a0850182614b1b565b5060c0820151614a0860c0850182613ebc565b5060e0820151614a1b60e0850182614b1b565b50610100820151614a30610100850182613eda565b50505050565b608082016000820151614a4c6000850182614b1b565b506020820151614a5f6020850182613ebc565b506040820151614a726040850182614b1b565b506060820151614a856060850182614b1b565b50505050565b600060c0830160008301518482036000860152614aa88282613f62565b91505060208301518482036020860152614ac28282613f62565b9150506040830151614ad76040860182614b39565b506060830151614aea6060860182614b1b565b506080830151614afd6080860182614b1b565b5060a0830151614b1060a0860182613eda565b508091505092915050565b614b248161523b565b82525050565b614b338161523b565b82525050565b614b4281615245565b82525050565b6000614b548284613f31565b915081905092915050565b6000614b6b8284613fd4565b915081905092915050565b6000614b828285613fd4565b9150614b8e8284613fd4565b91508190509392505050565b6000602082019050614baf6000830184613ecb565b92915050565b6000608082019050614bca6000830187613ead565b614bd76020830186613ecb565b614be46040830185614b2a565b8181036060830152614bf68184613ef8565b905095945050505050565b6000604082019050614c166000830185613e9e565b614c236020830184614b2a565b9392505050565b6000606082019050614c3f6000830186613ecb565b614c4c6020830185613e9e565b614c596040830184614b2a565b949350505050565b6000604082019050614c766000830185613ecb565b614c836020830184614b2a565b9392505050565b6000602082019050614c9f6000830184613ee9565b92915050565b60006020820190508181036000830152614cbf8184613f9b565b905092915050565b60006020820190508181036000830152614ce081614005565b9050919050565b60006020820190508181036000830152614d0081614045565b9050919050565b60006020820190508181036000830152614d20816140ab565b9050919050565b60006020820190508181036000830152614d4081614111565b9050919050565b60006020820190508181036000830152614d6081614151565b9050919050565b60006020820190508181036000830152614d80816141b7565b9050919050565b60006020820190508181036000830152614da0816141f7565b9050919050565b60006020820190508181036000830152614dc081614237565b9050919050565b60006020820190508181036000830152614de08161429d565b9050919050565b60006020820190508181036000830152614e00816142dd565b9050919050565b60006020820190508181036000830152614e2081614343565b9050919050565b60006020820190508181036000830152614e40816143a9565b9050919050565b60006020820190508181036000830152614e608161440f565b9050919050565b60006020820190508181036000830152614e808161444f565b9050919050565b60006020820190508181036000830152614ea0816144b5565b9050919050565b60006020820190508181036000830152614ec08161451b565b9050919050565b60006020820190508181036000830152614ee081614581565b9050919050565b60006020820190508181036000830152614f00816145c1565b9050919050565b60006020820190508181036000830152614f2081614627565b9050919050565b60006020820190508181036000830152614f4081614667565b9050919050565b60006020820190508181036000830152614f60816146a7565b9050919050565b60006020820190508181036000830152614f80816146e7565b9050919050565b60006020820190508181036000830152614fa08161474d565b9050919050565b60006020820190508181036000830152614fc0816147b3565b9050919050565b60006020820190508181036000830152614fe081614819565b9050919050565b600060208201905081810360008301526150008161487f565b9050919050565b60006020820190508181036000830152615020816148bf565b9050919050565b60006020820190508181036000830152615040816148ff565b9050919050565b600060208201905081810360008301526150608161493f565b9050919050565b60006101208201905061507d600083018461497f565b92915050565b60006080820190506150986000830184614a36565b92915050565b600060208201905081810360008301526150b88184614a8b565b905092915050565b60006020820190506150d56000830184614b2a565b92915050565b6000604051905081810181811067ffffffffffffffff821117156150fe57600080fd5b8060405250919050565b600067ffffffffffffffff82111561511f57600080fd5b601f19601f8301169050602081019050919050565b600067ffffffffffffffff82111561514b57600080fd5b601f19601f8301169050602081019050919050565b600081519050919050565b600081519050919050565b600082825260208201905092915050565b600081905092915050565b600082825260208201905092915050565b600082825260208201905092915050565b600081905092915050565b60006151ca8261521b565b9050919050565b60006151dc8261521b565b9050919050565b60008115159050919050565b60007fffffffff0000000000000000000000000000000000000000000000000000000082169050919050565b600073ffffffffffffffffffffffffffffffffffffffff82169050919050565b6000819050919050565b600060ff82169050919050565b600061525d82615264565b9050919050565b600061526f82615276565b9050919050565b60006152818261521b565b9050919050565b82818337600083830152505050565b60005b838110156152b557808201518184015260208101905061529a565b838111156152c4576000848401525b50505050565b6000601f19601f8301169050919050565b6152e4816151bf565b81146152ef57600080fd5b50565b6152fb816151e3565b811461530657600080fd5b50565b615312816151ef565b811461531d57600080fd5b50565b6153298161523b565b811461533457600080fd5b50565b61534081615245565b811461534b57600080fd5b5056fe4552433732313a207472616e7366657220746f206e6f6e20455243373231526563656976657220696d706c656d656e7465724552433732313a206f776e657220717565727920666f72206e6f6e6578697374656e7420746f6b656ea264697066735822122047662b084bffdbbc2c0c835e56d4b24c506f2d06a9ee9884d4ca910d2fe525cc64736f6c634300060c0033",
  "immutableReferences": {},
  "source": "// truffle migrate --reset --network rinkeby --skip-dry-run\r\npragma solidity =0.6.12;\r\npragma experimental ABIEncoderV2;\r\n\r\nimport \"@openzeppelin/contracts/token/ERC721/ERC721.sol\";\r\nimport \"@openzeppelin/contracts/access/Ownable.sol\";\r\n\r\ncontract LocationNFT is ERC721, Ownable {\r\n\tconstructor() ERC721(\"UniqueAsset\", \"UNA\") public {\r\n\r\n\t}\r\n\r\n\tstruct Location {\r\n\t\tstring location_name; //0-255\r\n\t\tstring svg_image;\r\n\t\tuint8 locn_type;\r\n\t\tuint256 latitude;\r\n\t\tuint256 longitude;\r\n\t\tbool isExist;\r\n\t}\r\n\tstruct LocationName {\r\n\t    string location_name;\r\n\t    bool isExist;\r\n\t}\r\n\tstruct Auction {\r\n\t    uint256 tokenId;\r\n\t    address beneficiary;\r\n\t    bool auctionGoingOn;\r\n\t\tbool auctionEnded;\r\n\t    uint auctionEndTime;\r\n\t\tuint biddingTime;\r\n\t    address highestBidder;\r\n\t    uint highestBid;\r\n\t    bool isExist;\r\n\t}\r\n\tstruct Bid {\r\n\t\tuint256 tokenId;\r\n\t\taddress bidder;\r\n\t\tuint bidValue;\r\n\t\tuint timeBid;\r\n\t}\r\n\r\n\tuint public nextId = 0;\r\n\tuint public acceptedBidsIdx = 0;\r\n\r\n\tevent NftBought(address _seller, address _buyer, uint256 _price);\r\n\tevent AuctionStarted(address ownerAddress, uint _biddingTime);\r\n\tevent BidIncrease(address bidAddress, uint256 bidValue);\r\n\tevent AuctionEnded(address bidAddress, uint256 bidValue);\r\n\r\n\tmapping(uint256 => Location) private _locationDetails;\r\n\tmapping(string => LocationName) private _locationNames;\r\n\tmapping(uint256 => uint256) public tokenIdToPrice;\r\n\tmapping(uint256 => Auction) private _auctions;\r\n\tmapping(address => uint) private _pendingReturns;\r\n\tmapping(uint256 => Bid) private _biddingLogs;\r\n\t\r\n\tfunction getTokenDetails(uint256 tokenId) public view returns (Location memory) {\r\n\t\treturn _locationDetails[tokenId];\r\n\t}\r\n\r\n\tfunction getPriceOf(uint256 tokenId) public view returns (uint256) {\r\n\t\treturn tokenIdToPrice[tokenId];\r\n\t}\r\n\r\n\tfunction getOwnerOf(uint256 tokenId) public view returns (address){\r\n\t\treturn ownerOf(tokenId);\r\n\t}\r\n\t\r\n\tfunction getAuctionInfo(uint256 tokenId) public view returns(Auction memory) {\r\n\t    return _auctions[tokenId];\r\n\t}\r\n\r\n\tfunction getBiddingLog(uint256 bidId) public view returns(Bid memory) {\r\n\t\treturn _biddingLogs[bidId];\r\n\t}\r\n\r\n\tfunction mint(string memory location_name, string memory svg_image, uint8 locn_type, uint256 latitude, uint256 longitude, bool isSellable) public onlyOwner {\r\n\t    require(!_locationNames[location_name].isExist, \"Location already minted\");\r\n\t\t_locationDetails[nextId] = Location(location_name, svg_image, locn_type, latitude, longitude, true);\r\n\t\t_locationNames[location_name] = LocationName(location_name, true);\r\n\t\tif (isSellable) {\r\n\t\t\ttokenIdToPrice[nextId] = 10000000000000000; //2000 wei\r\n\t\t} else {\r\n\t\t\ttokenIdToPrice[nextId] = 0;\r\n\t\t}\r\n\t\t//safeMint function calls _beforeTokenTransfer which we have overridden.\r\n\t\t_safeMint(msg.sender, nextId);\r\n\t\tnextId++;\r\n\t}\r\n\r\n\tfunction _beforeTokenTransfer(address from, address to, uint256 tokenId) internal override { \r\n\t\t\r\n\t}\r\n\r\n\tfunction buy(uint256 _tokenId) external payable {\r\n\t\tuint256 price = tokenIdToPrice[_tokenId];\r\n\t\trequire(price > 0, \"This token is not for sale\");\r\n\t\trequire(msg.value == price, 'Incorrect value');\r\n\t\taddress seller = ownerOf(_tokenId);\r\n\t\t_transfer(seller, msg.sender, _tokenId);\r\n\t\ttokenIdToPrice[_tokenId] = 0;\r\n\t\tpayable(seller).transfer(msg.value);\r\n\t\temit NftBought(seller, msg.sender, msg.value);\r\n\t}\r\n\t\r\n\tfunction startAuction(uint256 _tokenId, uint _biddingTime) external {\r\n\t    uint auctionEndTime = block.timestamp + _biddingTime;\r\n\t    require(_locationDetails[_tokenId].isExist, \"Token doesn't exist\");\r\n\t    // require(!_auctions[_tokenId].isExist, \"Auction already started\");\r\n\t    require(msg.sender == ownerOf(_tokenId), \"Cannot start auction for token you don't own\");\r\n\t\tif(_auctions[_tokenId].isExist && !_auctions[_tokenId].auctionEnded) {\r\n\t\t\trevert (\"The auction has not ended yet\");\r\n\t\t}\r\n\t    _auctions[_tokenId] = Auction(_tokenId,msg.sender,true,false,auctionEndTime,_biddingTime,address(0x0),0,true);\r\n\t\temit AuctionStarted(msg.sender, _biddingTime);\r\n\t}\r\n\r\n\tfunction endAuction(uint256 _tokenId) external {\r\n\t    Auction memory auc = getAuctionInfo(_tokenId);\r\n\t    require(auc.isExist, \"Auction doesn't exist\");\r\n\t    if(block.timestamp < auc.auctionEndTime) {\r\n\t        revert (\"The auction has not ended yet\");\r\n\t    }\r\n\t    if(auc.auctionEnded) {\r\n\t        revert (\"The auction has ended\");\r\n\t    }\r\n\t\tif(auc.highestBid == 0) {\r\n\t\t\tauc.auctionEnded = true;\r\n\t    \tauc.auctionGoingOn = false;\r\n\t\t\t_auctions[_tokenId] = auc;\r\n\t\t\temit AuctionEnded(auc.highestBidder, auc.highestBid);\r\n\t\t} else {\r\n\t\t\tauc.auctionEnded = true;\r\n\t\t\tauc.auctionGoingOn = false;\r\n\t\t\tpayable(auc.beneficiary).transfer(auc.highestBid);\r\n\t\t\t_transfer(auc.beneficiary, auc.highestBidder, _tokenId);\r\n\t\t\tauc.beneficiary = auc.highestBidder;\r\n\t\t\t_auctions[_tokenId] = auc;\r\n\t\t\ttokenIdToPrice[_tokenId] = auc.highestBid;\r\n\t\t\temit AuctionEnded(auc.highestBidder, auc.highestBid);\r\n\t\t}\r\n\t}\r\n\t\r\n\tfunction placeBid(uint256 _tokenId) external payable {\r\n\t    Auction memory auc = getAuctionInfo(_tokenId);\r\n\t    require(auc.isExist, \"Auction doesn't exist\");\r\n\t\trequire(msg.value > tokenIdToPrice[_tokenId], \"Bid price must be higher\");\r\n\t    if(msg.value <= auc.highestBid) {\r\n\t        revert(\"Higher bid exists\");\r\n\t    }\r\n\t    auc.highestBid = msg.value;\r\n\t    auc.highestBidder = msg.sender;\r\n\t    _auctions[_tokenId] = auc;\r\n\t    _pendingReturns[msg.sender] += msg.value;\r\n\t    emit BidIncrease(msg.sender, msg.value);\r\n\r\n\t\t//Log bid into bidHistory\r\n\t\t_biddingLogs[acceptedBidsIdx] = Bid(_tokenId, msg.sender, msg.value, block.timestamp);\r\n\t\tacceptedBidsIdx++;\r\n\t}\r\n\t\r\n}",
  "sourcePath": "C:/Users/swapp/Documents/MyProjects/Crypto/world_nft/contracts/LocationNFT.sol",
  "compiler": {
    "name": "solc",
    "version": "0.6.12+commit.27d51765.Emscripten.clang"
  },
  "schemaVersion": "3.2.3",
  "updatedAt": "2021-07-02T06:40:39.643Z",
  "networkType": "ethereum",
  "devdoc": {
    "kind": "dev",
    "methods": {
      "approve(address,uint256)": {
        "details": "See {IERC721-approve}."
      },
      "balanceOf(address)": {
        "details": "See {IERC721-balanceOf}."
      },
      "baseURI()": {
        "details": "Returns the base URI set via {_setBaseURI}. This will be automatically added as a prefix in {tokenURI} to each token's URI, or to the token ID if no specific URI is set for that token ID."
      },
      "getApproved(uint256)": {
        "details": "See {IERC721-getApproved}."
      },
      "isApprovedForAll(address,address)": {
        "details": "See {IERC721-isApprovedForAll}."
      },
      "name()": {
        "details": "See {IERC721Metadata-name}."
      },
      "owner()": {
        "details": "Returns the address of the current owner."
      },
      "ownerOf(uint256)": {
        "details": "See {IERC721-ownerOf}."
      },
      "renounceOwnership()": {
        "details": "Leaves the contract without owner. It will not be possible to call `onlyOwner` functions anymore. Can only be called by the current owner. NOTE: Renouncing ownership will leave the contract without an owner, thereby removing any functionality that is only available to the owner."
      },
      "safeTransferFrom(address,address,uint256)": {
        "details": "See {IERC721-safeTransferFrom}."
      },
      "safeTransferFrom(address,address,uint256,bytes)": {
        "details": "See {IERC721-safeTransferFrom}."
      },
      "setApprovalForAll(address,bool)": {
        "details": "See {IERC721-setApprovalForAll}."
      },
      "supportsInterface(bytes4)": {
        "details": "See {IERC165-supportsInterface}. Time complexity O(1), guaranteed to always use less than 30 000 gas."
      },
      "symbol()": {
        "details": "See {IERC721Metadata-symbol}."
      },
      "tokenByIndex(uint256)": {
        "details": "See {IERC721Enumerable-tokenByIndex}."
      },
      "tokenOfOwnerByIndex(address,uint256)": {
        "details": "See {IERC721Enumerable-tokenOfOwnerByIndex}."
      },
      "tokenURI(uint256)": {
        "details": "See {IERC721Metadata-tokenURI}."
      },
      "totalSupply()": {
        "details": "See {IERC721Enumerable-totalSupply}."
      },
      "transferFrom(address,address,uint256)": {
        "details": "See {IERC721-transferFrom}."
      },
      "transferOwnership(address)": {
        "details": "Transfers ownership of the contract to a new account (`newOwner`). Can only be called by the current owner."
      }
    },
    "version": 1
  },
  "userdoc": {
    "kind": "user",
    "methods": {},
    "version": 1
  }
}