{
  "contractName": "LocationNFT",
  "abi": [
    {
      "inputs": [],
      "stateMutability": "nonpayable",
      "type": "constructor"
    },
    {
      "anonymous": false,
      "inputs": [
        {
          "indexed": true,
          "internalType": "address",
          "name": "owner",
          "type": "address"
        },
        {
          "indexed": true,
          "internalType": "address",
          "name": "approved",
          "type": "address"
        },
        {
          "indexed": true,
          "internalType": "uint256",
          "name": "tokenId",
          "type": "uint256"
        }
      ],
      "name": "Approval",
      "type": "event"
    },
    {
      "anonymous": false,
      "inputs": [
        {
          "indexed": true,
          "internalType": "address",
          "name": "owner",
          "type": "address"
        },
        {
          "indexed": true,
          "internalType": "address",
          "name": "operator",
          "type": "address"
        },
        {
          "indexed": false,
          "internalType": "bool",
          "name": "approved",
          "type": "bool"
        }
      ],
      "name": "ApprovalForAll",
      "type": "event"
    },
    {
      "anonymous": false,
      "inputs": [
        {
          "indexed": false,
          "internalType": "address",
          "name": "bidAddress",
          "type": "address"
        },
        {
          "indexed": false,
          "internalType": "uint256",
          "name": "bidValue",
          "type": "uint256"
        }
      ],
      "name": "AuctionEnded",
      "type": "event"
    },
    {
      "anonymous": false,
      "inputs": [
        {
          "indexed": false,
          "internalType": "address",
          "name": "ownerAddress",
          "type": "address"
        },
        {
          "indexed": false,
          "internalType": "uint256",
          "name": "_biddingTime",
          "type": "uint256"
        }
      ],
      "name": "AuctionStarted",
      "type": "event"
    },
    {
      "anonymous": false,
      "inputs": [
        {
          "indexed": false,
          "internalType": "address",
          "name": "bidAddress",
          "type": "address"
        },
        {
          "indexed": false,
          "internalType": "uint256",
          "name": "bidValue",
          "type": "uint256"
        }
      ],
      "name": "BidIncrease",
      "type": "event"
    },
    {
      "anonymous": false,
      "inputs": [
        {
          "indexed": false,
          "internalType": "address",
          "name": "_seller",
          "type": "address"
        },
        {
          "indexed": false,
          "internalType": "address",
          "name": "_buyer",
          "type": "address"
        },
        {
          "indexed": false,
          "internalType": "uint256",
          "name": "_price",
          "type": "uint256"
        }
      ],
      "name": "NftBought",
      "type": "event"
    },
    {
      "anonymous": false,
      "inputs": [
        {
          "indexed": true,
          "internalType": "address",
          "name": "previousOwner",
          "type": "address"
        },
        {
          "indexed": true,
          "internalType": "address",
          "name": "newOwner",
          "type": "address"
        }
      ],
      "name": "OwnershipTransferred",
      "type": "event"
    },
    {
      "anonymous": false,
      "inputs": [
        {
          "indexed": true,
          "internalType": "address",
          "name": "from",
          "type": "address"
        },
        {
          "indexed": true,
          "internalType": "address",
          "name": "to",
          "type": "address"
        },
        {
          "indexed": true,
          "internalType": "uint256",
          "name": "tokenId",
          "type": "uint256"
        }
      ],
      "name": "Transfer",
      "type": "event"
    },
    {
      "inputs": [],
      "name": "acceptedBidsIdx",
      "outputs": [
        {
          "internalType": "uint256",
          "name": "",
          "type": "uint256"
        }
      ],
      "stateMutability": "view",
      "type": "function",
      "constant": true
    },
    {
      "inputs": [
        {
          "internalType": "address",
          "name": "to",
          "type": "address"
        },
        {
          "internalType": "uint256",
          "name": "tokenId",
          "type": "uint256"
        }
      ],
      "name": "approve",
      "outputs": [],
      "stateMutability": "nonpayable",
      "type": "function"
    },
    {
      "inputs": [
        {
          "internalType": "address",
          "name": "owner",
          "type": "address"
        }
      ],
      "name": "balanceOf",
      "outputs": [
        {
          "internalType": "uint256",
          "name": "",
          "type": "uint256"
        }
      ],
      "stateMutability": "view",
      "type": "function",
      "constant": true
    },
    {
      "inputs": [],
      "name": "baseURI",
      "outputs": [
        {
          "internalType": "string",
          "name": "",
          "type": "string"
        }
      ],
      "stateMutability": "view",
      "type": "function",
      "constant": true
    },
    {
      "inputs": [
        {
          "internalType": "uint256",
          "name": "tokenId",
          "type": "uint256"
        }
      ],
      "name": "getApproved",
      "outputs": [
        {
          "internalType": "address",
          "name": "",
          "type": "address"
        }
      ],
      "stateMutability": "view",
      "type": "function",
      "constant": true
    },
    {
      "inputs": [
        {
          "internalType": "address",
          "name": "owner",
          "type": "address"
        },
        {
          "internalType": "address",
          "name": "operator",
          "type": "address"
        }
      ],
      "name": "isApprovedForAll",
      "outputs": [
        {
          "internalType": "bool",
          "name": "",
          "type": "bool"
        }
      ],
      "stateMutability": "view",
      "type": "function",
      "constant": true
    },
    {
      "inputs": [],
      "name": "name",
      "outputs": [
        {
          "internalType": "string",
          "name": "",
          "type": "string"
        }
      ],
      "stateMutability": "view",
      "type": "function",
      "constant": true
    },
    {
      "inputs": [],
      "name": "nextId",
      "outputs": [
        {
          "internalType": "uint256",
          "name": "",
          "type": "uint256"
        }
      ],
      "stateMutability": "view",
      "type": "function",
      "constant": true
    },
    {
      "inputs": [],
      "name": "owner",
      "outputs": [
        {
          "internalType": "address",
          "name": "",
          "type": "address"
        }
      ],
      "stateMutability": "view",
      "type": "function",
      "constant": true
    },
    {
      "inputs": [
        {
          "internalType": "uint256",
          "name": "tokenId",
          "type": "uint256"
        }
      ],
      "name": "ownerOf",
      "outputs": [
        {
          "internalType": "address",
          "name": "",
          "type": "address"
        }
      ],
      "stateMutability": "view",
      "type": "function",
      "constant": true
    },
    {
      "inputs": [],
      "name": "renounceOwnership",
      "outputs": [],
      "stateMutability": "nonpayable",
      "type": "function"
    },
    {
      "inputs": [
        {
          "internalType": "address",
          "name": "from",
          "type": "address"
        },
        {
          "internalType": "address",
          "name": "to",
          "type": "address"
        },
        {
          "internalType": "uint256",
          "name": "tokenId",
          "type": "uint256"
        }
      ],
      "name": "safeTransferFrom",
      "outputs": [],
      "stateMutability": "nonpayable",
      "type": "function"
    },
    {
      "inputs": [
        {
          "internalType": "address",
          "name": "from",
          "type": "address"
        },
        {
          "internalType": "address",
          "name": "to",
          "type": "address"
        },
        {
          "internalType": "uint256",
          "name": "tokenId",
          "type": "uint256"
        },
        {
          "internalType": "bytes",
          "name": "_data",
          "type": "bytes"
        }
      ],
      "name": "safeTransferFrom",
      "outputs": [],
      "stateMutability": "nonpayable",
      "type": "function"
    },
    {
      "inputs": [
        {
          "internalType": "address",
          "name": "operator",
          "type": "address"
        },
        {
          "internalType": "bool",
          "name": "approved",
          "type": "bool"
        }
      ],
      "name": "setApprovalForAll",
      "outputs": [],
      "stateMutability": "nonpayable",
      "type": "function"
    },
    {
      "inputs": [
        {
          "internalType": "bytes4",
          "name": "interfaceId",
          "type": "bytes4"
        }
      ],
      "name": "supportsInterface",
      "outputs": [
        {
          "internalType": "bool",
          "name": "",
          "type": "bool"
        }
      ],
      "stateMutability": "view",
      "type": "function",
      "constant": true
    },
    {
      "inputs": [],
      "name": "symbol",
      "outputs": [
        {
          "internalType": "string",
          "name": "",
          "type": "string"
        }
      ],
      "stateMutability": "view",
      "type": "function",
      "constant": true
    },
    {
      "inputs": [
        {
          "internalType": "uint256",
          "name": "index",
          "type": "uint256"
        }
      ],
      "name": "tokenByIndex",
      "outputs": [
        {
          "internalType": "uint256",
          "name": "",
          "type": "uint256"
        }
      ],
      "stateMutability": "view",
      "type": "function",
      "constant": true
    },
    {
      "inputs": [
        {
          "internalType": "uint256",
          "name": "",
          "type": "uint256"
        }
      ],
      "name": "tokenIdToPrice",
      "outputs": [
        {
          "internalType": "uint256",
          "name": "",
          "type": "uint256"
        }
      ],
      "stateMutability": "view",
      "type": "function",
      "constant": true
    },
    {
      "inputs": [
        {
          "internalType": "address",
          "name": "owner",
          "type": "address"
        },
        {
          "internalType": "uint256",
          "name": "index",
          "type": "uint256"
        }
      ],
      "name": "tokenOfOwnerByIndex",
      "outputs": [
        {
          "internalType": "uint256",
          "name": "",
          "type": "uint256"
        }
      ],
      "stateMutability": "view",
      "type": "function",
      "constant": true
    },
    {
      "inputs": [
        {
          "internalType": "uint256",
          "name": "tokenId",
          "type": "uint256"
        }
      ],
      "name": "tokenURI",
      "outputs": [
        {
          "internalType": "string",
          "name": "",
          "type": "string"
        }
      ],
      "stateMutability": "view",
      "type": "function",
      "constant": true
    },
    {
      "inputs": [],
      "name": "totalSupply",
      "outputs": [
        {
          "internalType": "uint256",
          "name": "",
          "type": "uint256"
        }
      ],
      "stateMutability": "view",
      "type": "function",
      "constant": true
    },
    {
      "inputs": [
        {
          "internalType": "address",
          "name": "from",
          "type": "address"
        },
        {
          "internalType": "address",
          "name": "to",
          "type": "address"
        },
        {
          "internalType": "uint256",
          "name": "tokenId",
          "type": "uint256"
        }
      ],
      "name": "transferFrom",
      "outputs": [],
      "stateMutability": "nonpayable",
      "type": "function"
    },
    {
      "inputs": [
        {
          "internalType": "address",
          "name": "newOwner",
          "type": "address"
        }
      ],
      "name": "transferOwnership",
      "outputs": [],
      "stateMutability": "nonpayable",
      "type": "function"
    },
    {
      "inputs": [
        {
          "internalType": "uint256",
          "name": "tokenId",
          "type": "uint256"
        }
      ],
      "name": "getTokenDetails",
      "outputs": [
        {
          "components": [
            {
              "internalType": "string",
              "name": "location_name",
              "type": "string"
            },
            {
              "internalType": "string",
              "name": "svg_image",
              "type": "string"
            },
            {
              "internalType": "uint8",
              "name": "locn_type",
              "type": "uint8"
            },
            {
              "internalType": "uint256",
              "name": "latitude",
              "type": "uint256"
            },
            {
              "internalType": "uint256",
              "name": "longitude",
              "type": "uint256"
            },
            {
              "internalType": "bool",
              "name": "isExist",
              "type": "bool"
            }
          ],
          "internalType": "struct LocationNFT.Location",
          "name": "",
          "type": "tuple"
        }
      ],
      "stateMutability": "view",
      "type": "function",
      "constant": true
    },
    {
      "inputs": [
        {
          "internalType": "uint256",
          "name": "tokenId",
          "type": "uint256"
        }
      ],
      "name": "getPriceOf",
      "outputs": [
        {
          "internalType": "uint256",
          "name": "",
          "type": "uint256"
        }
      ],
      "stateMutability": "view",
      "type": "function",
      "constant": true
    },
    {
      "inputs": [
        {
          "internalType": "uint256",
          "name": "tokenId",
          "type": "uint256"
        }
      ],
      "name": "getOwnerOf",
      "outputs": [
        {
          "internalType": "address",
          "name": "",
          "type": "address"
        }
      ],
      "stateMutability": "view",
      "type": "function",
      "constant": true
    },
    {
      "inputs": [
        {
          "internalType": "uint256",
          "name": "tokenId",
          "type": "uint256"
        }
      ],
      "name": "getAuctionInfo",
      "outputs": [
        {
          "components": [
            {
              "internalType": "uint256",
              "name": "tokenId",
              "type": "uint256"
            },
            {
              "internalType": "address",
              "name": "beneficiary",
              "type": "address"
            },
            {
              "internalType": "bool",
              "name": "auctionGoingOn",
              "type": "bool"
            },
            {
              "internalType": "bool",
              "name": "auctionEnded",
              "type": "bool"
            },
            {
              "internalType": "uint256",
              "name": "auctionEndTime",
              "type": "uint256"
            },
            {
              "internalType": "uint256",
              "name": "biddingTime",
              "type": "uint256"
            },
            {
              "internalType": "address",
              "name": "highestBidder",
              "type": "address"
            },
            {
              "internalType": "uint256",
              "name": "highestBid",
              "type": "uint256"
            },
            {
              "internalType": "bool",
              "name": "isExist",
              "type": "bool"
            }
          ],
          "internalType": "struct LocationNFT.Auction",
          "name": "",
          "type": "tuple"
        }
      ],
      "stateMutability": "view",
      "type": "function",
      "constant": true
    },
    {
      "inputs": [
        {
          "internalType": "uint256",
          "name": "bidId",
          "type": "uint256"
        }
      ],
      "name": "getBiddingLog",
      "outputs": [
        {
          "components": [
            {
              "internalType": "uint256",
              "name": "tokenId",
              "type": "uint256"
            },
            {
              "internalType": "address",
              "name": "bidder",
              "type": "address"
            },
            {
              "internalType": "uint256",
              "name": "bidValue",
              "type": "uint256"
            },
            {
              "internalType": "uint256",
              "name": "timeBid",
              "type": "uint256"
            }
          ],
          "internalType": "struct LocationNFT.Bid",
          "name": "",
          "type": "tuple"
        }
      ],
      "stateMutability": "view",
      "type": "function",
      "constant": true
    },
    {
      "inputs": [
        {
          "internalType": "string",
          "name": "location_name",
          "type": "string"
        },
        {
          "internalType": "string",
          "name": "svg_image",
          "type": "string"
        },
        {
          "internalType": "uint8",
          "name": "locn_type",
          "type": "uint8"
        },
        {
          "internalType": "uint256",
          "name": "latitude",
          "type": "uint256"
        },
        {
          "internalType": "uint256",
          "name": "longitude",
          "type": "uint256"
        },
        {
          "internalType": "bool",
          "name": "isSellable",
          "type": "bool"
        }
      ],
      "name": "mint",
      "outputs": [],
      "stateMutability": "nonpayable",
      "type": "function"
    },
    {
      "inputs": [
        {
          "internalType": "uint256",
          "name": "_tokenId",
          "type": "uint256"
        }
      ],
      "name": "buy",
      "outputs": [],
      "stateMutability": "payable",
      "type": "function",
      "payable": true
    },
    {
      "inputs": [
        {
          "internalType": "uint256",
          "name": "_tokenId",
          "type": "uint256"
        },
        {
          "internalType": "uint256",
          "name": "_biddingTime",
          "type": "uint256"
        }
      ],
      "name": "startAuction",
      "outputs": [],
      "stateMutability": "nonpayable",
      "type": "function"
    },
    {
      "inputs": [
        {
          "internalType": "uint256",
          "name": "_tokenId",
          "type": "uint256"
        }
      ],
      "name": "endAuction",
      "outputs": [],
      "stateMutability": "nonpayable",
      "type": "function"
    },
    {
      "inputs": [
        {
          "internalType": "uint256",
          "name": "_tokenId",
          "type": "uint256"
        }
      ],
      "name": "placeBid",
      "outputs": [],
      "stateMutability": "payable",
      "type": "function",
      "payable": true
    }
  ],
  "bytecode": "0x60806040526000600b556000600c553480156200001b57600080fd5b506040518060400160405280600b81526020017f556e6971756541737365740000000000000000000000000000000000000000008152506040518060400160405280600381526020017f554e410000000000000000000000000000000000000000000000000000000000815250620000a06301ffc9a760e01b620001d360201b60201c565b8160069080519060200190620000b8929190620002b3565b508060079080519060200190620000d1929190620002b3565b50620000ea6380ac58cd60e01b620001d360201b60201c565b62000102635b5e139f60e01b620001d360201b60201c565b6200011a63780e9d6360e01b620001d360201b60201c565b505060006200012e620002ab60201b60201c565b905080600a60006101000a81548173ffffffffffffffffffffffffffffffffffffffff021916908373ffffffffffffffffffffffffffffffffffffffff1602179055508073ffffffffffffffffffffffffffffffffffffffff16600073ffffffffffffffffffffffffffffffffffffffff167f8be0079c531659141344cd1fd0a4f28419497f9722a3daafe3b4186f6b6457e060405160405180910390a350620003ce565b63ffffffff60e01b817bffffffffffffffffffffffffffffffffffffffffffffffffffffffff191614156200023f576040517f08c379a000000000000000000000000000000000000000000000000000000000815260040162000236906200039b565b60405180910390fd5b6001600080837bffffffffffffffffffffffffffffffffffffffffffffffffffffffff19167bffffffffffffffffffffffffffffffffffffffffffffffffffffffff1916815260200190815260200160002060006101000a81548160ff02191690831515021790555050565b600033905090565b828054600181600116156101000203166002900490600052602060002090601f016020900481019282601f10620002f657805160ff191683800117855562000327565b8280016001018555821562000327579182015b828111156200032657825182559160200191906001019062000309565b5b5090506200033691906200033a565b5090565b5b80821115620003555760008160009055506001016200033b565b5090565b600062000368601c83620003bd565b91507f4552433136353a20696e76616c696420696e74657266616365206964000000006000830152602082019050919050565b60006020820190508181036000830152620003b68162000359565b9050919050565b600082825260208201905092915050565b61541280620003de6000396000f3fe6080604052600436106101ee5760003560e01c8063836387101161010d578063b9a2de3a116100a0578063e985e9c51161006f578063e985e9c51461072d578063f2fde38b1461076a578063f4812eb914610793578063f901c4d8146107d0578063fc3fc4ed146107f9576101ee565b8063b9a2de3a1461066e578063c1e0372814610697578063c87b56dd146106d4578063d96a094a14610711576101ee565b8063a22cb465116100dc578063a22cb465146105a2578063ad81bd1c146105cb578063b54b4fb914610608578063b88d4fde14610645576101ee565b806383638710146104f35780638da5cb5b1461053057806395d89b411461055b5780639979ef4514610586576101ee565b806342842e0e116101855780636352211e116101545780636352211e146104375780636c0360eb1461047457806370a082311461049f578063715018a6146104dc576101ee565b806342842e0e1461037d5780634f6ccce7146103a65780634fee13fc146103e357806361b8ce8c1461040c576101ee565b8063095ea7b3116101c1578063095ea7b3146102c357806318160ddd146102ec57806323b872dd146103175780632f745c5914610340576101ee565b806301ffc9a7146101f3578063067fa8fc1461023057806306fdde031461025b578063081812fc14610286575b600080fd5b3480156101ff57600080fd5b5061021a60048036038101906102159190613d01565b610836565b6040516102279190614c9d565b60405180910390f35b34801561023c57600080fd5b5061024561089d565b60405161025291906150f3565b60405180910390f35b34801561026757600080fd5b506102706108a3565b60405161027d9190614cb8565b60405180910390f35b34801561029257600080fd5b506102ad60048036038101906102a89190613e0c565b610945565b6040516102ba9190614bad565b60405180910390f35b3480156102cf57600080fd5b506102ea60048036038101906102e59190613cc5565b6109ca565b005b3480156102f857600080fd5b50610301610ae2565b60405161030e91906150f3565b60405180910390f35b34801561032357600080fd5b5061033e60048036038101906103399190613bbf565b610af3565b005b34801561034c57600080fd5b5061036760048036038101906103629190613cc5565b610b53565b60405161037491906150f3565b60405180910390f35b34801561038957600080fd5b506103a4600480360381019061039f9190613bbf565b610bae565b005b3480156103b257600080fd5b506103cd60048036038101906103c89190613e0c565b610bce565b6040516103da91906150f3565b60405180910390f35b3480156103ef57600080fd5b5061040a60048036038101906104059190613e35565b610bf1565b005b34801561041857600080fd5b50610421610f17565b60405161042e91906150f3565b60405180910390f35b34801561044357600080fd5b5061045e60048036038101906104599190613e0c565b610f1d565b60405161046b9190614bad565b60405180910390f35b34801561048057600080fd5b50610489610f54565b6040516104969190614cb8565b60405180910390f35b3480156104ab57600080fd5b506104c660048036038101906104c19190613b5a565b610ff6565b6040516104d391906150f3565b60405180910390f35b3480156104e857600080fd5b506104f16110b5565b005b3480156104ff57600080fd5b5061051a60048036038101906105159190613e0c565b6111f2565b6040516105279190614bad565b60405180910390f35b34801561053c57600080fd5b50610545611204565b6040516105529190614bad565b60405180910390f35b34801561056757600080fd5b5061057061122e565b60405161057d9190614cb8565b60405180910390f35b6105a0600480360381019061059b9190613e0c565b6112d0565b005b3480156105ae57600080fd5b506105c960048036038101906105c49190613c89565b611683565b005b3480156105d757600080fd5b506105f260048036038101906105ed9190613e0c565b611804565b6040516105ff91906150b6565b60405180910390f35b34801561061457600080fd5b5061062f600480360381019061062a9190613e0c565b6118a5565b60405161063c91906150f3565b60405180910390f35b34801561065157600080fd5b5061066c60048036038101906106679190613c0e565b6118c2565b005b34801561067a57600080fd5b5061069560048036038101906106909190613e0c565b611924565b005b3480156106a357600080fd5b506106be60048036038101906106b99190613e0c565b611dfb565b6040516106cb91906150d1565b60405180910390f35b3480156106e057600080fd5b506106fb60048036038101906106f69190613e0c565b611fb8565b6040516107089190614cb8565b60405180910390f35b61072b60048036038101906107269190613e0c565b61213b565b005b34801561073957600080fd5b50610754600480360381019061074f9190613b83565b612290565b6040516107619190614c9d565b60405180910390f35b34801561077657600080fd5b50610791600480360381019061078c9190613b5a565b612324565b005b34801561079f57600080fd5b506107ba60048036038101906107b59190613e0c565b6124d0565b6040516107c791906150f3565b60405180910390f35b3480156107dc57600080fd5b506107f760048036038101906107f29190613d53565b6124e8565b005b34801561080557600080fd5b50610820600480360381019061081b9190613e0c565b612791565b60405161082d919061509a565b60405180910390f35b6000806000837bffffffffffffffffffffffffffffffffffffffffffffffffffffffff19167bffffffffffffffffffffffffffffffffffffffffffffffffffffffff1916815260200190815260200160002060009054906101000a900460ff169050919050565b600c5481565b606060068054600181600116156101000203166002900480601f01602080910402602001604051908101604052809291908181526020018280546001816001161561010002031660029004801561093b5780601f106109105761010080835404028352916020019161093b565b820191906000526020600020905b81548152906001019060200180831161091e57829003601f168201915b5050505050905090565b6000610950826128e4565b61098f576040517f08c379a000000000000000000000000000000000000000000000000000000000815260040161098690614f1a565b60405180910390fd5b6004600083815260200190815260200160002060009054906101000a900473ffffffffffffffffffffffffffffffffffffffff169050919050565b60006109d582610f1d565b90508073ffffffffffffffffffffffffffffffffffffffff168373ffffffffffffffffffffffffffffffffffffffff161415610a46576040517f08c379a0000000000000000000000000000000000000000000000000000000008152600401610a3d90614fda565b60405180910390fd5b8073ffffffffffffffffffffffffffffffffffffffff16610a65612901565b73ffffffffffffffffffffffffffffffffffffffff161480610a945750610a9381610a8e612901565b612290565b5b610ad3576040517f08c379a0000000000000000000000000000000000000000000000000000000008152600401610aca90614e7a565b60405180910390fd5b610add8383612909565b505050565b6000610aee60026129c2565b905090565b610b04610afe612901565b826129d7565b610b43576040517f08c379a0000000000000000000000000000000000000000000000000000000008152600401610b3a90614ffa565b60405180910390fd5b610b4e838383612ab5565b505050565b6000610ba682600160008673ffffffffffffffffffffffffffffffffffffffff1673ffffffffffffffffffffffffffffffffffffffff168152602001908152602001600020612ccc90919063ffffffff16565b905092915050565b610bc9838383604051806020016040528060008152506118c2565b505050565b600080610be5836002612ce690919063ffffffff16565b50905080915050919050565b60008142019050600d600084815260200190815260200160002060050160009054906101000a900460ff16610c5b576040517f08c379a0000000000000000000000000000000000000000000000000000000008152600401610c5290614cda565b60405180910390fd5b6010600084815260200190815260200160002060060160009054906101000a900460ff1615610cbf576040517f08c379a0000000000000000000000000000000000000000000000000000000008152600401610cb690614eda565b60405180910390fd5b610cc883610f1d565b73ffffffffffffffffffffffffffffffffffffffff163373ffffffffffffffffffffffffffffffffffffffff1614610d35576040517f08c379a0000000000000000000000000000000000000000000000000000000008152600401610d2c90614e3a565b60405180910390fd5b6040518061012001604052808481526020013373ffffffffffffffffffffffffffffffffffffffff168152602001600115158152602001600015158152602001828152602001838152602001600073ffffffffffffffffffffffffffffffffffffffff1681526020016000815260200160011515815250601060008581526020019081526020016000206000820151816000015560208201518160010160006101000a81548173ffffffffffffffffffffffffffffffffffffffff021916908373ffffffffffffffffffffffffffffffffffffffff16021790555060408201518160010160146101000a81548160ff02191690831515021790555060608201518160010160156101000a81548160ff0219169083151502179055506080820151816002015560a0820151816003015560c08201518160040160006101000a81548173ffffffffffffffffffffffffffffffffffffffff021916908373ffffffffffffffffffffffffffffffffffffffff16021790555060e082015181600501556101008201518160060160006101000a81548160ff0219169083151502179055509050507fc087c4cdb16906b5ff7016a6bf927618f24ff32eb1de5e86eeaeb08b94831a683383604051610f0a929190614c14565b60405180910390a1505050565b600b5481565b6000610f4d826040518060600160405280602981526020016153b4602991396002612d129092919063ffffffff16565b9050919050565b606060098054600181600116156101000203166002900480601f016020809104026020016040519081016040528092919081815260200182805460018160011615610100020316600290048015610fec5780601f10610fc157610100808354040283529160200191610fec565b820191906000526020600020905b815481529060010190602001808311610fcf57829003601f168201915b5050505050905090565b60008073ffffffffffffffffffffffffffffffffffffffff168273ffffffffffffffffffffffffffffffffffffffff161415611067576040517f08c379a000000000000000000000000000000000000000000000000000000000815260040161105e90614e9a565b60405180910390fd5b6110ae600160008473ffffffffffffffffffffffffffffffffffffffff1673ffffffffffffffffffffffffffffffffffffffff168152602001908152602001600020612d31565b9050919050565b6110bd612901565b73ffffffffffffffffffffffffffffffffffffffff166110db611204565b73ffffffffffffffffffffffffffffffffffffffff1614611131576040517f08c379a000000000000000000000000000000000000000000000000000000000815260040161112890614f7a565b60405180910390fd5b600073ffffffffffffffffffffffffffffffffffffffff16600a60009054906101000a900473ffffffffffffffffffffffffffffffffffffffff1673ffffffffffffffffffffffffffffffffffffffff167f8be0079c531659141344cd1fd0a4f28419497f9722a3daafe3b4186f6b6457e060405160405180910390a36000600a60006101000a81548173ffffffffffffffffffffffffffffffffffffffff021916908373ffffffffffffffffffffffffffffffffffffffff160217905550565b60006111fd82610f1d565b9050919050565b6000600a60009054906101000a900473ffffffffffffffffffffffffffffffffffffffff16905090565b606060078054600181600116156101000203166002900480601f0160208091040260200160405190810160405280929190818152602001828054600181600116156101000203166002900480156112c65780601f1061129b576101008083540402835291602001916112c6565b820191906000526020600020905b8154815290600101906020018083116112a957829003601f168201915b5050505050905090565b6112d86138a0565b6112e182612791565b9050806101000151611328576040517f08c379a000000000000000000000000000000000000000000000000000000000815260040161131f90614f3a565b60405180910390fd5b600f600083815260200190815260200160002054341161137d576040517f08c379a000000000000000000000000000000000000000000000000000000000815260040161137490614e5a565b60405180910390fd5b8060e0015134116113c3576040517f08c379a00000000000000000000000000000000000000000000000000000000081526004016113ba9061507a565b60405180910390fd5b348160e0018181525050338160c0019073ffffffffffffffffffffffffffffffffffffffff16908173ffffffffffffffffffffffffffffffffffffffff168152505080601060008481526020019081526020016000206000820151816000015560208201518160010160006101000a81548173ffffffffffffffffffffffffffffffffffffffff021916908373ffffffffffffffffffffffffffffffffffffffff16021790555060408201518160010160146101000a81548160ff02191690831515021790555060608201518160010160156101000a81548160ff0219169083151502179055506080820151816002015560a0820151816003015560c08201518160040160006101000a81548173ffffffffffffffffffffffffffffffffffffffff021916908373ffffffffffffffffffffffffffffffffffffffff16021790555060e082015181600501556101008201518160060160006101000a81548160ff02191690831515021790555090505034601160003373ffffffffffffffffffffffffffffffffffffffff1673ffffffffffffffffffffffffffffffffffffffff168152602001908152602001600020600082825401925050819055507fde11ebd9a4f52f9d475e408266bfa5a8a50ebd212fd91bc37f6b438b7aaa6ad533346040516115b1929190614c14565b60405180910390a160405180608001604052808381526020013373ffffffffffffffffffffffffffffffffffffffff1681526020013481526020014281525060126000600c5481526020019081526020016000206000820151816000015560208201518160010160006101000a81548173ffffffffffffffffffffffffffffffffffffffff021916908373ffffffffffffffffffffffffffffffffffffffff1602179055506040820151816002015560608201518160030155905050600c600081548092919060010191905055505050565b61168b612901565b73ffffffffffffffffffffffffffffffffffffffff168273ffffffffffffffffffffffffffffffffffffffff1614156116f9576040517f08c379a00000000000000000000000000000000000000000000000000000000081526004016116f090614dda565b60405180910390fd5b8060056000611706612901565b73ffffffffffffffffffffffffffffffffffffffff1673ffffffffffffffffffffffffffffffffffffffff16815260200190815260200160002060008473ffffffffffffffffffffffffffffffffffffffff1673ffffffffffffffffffffffffffffffffffffffff16815260200190815260200160002060006101000a81548160ff0219169083151502179055508173ffffffffffffffffffffffffffffffffffffffff166117b3612901565b73ffffffffffffffffffffffffffffffffffffffff167f17307eab39ab6107e8899845ad3d59bd9653f200f220920489ca2b5937696c31836040516117f89190614c9d565b60405180910390a35050565b61180c61391e565b60126000838152602001908152602001600020604051806080016040529081600082015481526020016001820160009054906101000a900473ffffffffffffffffffffffffffffffffffffffff1673ffffffffffffffffffffffffffffffffffffffff1673ffffffffffffffffffffffffffffffffffffffff168152602001600282015481526020016003820154815250509050919050565b6000600f6000838152602001908152602001600020549050919050565b6118d36118cd612901565b836129d7565b611912576040517f08c379a000000000000000000000000000000000000000000000000000000000815260040161190990614ffa565b60405180910390fd5b61191e84848484612d46565b50505050565b61192c6138a0565b61193582612791565b905080610100015161197c576040517f08c379a000000000000000000000000000000000000000000000000000000000815260040161197390614f3a565b60405180910390fd5b80608001514210156119c3576040517f08c379a00000000000000000000000000000000000000000000000000000000081526004016119ba9061503a565b60405180910390fd5b806060015115611a08576040517f08c379a00000000000000000000000000000000000000000000000000000000081526004016119ff9061505a565b60405180910390fd5b60008160e001511415611bab576001816060019015159081151581525050600081604001901515908115158152505080601060008481526020019081526020016000206000820151816000015560208201518160010160006101000a81548173ffffffffffffffffffffffffffffffffffffffff021916908373ffffffffffffffffffffffffffffffffffffffff16021790555060408201518160010160146101000a81548160ff02191690831515021790555060608201518160010160156101000a81548160ff0219169083151502179055506080820151816002015560a0820151816003015560c08201518160040160006101000a81548173ffffffffffffffffffffffffffffffffffffffff021916908373ffffffffffffffffffffffffffffffffffffffff16021790555060e082015181600501556101008201518160060160006101000a81548160ff0219169083151502179055509050507fdaec4582d5d9595688c8c98545fdd1c696d41c6aeaeb636737e84ed2f5c00eda8160c001518260e00151604051611b9e929190614c74565b60405180910390a1611df7565b60018160600190151590811515815250506000816040019015159081151581525050806020015173ffffffffffffffffffffffffffffffffffffffff166108fc8260e001519081150290604051600060405180830381858888f19350505050158015611c1b573d6000803e3d6000fd5b50611c2f81602001518260c0015184612ab5565b8060c00151816020019073ffffffffffffffffffffffffffffffffffffffff16908173ffffffffffffffffffffffffffffffffffffffff168152505080601060008481526020019081526020016000206000820151816000015560208201518160010160006101000a81548173ffffffffffffffffffffffffffffffffffffffff021916908373ffffffffffffffffffffffffffffffffffffffff16021790555060408201518160010160146101000a81548160ff02191690831515021790555060608201518160010160156101000a81548160ff0219169083151502179055506080820151816002015560a0820151816003015560c08201518160040160006101000a81548173ffffffffffffffffffffffffffffffffffffffff021916908373ffffffffffffffffffffffffffffffffffffffff16021790555060e082015181600501556101008201518160060160006101000a81548160ff0219169083151502179055509050508060e00151600f6000848152602001908152602001600020819055507fdaec4582d5d9595688c8c98545fdd1c696d41c6aeaeb636737e84ed2f5c00eda8160c001518260e00151604051611dee929190614c74565b60405180910390a15b5050565b611e0361395c565b600d60008381526020019081526020016000206040518060c0016040529081600082018054600181600116156101000203166002900480601f016020809104026020016040519081016040528092919081815260200182805460018160011615610100020316600290048015611eba5780601f10611e8f57610100808354040283529160200191611eba565b820191906000526020600020905b815481529060010190602001808311611e9d57829003601f168201915b50505050508152602001600182018054600181600116156101000203166002900480601f016020809104026020016040519081016040528092919081815260200182805460018160011615610100020316600290048015611f5c5780601f10611f3157610100808354040283529160200191611f5c565b820191906000526020600020905b815481529060010190602001808311611f3f57829003601f168201915b505050505081526020016002820160009054906101000a900460ff1660ff1660ff16815260200160038201548152602001600482015481526020016005820160009054906101000a900460ff1615151515815250509050919050565b6060611fc3826128e4565b612002576040517f08c379a0000000000000000000000000000000000000000000000000000000008152600401611ff990614fba565b60405180910390fd5b6060600860008481526020019081526020016000208054600181600116156101000203166002900480601f0160208091040260200160405190810160405280929190818152602001828054600181600116156101000203166002900480156120ab5780601f10612080576101008083540402835291602001916120ab565b820191906000526020600020905b81548152906001019060200180831161208e57829003601f168201915b5050505050905060606120bc610f54565b90506000815114156120d2578192505050612136565b6000825111156121075780826040516020016120ef929190614b89565b60405160208183030381529060405292505050612136565b8061211185612da2565b604051602001612122929190614b89565b604051602081830303815290604052925050505b919050565b6000600f600083815260200190815260200160002054905060008111612196576040517f08c379a000000000000000000000000000000000000000000000000000000000815260040161218d90614d3a565b60405180910390fd5b8034146121d8576040517f08c379a00000000000000000000000000000000000000000000000000000000081526004016121cf90614f5a565b60405180910390fd5b60006121e383610f1d565b90506121f0813385612ab5565b6000600f6000858152602001908152602001600020819055508073ffffffffffffffffffffffffffffffffffffffff166108fc349081150290604051600060405180830381858888f1935050505015801561224f573d6000803e3d6000fd5b507f608f6ac9327c2bf4d3c77adf447d2c448ba7b0971e0aaa9aa03f7ac29d874a4481333460405161228393929190614c3d565b60405180910390a1505050565b6000600560008473ffffffffffffffffffffffffffffffffffffffff1673ffffffffffffffffffffffffffffffffffffffff16815260200190815260200160002060008373ffffffffffffffffffffffffffffffffffffffff1673ffffffffffffffffffffffffffffffffffffffff16815260200190815260200160002060009054906101000a900460ff16905092915050565b61232c612901565b73ffffffffffffffffffffffffffffffffffffffff1661234a611204565b73ffffffffffffffffffffffffffffffffffffffff16146123a0576040517f08c379a000000000000000000000000000000000000000000000000000000000815260040161239790614f7a565b60405180910390fd5b600073ffffffffffffffffffffffffffffffffffffffff168173ffffffffffffffffffffffffffffffffffffffff161415612410576040517f08c379a000000000000000000000000000000000000000000000000000000000815260040161240790614d5a565b60405180910390fd5b8073ffffffffffffffffffffffffffffffffffffffff16600a60009054906101000a900473ffffffffffffffffffffffffffffffffffffffff1673ffffffffffffffffffffffffffffffffffffffff167f8be0079c531659141344cd1fd0a4f28419497f9722a3daafe3b4186f6b6457e060405160405180910390a380600a60006101000a81548173ffffffffffffffffffffffffffffffffffffffff021916908373ffffffffffffffffffffffffffffffffffffffff16021790555050565b600f6020528060005260406000206000915090505481565b6124f0612901565b73ffffffffffffffffffffffffffffffffffffffff1661250e611204565b73ffffffffffffffffffffffffffffffffffffffff1614612564576040517f08c379a000000000000000000000000000000000000000000000000000000000815260040161255b90614f7a565b60405180910390fd5b600e866040516125749190614b72565b908152602001604051809103902060010160009054906101000a900460ff16156125d3576040517f08c379a00000000000000000000000000000000000000000000000000000000081526004016125ca90614d9a565b60405180910390fd5b6040518060c001604052808781526020018681526020018560ff16815260200184815260200183815260200160011515815250600d6000600b5481526020019081526020016000206000820151816000019080519060200190612637929190613997565b506020820151816001019080519060200190612654929190613997565b5060408201518160020160006101000a81548160ff021916908360ff160217905550606082015181600301556080820151816004015560a08201518160050160006101000a81548160ff021916908315150217905550905050604051806040016040528087815260200160011515815250600e876040516126d59190614b72565b908152602001604051809103902060008201518160000190805190602001906126ff929190613997565b5060208201518160010160006101000a81548160ff021916908315150217905550905050801561274f57662386f26fc10000600f6000600b5481526020019081526020016000208190555061276b565b6000600f6000600b548152602001908152602001600020819055505b61277733600b54612ee9565b600b60008154809291906001019190505550505050505050565b6127996138a0565b6010600083815260200190815260200160002060405180610120016040529081600082015481526020016001820160009054906101000a900473ffffffffffffffffffffffffffffffffffffffff1673ffffffffffffffffffffffffffffffffffffffff1673ffffffffffffffffffffffffffffffffffffffff1681526020016001820160149054906101000a900460ff161515151581526020016001820160159054906101000a900460ff1615151515815260200160028201548152602001600382015481526020016004820160009054906101000a900473ffffffffffffffffffffffffffffffffffffffff1673ffffffffffffffffffffffffffffffffffffffff1673ffffffffffffffffffffffffffffffffffffffff168152602001600582015481526020016006820160009054906101000a900460ff1615151515815250509050919050565b60006128fa826002612f0790919063ffffffff16565b9050919050565b600033905090565b816004600083815260200190815260200160002060006101000a81548173ffffffffffffffffffffffffffffffffffffffff021916908373ffffffffffffffffffffffffffffffffffffffff160217905550808273ffffffffffffffffffffffffffffffffffffffff1661297c83610f1d565b73ffffffffffffffffffffffffffffffffffffffff167f8c5be1e5ebec7d5bd14f71427d1e84f3dd0314c0f7b2291e5b200ac8c7c3b92560405160405180910390a45050565b60006129d082600001612f21565b9050919050565b60006129e2826128e4565b612a21576040517f08c379a0000000000000000000000000000000000000000000000000000000008152600401612a1890614e1a565b60405180910390fd5b6000612a2c83610f1d565b90508073ffffffffffffffffffffffffffffffffffffffff168473ffffffffffffffffffffffffffffffffffffffff161480612a9b57508373ffffffffffffffffffffffffffffffffffffffff16612a8384610945565b73ffffffffffffffffffffffffffffffffffffffff16145b80612aac5750612aab8185612290565b5b91505092915050565b8273ffffffffffffffffffffffffffffffffffffffff16612ad582610f1d565b73ffffffffffffffffffffffffffffffffffffffff1614612b2b576040517f08c379a0000000000000000000000000000000000000000000000000000000008152600401612b2290614f9a565b60405180910390fd5b600073ffffffffffffffffffffffffffffffffffffffff168273ffffffffffffffffffffffffffffffffffffffff161415612b9b576040517f08c379a0000000000000000000000000000000000000000000000000000000008152600401612b9290614dba565b60405180910390fd5b612ba6838383612f32565b612bb1600082612909565b612c0281600160008673ffffffffffffffffffffffffffffffffffffffff1673ffffffffffffffffffffffffffffffffffffffff168152602001908152602001600020612f3790919063ffffffff16565b50612c5481600160008573ffffffffffffffffffffffffffffffffffffffff1673ffffffffffffffffffffffffffffffffffffffff168152602001908152602001600020612f5190919063ffffffff16565b50612c6b81836002612f6b9092919063ffffffff16565b50808273ffffffffffffffffffffffffffffffffffffffff168473ffffffffffffffffffffffffffffffffffffffff167fddf252ad1be2c89b69c2b068fc378daa952ba7f163c4a11628f55a4df523b3ef60405160405180910390a4505050565b6000612cdb8360000183612fa0565b60001c905092915050565b600080600080612cf9866000018661300d565b915091508160001c8160001c9350935050509250929050565b6000612d25846000018460001b84613090565b60001c90509392505050565b6000612d3f82600001613121565b9050919050565b612d51848484612ab5565b612d5d84848484613132565b612d9c576040517f08c379a0000000000000000000000000000000000000000000000000000000008152600401612d9390614d1a565b60405180910390fd5b50505050565b60606000821415612dea576040518060400160405280600181526020017f30000000000000000000000000000000000000000000000000000000000000008152509050612ee4565b600082905060005b60008214612e14578080600101915050600a8281612e0c57fe5b049150612df2565b60608167ffffffffffffffff81118015612e2d57600080fd5b506040519080825280601f01601f191660200182016040528015612e605781602001600182028036833780820191505090505b50905060006001830390508593505b60008414612edc57600a8481612e8157fe5b0660300160f81b82828060019003935081518110612e9b57fe5b60200101907effffffffffffffffffffffffffffffffffffffffffffffffffffffffffffff1916908160001a905350600a8481612ed457fe5b049350612e6f565b819450505050505b919050565b612f03828260405180602001604052806000815250613296565b5050565b6000612f19836000018360001b6132f1565b905092915050565b600081600001805490509050919050565b505050565b6000612f49836000018360001b613314565b905092915050565b6000612f63836000018360001b6133fc565b905092915050565b6000612f97846000018460001b8473ffffffffffffffffffffffffffffffffffffffff1660001b61346c565b90509392505050565b600081836000018054905011612feb576040517f08c379a0000000000000000000000000000000000000000000000000000000008152600401612fe290614cfa565b60405180910390fd5b826000018281548110612ffa57fe5b9060005260206000200154905092915050565b60008082846000018054905011613059576040517f08c379a000000000000000000000000000000000000000000000000000000000815260040161305090614eba565b60405180910390fd5b600084600001848154811061306a57fe5b906000526020600020906002020190508060000154816001015492509250509250929050565b600080846001016000858152602001908152602001600020549050600081141583906130f2576040517f08c379a00000000000000000000000000000000000000000000000000000000081526004016130e99190614cb8565b60405180910390fd5b5084600001600182038154811061310557fe5b9060005260206000209060020201600101549150509392505050565b600081600001805490509050919050565b60006131538473ffffffffffffffffffffffffffffffffffffffff16613548565b613160576001905061328e565b606061322763150b7a0260e01b613175612901565b88878760405160240161318b9493929190614bc8565b604051602081830303815290604052907bffffffffffffffffffffffffffffffffffffffffffffffffffffffff19166020820180517bffffffffffffffffffffffffffffffffffffffffffffffffffffffff8381831617835250505050604051806060016040528060328152602001615382603291398773ffffffffffffffffffffffffffffffffffffffff1661355b9092919063ffffffff16565b905060008180602001905181019061323f9190613d2a565b905063150b7a0260e01b7bffffffffffffffffffffffffffffffffffffffffffffffffffffffff1916817bffffffffffffffffffffffffffffffffffffffffffffffffffffffff191614925050505b949350505050565b6132a08383613573565b6132ad6000848484613132565b6132ec576040517f08c379a00000000000000000000000000000000000000000000000000000000081526004016132e390614d1a565b60405180910390fd5b505050565b600080836001016000848152602001908152602001600020541415905092915050565b600080836001016000848152602001908152602001600020549050600081146133f0576000600182039050600060018660000180549050039050600086600001828154811061335f57fe5b906000526020600020015490508087600001848154811061337c57fe5b90600052602060002001819055506001830187600101600083815260200190815260200160002081905550866000018054806133b457fe5b600190038181906000526020600020016000905590558660010160008781526020019081526020016000206000905560019450505050506133f6565b60009150505b92915050565b60006134088383613701565b613461578260000182908060018154018082558091505060019003906000526020600020016000909190919091505582600001805490508360010160008481526020019081526020016000208190555060019050613466565b600090505b92915050565b600080846001016000858152602001908152602001600020549050600081141561351357846000016040518060400160405280868152602001858152509080600181540180825580915050600190039060005260206000209060020201600090919091909150600082015181600001556020820151816001015550508460000180549050856001016000868152602001908152602001600020819055506001915050613541565b8285600001600183038154811061352657fe5b90600052602060002090600202016001018190555060009150505b9392505050565b600080823b905060008111915050919050565b606061356a8484600085613724565b90509392505050565b600073ffffffffffffffffffffffffffffffffffffffff168273ffffffffffffffffffffffffffffffffffffffff1614156135e3576040517f08c379a00000000000000000000000000000000000000000000000000000000081526004016135da90614efa565b60405180910390fd5b6135ec816128e4565b1561362c576040517f08c379a000000000000000000000000000000000000000000000000000000000815260040161362390614d7a565b60405180910390fd5b61363860008383612f32565b61368981600160008573ffffffffffffffffffffffffffffffffffffffff1673ffffffffffffffffffffffffffffffffffffffff168152602001908152602001600020612f5190919063ffffffff16565b506136a081836002612f6b9092919063ffffffff16565b50808273ffffffffffffffffffffffffffffffffffffffff16600073ffffffffffffffffffffffffffffffffffffffff167fddf252ad1be2c89b69c2b068fc378daa952ba7f163c4a11628f55a4df523b3ef60405160405180910390a45050565b600080836001016000848152602001908152602001600020541415905092915050565b606082471015613769576040517f08c379a000000000000000000000000000000000000000000000000000000000815260040161376090614dfa565b60405180910390fd5b61377285613548565b6137b1576040517f08c379a00000000000000000000000000000000000000000000000000000000081526004016137a89061501a565b60405180910390fd5b600060608673ffffffffffffffffffffffffffffffffffffffff1685876040516137db9190614b5b565b60006040518083038185875af1925050503d8060008114613818576040519150601f19603f3d011682016040523d82523d6000602084013e61381d565b606091505b509150915061382d828286613839565b92505050949350505050565b6060831561384957829050613899565b60008351111561385c5782518084602001fd5b816040517f08c379a00000000000000000000000000000000000000000000000000000000081526004016138909190614cb8565b60405180910390fd5b9392505050565b60405180610120016040528060008152602001600073ffffffffffffffffffffffffffffffffffffffff1681526020016000151581526020016000151581526020016000815260200160008152602001600073ffffffffffffffffffffffffffffffffffffffff168152602001600081526020016000151581525090565b604051806080016040528060008152602001600073ffffffffffffffffffffffffffffffffffffffff16815260200160008152602001600081525090565b6040518060c001604052806060815260200160608152602001600060ff16815260200160008152602001600081526020016000151581525090565b828054600181600116156101000203166002900490600052602060002090601f016020900481019282601f106139d857805160ff1916838001178555613a06565b82800160010185558215613a06579182015b82811115613a055782518255916020019190600101906139ea565b5b509050613a139190613a17565b5090565b5b80821115613a30576000816000905550600101613a18565b5090565b600081359050613a438161530e565b92915050565b600081359050613a5881615325565b92915050565b600081359050613a6d8161533c565b92915050565b600081519050613a828161533c565b92915050565b600082601f830112613a9957600080fd5b8135613aac613aa78261513b565b61510e565b91508082526020830160208301858383011115613ac857600080fd5b613ad38382846152bb565b50505092915050565b600082601f830112613aed57600080fd5b8135613b00613afb82615167565b61510e565b91508082526020830160208301858383011115613b1c57600080fd5b613b278382846152bb565b50505092915050565b600081359050613b3f81615353565b92915050565b600081359050613b548161536a565b92915050565b600060208284031215613b6c57600080fd5b6000613b7a84828501613a34565b91505092915050565b60008060408385031215613b9657600080fd5b6000613ba485828601613a34565b9250506020613bb585828601613a34565b9150509250929050565b600080600060608486031215613bd457600080fd5b6000613be286828701613a34565b9350506020613bf386828701613a34565b9250506040613c0486828701613b30565b9150509250925092565b60008060008060808587031215613c2457600080fd5b6000613c3287828801613a34565b9450506020613c4387828801613a34565b9350506040613c5487828801613b30565b925050606085013567ffffffffffffffff811115613c7157600080fd5b613c7d87828801613a88565b91505092959194509250565b60008060408385031215613c9c57600080fd5b6000613caa85828601613a34565b9250506020613cbb85828601613a49565b9150509250929050565b60008060408385031215613cd857600080fd5b6000613ce685828601613a34565b9250506020613cf785828601613b30565b9150509250929050565b600060208284031215613d1357600080fd5b6000613d2184828501613a5e565b91505092915050565b600060208284031215613d3c57600080fd5b6000613d4a84828501613a73565b91505092915050565b60008060008060008060c08789031215613d6c57600080fd5b600087013567ffffffffffffffff811115613d8657600080fd5b613d9289828a01613adc565b965050602087013567ffffffffffffffff811115613daf57600080fd5b613dbb89828a01613adc565b9550506040613dcc89828a01613b45565b9450506060613ddd89828a01613b30565b9350506080613dee89828a01613b30565b92505060a0613dff89828a01613a49565b9150509295509295509295565b600060208284031215613e1e57600080fd5b6000613e2c84828501613b30565b91505092915050565b60008060408385031215613e4857600080fd5b6000613e5685828601613b30565b9250506020613e6785828601613b30565b9150509250929050565b613e7a81615285565b82525050565b613e8981615204565b82525050565b613e98816151f2565b82525050565b613ea7816151f2565b82525050565b613eb681615216565b82525050565b613ec581615216565b82525050565b6000613ed682615193565b613ee081856151a9565b9350613ef08185602086016152ca565b613ef9816152fd565b840191505092915050565b6000613f0f82615193565b613f1981856151ba565b9350613f298185602086016152ca565b80840191505092915050565b6000613f408261519e565b613f4a81856151c5565b9350613f5a8185602086016152ca565b613f63816152fd565b840191505092915050565b6000613f798261519e565b613f8381856151d6565b9350613f938185602086016152ca565b613f9c816152fd565b840191505092915050565b6000613fb28261519e565b613fbc81856151e7565b9350613fcc8185602086016152ca565b80840191505092915050565b6000613fe56013836151d6565b91507f546f6b656e20646f65736e2774206578697374000000000000000000000000006000830152602082019050919050565b60006140256022836151d6565b91507f456e756d657261626c655365743a20696e646578206f7574206f6620626f756e60008301527f64730000000000000000000000000000000000000000000000000000000000006020830152604082019050919050565b600061408b6032836151d6565b91507f4552433732313a207472616e7366657220746f206e6f6e20455243373231526560008301527f63656976657220696d706c656d656e74657200000000000000000000000000006020830152604082019050919050565b60006140f1601a836151d6565b91507f5468697320746f6b656e206973206e6f7420666f722073616c650000000000006000830152602082019050919050565b60006141316026836151d6565b91507f4f776e61626c653a206e6577206f776e657220697320746865207a65726f206160008301527f64647265737300000000000000000000000000000000000000000000000000006020830152604082019050919050565b6000614197601c836151d6565b91507f4552433732313a20746f6b656e20616c7265616479206d696e746564000000006000830152602082019050919050565b60006141d76017836151d6565b91507f4c6f636174696f6e20616c7265616479206d696e7465640000000000000000006000830152602082019050919050565b60006142176024836151d6565b91507f4552433732313a207472616e7366657220746f20746865207a65726f2061646460008301527f72657373000000000000000000000000000000000000000000000000000000006020830152604082019050919050565b600061427d6019836151d6565b91507f4552433732313a20617070726f766520746f2063616c6c6572000000000000006000830152602082019050919050565b60006142bd6026836151d6565b91507f416464726573733a20696e73756666696369656e742062616c616e636520666f60008301527f722063616c6c00000000000000000000000000000000000000000000000000006020830152604082019050919050565b6000614323602c836151d6565b91507f4552433732313a206f70657261746f7220717565727920666f72206e6f6e657860008301527f697374656e7420746f6b656e00000000000000000000000000000000000000006020830152604082019050919050565b6000614389602c836151d6565b91507f43616e6e6f742073746172742061756374696f6e20666f7220746f6b656e207960008301527f6f7520646f6e2774206f776e00000000000000000000000000000000000000006020830152604082019050919050565b60006143ef6018836151d6565b91507f426964207072696365206d7573742062652068696768657200000000000000006000830152602082019050919050565b600061442f6038836151d6565b91507f4552433732313a20617070726f76652063616c6c6572206973206e6f74206f7760008301527f6e6572206e6f7220617070726f76656420666f7220616c6c00000000000000006020830152604082019050919050565b6000614495602a836151d6565b91507f4552433732313a2062616c616e636520717565727920666f7220746865207a6560008301527f726f2061646472657373000000000000000000000000000000000000000000006020830152604082019050919050565b60006144fb6022836151d6565b91507f456e756d657261626c654d61703a20696e646578206f7574206f6620626f756e60008301527f64730000000000000000000000000000000000000000000000000000000000006020830152604082019050919050565b60006145616017836151d6565b91507f41756374696f6e20616c726561647920737461727465640000000000000000006000830152602082019050919050565b60006145a16020836151d6565b91507f4552433732313a206d696e7420746f20746865207a65726f20616464726573736000830152602082019050919050565b60006145e1602c836151d6565b91507f4552433732313a20617070726f76656420717565727920666f72206e6f6e657860008301527f697374656e7420746f6b656e00000000000000000000000000000000000000006020830152604082019050919050565b60006146476015836151d6565b91507f41756374696f6e20646f65736e277420657869737400000000000000000000006000830152602082019050919050565b6000614687600f836151d6565b91507f496e636f72726563742076616c756500000000000000000000000000000000006000830152602082019050919050565b60006146c76020836151d6565b91507f4f776e61626c653a2063616c6c6572206973206e6f7420746865206f776e65726000830152602082019050919050565b60006147076029836151d6565b91507f4552433732313a207472616e73666572206f6620746f6b656e2074686174206960008301527f73206e6f74206f776e00000000000000000000000000000000000000000000006020830152604082019050919050565b600061476d602f836151d6565b91507f4552433732314d657461646174613a2055524920717565727920666f72206e6f60008301527f6e6578697374656e7420746f6b656e00000000000000000000000000000000006020830152604082019050919050565b60006147d36021836151d6565b91507f4552433732313a20617070726f76616c20746f2063757272656e74206f776e6560008301527f72000000000000000000000000000000000000000000000000000000000000006020830152604082019050919050565b60006148396031836151d6565b91507f4552433732313a207472616e736665722063616c6c6572206973206e6f74206f60008301527f776e6572206e6f7220617070726f7665640000000000000000000000000000006020830152604082019050919050565b600061489f601d836151d6565b91507f416464726573733a2063616c6c20746f206e6f6e2d636f6e74726163740000006000830152602082019050919050565b60006148df601d836151d6565b91507f5468652061756374696f6e20686173206e6f7420656e646564207965740000006000830152602082019050919050565b600061491f6015836151d6565b91507f5468652061756374696f6e2068617320656e64656400000000000000000000006000830152602082019050919050565b600061495f6011836151d6565b91507f48696768657220626964206578697374730000000000000000000000000000006000830152602082019050919050565b610120820160008201516149a96000850182614b2e565b5060208201516149bc6020850182613e8f565b5060408201516149cf6040850182613ead565b5060608201516149e26060850182613ead565b5060808201516149f56080850182614b2e565b5060a0820151614a0860a0850182614b2e565b5060c0820151614a1b60c0850182613e8f565b5060e0820151614a2e60e0850182614b2e565b50610100820151614a43610100850182613ead565b50505050565b608082016000820151614a5f6000850182614b2e565b506020820151614a726020850182613e8f565b506040820151614a856040850182614b2e565b506060820151614a986060850182614b2e565b50505050565b600060c0830160008301518482036000860152614abb8282613f35565b91505060208301518482036020860152614ad58282613f35565b9150506040830151614aea6040860182614b4c565b506060830151614afd6060860182614b2e565b506080830151614b106080860182614b2e565b5060a0830151614b2360a0860182613ead565b508091505092915050565b614b378161526e565b82525050565b614b468161526e565b82525050565b614b5581615278565b82525050565b6000614b678284613f04565b915081905092915050565b6000614b7e8284613fa7565b915081905092915050565b6000614b958285613fa7565b9150614ba18284613fa7565b91508190509392505050565b6000602082019050614bc26000830184613e9e565b92915050565b6000608082019050614bdd6000830187613e80565b614bea6020830186613e9e565b614bf76040830185614b3d565b8181036060830152614c098184613ecb565b905095945050505050565b6000604082019050614c296000830185613e71565b614c366020830184614b3d565b9392505050565b6000606082019050614c526000830186613e9e565b614c5f6020830185613e71565b614c6c6040830184614b3d565b949350505050565b6000604082019050614c896000830185613e9e565b614c966020830184614b3d565b9392505050565b6000602082019050614cb26000830184613ebc565b92915050565b60006020820190508181036000830152614cd28184613f6e565b905092915050565b60006020820190508181036000830152614cf381613fd8565b9050919050565b60006020820190508181036000830152614d1381614018565b9050919050565b60006020820190508181036000830152614d338161407e565b9050919050565b60006020820190508181036000830152614d53816140e4565b9050919050565b60006020820190508181036000830152614d7381614124565b9050919050565b60006020820190508181036000830152614d938161418a565b9050919050565b60006020820190508181036000830152614db3816141ca565b9050919050565b60006020820190508181036000830152614dd38161420a565b9050919050565b60006020820190508181036000830152614df381614270565b9050919050565b60006020820190508181036000830152614e13816142b0565b9050919050565b60006020820190508181036000830152614e3381614316565b9050919050565b60006020820190508181036000830152614e538161437c565b9050919050565b60006020820190508181036000830152614e73816143e2565b9050919050565b60006020820190508181036000830152614e9381614422565b9050919050565b60006020820190508181036000830152614eb381614488565b9050919050565b60006020820190508181036000830152614ed3816144ee565b9050919050565b60006020820190508181036000830152614ef381614554565b9050919050565b60006020820190508181036000830152614f1381614594565b9050919050565b60006020820190508181036000830152614f33816145d4565b9050919050565b60006020820190508181036000830152614f538161463a565b9050919050565b60006020820190508181036000830152614f738161467a565b9050919050565b60006020820190508181036000830152614f93816146ba565b9050919050565b60006020820190508181036000830152614fb3816146fa565b9050919050565b60006020820190508181036000830152614fd381614760565b9050919050565b60006020820190508181036000830152614ff3816147c6565b9050919050565b600060208201905081810360008301526150138161482c565b9050919050565b6000602082019050818103600083015261503381614892565b9050919050565b60006020820190508181036000830152615053816148d2565b9050919050565b6000602082019050818103600083015261507381614912565b9050919050565b6000602082019050818103600083015261509381614952565b9050919050565b6000610120820190506150b06000830184614992565b92915050565b60006080820190506150cb6000830184614a49565b92915050565b600060208201905081810360008301526150eb8184614a9e565b905092915050565b60006020820190506151086000830184614b3d565b92915050565b6000604051905081810181811067ffffffffffffffff8211171561513157600080fd5b8060405250919050565b600067ffffffffffffffff82111561515257600080fd5b601f19601f8301169050602081019050919050565b600067ffffffffffffffff82111561517e57600080fd5b601f19601f8301169050602081019050919050565b600081519050919050565b600081519050919050565b600082825260208201905092915050565b600081905092915050565b600082825260208201905092915050565b600082825260208201905092915050565b600081905092915050565b60006151fd8261524e565b9050919050565b600061520f8261524e565b9050919050565b60008115159050919050565b60007fffffffff0000000000000000000000000000000000000000000000000000000082169050919050565b600073ffffffffffffffffffffffffffffffffffffffff82169050919050565b6000819050919050565b600060ff82169050919050565b600061529082615297565b9050919050565b60006152a2826152a9565b9050919050565b60006152b48261524e565b9050919050565b82818337600083830152505050565b60005b838110156152e85780820151818401526020810190506152cd565b838111156152f7576000848401525b50505050565b6000601f19601f8301169050919050565b615317816151f2565b811461532257600080fd5b50565b61532e81615216565b811461533957600080fd5b50565b61534581615222565b811461535057600080fd5b50565b61535c8161526e565b811461536757600080fd5b50565b61537381615278565b811461537e57600080fd5b5056fe4552433732313a207472616e7366657220746f206e6f6e20455243373231526563656976657220696d706c656d656e7465724552433732313a206f776e657220717565727920666f72206e6f6e6578697374656e7420746f6b656ea264697066735822122093b87ee2347cc214b67cbe54e8b993287cb2f66f1817e42f260308f02ba5c54764736f6c634300060c0033",
  "immutableReferences": {},
  "source": "// truffle migrate --reset --network rinkeby --skip-dry-run\r\npragma solidity =0.6.12;\r\npragma experimental ABIEncoderV2;\r\n\r\nimport \"@openzeppelin/contracts/token/ERC721/ERC721.sol\";\r\nimport \"@openzeppelin/contracts/access/Ownable.sol\";\r\n\r\ncontract LocationNFT is ERC721, Ownable {\r\n\tconstructor() ERC721(\"UniqueAsset\", \"UNA\") public {\r\n\r\n\t}\r\n\r\n\tstruct Location {\r\n\t\tstring location_name; //0-255\r\n\t\tstring svg_image;\r\n\t\tuint8 locn_type;\r\n\t\tuint256 latitude;\r\n\t\tuint256 longitude;\r\n\t\tbool isExist;\r\n\t}\r\n\tstruct LocationName {\r\n\t    string location_name;\r\n\t    bool isExist;\r\n\t}\r\n\tstruct Auction {\r\n\t    uint256 tokenId;\r\n\t    address beneficiary;\r\n\t    bool auctionGoingOn;\r\n\t\tbool auctionEnded;\r\n\t    uint auctionEndTime;\r\n\t\tuint biddingTime;\r\n\t    address highestBidder;\r\n\t    uint highestBid;\r\n\t    bool isExist;\r\n\t}\r\n\tstruct Bid {\r\n\t\tuint256 tokenId;\r\n\t\taddress bidder;\r\n\t\tuint bidValue;\r\n\t\tuint timeBid;\r\n\t}\r\n\r\n\tuint public nextId = 0;\r\n\tuint public acceptedBidsIdx = 0;\r\n\r\n\tevent NftBought(address _seller, address _buyer, uint256 _price);\r\n\tevent AuctionStarted(address ownerAddress, uint _biddingTime);\r\n\tevent BidIncrease(address bidAddress, uint256 bidValue);\r\n\tevent AuctionEnded(address bidAddress, uint256 bidValue);\r\n\r\n\tmapping(uint256 => Location) private _locationDetails;\r\n\tmapping(string => LocationName) private _locationNames;\r\n\tmapping(uint256 => uint256) public tokenIdToPrice;\r\n\tmapping(uint256 => Auction) private _auctions;\r\n\tmapping(address => uint) private _pendingReturns;\r\n\tmapping(uint256 => Bid) private _biddingLogs;\r\n\t\r\n\tfunction getTokenDetails(uint256 tokenId) public view returns (Location memory) {\r\n\t\treturn _locationDetails[tokenId];\r\n\t}\r\n\r\n\tfunction getPriceOf(uint256 tokenId) public view returns (uint256) {\r\n\t\treturn tokenIdToPrice[tokenId];\r\n\t}\r\n\r\n\tfunction getOwnerOf(uint256 tokenId) public view returns (address){\r\n\t\treturn ownerOf(tokenId);\r\n\t}\r\n\t\r\n\tfunction getAuctionInfo(uint256 tokenId) public view returns(Auction memory) {\r\n\t    return _auctions[tokenId];\r\n\t}\r\n\r\n\tfunction getBiddingLog(uint256 bidId) public view returns(Bid memory) {\r\n\t\treturn _biddingLogs[bidId];\r\n\t}\r\n\r\n\tfunction mint(string memory location_name, string memory svg_image, uint8 locn_type, uint256 latitude, uint256 longitude, bool isSellable) public onlyOwner {\r\n\t    require(!_locationNames[location_name].isExist, \"Location already minted\");\r\n\t\t_locationDetails[nextId] = Location(location_name, svg_image, locn_type, latitude, longitude, true);\r\n\t\t_locationNames[location_name] = LocationName(location_name, true);\r\n\t\tif (isSellable) {\r\n\t\t\ttokenIdToPrice[nextId] = 10000000000000000; //2000 wei\r\n\t\t} else {\r\n\t\t\ttokenIdToPrice[nextId] = 0;\r\n\t\t}\r\n\t\t//safeMint function calls _beforeTokenTransfer which we have overridden.\r\n\t\t_safeMint(msg.sender, nextId);\r\n\t\tnextId++;\r\n\t}\r\n\r\n\tfunction _beforeTokenTransfer(address from, address to, uint256 tokenId) internal override { \r\n\t\t\r\n\t}\r\n\r\n\tfunction buy(uint256 _tokenId) external payable {\r\n\t\tuint256 price = tokenIdToPrice[_tokenId];\r\n\t\trequire(price > 0, \"This token is not for sale\");\r\n\t\trequire(msg.value == price, 'Incorrect value');\r\n\t\taddress seller = ownerOf(_tokenId);\r\n\t\t_transfer(seller, msg.sender, _tokenId);\r\n\t\ttokenIdToPrice[_tokenId] = 0;\r\n\t\tpayable(seller).transfer(msg.value);\r\n\t\temit NftBought(seller, msg.sender, msg.value);\r\n\t}\r\n\t\r\n\tfunction startAuction(uint256 _tokenId, uint _biddingTime) external {\r\n\t    uint auctionEndTime = block.timestamp + _biddingTime;\r\n\t    require(_locationDetails[_tokenId].isExist, \"Token doesn't exist\");\r\n\t    require(!_auctions[_tokenId].isExist, \"Auction already started\");\r\n\t    require(msg.sender == ownerOf(_tokenId), \"Cannot start auction for token you don't own\");\r\n\t    _auctions[_tokenId] = Auction(_tokenId,msg.sender,true,false,auctionEndTime,_biddingTime,address(0x0),0,true);\r\n\t\temit AuctionStarted(msg.sender, _biddingTime);\r\n\t}\r\n\r\n\tfunction endAuction(uint256 _tokenId) external {\r\n\t    Auction memory auc = getAuctionInfo(_tokenId);\r\n\t    require(auc.isExist, \"Auction doesn't exist\");\r\n\t    if(block.timestamp < auc.auctionEndTime) {\r\n\t        revert (\"The auction has not ended yet\");\r\n\t    }\r\n\t    if(auc.auctionEnded) {\r\n\t        revert (\"The auction has ended\");\r\n\t    }\r\n\t\tif(auc.highestBid == 0) {\r\n\t\t\tauc.auctionEnded = true;\r\n\t    \tauc.auctionGoingOn = false;\r\n\t\t\t_auctions[_tokenId] = auc;\r\n\t\t\temit AuctionEnded(auc.highestBidder, auc.highestBid);\r\n\t\t} else {\r\n\t\t\tauc.auctionEnded = true;\r\n\t\t\tauc.auctionGoingOn = false;\r\n\t\t\tpayable(auc.beneficiary).transfer(auc.highestBid);\r\n\t\t\t_transfer(auc.beneficiary, auc.highestBidder, _tokenId);\r\n\t\t\tauc.beneficiary = auc.highestBidder;\r\n\t\t\t_auctions[_tokenId] = auc;\r\n\t\t\ttokenIdToPrice[_tokenId] = auc.highestBid;\r\n\t\t\temit AuctionEnded(auc.highestBidder, auc.highestBid);\r\n\t\t}\r\n\t}\r\n\t\r\n\tfunction placeBid(uint256 _tokenId) external payable {\r\n\t    Auction memory auc = getAuctionInfo(_tokenId);\r\n\t    require(auc.isExist, \"Auction doesn't exist\");\r\n\t\trequire(msg.value > tokenIdToPrice[_tokenId], \"Bid price must be higher\");\r\n\t    if(msg.value <= auc.highestBid) {\r\n\t        revert(\"Higher bid exists\");\r\n\t    }\r\n\t    auc.highestBid = msg.value;\r\n\t    auc.highestBidder = msg.sender;\r\n\t    _auctions[_tokenId] = auc;\r\n\t    _pendingReturns[msg.sender] += msg.value;\r\n\t    emit BidIncrease(msg.sender, msg.value);\r\n\r\n\t\t//Log bid into bidHistory\r\n\t\t_biddingLogs[acceptedBidsIdx] = Bid(_tokenId, msg.sender, msg.value, block.timestamp);\r\n\t\tacceptedBidsIdx++;\r\n\t}\r\n\t\r\n}",
  "sourcePath": "C:/Users/swapp/Documents/MyProjects/Crypto/world_nft/contracts/LocationNFT.sol",
  "compiler": {
    "name": "solc",
    "version": "0.6.12+commit.27d51765.Emscripten.clang"
  },
  "schemaVersion": "3.2.3",
  "updatedAt": "2021-06-30T07:02:29.005Z",
  "networkType": "ethereum",
  "devdoc": {
    "kind": "dev",
    "methods": {
      "approve(address,uint256)": {
        "details": "See {IERC721-approve}."
      },
      "balanceOf(address)": {
        "details": "See {IERC721-balanceOf}."
      },
      "baseURI()": {
        "details": "Returns the base URI set via {_setBaseURI}. This will be automatically added as a prefix in {tokenURI} to each token's URI, or to the token ID if no specific URI is set for that token ID."
      },
      "getApproved(uint256)": {
        "details": "See {IERC721-getApproved}."
      },
      "isApprovedForAll(address,address)": {
        "details": "See {IERC721-isApprovedForAll}."
      },
      "name()": {
        "details": "See {IERC721Metadata-name}."
      },
      "owner()": {
        "details": "Returns the address of the current owner."
      },
      "ownerOf(uint256)": {
        "details": "See {IERC721-ownerOf}."
      },
      "renounceOwnership()": {
        "details": "Leaves the contract without owner. It will not be possible to call `onlyOwner` functions anymore. Can only be called by the current owner. NOTE: Renouncing ownership will leave the contract without an owner, thereby removing any functionality that is only available to the owner."
      },
      "safeTransferFrom(address,address,uint256)": {
        "details": "See {IERC721-safeTransferFrom}."
      },
      "safeTransferFrom(address,address,uint256,bytes)": {
        "details": "See {IERC721-safeTransferFrom}."
      },
      "setApprovalForAll(address,bool)": {
        "details": "See {IERC721-setApprovalForAll}."
      },
      "supportsInterface(bytes4)": {
        "details": "See {IERC165-supportsInterface}. Time complexity O(1), guaranteed to always use less than 30 000 gas."
      },
      "symbol()": {
        "details": "See {IERC721Metadata-symbol}."
      },
      "tokenByIndex(uint256)": {
        "details": "See {IERC721Enumerable-tokenByIndex}."
      },
      "tokenOfOwnerByIndex(address,uint256)": {
        "details": "See {IERC721Enumerable-tokenOfOwnerByIndex}."
      },
      "tokenURI(uint256)": {
        "details": "See {IERC721Metadata-tokenURI}."
      },
      "totalSupply()": {
        "details": "See {IERC721Enumerable-totalSupply}."
      },
      "transferFrom(address,address,uint256)": {
        "details": "See {IERC721-transferFrom}."
      },
      "transferOwnership(address)": {
        "details": "Transfers ownership of the contract to a new account (`newOwner`). Can only be called by the current owner."
      }
    },
    "version": 1
  },
  "userdoc": {
    "kind": "user",
    "methods": {},
    "version": 1
  }
}