{
  "contractName": "LocationNFT",
  "abi": [
    {
      "inputs": [],
      "stateMutability": "nonpayable",
      "type": "constructor"
    },
    {
      "anonymous": false,
      "inputs": [
        {
          "indexed": true,
          "internalType": "address",
          "name": "owner",
          "type": "address"
        },
        {
          "indexed": true,
          "internalType": "address",
          "name": "approved",
          "type": "address"
        },
        {
          "indexed": true,
          "internalType": "uint256",
          "name": "tokenId",
          "type": "uint256"
        }
      ],
      "name": "Approval",
      "type": "event"
    },
    {
      "anonymous": false,
      "inputs": [
        {
          "indexed": true,
          "internalType": "address",
          "name": "owner",
          "type": "address"
        },
        {
          "indexed": true,
          "internalType": "address",
          "name": "operator",
          "type": "address"
        },
        {
          "indexed": false,
          "internalType": "bool",
          "name": "approved",
          "type": "bool"
        }
      ],
      "name": "ApprovalForAll",
      "type": "event"
    },
    {
      "anonymous": false,
      "inputs": [
        {
          "indexed": false,
          "internalType": "address",
          "name": "bidAddress",
          "type": "address"
        },
        {
          "indexed": false,
          "internalType": "uint256",
          "name": "bidValue",
          "type": "uint256"
        }
      ],
      "name": "AuctionEnded",
      "type": "event"
    },
    {
      "anonymous": false,
      "inputs": [
        {
          "indexed": false,
          "internalType": "address",
          "name": "ownerAddress",
          "type": "address"
        },
        {
          "indexed": false,
          "internalType": "uint256",
          "name": "_biddingTime",
          "type": "uint256"
        }
      ],
      "name": "AuctionStarted",
      "type": "event"
    },
    {
      "anonymous": false,
      "inputs": [
        {
          "indexed": false,
          "internalType": "address",
          "name": "bidAddress",
          "type": "address"
        },
        {
          "indexed": false,
          "internalType": "uint256",
          "name": "bidValue",
          "type": "uint256"
        }
      ],
      "name": "BidIncrease",
      "type": "event"
    },
    {
      "anonymous": false,
      "inputs": [
        {
          "indexed": false,
          "internalType": "address",
          "name": "bidAddress",
          "type": "address"
        },
        {
          "indexed": false,
          "internalType": "uint256",
          "name": "bidValue",
          "type": "uint256"
        }
      ],
      "name": "BidRejected",
      "type": "event"
    },
    {
      "anonymous": false,
      "inputs": [
        {
          "indexed": false,
          "internalType": "address",
          "name": "_seller",
          "type": "address"
        },
        {
          "indexed": false,
          "internalType": "address",
          "name": "_buyer",
          "type": "address"
        },
        {
          "indexed": false,
          "internalType": "uint256",
          "name": "_price",
          "type": "uint256"
        }
      ],
      "name": "NftBought",
      "type": "event"
    },
    {
      "anonymous": false,
      "inputs": [
        {
          "indexed": true,
          "internalType": "address",
          "name": "previousOwner",
          "type": "address"
        },
        {
          "indexed": true,
          "internalType": "address",
          "name": "newOwner",
          "type": "address"
        }
      ],
      "name": "OwnershipTransferred",
      "type": "event"
    },
    {
      "anonymous": false,
      "inputs": [
        {
          "indexed": true,
          "internalType": "address",
          "name": "from",
          "type": "address"
        },
        {
          "indexed": true,
          "internalType": "address",
          "name": "to",
          "type": "address"
        },
        {
          "indexed": true,
          "internalType": "uint256",
          "name": "tokenId",
          "type": "uint256"
        }
      ],
      "name": "Transfer",
      "type": "event"
    },
    {
      "inputs": [],
      "name": "acceptedBidsIdx",
      "outputs": [
        {
          "internalType": "uint256",
          "name": "",
          "type": "uint256"
        }
      ],
      "stateMutability": "view",
      "type": "function",
      "constant": true
    },
    {
      "inputs": [
        {
          "internalType": "address",
          "name": "to",
          "type": "address"
        },
        {
          "internalType": "uint256",
          "name": "tokenId",
          "type": "uint256"
        }
      ],
      "name": "approve",
      "outputs": [],
      "stateMutability": "nonpayable",
      "type": "function"
    },
    {
      "inputs": [
        {
          "internalType": "address",
          "name": "owner",
          "type": "address"
        }
      ],
      "name": "balanceOf",
      "outputs": [
        {
          "internalType": "uint256",
          "name": "",
          "type": "uint256"
        }
      ],
      "stateMutability": "view",
      "type": "function",
      "constant": true
    },
    {
      "inputs": [],
      "name": "baseURI",
      "outputs": [
        {
          "internalType": "string",
          "name": "",
          "type": "string"
        }
      ],
      "stateMutability": "view",
      "type": "function",
      "constant": true
    },
    {
      "inputs": [
        {
          "internalType": "uint256",
          "name": "tokenId",
          "type": "uint256"
        }
      ],
      "name": "getApproved",
      "outputs": [
        {
          "internalType": "address",
          "name": "",
          "type": "address"
        }
      ],
      "stateMutability": "view",
      "type": "function",
      "constant": true
    },
    {
      "inputs": [
        {
          "internalType": "address",
          "name": "owner",
          "type": "address"
        },
        {
          "internalType": "address",
          "name": "operator",
          "type": "address"
        }
      ],
      "name": "isApprovedForAll",
      "outputs": [
        {
          "internalType": "bool",
          "name": "",
          "type": "bool"
        }
      ],
      "stateMutability": "view",
      "type": "function",
      "constant": true
    },
    {
      "inputs": [],
      "name": "name",
      "outputs": [
        {
          "internalType": "string",
          "name": "",
          "type": "string"
        }
      ],
      "stateMutability": "view",
      "type": "function",
      "constant": true
    },
    {
      "inputs": [],
      "name": "nextId",
      "outputs": [
        {
          "internalType": "uint256",
          "name": "",
          "type": "uint256"
        }
      ],
      "stateMutability": "view",
      "type": "function",
      "constant": true
    },
    {
      "inputs": [],
      "name": "owner",
      "outputs": [
        {
          "internalType": "address",
          "name": "",
          "type": "address"
        }
      ],
      "stateMutability": "view",
      "type": "function",
      "constant": true
    },
    {
      "inputs": [
        {
          "internalType": "uint256",
          "name": "tokenId",
          "type": "uint256"
        }
      ],
      "name": "ownerOf",
      "outputs": [
        {
          "internalType": "address",
          "name": "",
          "type": "address"
        }
      ],
      "stateMutability": "view",
      "type": "function",
      "constant": true
    },
    {
      "inputs": [],
      "name": "renounceOwnership",
      "outputs": [],
      "stateMutability": "nonpayable",
      "type": "function"
    },
    {
      "inputs": [
        {
          "internalType": "address",
          "name": "from",
          "type": "address"
        },
        {
          "internalType": "address",
          "name": "to",
          "type": "address"
        },
        {
          "internalType": "uint256",
          "name": "tokenId",
          "type": "uint256"
        }
      ],
      "name": "safeTransferFrom",
      "outputs": [],
      "stateMutability": "nonpayable",
      "type": "function"
    },
    {
      "inputs": [
        {
          "internalType": "address",
          "name": "from",
          "type": "address"
        },
        {
          "internalType": "address",
          "name": "to",
          "type": "address"
        },
        {
          "internalType": "uint256",
          "name": "tokenId",
          "type": "uint256"
        },
        {
          "internalType": "bytes",
          "name": "_data",
          "type": "bytes"
        }
      ],
      "name": "safeTransferFrom",
      "outputs": [],
      "stateMutability": "nonpayable",
      "type": "function"
    },
    {
      "inputs": [
        {
          "internalType": "address",
          "name": "operator",
          "type": "address"
        },
        {
          "internalType": "bool",
          "name": "approved",
          "type": "bool"
        }
      ],
      "name": "setApprovalForAll",
      "outputs": [],
      "stateMutability": "nonpayable",
      "type": "function"
    },
    {
      "inputs": [
        {
          "internalType": "bytes4",
          "name": "interfaceId",
          "type": "bytes4"
        }
      ],
      "name": "supportsInterface",
      "outputs": [
        {
          "internalType": "bool",
          "name": "",
          "type": "bool"
        }
      ],
      "stateMutability": "view",
      "type": "function",
      "constant": true
    },
    {
      "inputs": [],
      "name": "symbol",
      "outputs": [
        {
          "internalType": "string",
          "name": "",
          "type": "string"
        }
      ],
      "stateMutability": "view",
      "type": "function",
      "constant": true
    },
    {
      "inputs": [
        {
          "internalType": "uint256",
          "name": "index",
          "type": "uint256"
        }
      ],
      "name": "tokenByIndex",
      "outputs": [
        {
          "internalType": "uint256",
          "name": "",
          "type": "uint256"
        }
      ],
      "stateMutability": "view",
      "type": "function",
      "constant": true
    },
    {
      "inputs": [
        {
          "internalType": "uint256",
          "name": "",
          "type": "uint256"
        }
      ],
      "name": "tokenIdToPrice",
      "outputs": [
        {
          "internalType": "uint256",
          "name": "",
          "type": "uint256"
        }
      ],
      "stateMutability": "view",
      "type": "function",
      "constant": true
    },
    {
      "inputs": [
        {
          "internalType": "address",
          "name": "owner",
          "type": "address"
        },
        {
          "internalType": "uint256",
          "name": "index",
          "type": "uint256"
        }
      ],
      "name": "tokenOfOwnerByIndex",
      "outputs": [
        {
          "internalType": "uint256",
          "name": "",
          "type": "uint256"
        }
      ],
      "stateMutability": "view",
      "type": "function",
      "constant": true
    },
    {
      "inputs": [
        {
          "internalType": "uint256",
          "name": "tokenId",
          "type": "uint256"
        }
      ],
      "name": "tokenURI",
      "outputs": [
        {
          "internalType": "string",
          "name": "",
          "type": "string"
        }
      ],
      "stateMutability": "view",
      "type": "function",
      "constant": true
    },
    {
      "inputs": [],
      "name": "totalSupply",
      "outputs": [
        {
          "internalType": "uint256",
          "name": "",
          "type": "uint256"
        }
      ],
      "stateMutability": "view",
      "type": "function",
      "constant": true
    },
    {
      "inputs": [
        {
          "internalType": "address",
          "name": "from",
          "type": "address"
        },
        {
          "internalType": "address",
          "name": "to",
          "type": "address"
        },
        {
          "internalType": "uint256",
          "name": "tokenId",
          "type": "uint256"
        }
      ],
      "name": "transferFrom",
      "outputs": [],
      "stateMutability": "nonpayable",
      "type": "function"
    },
    {
      "inputs": [
        {
          "internalType": "address",
          "name": "newOwner",
          "type": "address"
        }
      ],
      "name": "transferOwnership",
      "outputs": [],
      "stateMutability": "nonpayable",
      "type": "function"
    },
    {
      "inputs": [
        {
          "internalType": "uint256",
          "name": "tokenId",
          "type": "uint256"
        }
      ],
      "name": "getTokenDetails",
      "outputs": [
        {
          "components": [
            {
              "internalType": "string",
              "name": "location_name",
              "type": "string"
            },
            {
              "internalType": "string",
              "name": "svg_image",
              "type": "string"
            },
            {
              "internalType": "uint8",
              "name": "locn_type",
              "type": "uint8"
            },
            {
              "internalType": "uint256",
              "name": "latitude",
              "type": "uint256"
            },
            {
              "internalType": "uint256",
              "name": "longitude",
              "type": "uint256"
            },
            {
              "internalType": "bool",
              "name": "isExist",
              "type": "bool"
            }
          ],
          "internalType": "struct LocationNFT.Location",
          "name": "",
          "type": "tuple"
        }
      ],
      "stateMutability": "view",
      "type": "function",
      "constant": true
    },
    {
      "inputs": [
        {
          "internalType": "uint256",
          "name": "tokenId",
          "type": "uint256"
        }
      ],
      "name": "getPriceOf",
      "outputs": [
        {
          "internalType": "uint256",
          "name": "",
          "type": "uint256"
        }
      ],
      "stateMutability": "view",
      "type": "function",
      "constant": true
    },
    {
      "inputs": [
        {
          "internalType": "uint256",
          "name": "tokenId",
          "type": "uint256"
        }
      ],
      "name": "getOwnerOf",
      "outputs": [
        {
          "internalType": "address",
          "name": "",
          "type": "address"
        }
      ],
      "stateMutability": "view",
      "type": "function",
      "constant": true
    },
    {
      "inputs": [
        {
          "internalType": "uint256",
          "name": "tokenId",
          "type": "uint256"
        }
      ],
      "name": "getAuctionInfo",
      "outputs": [
        {
          "components": [
            {
              "internalType": "uint256",
              "name": "tokenId",
              "type": "uint256"
            },
            {
              "internalType": "address",
              "name": "beneficiary",
              "type": "address"
            },
            {
              "internalType": "bool",
              "name": "auctionGoingOn",
              "type": "bool"
            },
            {
              "internalType": "bool",
              "name": "auctionEnded",
              "type": "bool"
            },
            {
              "internalType": "uint256",
              "name": "auctionEndTime",
              "type": "uint256"
            },
            {
              "internalType": "uint256",
              "name": "biddingTime",
              "type": "uint256"
            },
            {
              "internalType": "address",
              "name": "highestBidder",
              "type": "address"
            },
            {
              "internalType": "uint256",
              "name": "highestBid",
              "type": "uint256"
            },
            {
              "internalType": "bool",
              "name": "isExist",
              "type": "bool"
            }
          ],
          "internalType": "struct LocationNFT.Auction",
          "name": "",
          "type": "tuple"
        }
      ],
      "stateMutability": "view",
      "type": "function",
      "constant": true
    },
    {
      "inputs": [
        {
          "internalType": "uint256",
          "name": "bidId",
          "type": "uint256"
        }
      ],
      "name": "getBiddingLog",
      "outputs": [
        {
          "components": [
            {
              "internalType": "uint256",
              "name": "tokenId",
              "type": "uint256"
            },
            {
              "internalType": "address",
              "name": "bidder",
              "type": "address"
            },
            {
              "internalType": "uint256",
              "name": "bidValue",
              "type": "uint256"
            },
            {
              "internalType": "uint256",
              "name": "timeBid",
              "type": "uint256"
            }
          ],
          "internalType": "struct LocationNFT.Bid",
          "name": "",
          "type": "tuple"
        }
      ],
      "stateMutability": "view",
      "type": "function",
      "constant": true
    },
    {
      "inputs": [
        {
          "internalType": "uint256",
          "name": "tokenId",
          "type": "uint256"
        }
      ],
      "name": "getPendingReturnsCount",
      "outputs": [
        {
          "internalType": "uint256",
          "name": "",
          "type": "uint256"
        }
      ],
      "stateMutability": "view",
      "type": "function",
      "constant": true
    },
    {
      "inputs": [
        {
          "internalType": "uint256",
          "name": "tokenId",
          "type": "uint256"
        },
        {
          "internalType": "address",
          "name": "addr",
          "type": "address"
        }
      ],
      "name": "getPendingReturnValue",
      "outputs": [
        {
          "internalType": "uint256",
          "name": "",
          "type": "uint256"
        }
      ],
      "stateMutability": "view",
      "type": "function",
      "constant": true
    },
    {
      "inputs": [
        {
          "internalType": "string",
          "name": "location_name",
          "type": "string"
        },
        {
          "internalType": "string",
          "name": "svg_image",
          "type": "string"
        },
        {
          "internalType": "uint8",
          "name": "locn_type",
          "type": "uint8"
        },
        {
          "internalType": "uint256",
          "name": "latitude",
          "type": "uint256"
        },
        {
          "internalType": "uint256",
          "name": "longitude",
          "type": "uint256"
        },
        {
          "internalType": "bool",
          "name": "isSellable",
          "type": "bool"
        }
      ],
      "name": "mint",
      "outputs": [],
      "stateMutability": "nonpayable",
      "type": "function"
    },
    {
      "inputs": [
        {
          "internalType": "uint256",
          "name": "_tokenId",
          "type": "uint256"
        }
      ],
      "name": "buy",
      "outputs": [],
      "stateMutability": "payable",
      "type": "function",
      "payable": true
    },
    {
      "inputs": [
        {
          "internalType": "uint256",
          "name": "_tokenId",
          "type": "uint256"
        },
        {
          "internalType": "uint256",
          "name": "_biddingTime",
          "type": "uint256"
        }
      ],
      "name": "startAuction",
      "outputs": [],
      "stateMutability": "nonpayable",
      "type": "function"
    },
    {
      "inputs": [
        {
          "internalType": "uint256",
          "name": "_tokenId",
          "type": "uint256"
        }
      ],
      "name": "endAuction",
      "outputs": [],
      "stateMutability": "nonpayable",
      "type": "function"
    },
    {
      "inputs": [
        {
          "internalType": "uint256",
          "name": "_tokenId",
          "type": "uint256"
        }
      ],
      "name": "placeBid",
      "outputs": [],
      "stateMutability": "payable",
      "type": "function",
      "payable": true
    }
  ],
  "bytecode": "0x60806040526000600b556000600c553480156200001b57600080fd5b506040518060400160405280600b81526020017f556e6971756541737365740000000000000000000000000000000000000000008152506040518060400160405280600381526020017f554e410000000000000000000000000000000000000000000000000000000000815250620000a06301ffc9a760e01b620001d360201b60201c565b8160069080519060200190620000b8929190620002b3565b508060079080519060200190620000d1929190620002b3565b50620000ea6380ac58cd60e01b620001d360201b60201c565b62000102635b5e139f60e01b620001d360201b60201c565b6200011a63780e9d6360e01b620001d360201b60201c565b505060006200012e620002ab60201b60201c565b905080600a60006101000a81548173ffffffffffffffffffffffffffffffffffffffff021916908373ffffffffffffffffffffffffffffffffffffffff1602179055508073ffffffffffffffffffffffffffffffffffffffff16600073ffffffffffffffffffffffffffffffffffffffff167f8be0079c531659141344cd1fd0a4f28419497f9722a3daafe3b4186f6b6457e060405160405180910390a350620003ce565b63ffffffff60e01b817bffffffffffffffffffffffffffffffffffffffffffffffffffffffff191614156200023f576040517f08c379a000000000000000000000000000000000000000000000000000000000815260040162000236906200039b565b60405180910390fd5b6001600080837bffffffffffffffffffffffffffffffffffffffffffffffffffffffff19167bffffffffffffffffffffffffffffffffffffffffffffffffffffffff1916815260200190815260200160002060006101000a81548160ff02191690831515021790555050565b600033905090565b828054600181600116156101000203166002900490600052602060002090601f016020900481019282601f10620002f657805160ff191683800117855562000327565b8280016001018555821562000327579182015b828111156200032657825182559160200191906001019062000309565b5b5090506200033691906200033a565b5090565b5b80821115620003555760008160009055506001016200033b565b5090565b600062000368601c83620003bd565b91507f4552433136353a20696e76616c696420696e74657266616365206964000000006000830152602082019050919050565b60006020820190508181036000830152620003b68162000359565b9050919050565b600082825260208201905092915050565b615a3780620003de6000396000f3fe6080604052600436106102045760003560e01c80638363871011610118578063c1e03728116100a0578063f07571a01161006f578063f07571a0146107bd578063f2fde38b146107fa578063f4812eb914610823578063f901c4d814610860578063fc3fc4ed1461088957610204565b8063c1e03728146106ea578063c87b56dd14610727578063d96a094a14610764578063e985e9c51461078057610204565b8063a22cb465116100e7578063a22cb465146105f5578063ad81bd1c1461061e578063b54b4fb91461065b578063b88d4fde14610698578063b9a2de3a146106c157610204565b806383638710146105465780638da5cb5b1461058357806395d89b41146105ae5780639979ef45146105d957610204565b806342842e0e1161019b5780636352211e1161016a5780636352211e1461044d5780636c0360eb1461048a5780636f169aa0146104b557806370a08231146104f2578063715018a61461052f57610204565b806342842e0e146103935780634f6ccce7146103bc5780634fee13fc146103f957806361b8ce8c1461042257610204565b8063095ea7b3116101d7578063095ea7b3146102d957806318160ddd1461030257806323b872dd1461032d5780632f745c591461035657610204565b806301ffc9a714610209578063067fa8fc1461024657806306fdde0314610271578063081812fc1461029c575b600080fd5b34801561021557600080fd5b50610230600480360381019061022b91906141f1565b6108c6565b60405161023d91906151f5565b60405180910390f35b34801561025257600080fd5b5061025b61092d565b6040516102689190615706565b60405180910390f35b34801561027d57600080fd5b50610286610933565b6040516102939190615210565b60405180910390f35b3480156102a857600080fd5b506102c360048036038101906102be91906142fc565b6109d5565b6040516102d09190615105565b60405180910390f35b3480156102e557600080fd5b5061030060048036038101906102fb91906141b5565b610a5a565b005b34801561030e57600080fd5b50610317610b72565b6040516103249190615706565b60405180910390f35b34801561033957600080fd5b50610354600480360381019061034f91906140af565b610b83565b005b34801561036257600080fd5b5061037d600480360381019061037891906141b5565b610be3565b60405161038a9190615706565b60405180910390f35b34801561039f57600080fd5b506103ba60048036038101906103b591906140af565b610c3e565b005b3480156103c857600080fd5b506103e360048036038101906103de91906142fc565b610c5e565b6040516103f09190615706565b60405180910390f35b34801561040557600080fd5b50610420600480360381019061041b919061438a565b610c81565b005b34801561042e57600080fd5b50610437610fd4565b6040516104449190615706565b60405180910390f35b34801561045957600080fd5b50610474600480360381019061046f91906142fc565b610fda565b6040516104819190615105565b60405180910390f35b34801561049657600080fd5b5061049f611011565b6040516104ac9190615210565b60405180910390f35b3480156104c157600080fd5b506104dc60048036038101906104d7919061434e565b6110b3565b6040516104e99190615706565b60405180910390f35b3480156104fe57600080fd5b5061051960048036038101906105149190614021565b61115f565b6040516105269190615706565b60405180910390f35b34801561053b57600080fd5b5061054461121e565b005b34801561055257600080fd5b5061056d600480360381019061056891906142fc565b61135b565b60405161057a9190615105565b60405180910390f35b34801561058f57600080fd5b5061059861136d565b6040516105a59190615105565b60405180910390f35b3480156105ba57600080fd5b506105c3611397565b6040516105d09190615210565b60405180910390f35b6105f360048036038101906105ee91906142fc565b611439565b005b34801561060157600080fd5b5061061c60048036038101906106179190614179565b611824565b005b34801561062a57600080fd5b50610645600480360381019061064091906142fc565b6119a5565b60405161065291906155ee565b60405180910390f35b34801561066757600080fd5b50610682600480360381019061067d91906142fc565b611a46565b60405161068f9190615706565b60405180910390f35b3480156106a457600080fd5b506106bf60048036038101906106ba91906140fe565b611a63565b005b3480156106cd57600080fd5b506106e860048036038101906106e391906142fc565b611ac5565b005b3480156106f657600080fd5b50610711600480360381019061070c91906142fc565b6121ef565b60405161071e9190615609565b60405180910390f35b34801561073357600080fd5b5061074e600480360381019061074991906142fc565b6123ac565b60405161075b9190615210565b60405180910390f35b61077e600480360381019061077991906142fc565b61252f565b005b34801561078c57600080fd5b506107a760048036038101906107a29190614073565b612684565b6040516107b491906151f5565b60405180910390f35b3480156107c957600080fd5b506107e460048036038101906107df91906142fc565b612718565b6040516107f19190615706565b60405180910390f35b34801561080657600080fd5b50610821600480360381019061081c9190614021565b6127c1565b005b34801561082f57600080fd5b5061084a600480360381019061084591906142fc565b61296d565b6040516108579190615706565b60405180910390f35b34801561086c57600080fd5b5061088760048036038101906108829190614243565b612985565b005b34801561089557600080fd5b506108b060048036038101906108ab91906142fc565b612c2e565b6040516108bd91906155d2565b60405180910390f35b6000806000837bffffffffffffffffffffffffffffffffffffffffffffffffffffffff19167bffffffffffffffffffffffffffffffffffffffffffffffffffffffff1916815260200190815260200160002060009054906101000a900460ff169050919050565b600c5481565b606060068054600181600116156101000203166002900480601f0160208091040260200160405190810160405280929190818152602001828054600181600116156101000203166002900480156109cb5780601f106109a0576101008083540402835291602001916109cb565b820191906000526020600020905b8154815290600101906020018083116109ae57829003601f168201915b5050505050905090565b60006109e082612d81565b610a1f576040517f08c379a0000000000000000000000000000000000000000000000000000000008152600401610a1690615452565b60405180910390fd5b6004600083815260200190815260200160002060009054906101000a900473ffffffffffffffffffffffffffffffffffffffff169050919050565b6000610a6582610fda565b90508073ffffffffffffffffffffffffffffffffffffffff168373ffffffffffffffffffffffffffffffffffffffff161415610ad6576040517f08c379a0000000000000000000000000000000000000000000000000000000008152600401610acd90615512565b60405180910390fd5b8073ffffffffffffffffffffffffffffffffffffffff16610af5612d9e565b73ffffffffffffffffffffffffffffffffffffffff161480610b245750610b2381610b1e612d9e565b612684565b5b610b63576040517f08c379a0000000000000000000000000000000000000000000000000000000008152600401610b5a906153d2565b60405180910390fd5b610b6d8383612da6565b505050565b6000610b7e6002612e5f565b905090565b610b94610b8e612d9e565b82612e74565b610bd3576040517f08c379a0000000000000000000000000000000000000000000000000000000008152600401610bca90615532565b60405180910390fd5b610bde838383612f52565b505050565b6000610c3682600160008673ffffffffffffffffffffffffffffffffffffffff1673ffffffffffffffffffffffffffffffffffffffff16815260200190815260200160002061316990919063ffffffff16565b905092915050565b610c5983838360405180602001604052806000815250611a63565b505050565b600080610c7583600261318390919063ffffffff16565b50905080915050919050565b60008142019050600d600084815260200190815260200160002060050160009054906101000a900460ff16610ceb576040517f08c379a0000000000000000000000000000000000000000000000000000000008152600401610ce290615232565b60405180910390fd5b610cf483610fda565b73ffffffffffffffffffffffffffffffffffffffff163373ffffffffffffffffffffffffffffffffffffffff1614610d61576040517f08c379a0000000000000000000000000000000000000000000000000000000008152600401610d5890615392565b60405180910390fd5b6010600084815260200190815260200160002060060160009054906101000a900460ff168015610db257506010600084815260200190815260200160002060010160159054906101000a900460ff16155b15610df2576040517f08c379a0000000000000000000000000000000000000000000000000000000008152600401610de990615572565b60405180910390fd5b6040518061012001604052808481526020013373ffffffffffffffffffffffffffffffffffffffff168152602001600115158152602001600015158152602001828152602001838152602001600073ffffffffffffffffffffffffffffffffffffffff1681526020016000815260200160011515815250601060008581526020019081526020016000206000820151816000015560208201518160010160006101000a81548173ffffffffffffffffffffffffffffffffffffffff021916908373ffffffffffffffffffffffffffffffffffffffff16021790555060408201518160010160146101000a81548160ff02191690831515021790555060608201518160010160156101000a81548160ff0219169083151502179055506080820151816002015560a0820151816003015560c08201518160040160006101000a81548173ffffffffffffffffffffffffffffffffffffffff021916908373ffffffffffffffffffffffffffffffffffffffff16021790555060e082015181600501556101008201518160060160006101000a81548160ff0219169083151502179055509050507fc087c4cdb16906b5ff7016a6bf927618f24ff32eb1de5e86eeaeb08b94831a683383604051610fc792919061516c565b60405180910390a1505050565b600b5481565b600061100a826040518060600160405280602981526020016159d96029913960026131af9092919063ffffffff16565b9050919050565b606060098054600181600116156101000203166002900480601f0160208091040260200160405190810160405280929190818152602001828054600181600116156101000203166002900480156110a95780601f1061107e576101008083540402835291602001916110a9565b820191906000526020600020905b81548152906001019060200180831161108c57829003601f168201915b5050505050905090565b6000806012600085815260200190815260200160002090508073__IterableMapping_______________________63732a2ccf9091856040518363ffffffff1660e01b8152600401611106929190615646565b60206040518083038186803b15801561111e57600080fd5b505af4158015611132573d6000803e3d6000fd5b505050506040513d601f19601f820116820180604052508101906111569190614325565b91505092915050565b60008073ffffffffffffffffffffffffffffffffffffffff168273ffffffffffffffffffffffffffffffffffffffff1614156111d0576040517f08c379a00000000000000000000000000000000000000000000000000000000081526004016111c7906153f2565b60405180910390fd5b611217600160008473ffffffffffffffffffffffffffffffffffffffff1673ffffffffffffffffffffffffffffffffffffffff1681526020019081526020016000206131ce565b9050919050565b611226612d9e565b73ffffffffffffffffffffffffffffffffffffffff1661124461136d565b73ffffffffffffffffffffffffffffffffffffffff161461129a576040517f08c379a0000000000000000000000000000000000000000000000000000000008152600401611291906154b2565b60405180910390fd5b600073ffffffffffffffffffffffffffffffffffffffff16600a60009054906101000a900473ffffffffffffffffffffffffffffffffffffffff1673ffffffffffffffffffffffffffffffffffffffff167f8be0079c531659141344cd1fd0a4f28419497f9722a3daafe3b4186f6b6457e060405160405180910390a36000600a60006101000a81548173ffffffffffffffffffffffffffffffffffffffff021916908373ffffffffffffffffffffffffffffffffffffffff160217905550565b600061136682610fda565b9050919050565b6000600a60009054906101000a900473ffffffffffffffffffffffffffffffffffffffff16905090565b606060078054600181600116156101000203166002900480601f01602080910402602001604051908101604052809291908181526020018280546001816001161561010002031660029004801561142f5780601f106114045761010080835404028352916020019161142f565b820191906000526020600020905b81548152906001019060200180831161141257829003601f168201915b5050505050905090565b611441613d3d565b61144a82612c2e565b9050806101000151611491576040517f08c379a000000000000000000000000000000000000000000000000000000000815260040161148890615472565b60405180910390fd5b600f60008381526020019081526020016000205434116114e6576040517f08c379a00000000000000000000000000000000000000000000000000000000081526004016114dd906153b2565b60405180910390fd5b8060e00151341161152c576040517f08c379a0000000000000000000000000000000000000000000000000000000008152600401611523906155b2565b60405180910390fd5b348160e0018181525050338160c0019073ffffffffffffffffffffffffffffffffffffffff16908173ffffffffffffffffffffffffffffffffffffffff168152505080601060008481526020019081526020016000206000820151816000015560208201518160010160006101000a81548173ffffffffffffffffffffffffffffffffffffffff021916908373ffffffffffffffffffffffffffffffffffffffff16021790555060408201518160010160146101000a81548160ff02191690831515021790555060608201518160010160156101000a81548160ff0219169083151502179055506080820151816002015560a0820151816003015560c08201518160040160006101000a81548173ffffffffffffffffffffffffffffffffffffffff021916908373ffffffffffffffffffffffffffffffffffffffff16021790555060e082015181600501556101008201518160060160006101000a81548160ff02191690831515021790555090505060006012600084815260200190815260200160002090508073__IterableMapping_______________________63bc2b405c909133346040518463ffffffff1660e01b81526004016116f09392919061566f565b60006040518083038186803b15801561170857600080fd5b505af415801561171c573d6000803e3d6000fd5b505050507fde11ebd9a4f52f9d475e408266bfa5a8a50ebd212fd91bc37f6b438b7aaa6ad5333460405161175192919061516c565b60405180910390a160405180608001604052808481526020013373ffffffffffffffffffffffffffffffffffffffff1681526020013481526020014281525060116000600c5481526020019081526020016000206000820151816000015560208201518160010160006101000a81548173ffffffffffffffffffffffffffffffffffffffff021916908373ffffffffffffffffffffffffffffffffffffffff1602179055506040820151816002015560608201518160030155905050600c60008154809291906001019190505550505050565b61182c612d9e565b73ffffffffffffffffffffffffffffffffffffffff168273ffffffffffffffffffffffffffffffffffffffff16141561189a576040517f08c379a000000000000000000000000000000000000000000000000000000000815260040161189190615332565b60405180910390fd5b80600560006118a7612d9e565b73ffffffffffffffffffffffffffffffffffffffff1673ffffffffffffffffffffffffffffffffffffffff16815260200190815260200160002060008473ffffffffffffffffffffffffffffffffffffffff1673ffffffffffffffffffffffffffffffffffffffff16815260200190815260200160002060006101000a81548160ff0219169083151502179055508173ffffffffffffffffffffffffffffffffffffffff16611954612d9e565b73ffffffffffffffffffffffffffffffffffffffff167f17307eab39ab6107e8899845ad3d59bd9653f200f220920489ca2b5937696c318360405161199991906151f5565b60405180910390a35050565b6119ad613dbb565b60116000838152602001908152602001600020604051806080016040529081600082015481526020016001820160009054906101000a900473ffffffffffffffffffffffffffffffffffffffff1673ffffffffffffffffffffffffffffffffffffffff1673ffffffffffffffffffffffffffffffffffffffff168152602001600282015481526020016003820154815250509050919050565b6000600f6000838152602001908152602001600020549050919050565b611a74611a6e612d9e565b83612e74565b611ab3576040517f08c379a0000000000000000000000000000000000000000000000000000000008152600401611aaa90615532565b60405180910390fd5b611abf848484846131e3565b50505050565b611acd613d3d565b611ad682612c2e565b9050806101000151611b1d576040517f08c379a0000000000000000000000000000000000000000000000000000000008152600401611b1490615472565b60405180910390fd5b8060800151421015611b64576040517f08c379a0000000000000000000000000000000000000000000000000000000008152600401611b5b90615572565b60405180910390fd5b806060015115611ba9576040517f08c379a0000000000000000000000000000000000000000000000000000000008152600401611ba090615592565b60405180910390fd5b600060126000848152602001908152602001600020905060008260e001511415611d63576001826060019015159081151581525050600082604001901515908115158152505081601060008581526020019081526020016000206000820151816000015560208201518160010160006101000a81548173ffffffffffffffffffffffffffffffffffffffff021916908373ffffffffffffffffffffffffffffffffffffffff16021790555060408201518160010160146101000a81548160ff02191690831515021790555060608201518160010160156101000a81548160ff0219169083151502179055506080820151816002015560a0820151816003015560c08201518160040160006101000a81548173ffffffffffffffffffffffffffffffffffffffff021916908373ffffffffffffffffffffffffffffffffffffffff16021790555060e082015181600501556101008201518160060160006101000a81548160ff0219169083151502179055509050507fdaec4582d5d9595688c8c98545fdd1c696d41c6aeaeb636737e84ed2f5c00eda8260c001518360e00151604051611d569291906151cc565b60405180910390a1612021565b60018260600190151590811515815250506000826040019015159081151581525050816020015173ffffffffffffffffffffffffffffffffffffffff166108fc8360e001519081150290604051600060405180830381858888f19350505050158015611dd3573d6000803e3d6000fd5b50611de782602001518360c0015185612f52565b8160c00151826020019073ffffffffffffffffffffffffffffffffffffffff16908173ffffffffffffffffffffffffffffffffffffffff168152505081601060008581526020019081526020016000206000820151816000015560208201518160010160006101000a81548173ffffffffffffffffffffffffffffffffffffffff021916908373ffffffffffffffffffffffffffffffffffffffff16021790555060408201518160010160146101000a81548160ff02191690831515021790555060608201518160010160156101000a81548160ff0219169083151502179055506080820151816002015560a0820151816003015560c08201518160040160006101000a81548173ffffffffffffffffffffffffffffffffffffffff021916908373ffffffffffffffffffffffffffffffffffffffff16021790555060e082015181600501556101008201518160060160006101000a81548160ff0219169083151502179055509050508160e00151600f6000858152602001908152602001600020819055508073__IterableMapping_______________________63bc2b405c90918460c0015160006040518463ffffffff1660e01b8152600401611faf939291906156a6565b60006040518083038186803b158015611fc757600080fd5b505af4158015611fdb573d6000803e3d6000fd5b505050507fdaec4582d5d9595688c8c98545fdd1c696d41c6aeaeb636737e84ed2f5c00eda8260c001518360e001516040516120189291906151cc565b60405180910390a15b60005b8173__IterableMapping_______________________63deb3d89690916040518263ffffffff1660e01b815260040161205d919061562b565b60206040518083038186803b15801561207557600080fd5b505af4158015612089573d6000803e3d6000fd5b505050506040513d601f19601f820116820180604052508101906120ad9190614325565b8110156121e95760008273__IterableMapping_______________________63d1aa9e7e9091846040518363ffffffff1660e01b81526004016120f19291906156dd565b60206040518083038186803b15801561210957600080fd5b505af415801561211d573d6000803e3d6000fd5b505050506040513d601f19601f82011682018060405250810190612141919061404a565b9050600061214f86836110b3565b905060008111156121da578173ffffffffffffffffffffffffffffffffffffffff166108fc829081150290604051600060405180830381858888f193505050501580156121a0573d6000803e3d6000fd5b507e363fe256a1f2c23b39e0cfe65d691c725e83e534d368d718337b9d46b705ae82826040516121d19291906151cc565b60405180910390a15b50508080600101915050612024565b50505050565b6121f7613df9565b600d60008381526020019081526020016000206040518060c0016040529081600082018054600181600116156101000203166002900480601f0160208091040260200160405190810160405280929190818152602001828054600181600116156101000203166002900480156122ae5780601f10612283576101008083540402835291602001916122ae565b820191906000526020600020905b81548152906001019060200180831161229157829003601f168201915b50505050508152602001600182018054600181600116156101000203166002900480601f0160208091040260200160405190810160405280929190818152602001828054600181600116156101000203166002900480156123505780601f1061232557610100808354040283529160200191612350565b820191906000526020600020905b81548152906001019060200180831161233357829003601f168201915b505050505081526020016002820160009054906101000a900460ff1660ff1660ff16815260200160038201548152602001600482015481526020016005820160009054906101000a900460ff1615151515815250509050919050565b60606123b782612d81565b6123f6576040517f08c379a00000000000000000000000000000000000000000000000000000000081526004016123ed906154f2565b60405180910390fd5b6060600860008481526020019081526020016000208054600181600116156101000203166002900480601f01602080910402602001604051908101604052809291908181526020018280546001816001161561010002031660029004801561249f5780601f106124745761010080835404028352916020019161249f565b820191906000526020600020905b81548152906001019060200180831161248257829003601f168201915b5050505050905060606124b0611011565b90506000815114156124c657819250505061252a565b6000825111156124fb5780826040516020016124e39291906150e1565b6040516020818303038152906040529250505061252a565b806125058561323f565b6040516020016125169291906150e1565b604051602081830303815290604052925050505b919050565b6000600f60008381526020019081526020016000205490506000811161258a576040517f08c379a000000000000000000000000000000000000000000000000000000000815260040161258190615292565b60405180910390fd5b8034146125cc576040517f08c379a00000000000000000000000000000000000000000000000000000000081526004016125c390615492565b60405180910390fd5b60006125d783610fda565b90506125e4813385612f52565b6000600f6000858152602001908152602001600020819055508073ffffffffffffffffffffffffffffffffffffffff166108fc349081150290604051600060405180830381858888f19350505050158015612643573d6000803e3d6000fd5b507f608f6ac9327c2bf4d3c77adf447d2c448ba7b0971e0aaa9aa03f7ac29d874a4481333460405161267793929190615195565b60405180910390a1505050565b6000600560008473ffffffffffffffffffffffffffffffffffffffff1673ffffffffffffffffffffffffffffffffffffffff16815260200190815260200160002060008373ffffffffffffffffffffffffffffffffffffffff1673ffffffffffffffffffffffffffffffffffffffff16815260200190815260200160002060009054906101000a900460ff16905092915050565b6000806012600084815260200190815260200160002090508073__IterableMapping_______________________63deb3d89690916040518263ffffffff1660e01b8152600401612769919061562b565b60206040518083038186803b15801561278157600080fd5b505af4158015612795573d6000803e3d6000fd5b505050506040513d601f19601f820116820180604052508101906127b99190614325565b915050919050565b6127c9612d9e565b73ffffffffffffffffffffffffffffffffffffffff166127e761136d565b73ffffffffffffffffffffffffffffffffffffffff161461283d576040517f08c379a0000000000000000000000000000000000000000000000000000000008152600401612834906154b2565b60405180910390fd5b600073ffffffffffffffffffffffffffffffffffffffff168173ffffffffffffffffffffffffffffffffffffffff1614156128ad576040517f08c379a00000000000000000000000000000000000000000000000000000000081526004016128a4906152b2565b60405180910390fd5b8073ffffffffffffffffffffffffffffffffffffffff16600a60009054906101000a900473ffffffffffffffffffffffffffffffffffffffff1673ffffffffffffffffffffffffffffffffffffffff167f8be0079c531659141344cd1fd0a4f28419497f9722a3daafe3b4186f6b6457e060405160405180910390a380600a60006101000a81548173ffffffffffffffffffffffffffffffffffffffff021916908373ffffffffffffffffffffffffffffffffffffffff16021790555050565b600f6020528060005260406000206000915090505481565b61298d612d9e565b73ffffffffffffffffffffffffffffffffffffffff166129ab61136d565b73ffffffffffffffffffffffffffffffffffffffff1614612a01576040517f08c379a00000000000000000000000000000000000000000000000000000000081526004016129f8906154b2565b60405180910390fd5b600e86604051612a1191906150ca565b908152602001604051809103902060010160009054906101000a900460ff1615612a70576040517f08c379a0000000000000000000000000000000000000000000000000000000008152600401612a67906152f2565b60405180910390fd5b6040518060c001604052808781526020018681526020018560ff16815260200184815260200183815260200160011515815250600d6000600b5481526020019081526020016000206000820151816000019080519060200190612ad4929190613e34565b506020820151816001019080519060200190612af1929190613e34565b5060408201518160020160006101000a81548160ff021916908360ff160217905550606082015181600301556080820151816004015560a08201518160050160006101000a81548160ff021916908315150217905550905050604051806040016040528087815260200160011515815250600e87604051612b7291906150ca565b90815260200160405180910390206000820151816000019080519060200190612b9c929190613e34565b5060208201518160010160006101000a81548160ff0219169083151502179055509050508015612bec57662386f26fc10000600f6000600b54815260200190815260200160002081905550612c08565b6000600f6000600b548152602001908152602001600020819055505b612c1433600b54613386565b600b60008154809291906001019190505550505050505050565b612c36613d3d565b6010600083815260200190815260200160002060405180610120016040529081600082015481526020016001820160009054906101000a900473ffffffffffffffffffffffffffffffffffffffff1673ffffffffffffffffffffffffffffffffffffffff1673ffffffffffffffffffffffffffffffffffffffff1681526020016001820160149054906101000a900460ff161515151581526020016001820160159054906101000a900460ff1615151515815260200160028201548152602001600382015481526020016004820160009054906101000a900473ffffffffffffffffffffffffffffffffffffffff1673ffffffffffffffffffffffffffffffffffffffff1673ffffffffffffffffffffffffffffffffffffffff168152602001600582015481526020016006820160009054906101000a900460ff1615151515815250509050919050565b6000612d978260026133a490919063ffffffff16565b9050919050565b600033905090565b816004600083815260200190815260200160002060006101000a81548173ffffffffffffffffffffffffffffffffffffffff021916908373ffffffffffffffffffffffffffffffffffffffff160217905550808273ffffffffffffffffffffffffffffffffffffffff16612e1983610fda565b73ffffffffffffffffffffffffffffffffffffffff167f8c5be1e5ebec7d5bd14f71427d1e84f3dd0314c0f7b2291e5b200ac8c7c3b92560405160405180910390a45050565b6000612e6d826000016133be565b9050919050565b6000612e7f82612d81565b612ebe576040517f08c379a0000000000000000000000000000000000000000000000000000000008152600401612eb590615372565b60405180910390fd5b6000612ec983610fda565b90508073ffffffffffffffffffffffffffffffffffffffff168473ffffffffffffffffffffffffffffffffffffffff161480612f3857508373ffffffffffffffffffffffffffffffffffffffff16612f20846109d5565b73ffffffffffffffffffffffffffffffffffffffff16145b80612f495750612f488185612684565b5b91505092915050565b8273ffffffffffffffffffffffffffffffffffffffff16612f7282610fda565b73ffffffffffffffffffffffffffffffffffffffff1614612fc8576040517f08c379a0000000000000000000000000000000000000000000000000000000008152600401612fbf906154d2565b60405180910390fd5b600073ffffffffffffffffffffffffffffffffffffffff168273ffffffffffffffffffffffffffffffffffffffff161415613038576040517f08c379a000000000000000000000000000000000000000000000000000000000815260040161302f90615312565b60405180910390fd5b6130438383836133cf565b61304e600082612da6565b61309f81600160008673ffffffffffffffffffffffffffffffffffffffff1673ffffffffffffffffffffffffffffffffffffffff1681526020019081526020016000206133d490919063ffffffff16565b506130f181600160008573ffffffffffffffffffffffffffffffffffffffff1673ffffffffffffffffffffffffffffffffffffffff1681526020019081526020016000206133ee90919063ffffffff16565b50613108818360026134089092919063ffffffff16565b50808273ffffffffffffffffffffffffffffffffffffffff168473ffffffffffffffffffffffffffffffffffffffff167fddf252ad1be2c89b69c2b068fc378daa952ba7f163c4a11628f55a4df523b3ef60405160405180910390a4505050565b6000613178836000018361343d565b60001c905092915050565b60008060008061319686600001866134aa565b915091508160001c8160001c9350935050509250929050565b60006131c2846000018460001b8461352d565b60001c90509392505050565b60006131dc826000016135be565b9050919050565b6131ee848484612f52565b6131fa848484846135cf565b613239576040517f08c379a000000000000000000000000000000000000000000000000000000000815260040161323090615272565b60405180910390fd5b50505050565b60606000821415613287576040518060400160405280600181526020017f30000000000000000000000000000000000000000000000000000000000000008152509050613381565b600082905060005b600082146132b1578080600101915050600a82816132a957fe5b04915061328f565b60608167ffffffffffffffff811180156132ca57600080fd5b506040519080825280601f01601f1916602001820160405280156132fd5781602001600182028036833780820191505090505b50905060006001830390508593505b6000841461337957600a848161331e57fe5b0660300160f81b8282806001900393508151811061333857fe5b60200101907effffffffffffffffffffffffffffffffffffffffffffffffffffffffffffff1916908160001a905350600a848161337157fe5b04935061330c565b819450505050505b919050565b6133a0828260405180602001604052806000815250613733565b5050565b60006133b6836000018360001b61378e565b905092915050565b600081600001805490509050919050565b505050565b60006133e6836000018360001b6137b1565b905092915050565b6000613400836000018360001b613899565b905092915050565b6000613434846000018460001b8473ffffffffffffffffffffffffffffffffffffffff1660001b613909565b90509392505050565b600081836000018054905011613488576040517f08c379a000000000000000000000000000000000000000000000000000000000815260040161347f90615252565b60405180910390fd5b82600001828154811061349757fe5b9060005260206000200154905092915050565b600080828460000180549050116134f6576040517f08c379a00000000000000000000000000000000000000000000000000000000081526004016134ed90615412565b60405180910390fd5b600084600001848154811061350757fe5b906000526020600020906002020190508060000154816001015492509250509250929050565b6000808460010160008581526020019081526020016000205490506000811415839061358f576040517f08c379a00000000000000000000000000000000000000000000000000000000081526004016135869190615210565b60405180910390fd5b508460000160018203815481106135a257fe5b9060005260206000209060020201600101549150509392505050565b600081600001805490509050919050565b60006135f08473ffffffffffffffffffffffffffffffffffffffff166139e5565b6135fd576001905061372b565b60606136c463150b7a0260e01b613612612d9e565b8887876040516024016136289493929190615120565b604051602081830303815290604052907bffffffffffffffffffffffffffffffffffffffffffffffffffffffff19166020820180517bffffffffffffffffffffffffffffffffffffffffffffffffffffffff83818316178352505050506040518060600160405280603281526020016159a7603291398773ffffffffffffffffffffffffffffffffffffffff166139f89092919063ffffffff16565b90506000818060200190518101906136dc919061421a565b905063150b7a0260e01b7bffffffffffffffffffffffffffffffffffffffffffffffffffffffff1916817bffffffffffffffffffffffffffffffffffffffffffffffffffffffff191614925050505b949350505050565b61373d8383613a10565b61374a60008484846135cf565b613789576040517f08c379a000000000000000000000000000000000000000000000000000000000815260040161378090615272565b60405180910390fd5b505050565b600080836001016000848152602001908152602001600020541415905092915050565b6000808360010160008481526020019081526020016000205490506000811461388d57600060018203905060006001866000018054905003905060008660000182815481106137fc57fe5b906000526020600020015490508087600001848154811061381957fe5b906000526020600020018190555060018301876001016000838152602001908152602001600020819055508660000180548061385157fe5b60019003818190600052602060002001600090559055866001016000878152602001908152602001600020600090556001945050505050613893565b60009150505b92915050565b60006138a58383613b9e565b6138fe578260000182908060018154018082558091505060019003906000526020600020016000909190919091505582600001805490508360010160008481526020019081526020016000208190555060019050613903565b600090505b92915050565b60008084600101600085815260200190815260200160002054905060008114156139b0578460000160405180604001604052808681526020018581525090806001815401808255809150506001900390600052602060002090600202016000909190919091506000820151816000015560208201518160010155505084600001805490508560010160008681526020019081526020016000208190555060019150506139de565b828560000160018303815481106139c357fe5b90600052602060002090600202016001018190555060009150505b9392505050565b600080823b905060008111915050919050565b6060613a078484600085613bc1565b90509392505050565b600073ffffffffffffffffffffffffffffffffffffffff168273ffffffffffffffffffffffffffffffffffffffff161415613a80576040517f08c379a0000000000000000000000000000000000000000000000000000000008152600401613a7790615432565b60405180910390fd5b613a8981612d81565b15613ac9576040517f08c379a0000000000000000000000000000000000000000000000000000000008152600401613ac0906152d2565b60405180910390fd5b613ad5600083836133cf565b613b2681600160008573ffffffffffffffffffffffffffffffffffffffff1673ffffffffffffffffffffffffffffffffffffffff1681526020019081526020016000206133ee90919063ffffffff16565b50613b3d818360026134089092919063ffffffff16565b50808273ffffffffffffffffffffffffffffffffffffffff16600073ffffffffffffffffffffffffffffffffffffffff167fddf252ad1be2c89b69c2b068fc378daa952ba7f163c4a11628f55a4df523b3ef60405160405180910390a45050565b600080836001016000848152602001908152602001600020541415905092915050565b606082471015613c06576040517f08c379a0000000000000000000000000000000000000000000000000000000008152600401613bfd90615352565b60405180910390fd5b613c0f856139e5565b613c4e576040517f08c379a0000000000000000000000000000000000000000000000000000000008152600401613c4590615552565b60405180910390fd5b600060608673ffffffffffffffffffffffffffffffffffffffff168587604051613c7891906150b3565b60006040518083038185875af1925050503d8060008114613cb5576040519150601f19603f3d011682016040523d82523d6000602084013e613cba565b606091505b5091509150613cca828286613cd6565b92505050949350505050565b60608315613ce657829050613d36565b600083511115613cf95782518084602001fd5b816040517f08c379a0000000000000000000000000000000000000000000000000000000008152600401613d2d9190615210565b60405180910390fd5b9392505050565b60405180610120016040528060008152602001600073ffffffffffffffffffffffffffffffffffffffff1681526020016000151581526020016000151581526020016000815260200160008152602001600073ffffffffffffffffffffffffffffffffffffffff168152602001600081526020016000151581525090565b604051806080016040528060008152602001600073ffffffffffffffffffffffffffffffffffffffff16815260200160008152602001600081525090565b6040518060c001604052806060815260200160608152602001600060ff16815260200160008152602001600081526020016000151581525090565b828054600181600116156101000203166002900490600052602060002090601f016020900481019282601f10613e7557805160ff1916838001178555613ea3565b82800160010185558215613ea3579182015b82811115613ea2578251825591602001919060010190613e87565b5b509050613eb09190613eb4565b5090565b5b80821115613ecd576000816000905550600101613eb5565b5090565b600081359050613ee081615933565b92915050565b600081519050613ef581615933565b92915050565b600081359050613f0a8161594a565b92915050565b600081359050613f1f81615961565b92915050565b600081519050613f3481615961565b92915050565b600082601f830112613f4b57600080fd5b8135613f5e613f598261574e565b615721565b91508082526020830160208301858383011115613f7a57600080fd5b613f858382846158e0565b50505092915050565b600082601f830112613f9f57600080fd5b8135613fb2613fad8261577a565b615721565b91508082526020830160208301858383011115613fce57600080fd5b613fd98382846158e0565b50505092915050565b600081359050613ff181615978565b92915050565b60008151905061400681615978565b92915050565b60008135905061401b8161598f565b92915050565b60006020828403121561403357600080fd5b600061404184828501613ed1565b91505092915050565b60006020828403121561405c57600080fd5b600061406a84828501613ee6565b91505092915050565b6000806040838503121561408657600080fd5b600061409485828601613ed1565b92505060206140a585828601613ed1565b9150509250929050565b6000806000606084860312156140c457600080fd5b60006140d286828701613ed1565b93505060206140e386828701613ed1565b92505060406140f486828701613fe2565b9150509250925092565b6000806000806080858703121561411457600080fd5b600061412287828801613ed1565b945050602061413387828801613ed1565b935050604061414487828801613fe2565b925050606085013567ffffffffffffffff81111561416157600080fd5b61416d87828801613f3a565b91505092959194509250565b6000806040838503121561418c57600080fd5b600061419a85828601613ed1565b92505060206141ab85828601613efb565b9150509250929050565b600080604083850312156141c857600080fd5b60006141d685828601613ed1565b92505060206141e785828601613fe2565b9150509250929050565b60006020828403121561420357600080fd5b600061421184828501613f10565b91505092915050565b60006020828403121561422c57600080fd5b600061423a84828501613f25565b91505092915050565b60008060008060008060c0878903121561425c57600080fd5b600087013567ffffffffffffffff81111561427657600080fd5b61428289828a01613f8e565b965050602087013567ffffffffffffffff81111561429f57600080fd5b6142ab89828a01613f8e565b95505060406142bc89828a0161400c565b94505060606142cd89828a01613fe2565b93505060806142de89828a01613fe2565b92505060a06142ef89828a01613efb565b9150509295509295509295565b60006020828403121561430e57600080fd5b600061431c84828501613fe2565b91505092915050565b60006020828403121561433757600080fd5b600061434584828501613ff7565b91505092915050565b6000806040838503121561436157600080fd5b600061436f85828601613fe2565b925050602061438085828601613ed1565b9150509250929050565b6000806040838503121561439d57600080fd5b60006143ab85828601613fe2565b92505060206143bc85828601613fe2565b9150509250929050565b6143cf81615898565b82525050565b6143de81615898565b82525050565b6143ed81615817565b82525050565b6143fc81615805565b82525050565b61440b81615805565b82525050565b61441a81615805565b82525050565b61442981615829565b82525050565b61443881615829565b82525050565b6000614449826157a6565b61445381856157bc565b93506144638185602086016158ef565b61446c81615922565b840191505092915050565b6000614482826157a6565b61448c81856157cd565b935061449c8185602086016158ef565b80840191505092915050565b6144b1816158aa565b82525050565b60006144c2826157b1565b6144cc81856157d8565b93506144dc8185602086016158ef565b6144e581615922565b840191505092915050565b60006144fb826157b1565b61450581856157e9565b93506145158185602086016158ef565b61451e81615922565b840191505092915050565b6000614534826157b1565b61453e81856157fa565b935061454e8185602086016158ef565b80840191505092915050565b60006145676013836157e9565b91507f546f6b656e20646f65736e2774206578697374000000000000000000000000006000830152602082019050919050565b60006145a76022836157e9565b91507f456e756d657261626c655365743a20696e646578206f7574206f6620626f756e60008301527f64730000000000000000000000000000000000000000000000000000000000006020830152604082019050919050565b600061460d6032836157e9565b91507f4552433732313a207472616e7366657220746f206e6f6e20455243373231526560008301527f63656976657220696d706c656d656e74657200000000000000000000000000006020830152604082019050919050565b6000614673601a836157e9565b91507f5468697320746f6b656e206973206e6f7420666f722073616c650000000000006000830152602082019050919050565b60006146b36026836157e9565b91507f4f776e61626c653a206e6577206f776e657220697320746865207a65726f206160008301527f64647265737300000000000000000000000000000000000000000000000000006020830152604082019050919050565b6000614719601c836157e9565b91507f4552433732313a20746f6b656e20616c7265616479206d696e746564000000006000830152602082019050919050565b60006147596017836157e9565b91507f4c6f636174696f6e20616c7265616479206d696e7465640000000000000000006000830152602082019050919050565b60006147996024836157e9565b91507f4552433732313a207472616e7366657220746f20746865207a65726f2061646460008301527f72657373000000000000000000000000000000000000000000000000000000006020830152604082019050919050565b60006147ff6019836157e9565b91507f4552433732313a20617070726f766520746f2063616c6c6572000000000000006000830152602082019050919050565b600061483f6026836157e9565b91507f416464726573733a20696e73756666696369656e742062616c616e636520666f60008301527f722063616c6c00000000000000000000000000000000000000000000000000006020830152604082019050919050565b60006148a5602c836157e9565b91507f4552433732313a206f70657261746f7220717565727920666f72206e6f6e657860008301527f697374656e7420746f6b656e00000000000000000000000000000000000000006020830152604082019050919050565b600061490b602c836157e9565b91507f43616e6e6f742073746172742061756374696f6e20666f7220746f6b656e207960008301527f6f7520646f6e2774206f776e00000000000000000000000000000000000000006020830152604082019050919050565b60006149716018836157e9565b91507f426964207072696365206d7573742062652068696768657200000000000000006000830152602082019050919050565b60006149b16038836157e9565b91507f4552433732313a20617070726f76652063616c6c6572206973206e6f74206f7760008301527f6e6572206e6f7220617070726f76656420666f7220616c6c00000000000000006020830152604082019050919050565b6000614a17602a836157e9565b91507f4552433732313a2062616c616e636520717565727920666f7220746865207a6560008301527f726f2061646472657373000000000000000000000000000000000000000000006020830152604082019050919050565b6000614a7d6022836157e9565b91507f456e756d657261626c654d61703a20696e646578206f7574206f6620626f756e60008301527f64730000000000000000000000000000000000000000000000000000000000006020830152604082019050919050565b6000614ae36020836157e9565b91507f4552433732313a206d696e7420746f20746865207a65726f20616464726573736000830152602082019050919050565b6000614b23602c836157e9565b91507f4552433732313a20617070726f76656420717565727920666f72206e6f6e657860008301527f697374656e7420746f6b656e00000000000000000000000000000000000000006020830152604082019050919050565b6000614b896015836157e9565b91507f41756374696f6e20646f65736e277420657869737400000000000000000000006000830152602082019050919050565b6000614bc9600f836157e9565b91507f496e636f72726563742076616c756500000000000000000000000000000000006000830152602082019050919050565b6000614c096020836157e9565b91507f4f776e61626c653a2063616c6c6572206973206e6f7420746865206f776e65726000830152602082019050919050565b6000614c496029836157e9565b91507f4552433732313a207472616e73666572206f6620746f6b656e2074686174206960008301527f73206e6f74206f776e00000000000000000000000000000000000000000000006020830152604082019050919050565b6000614caf602f836157e9565b91507f4552433732314d657461646174613a2055524920717565727920666f72206e6f60008301527f6e6578697374656e7420746f6b656e00000000000000000000000000000000006020830152604082019050919050565b6000614d156021836157e9565b91507f4552433732313a20617070726f76616c20746f2063757272656e74206f776e6560008301527f72000000000000000000000000000000000000000000000000000000000000006020830152604082019050919050565b6000614d7b6031836157e9565b91507f4552433732313a207472616e736665722063616c6c6572206973206e6f74206f60008301527f776e6572206e6f7220617070726f7665640000000000000000000000000000006020830152604082019050919050565b6000614de1601d836157e9565b91507f416464726573733a2063616c6c20746f206e6f6e2d636f6e74726163740000006000830152602082019050919050565b6000614e21601d836157e9565b91507f5468652061756374696f6e20686173206e6f7420656e646564207965740000006000830152602082019050919050565b6000614e616015836157e9565b91507f5468652061756374696f6e2068617320656e64656400000000000000000000006000830152602082019050919050565b6000614ea16011836157e9565b91507f48696768657220626964206578697374730000000000000000000000000000006000830152602082019050919050565b61012082016000820151614eeb6000850182615077565b506020820151614efe60208501826143f3565b506040820151614f116040850182614420565b506060820151614f246060850182614420565b506080820151614f376080850182615077565b5060a0820151614f4a60a0850182615077565b5060c0820151614f5d60c08501826143f3565b5060e0820151614f7060e0850182615077565b50610100820151614f85610100850182614420565b50505050565b608082016000820151614fa16000850182615077565b506020820151614fb460208501826143f3565b506040820151614fc76040850182615077565b506060820151614fda6060850182615077565b50505050565b600060c0830160008301518482036000860152614ffd82826144b7565b9150506020830151848203602086015261501782826144b7565b915050604083015161502c60408601826150a4565b50606083015161503f6060860182615077565b5060808301516150526080860182615077565b5060a083015161506560a0860182614420565b508091505092915050565b8082525050565b61508081615881565b82525050565b61508f81615881565b82525050565b61509e81615881565b82525050565b6150ad8161588b565b82525050565b60006150bf8284614477565b915081905092915050565b60006150d68284614529565b915081905092915050565b60006150ed8285614529565b91506150f98284614529565b91508190509392505050565b600060208201905061511a6000830184614402565b92915050565b600060808201905061513560008301876143e4565b6151426020830186614402565b61514f6040830185615086565b8181036060830152615161818461443e565b905095945050505050565b600060408201905061518160008301856143c6565b61518e6020830184615086565b9392505050565b60006060820190506151aa6000830186614402565b6151b760208301856143c6565b6151c46040830184615086565b949350505050565b60006040820190506151e16000830185614402565b6151ee6020830184615086565b9392505050565b600060208201905061520a600083018461442f565b92915050565b6000602082019050818103600083015261522a81846144f0565b905092915050565b6000602082019050818103600083015261524b8161455a565b9050919050565b6000602082019050818103600083015261526b8161459a565b9050919050565b6000602082019050818103600083015261528b81614600565b9050919050565b600060208201905081810360008301526152ab81614666565b9050919050565b600060208201905081810360008301526152cb816146a6565b9050919050565b600060208201905081810360008301526152eb8161470c565b9050919050565b6000602082019050818103600083015261530b8161474c565b9050919050565b6000602082019050818103600083015261532b8161478c565b9050919050565b6000602082019050818103600083015261534b816147f2565b9050919050565b6000602082019050818103600083015261536b81614832565b9050919050565b6000602082019050818103600083015261538b81614898565b9050919050565b600060208201905081810360008301526153ab816148fe565b9050919050565b600060208201905081810360008301526153cb81614964565b9050919050565b600060208201905081810360008301526153eb816149a4565b9050919050565b6000602082019050818103600083015261540b81614a0a565b9050919050565b6000602082019050818103600083015261542b81614a70565b9050919050565b6000602082019050818103600083015261544b81614ad6565b9050919050565b6000602082019050818103600083015261546b81614b16565b9050919050565b6000602082019050818103600083015261548b81614b7c565b9050919050565b600060208201905081810360008301526154ab81614bbc565b9050919050565b600060208201905081810360008301526154cb81614bfc565b9050919050565b600060208201905081810360008301526154eb81614c3c565b9050919050565b6000602082019050818103600083015261550b81614ca2565b9050919050565b6000602082019050818103600083015261552b81614d08565b9050919050565b6000602082019050818103600083015261554b81614d6e565b9050919050565b6000602082019050818103600083015261556b81614dd4565b9050919050565b6000602082019050818103600083015261558b81614e14565b9050919050565b600060208201905081810360008301526155ab81614e54565b9050919050565b600060208201905081810360008301526155cb81614e94565b9050919050565b6000610120820190506155e86000830184614ed4565b92915050565b60006080820190506156036000830184614f8b565b92915050565b600060208201905081810360008301526156238184614fe0565b905092915050565b60006020820190506156406000830184615070565b92915050565b600060408201905061565b6000830185615070565b6156686020830184614411565b9392505050565b60006060820190506156846000830186615070565b61569160208301856143d5565b61569e6040830184615095565b949350505050565b60006060820190506156bb6000830186615070565b6156c86020830185614411565b6156d560408301846144a8565b949350505050565b60006040820190506156f26000830185615070565b6156ff6020830184615095565b9392505050565b600060208201905061571b6000830184615086565b92915050565b6000604051905081810181811067ffffffffffffffff8211171561574457600080fd5b8060405250919050565b600067ffffffffffffffff82111561576557600080fd5b601f19601f8301169050602081019050919050565b600067ffffffffffffffff82111561579157600080fd5b601f19601f8301169050602081019050919050565b600081519050919050565b600081519050919050565b600082825260208201905092915050565b600081905092915050565b600082825260208201905092915050565b600082825260208201905092915050565b600081905092915050565b600061581082615861565b9050919050565b600061582282615861565b9050919050565b60008115159050919050565b60007fffffffff0000000000000000000000000000000000000000000000000000000082169050919050565b600073ffffffffffffffffffffffffffffffffffffffff82169050919050565b6000819050919050565b600060ff82169050919050565b60006158a3826158bc565b9050919050565b60006158b582615881565b9050919050565b60006158c7826158ce565b9050919050565b60006158d982615861565b9050919050565b82818337600083830152505050565b60005b8381101561590d5780820151818401526020810190506158f2565b8381111561591c576000848401525b50505050565b6000601f19601f8301169050919050565b61593c81615805565b811461594757600080fd5b50565b61595381615829565b811461595e57600080fd5b50565b61596a81615835565b811461597557600080fd5b50565b61598181615881565b811461598c57600080fd5b50565b6159988161588b565b81146159a357600080fd5b5056fe4552433732313a207472616e7366657220746f206e6f6e20455243373231526563656976657220696d706c656d656e7465724552433732313a206f776e657220717565727920666f72206e6f6e6578697374656e7420746f6b656ea26469706673582212206de4de1b0db5648147de956771f884adf3d1b2f476244d5be48cad435ca3e0e864736f6c634300060c0033",
  "immutableReferences": {},
  "source": "// truffle migrate --reset --network rinkeby --skip-dry-run\r\npragma solidity =0.6.12;\r\npragma experimental ABIEncoderV2;\r\n\r\nimport \"@openzeppelin/contracts/token/ERC721/ERC721.sol\";\r\nimport \"@openzeppelin/contracts/access/Ownable.sol\";\r\n\r\nlibrary IterableMapping {\r\n    // Iterable mapping from address to uint;\r\n    struct Map {\r\n        address[] keys;\r\n        mapping(address => uint) values;\r\n        mapping(address => uint) indexOf;\r\n        mapping(address => bool) inserted;\r\n    }\r\n\r\n    function get(Map storage map, address key) public view returns (uint) {\r\n        return map.values[key];\r\n    }\r\n\r\n    function getKeyAtIndex(Map storage map, uint index) public view returns (address) {\r\n        return map.keys[index];\r\n    }\r\n\r\n    function size(Map storage map) public view returns (uint) {\r\n        return map.keys.length;\r\n    }\r\n\r\n    function set(Map storage map, address key, uint val) public {\r\n        if (map.inserted[key]) {\r\n            map.values[key] = val;\r\n        } else {\r\n            map.inserted[key] = true;\r\n            map.values[key] = val;\r\n            map.indexOf[key] = map.keys.length;\r\n            map.keys.push(key);\r\n        }\r\n    }\r\n\r\n    function remove(Map storage map, address key) public {\r\n        if (!map.inserted[key]) {\r\n            return;\r\n        }\r\n\r\n        delete map.inserted[key];\r\n        delete map.values[key];\r\n\r\n        uint index = map.indexOf[key];\r\n        uint lastIndex = map.keys.length - 1;\r\n        address lastKey = map.keys[lastIndex];\r\n\r\n        map.indexOf[lastKey] = index;\r\n        delete map.indexOf[key];\r\n\r\n        map.keys[index] = lastKey;\r\n        map.keys.pop();\r\n    }\r\n}\r\n\r\ncontract LocationNFT is ERC721, Ownable {\r\n\tusing IterableMapping for IterableMapping.Map;\r\n\r\n\tconstructor() ERC721(\"UniqueAsset\", \"UNA\") public {\r\n\r\n\t}\r\n\r\n\tstruct Location {\r\n\t\tstring location_name; //0-255\r\n\t\tstring svg_image;\r\n\t\tuint8 locn_type;\r\n\t\tuint256 latitude;\r\n\t\tuint256 longitude;\r\n\t\tbool isExist;\r\n\t}\r\n\tstruct LocationName {\r\n\t    string location_name;\r\n\t    bool isExist;\r\n\t}\r\n\tstruct Auction {\r\n\t    uint256 tokenId;\r\n\t    address beneficiary;\r\n\t    bool auctionGoingOn;\r\n\t\tbool auctionEnded;\r\n\t    uint auctionEndTime;\r\n\t\tuint biddingTime;\r\n\t    address highestBidder;\r\n\t    uint highestBid;\r\n\t    bool isExist;\r\n\t}\r\n\tstruct Bid {\r\n\t\tuint256 tokenId;\r\n\t\taddress bidder;\r\n\t\tuint bidValue;\r\n\t\tuint timeBid;\r\n\t}\r\n\r\n\tuint public nextId = 0;\r\n\tuint public acceptedBidsIdx = 0;\r\n\r\n\tevent NftBought(address _seller, address _buyer, uint256 _price);\r\n\tevent AuctionStarted(address ownerAddress, uint _biddingTime);\r\n\tevent BidIncrease(address bidAddress, uint256 bidValue);\r\n\tevent AuctionEnded(address bidAddress, uint256 bidValue);\r\n\tevent BidRejected(address bidAddress, uint256 bidValue);\r\n\r\n\tmapping(uint256 => Location) private _locationDetails;\r\n\tmapping(string => LocationName) private _locationNames;\r\n\tmapping(uint256 => uint256) public tokenIdToPrice;\r\n\tmapping(uint256 => Auction) private _auctions;\r\n\t// mapping(address => uint) private _pendingReturns;\r\n\tmapping(uint256 => Bid) private _biddingLogs;\r\n\r\n\t// IterableMapping.Map private _pendingReturns;\r\n\tmapping(uint256 => IterableMapping.Map) private _tokenPendingReturns;\r\n\r\n\t\r\n\tfunction getTokenDetails(uint256 tokenId) public view returns (Location memory) {\r\n\t\treturn _locationDetails[tokenId];\r\n\t}\r\n\r\n\tfunction getPriceOf(uint256 tokenId) public view returns (uint256) {\r\n\t\treturn tokenIdToPrice[tokenId];\r\n\t}\r\n\r\n\tfunction getOwnerOf(uint256 tokenId) public view returns (address){\r\n\t\treturn ownerOf(tokenId);\r\n\t}\r\n\t\r\n\tfunction getAuctionInfo(uint256 tokenId) public view returns(Auction memory) {\r\n\t    return _auctions[tokenId];\r\n\t}\r\n\r\n\tfunction getBiddingLog(uint256 bidId) public view returns(Bid memory) {\r\n\t\treturn _biddingLogs[bidId];\r\n\t}\r\n\r\n\tfunction getPendingReturnsCount(uint tokenId) public view returns(uint) {\r\n\t    IterableMapping.Map storage pendingReturnForIdx = _tokenPendingReturns[tokenId];\r\n\t\treturn pendingReturnForIdx.size();\r\n\t}\r\n\r\n\tfunction getPendingReturnValue(uint tokenId, address addr) public view returns(uint) {\r\n\t    IterableMapping.Map storage pendingReturnForIdx = _tokenPendingReturns[tokenId];\r\n\t    return pendingReturnForIdx.get(addr);\r\n\t}\r\n\r\n\tfunction mint(string memory location_name, string memory svg_image, uint8 locn_type, uint256 latitude, uint256 longitude, bool isSellable) public onlyOwner {\r\n\t    require(!_locationNames[location_name].isExist, \"Location already minted\");\r\n\t\t_locationDetails[nextId] = Location(location_name, svg_image, locn_type, latitude, longitude, true);\r\n\t\t_locationNames[location_name] = LocationName(location_name, true);\r\n\t\tif (isSellable) {\r\n\t\t\ttokenIdToPrice[nextId] = 10000000000000000; //2000 wei\r\n\t\t} else {\r\n\t\t\ttokenIdToPrice[nextId] = 0;\r\n\t\t}\r\n\t\t//safeMint function calls _beforeTokenTransfer which we have overridden.\r\n\t\t_safeMint(msg.sender, nextId);\r\n\t\tnextId++;\r\n\t}\r\n\r\n\tfunction _beforeTokenTransfer(address from, address to, uint256 tokenId) internal override { \r\n\t\t\r\n\t}\r\n\r\n\tfunction buy(uint256 _tokenId) external payable {\r\n\t\tuint256 price = tokenIdToPrice[_tokenId];\r\n\t\trequire(price > 0, \"This token is not for sale\");\r\n\t\trequire(msg.value == price, 'Incorrect value');\r\n\t\taddress seller = ownerOf(_tokenId);\r\n\t\t_transfer(seller, msg.sender, _tokenId);\r\n\t\ttokenIdToPrice[_tokenId] = 0;\r\n\t\tpayable(seller).transfer(msg.value);\r\n\t\temit NftBought(seller, msg.sender, msg.value);\r\n\t}\r\n\t\r\n\tfunction startAuction(uint256 _tokenId, uint _biddingTime) external {\r\n\t    uint auctionEndTime = block.timestamp + _biddingTime;\r\n\t    require(_locationDetails[_tokenId].isExist, \"Token doesn't exist\");\r\n\t    // require(!_auctions[_tokenId].isExist, \"Auction already started\");\r\n\t    require(msg.sender == ownerOf(_tokenId), \"Cannot start auction for token you don't own\");\r\n\t\tif(_auctions[_tokenId].isExist && !_auctions[_tokenId].auctionEnded) {\r\n\t\t\trevert (\"The auction has not ended yet\");\r\n\t\t}\r\n\t    _auctions[_tokenId] = Auction(_tokenId,msg.sender,true,false,auctionEndTime,_biddingTime,address(0x0),0,true);\r\n\t\temit AuctionStarted(msg.sender, _biddingTime);\r\n\t}\r\n\r\n\tfunction endAuction(uint256 _tokenId) external {\r\n\t    Auction memory auc = getAuctionInfo(_tokenId);\r\n\t    require(auc.isExist, \"Auction doesn't exist\");\r\n\t    if(block.timestamp < auc.auctionEndTime) {\r\n\t        revert (\"The auction has not ended yet\");\r\n\t    }\r\n\t    if(auc.auctionEnded) {\r\n\t        revert (\"The auction has ended\");\r\n\t    }\r\n\t\tIterableMapping.Map storage pr = _tokenPendingReturns[_tokenId];\r\n\t\tif(auc.highestBid == 0) {\r\n\t\t\tauc.auctionEnded = true;\r\n\t    \tauc.auctionGoingOn = false;\r\n\t\t\t_auctions[_tokenId] = auc;\r\n\t\t\temit AuctionEnded(auc.highestBidder, auc.highestBid);\r\n\t\t} else {\r\n\t\t\tauc.auctionEnded = true;\r\n\t\t\tauc.auctionGoingOn = false;\r\n\t\t\tpayable(auc.beneficiary).transfer(auc.highestBid);\r\n\t\t\t_transfer(auc.beneficiary, auc.highestBidder, _tokenId);\r\n\t\t\tauc.beneficiary = auc.highestBidder;\r\n\t\t\t_auctions[_tokenId] = auc;\r\n\t\t\ttokenIdToPrice[_tokenId] = auc.highestBid;\r\n\t\t\tpr.set(auc.highestBidder, 0);\r\n\t\t\temit AuctionEnded(auc.highestBidder, auc.highestBid);\r\n\t\t}\r\n\t\t\r\n\t\tfor (uint i = 0; i < pr.size(); i++) {\r\n\t\t\taddress returnAddr = pr.getKeyAtIndex(i);\r\n\t\t\tuint returnVal = getPendingReturnValue(_tokenId, returnAddr);\r\n\t\t\tif(returnVal > 0) {\r\n\t\t\t\tpayable(returnAddr).transfer(returnVal);\r\n\t\t\t\temit BidRejected(returnAddr, returnVal);\r\n\t\t\t}\r\n\t\t}\r\n\t}\r\n\t\r\n\tfunction placeBid(uint256 _tokenId) external payable {\r\n\t    Auction memory auc = getAuctionInfo(_tokenId);\r\n\t    require(auc.isExist, \"Auction doesn't exist\");\r\n\t\trequire(msg.value > tokenIdToPrice[_tokenId], \"Bid price must be higher\");\r\n\t    if(msg.value <= auc.highestBid) {\r\n\t        revert(\"Higher bid exists\");\r\n\t    }\r\n\t    auc.highestBid = msg.value;\r\n\t    auc.highestBidder = msg.sender;\r\n\t    _auctions[_tokenId] = auc;\r\n\t    // _pendingReturns[msg.sender] += msg.value;\r\n\t\t// _pendingReturns.set(msg.sender, msg.value);\r\n\t\tIterableMapping.Map storage pr = _tokenPendingReturns[_tokenId];\r\n        pr.set(msg.sender, msg.value);\r\n\t    emit BidIncrease(msg.sender, msg.value);\r\n\r\n\t\t//Log bid into bidHistory\r\n\t\t_biddingLogs[acceptedBidsIdx] = Bid(_tokenId, msg.sender, msg.value, block.timestamp);\r\n\t\tacceptedBidsIdx++;\r\n\t}\r\n\t\r\n}",
  "sourcePath": "C:/Users/swapp/Documents/MyProjects/Crypto/world_nft/contracts/LocationNFT.sol",
  "compiler": {
    "name": "solc",
    "version": "0.6.12+commit.27d51765.Emscripten.clang"
  },
  "schemaVersion": "3.2.3",
  "updatedAt": "2021-07-09T07:55:57.885Z",
  "networkType": "ethereum",
  "devdoc": {
    "kind": "dev",
    "methods": {
      "approve(address,uint256)": {
        "details": "See {IERC721-approve}."
      },
      "balanceOf(address)": {
        "details": "See {IERC721-balanceOf}."
      },
      "baseURI()": {
        "details": "Returns the base URI set via {_setBaseURI}. This will be automatically added as a prefix in {tokenURI} to each token's URI, or to the token ID if no specific URI is set for that token ID."
      },
      "getApproved(uint256)": {
        "details": "See {IERC721-getApproved}."
      },
      "isApprovedForAll(address,address)": {
        "details": "See {IERC721-isApprovedForAll}."
      },
      "name()": {
        "details": "See {IERC721Metadata-name}."
      },
      "owner()": {
        "details": "Returns the address of the current owner."
      },
      "ownerOf(uint256)": {
        "details": "See {IERC721-ownerOf}."
      },
      "renounceOwnership()": {
        "details": "Leaves the contract without owner. It will not be possible to call `onlyOwner` functions anymore. Can only be called by the current owner. NOTE: Renouncing ownership will leave the contract without an owner, thereby removing any functionality that is only available to the owner."
      },
      "safeTransferFrom(address,address,uint256)": {
        "details": "See {IERC721-safeTransferFrom}."
      },
      "safeTransferFrom(address,address,uint256,bytes)": {
        "details": "See {IERC721-safeTransferFrom}."
      },
      "setApprovalForAll(address,bool)": {
        "details": "See {IERC721-setApprovalForAll}."
      },
      "supportsInterface(bytes4)": {
        "details": "See {IERC165-supportsInterface}. Time complexity O(1), guaranteed to always use less than 30 000 gas."
      },
      "symbol()": {
        "details": "See {IERC721Metadata-symbol}."
      },
      "tokenByIndex(uint256)": {
        "details": "See {IERC721Enumerable-tokenByIndex}."
      },
      "tokenOfOwnerByIndex(address,uint256)": {
        "details": "See {IERC721Enumerable-tokenOfOwnerByIndex}."
      },
      "tokenURI(uint256)": {
        "details": "See {IERC721Metadata-tokenURI}."
      },
      "totalSupply()": {
        "details": "See {IERC721Enumerable-totalSupply}."
      },
      "transferFrom(address,address,uint256)": {
        "details": "See {IERC721-transferFrom}."
      },
      "transferOwnership(address)": {
        "details": "Transfers ownership of the contract to a new account (`newOwner`). Can only be called by the current owner."
      }
    },
    "version": 1
  },
  "userdoc": {
    "kind": "user",
    "methods": {},
    "version": 1
  }
}