{
  "contractName": "WorldNFT",
  "abi": [
    {
      "inputs": [],
      "stateMutability": "nonpayable",
      "type": "constructor"
    },
    {
      "anonymous": false,
      "inputs": [
        {
          "indexed": true,
          "internalType": "address",
          "name": "owner",
          "type": "address"
        },
        {
          "indexed": true,
          "internalType": "address",
          "name": "approved",
          "type": "address"
        },
        {
          "indexed": true,
          "internalType": "uint256",
          "name": "tokenId",
          "type": "uint256"
        }
      ],
      "name": "Approval",
      "type": "event"
    },
    {
      "anonymous": false,
      "inputs": [
        {
          "indexed": true,
          "internalType": "address",
          "name": "owner",
          "type": "address"
        },
        {
          "indexed": true,
          "internalType": "address",
          "name": "operator",
          "type": "address"
        },
        {
          "indexed": false,
          "internalType": "bool",
          "name": "approved",
          "type": "bool"
        }
      ],
      "name": "ApprovalForAll",
      "type": "event"
    },
    {
      "anonymous": false,
      "inputs": [
        {
          "indexed": false,
          "internalType": "address",
          "name": "bidAddress",
          "type": "address"
        },
        {
          "indexed": false,
          "internalType": "uint256",
          "name": "bidValue",
          "type": "uint256"
        }
      ],
      "name": "AuctionEnded",
      "type": "event"
    },
    {
      "anonymous": false,
      "inputs": [
        {
          "indexed": false,
          "internalType": "address",
          "name": "ownerAddress",
          "type": "address"
        },
        {
          "indexed": false,
          "internalType": "uint256",
          "name": "_biddingTime",
          "type": "uint256"
        }
      ],
      "name": "AuctionStarted",
      "type": "event"
    },
    {
      "anonymous": false,
      "inputs": [
        {
          "indexed": false,
          "internalType": "address",
          "name": "bidAddress",
          "type": "address"
        },
        {
          "indexed": false,
          "internalType": "uint256",
          "name": "bidValue",
          "type": "uint256"
        }
      ],
      "name": "BidIncrease",
      "type": "event"
    },
    {
      "anonymous": false,
      "inputs": [
        {
          "indexed": false,
          "internalType": "address",
          "name": "bidAddress",
          "type": "address"
        },
        {
          "indexed": false,
          "internalType": "uint256",
          "name": "bidValue",
          "type": "uint256"
        }
      ],
      "name": "BidRejected",
      "type": "event"
    },
    {
      "anonymous": false,
      "inputs": [
        {
          "indexed": false,
          "internalType": "address",
          "name": "_seller",
          "type": "address"
        },
        {
          "indexed": false,
          "internalType": "address",
          "name": "_buyer",
          "type": "address"
        },
        {
          "indexed": false,
          "internalType": "uint256",
          "name": "_price",
          "type": "uint256"
        }
      ],
      "name": "NftBought",
      "type": "event"
    },
    {
      "anonymous": false,
      "inputs": [
        {
          "indexed": true,
          "internalType": "address",
          "name": "previousOwner",
          "type": "address"
        },
        {
          "indexed": true,
          "internalType": "address",
          "name": "newOwner",
          "type": "address"
        }
      ],
      "name": "OwnershipTransferred",
      "type": "event"
    },
    {
      "anonymous": false,
      "inputs": [
        {
          "indexed": true,
          "internalType": "address",
          "name": "from",
          "type": "address"
        },
        {
          "indexed": true,
          "internalType": "address",
          "name": "to",
          "type": "address"
        },
        {
          "indexed": true,
          "internalType": "uint256",
          "name": "tokenId",
          "type": "uint256"
        }
      ],
      "name": "Transfer",
      "type": "event"
    },
    {
      "inputs": [],
      "name": "acceptedBidsIdx",
      "outputs": [
        {
          "internalType": "uint256",
          "name": "",
          "type": "uint256"
        }
      ],
      "stateMutability": "view",
      "type": "function",
      "constant": true
    },
    {
      "inputs": [
        {
          "internalType": "address",
          "name": "to",
          "type": "address"
        },
        {
          "internalType": "uint256",
          "name": "tokenId",
          "type": "uint256"
        }
      ],
      "name": "approve",
      "outputs": [],
      "stateMutability": "nonpayable",
      "type": "function"
    },
    {
      "inputs": [
        {
          "internalType": "address",
          "name": "owner",
          "type": "address"
        }
      ],
      "name": "balanceOf",
      "outputs": [
        {
          "internalType": "uint256",
          "name": "",
          "type": "uint256"
        }
      ],
      "stateMutability": "view",
      "type": "function",
      "constant": true
    },
    {
      "inputs": [],
      "name": "baseURI",
      "outputs": [
        {
          "internalType": "string",
          "name": "",
          "type": "string"
        }
      ],
      "stateMutability": "view",
      "type": "function",
      "constant": true
    },
    {
      "inputs": [
        {
          "internalType": "uint256",
          "name": "tokenId",
          "type": "uint256"
        }
      ],
      "name": "getApproved",
      "outputs": [
        {
          "internalType": "address",
          "name": "",
          "type": "address"
        }
      ],
      "stateMutability": "view",
      "type": "function",
      "constant": true
    },
    {
      "inputs": [
        {
          "internalType": "address",
          "name": "owner",
          "type": "address"
        },
        {
          "internalType": "address",
          "name": "operator",
          "type": "address"
        }
      ],
      "name": "isApprovedForAll",
      "outputs": [
        {
          "internalType": "bool",
          "name": "",
          "type": "bool"
        }
      ],
      "stateMutability": "view",
      "type": "function",
      "constant": true
    },
    {
      "inputs": [],
      "name": "name",
      "outputs": [
        {
          "internalType": "string",
          "name": "",
          "type": "string"
        }
      ],
      "stateMutability": "view",
      "type": "function",
      "constant": true
    },
    {
      "inputs": [],
      "name": "nextId",
      "outputs": [
        {
          "internalType": "uint256",
          "name": "",
          "type": "uint256"
        }
      ],
      "stateMutability": "view",
      "type": "function",
      "constant": true
    },
    {
      "inputs": [],
      "name": "owner",
      "outputs": [
        {
          "internalType": "address",
          "name": "",
          "type": "address"
        }
      ],
      "stateMutability": "view",
      "type": "function",
      "constant": true
    },
    {
      "inputs": [
        {
          "internalType": "uint256",
          "name": "tokenId",
          "type": "uint256"
        }
      ],
      "name": "ownerOf",
      "outputs": [
        {
          "internalType": "address",
          "name": "",
          "type": "address"
        }
      ],
      "stateMutability": "view",
      "type": "function",
      "constant": true
    },
    {
      "inputs": [],
      "name": "renounceOwnership",
      "outputs": [],
      "stateMutability": "nonpayable",
      "type": "function"
    },
    {
      "inputs": [
        {
          "internalType": "address",
          "name": "from",
          "type": "address"
        },
        {
          "internalType": "address",
          "name": "to",
          "type": "address"
        },
        {
          "internalType": "uint256",
          "name": "tokenId",
          "type": "uint256"
        }
      ],
      "name": "safeTransferFrom",
      "outputs": [],
      "stateMutability": "nonpayable",
      "type": "function"
    },
    {
      "inputs": [
        {
          "internalType": "address",
          "name": "from",
          "type": "address"
        },
        {
          "internalType": "address",
          "name": "to",
          "type": "address"
        },
        {
          "internalType": "uint256",
          "name": "tokenId",
          "type": "uint256"
        },
        {
          "internalType": "bytes",
          "name": "_data",
          "type": "bytes"
        }
      ],
      "name": "safeTransferFrom",
      "outputs": [],
      "stateMutability": "nonpayable",
      "type": "function"
    },
    {
      "inputs": [
        {
          "internalType": "address",
          "name": "operator",
          "type": "address"
        },
        {
          "internalType": "bool",
          "name": "approved",
          "type": "bool"
        }
      ],
      "name": "setApprovalForAll",
      "outputs": [],
      "stateMutability": "nonpayable",
      "type": "function"
    },
    {
      "inputs": [
        {
          "internalType": "bytes4",
          "name": "interfaceId",
          "type": "bytes4"
        }
      ],
      "name": "supportsInterface",
      "outputs": [
        {
          "internalType": "bool",
          "name": "",
          "type": "bool"
        }
      ],
      "stateMutability": "view",
      "type": "function",
      "constant": true
    },
    {
      "inputs": [],
      "name": "symbol",
      "outputs": [
        {
          "internalType": "string",
          "name": "",
          "type": "string"
        }
      ],
      "stateMutability": "view",
      "type": "function",
      "constant": true
    },
    {
      "inputs": [
        {
          "internalType": "uint256",
          "name": "index",
          "type": "uint256"
        }
      ],
      "name": "tokenByIndex",
      "outputs": [
        {
          "internalType": "uint256",
          "name": "",
          "type": "uint256"
        }
      ],
      "stateMutability": "view",
      "type": "function",
      "constant": true
    },
    {
      "inputs": [
        {
          "internalType": "uint256",
          "name": "",
          "type": "uint256"
        }
      ],
      "name": "tokenIdToPrice",
      "outputs": [
        {
          "internalType": "uint256",
          "name": "",
          "type": "uint256"
        }
      ],
      "stateMutability": "view",
      "type": "function",
      "constant": true
    },
    {
      "inputs": [
        {
          "internalType": "address",
          "name": "owner",
          "type": "address"
        },
        {
          "internalType": "uint256",
          "name": "index",
          "type": "uint256"
        }
      ],
      "name": "tokenOfOwnerByIndex",
      "outputs": [
        {
          "internalType": "uint256",
          "name": "",
          "type": "uint256"
        }
      ],
      "stateMutability": "view",
      "type": "function",
      "constant": true
    },
    {
      "inputs": [
        {
          "internalType": "uint256",
          "name": "tokenId",
          "type": "uint256"
        }
      ],
      "name": "tokenURI",
      "outputs": [
        {
          "internalType": "string",
          "name": "",
          "type": "string"
        }
      ],
      "stateMutability": "view",
      "type": "function",
      "constant": true
    },
    {
      "inputs": [],
      "name": "totalSupply",
      "outputs": [
        {
          "internalType": "uint256",
          "name": "",
          "type": "uint256"
        }
      ],
      "stateMutability": "view",
      "type": "function",
      "constant": true
    },
    {
      "inputs": [
        {
          "internalType": "address",
          "name": "from",
          "type": "address"
        },
        {
          "internalType": "address",
          "name": "to",
          "type": "address"
        },
        {
          "internalType": "uint256",
          "name": "tokenId",
          "type": "uint256"
        }
      ],
      "name": "transferFrom",
      "outputs": [],
      "stateMutability": "nonpayable",
      "type": "function"
    },
    {
      "inputs": [
        {
          "internalType": "address",
          "name": "newOwner",
          "type": "address"
        }
      ],
      "name": "transferOwnership",
      "outputs": [],
      "stateMutability": "nonpayable",
      "type": "function"
    },
    {
      "inputs": [
        {
          "internalType": "uint256",
          "name": "tokenId",
          "type": "uint256"
        }
      ],
      "name": "getTokenDetails",
      "outputs": [
        {
          "components": [
            {
              "internalType": "string",
              "name": "location_name",
              "type": "string"
            },
            {
              "internalType": "string",
              "name": "svg_image",
              "type": "string"
            },
            {
              "internalType": "bool",
              "name": "isExist",
              "type": "bool"
            }
          ],
          "internalType": "struct WorldNFT.Location",
          "name": "",
          "type": "tuple"
        }
      ],
      "stateMutability": "view",
      "type": "function",
      "constant": true
    },
    {
      "inputs": [
        {
          "internalType": "uint256",
          "name": "tokenId",
          "type": "uint256"
        }
      ],
      "name": "getPriceOf",
      "outputs": [
        {
          "internalType": "uint256",
          "name": "",
          "type": "uint256"
        }
      ],
      "stateMutability": "view",
      "type": "function",
      "constant": true
    },
    {
      "inputs": [
        {
          "internalType": "uint256",
          "name": "tokenId",
          "type": "uint256"
        }
      ],
      "name": "getOwnerOf",
      "outputs": [
        {
          "internalType": "address",
          "name": "",
          "type": "address"
        }
      ],
      "stateMutability": "view",
      "type": "function",
      "constant": true
    },
    {
      "inputs": [
        {
          "internalType": "uint256",
          "name": "tokenId",
          "type": "uint256"
        }
      ],
      "name": "getAuctionInfo",
      "outputs": [
        {
          "components": [
            {
              "internalType": "uint256",
              "name": "tokenId",
              "type": "uint256"
            },
            {
              "internalType": "address",
              "name": "beneficiary",
              "type": "address"
            },
            {
              "internalType": "bool",
              "name": "auctionGoingOn",
              "type": "bool"
            },
            {
              "internalType": "bool",
              "name": "auctionEnded",
              "type": "bool"
            },
            {
              "internalType": "uint256",
              "name": "auctionEndTime",
              "type": "uint256"
            },
            {
              "internalType": "uint256",
              "name": "biddingTime",
              "type": "uint256"
            },
            {
              "internalType": "address",
              "name": "highestBidder",
              "type": "address"
            },
            {
              "internalType": "uint256",
              "name": "highestBid",
              "type": "uint256"
            },
            {
              "internalType": "bool",
              "name": "isExist",
              "type": "bool"
            }
          ],
          "internalType": "struct WorldNFT.Auction",
          "name": "",
          "type": "tuple"
        }
      ],
      "stateMutability": "view",
      "type": "function",
      "constant": true
    },
    {
      "inputs": [
        {
          "internalType": "uint256",
          "name": "bidId",
          "type": "uint256"
        }
      ],
      "name": "getBiddingLog",
      "outputs": [
        {
          "components": [
            {
              "internalType": "uint256",
              "name": "tokenId",
              "type": "uint256"
            },
            {
              "internalType": "address",
              "name": "bidder",
              "type": "address"
            },
            {
              "internalType": "uint256",
              "name": "bidValue",
              "type": "uint256"
            },
            {
              "internalType": "uint256",
              "name": "timeBid",
              "type": "uint256"
            }
          ],
          "internalType": "struct WorldNFT.Bid",
          "name": "",
          "type": "tuple"
        }
      ],
      "stateMutability": "view",
      "type": "function",
      "constant": true
    },
    {
      "inputs": [
        {
          "internalType": "uint256",
          "name": "tokenId",
          "type": "uint256"
        }
      ],
      "name": "getPendingReturnsCount",
      "outputs": [
        {
          "internalType": "uint256",
          "name": "",
          "type": "uint256"
        }
      ],
      "stateMutability": "view",
      "type": "function",
      "constant": true
    },
    {
      "inputs": [
        {
          "internalType": "uint256",
          "name": "tokenId",
          "type": "uint256"
        },
        {
          "internalType": "address",
          "name": "addr",
          "type": "address"
        }
      ],
      "name": "getPendingReturnValue",
      "outputs": [
        {
          "internalType": "uint256",
          "name": "",
          "type": "uint256"
        }
      ],
      "stateMutability": "view",
      "type": "function",
      "constant": true
    },
    {
      "inputs": [
        {
          "internalType": "string",
          "name": "location_name",
          "type": "string"
        },
        {
          "internalType": "string",
          "name": "svg_image",
          "type": "string"
        }
      ],
      "name": "mint",
      "outputs": [],
      "stateMutability": "nonpayable",
      "type": "function"
    },
    {
      "inputs": [
        {
          "internalType": "uint256",
          "name": "_tokenId",
          "type": "uint256"
        }
      ],
      "name": "buy",
      "outputs": [],
      "stateMutability": "payable",
      "type": "function",
      "payable": true
    },
    {
      "inputs": [
        {
          "internalType": "uint256",
          "name": "_tokenId",
          "type": "uint256"
        },
        {
          "internalType": "uint256",
          "name": "_biddingTime",
          "type": "uint256"
        }
      ],
      "name": "startAuction",
      "outputs": [],
      "stateMutability": "nonpayable",
      "type": "function"
    },
    {
      "inputs": [
        {
          "internalType": "uint256",
          "name": "_tokenId",
          "type": "uint256"
        }
      ],
      "name": "endAuction",
      "outputs": [],
      "stateMutability": "nonpayable",
      "type": "function"
    },
    {
      "inputs": [
        {
          "internalType": "uint256",
          "name": "_tokenId",
          "type": "uint256"
        }
      ],
      "name": "placeBid",
      "outputs": [],
      "stateMutability": "payable",
      "type": "function",
      "payable": true
    }
  ],
  "bytecode": "0x60806040526000600b556000600c553480156200001b57600080fd5b506040518060400160405280600881526020017f576f726c644e46540000000000000000000000000000000000000000000000008152506040518060400160405280600481526020017f574e465400000000000000000000000000000000000000000000000000000000815250620000a06301ffc9a760e01b620001d360201b60201c565b8160069080519060200190620000b8929190620002b3565b508060079080519060200190620000d1929190620002b3565b50620000ea6380ac58cd60e01b620001d360201b60201c565b62000102635b5e139f60e01b620001d360201b60201c565b6200011a63780e9d6360e01b620001d360201b60201c565b505060006200012e620002ab60201b60201c565b905080600a60006101000a81548173ffffffffffffffffffffffffffffffffffffffff021916908373ffffffffffffffffffffffffffffffffffffffff1602179055508073ffffffffffffffffffffffffffffffffffffffff16600073ffffffffffffffffffffffffffffffffffffffff167f8be0079c531659141344cd1fd0a4f28419497f9722a3daafe3b4186f6b6457e060405160405180910390a350620003ce565b63ffffffff60e01b817bffffffffffffffffffffffffffffffffffffffffffffffffffffffff191614156200023f576040517f08c379a000000000000000000000000000000000000000000000000000000000815260040162000236906200039b565b60405180910390fd5b6001600080837bffffffffffffffffffffffffffffffffffffffffffffffffffffffff19167bffffffffffffffffffffffffffffffffffffffffffffffffffffffff1916815260200190815260200160002060006101000a81548160ff02191690831515021790555050565b600033905090565b828054600181600116156101000203166002900490600052602060002090601f016020900481019282601f10620002f657805160ff191683800117855562000327565b8280016001018555821562000327579182015b828111156200032657825182559160200191906001019062000309565b5b5090506200033691906200033a565b5090565b5b80821115620003555760008160009055506001016200033b565b5090565b600062000368601c83620003bd565b91507f4552433136353a20696e76616c696420696e74657266616365206964000000006000830152602082019050919050565b60006020820190508181036000830152620003b68162000359565b9050919050565b600082825260208201905092915050565b61575080620003de6000396000f3fe6080604052600436106102045760003560e01c80638363871011610118578063b9a2de3a116100a0578063e985e9c51161006f578063e985e9c5146107a9578063f07571a0146107e6578063f2fde38b14610823578063f4812eb91461084c578063fc3fc4ed1461088957610204565b8063b9a2de3a146106ea578063c1e0372814610713578063c87b56dd14610750578063d96a094a1461078d57610204565b80639979ef45116100e75780639979ef4514610602578063a22cb4651461061e578063ad81bd1c14610647578063b54b4fb914610684578063b88d4fde146106c157610204565b806383638710146105465780638aa0fdad146105835780638da5cb5b146105ac57806395d89b41146105d757610204565b806342842e0e1161019b5780636352211e1161016a5780636352211e1461044d5780636c0360eb1461048a5780636f169aa0146104b557806370a08231146104f2578063715018a61461052f57610204565b806342842e0e146103935780634f6ccce7146103bc5780634fee13fc146103f957806361b8ce8c1461042257610204565b8063095ea7b3116101d7578063095ea7b3146102d957806318160ddd1461030257806323b872dd1461032d5780632f745c591461035657610204565b806301ffc9a714610209578063067fa8fc1461024657806306fdde0314610271578063081812fc1461029c575b600080fd5b34801561021557600080fd5b50610230600480360381019061022b919061403a565b6108c6565b60405161023d9190614f52565b60405180910390f35b34801561025257600080fd5b5061025b61092d565b6040516102689190615443565b60405180910390f35b34801561027d57600080fd5b50610286610933565b6040516102939190614f6d565b60405180910390f35b3480156102a857600080fd5b506102c360048036038101906102be91906140f8565b6109d5565b6040516102d09190614e62565b60405180910390f35b3480156102e557600080fd5b5061030060048036038101906102fb9190613ffe565b610a5a565b005b34801561030e57600080fd5b50610317610b72565b6040516103249190615443565b60405180910390f35b34801561033957600080fd5b50610354600480360381019061034f9190613ef8565b610b83565b005b34801561036257600080fd5b5061037d60048036038101906103789190613ffe565b610be3565b60405161038a9190615443565b60405180910390f35b34801561039f57600080fd5b506103ba60048036038101906103b59190613ef8565b610c3e565b005b3480156103c857600080fd5b506103e360048036038101906103de91906140f8565b610c5e565b6040516103f09190615443565b60405180910390f35b34801561040557600080fd5b50610420600480360381019061041b9190614186565b610c81565b005b34801561042e57600080fd5b50610437610fd4565b6040516104449190615443565b60405180910390f35b34801561045957600080fd5b50610474600480360381019061046f91906140f8565b610fda565b6040516104819190614e62565b60405180910390f35b34801561049657600080fd5b5061049f611011565b6040516104ac9190614f6d565b60405180910390f35b3480156104c157600080fd5b506104dc60048036038101906104d7919061414a565b6110b3565b6040516104e99190615443565b60405180910390f35b3480156104fe57600080fd5b5061051960048036038101906105149190613e6a565b61115f565b6040516105269190615443565b60405180910390f35b34801561053b57600080fd5b5061054461121e565b005b34801561055257600080fd5b5061056d600480360381019061056891906140f8565b61135b565b60405161057a9190614e62565b60405180910390f35b34801561058f57600080fd5b506105aa60048036038101906105a5919061408c565b61136d565b005b3480156105b857600080fd5b506105c16114bd565b6040516105ce9190614e62565b60405180910390f35b3480156105e357600080fd5b506105ec6114e7565b6040516105f99190614f6d565b60405180910390f35b61061c600480360381019061061791906140f8565b611589565b005b34801561062a57600080fd5b5061064560048036038101906106409190613fc2565b611974565b005b34801561065357600080fd5b5061066e600480360381019061066991906140f8565b611af5565b60405161067b919061532b565b60405180910390f35b34801561069057600080fd5b506106ab60048036038101906106a691906140f8565b611b96565b6040516106b89190615443565b60405180910390f35b3480156106cd57600080fd5b506106e860048036038101906106e39190613f47565b611bb3565b005b3480156106f657600080fd5b50610711600480360381019061070c91906140f8565b611c15565b005b34801561071f57600080fd5b5061073a600480360381019061073591906140f8565b61233f565b6040516107479190615346565b60405180910390f35b34801561075c57600080fd5b50610777600480360381019061077291906140f8565b6124cb565b6040516107849190614f6d565b60405180910390f35b6107a760048036038101906107a291906140f8565b61264e565b005b3480156107b557600080fd5b506107d060048036038101906107cb9190613ebc565b6127a3565b6040516107dd9190614f52565b60405180910390f35b3480156107f257600080fd5b5061080d600480360381019061080891906140f8565b612837565b60405161081a9190615443565b60405180910390f35b34801561082f57600080fd5b5061084a60048036038101906108459190613e6a565b6128e0565b005b34801561085857600080fd5b50610873600480360381019061086e91906140f8565b612a8c565b6040516108809190615443565b60405180910390f35b34801561089557600080fd5b506108b060048036038101906108ab91906140f8565b612aa4565b6040516108bd919061530f565b60405180910390f35b6000806000837bffffffffffffffffffffffffffffffffffffffffffffffffffffffff19167bffffffffffffffffffffffffffffffffffffffffffffffffffffffff1916815260200190815260200160002060009054906101000a900460ff169050919050565b600c5481565b606060068054600181600116156101000203166002900480601f0160208091040260200160405190810160405280929190818152602001828054600181600116156101000203166002900480156109cb5780601f106109a0576101008083540402835291602001916109cb565b820191906000526020600020905b8154815290600101906020018083116109ae57829003601f168201915b5050505050905090565b60006109e082612bf7565b610a1f576040517f08c379a0000000000000000000000000000000000000000000000000000000008152600401610a169061518f565b60405180910390fd5b6004600083815260200190815260200160002060009054906101000a900473ffffffffffffffffffffffffffffffffffffffff169050919050565b6000610a6582610fda565b90508073ffffffffffffffffffffffffffffffffffffffff168373ffffffffffffffffffffffffffffffffffffffff161415610ad6576040517f08c379a0000000000000000000000000000000000000000000000000000000008152600401610acd9061524f565b60405180910390fd5b8073ffffffffffffffffffffffffffffffffffffffff16610af5612c14565b73ffffffffffffffffffffffffffffffffffffffff161480610b245750610b2381610b1e612c14565b6127a3565b5b610b63576040517f08c379a0000000000000000000000000000000000000000000000000000000008152600401610b5a9061510f565b60405180910390fd5b610b6d8383612c1c565b505050565b6000610b7e6002612cd5565b905090565b610b94610b8e612c14565b82612cea565b610bd3576040517f08c379a0000000000000000000000000000000000000000000000000000000008152600401610bca9061526f565b60405180910390fd5b610bde838383612dc8565b505050565b6000610c3682600160008673ffffffffffffffffffffffffffffffffffffffff1673ffffffffffffffffffffffffffffffffffffffff168152602001908152602001600020612fdf90919063ffffffff16565b905092915050565b610c5983838360405180602001604052806000815250611bb3565b505050565b600080610c75836002612ff990919063ffffffff16565b50905080915050919050565b60008142019050600d600084815260200190815260200160002060020160009054906101000a900460ff16610ceb576040517f08c379a0000000000000000000000000000000000000000000000000000000008152600401610ce290614f8f565b60405180910390fd5b610cf483610fda565b73ffffffffffffffffffffffffffffffffffffffff163373ffffffffffffffffffffffffffffffffffffffff1614610d61576040517f08c379a0000000000000000000000000000000000000000000000000000000008152600401610d58906150cf565b60405180910390fd5b600f600084815260200190815260200160002060060160009054906101000a900460ff168015610db25750600f600084815260200190815260200160002060010160159054906101000a900460ff16155b15610df2576040517f08c379a0000000000000000000000000000000000000000000000000000000008152600401610de9906152af565b60405180910390fd5b6040518061012001604052808481526020013373ffffffffffffffffffffffffffffffffffffffff168152602001600115158152602001600015158152602001828152602001838152602001600073ffffffffffffffffffffffffffffffffffffffff1681526020016000815260200160011515815250600f60008581526020019081526020016000206000820151816000015560208201518160010160006101000a81548173ffffffffffffffffffffffffffffffffffffffff021916908373ffffffffffffffffffffffffffffffffffffffff16021790555060408201518160010160146101000a81548160ff02191690831515021790555060608201518160010160156101000a81548160ff0219169083151502179055506080820151816002015560a0820151816003015560c08201518160040160006101000a81548173ffffffffffffffffffffffffffffffffffffffff021916908373ffffffffffffffffffffffffffffffffffffffff16021790555060e082015181600501556101008201518160060160006101000a81548160ff0219169083151502179055509050507fc087c4cdb16906b5ff7016a6bf927618f24ff32eb1de5e86eeaeb08b94831a683383604051610fc7929190614ec9565b60405180910390a1505050565b600b5481565b600061100a826040518060600160405280602981526020016156f26029913960026130259092919063ffffffff16565b9050919050565b606060098054600181600116156101000203166002900480601f0160208091040260200160405190810160405280929190818152602001828054600181600116156101000203166002900480156110a95780601f1061107e576101008083540402835291602001916110a9565b820191906000526020600020905b81548152906001019060200180831161108c57829003601f168201915b5050505050905090565b6000806011600085815260200190815260200160002090508073__IterableMapping_______________________63732a2ccf9091856040518363ffffffff1660e01b8152600401611106929190615383565b60206040518083038186803b15801561111e57600080fd5b505af4158015611132573d6000803e3d6000fd5b505050506040513d601f19601f820116820180604052508101906111569190614121565b91505092915050565b60008073ffffffffffffffffffffffffffffffffffffffff168273ffffffffffffffffffffffffffffffffffffffff1614156111d0576040517f08c379a00000000000000000000000000000000000000000000000000000000081526004016111c79061512f565b60405180910390fd5b611217600160008473ffffffffffffffffffffffffffffffffffffffff1673ffffffffffffffffffffffffffffffffffffffff168152602001908152602001600020613044565b9050919050565b611226612c14565b73ffffffffffffffffffffffffffffffffffffffff166112446114bd565b73ffffffffffffffffffffffffffffffffffffffff161461129a576040517f08c379a0000000000000000000000000000000000000000000000000000000008152600401611291906151ef565b60405180910390fd5b600073ffffffffffffffffffffffffffffffffffffffff16600a60009054906101000a900473ffffffffffffffffffffffffffffffffffffffff1673ffffffffffffffffffffffffffffffffffffffff167f8be0079c531659141344cd1fd0a4f28419497f9722a3daafe3b4186f6b6457e060405160405180910390a36000600a60006101000a81548173ffffffffffffffffffffffffffffffffffffffff021916908373ffffffffffffffffffffffffffffffffffffffff160217905550565b600061136682610fda565b9050919050565b611375612c14565b73ffffffffffffffffffffffffffffffffffffffff166113936114bd565b73ffffffffffffffffffffffffffffffffffffffff16146113e9576040517f08c379a00000000000000000000000000000000000000000000000000000000081526004016113e0906151ef565b60405180910390fd5b604051806060016040528083815260200182815260200160011515815250600d6000600b5481526020019081526020016000206000820151816000019080519060200190611438929190613bb3565b506020820151816001019080519060200190611455929190613bb3565b5060408201518160020160006101000a81548160ff021916908315150217905550905050671bc16d674ec80000600e6000600b548152602001908152602001600020819055506114a733600b54613059565b600b600081548092919060010191905055505050565b6000600a60009054906101000a900473ffffffffffffffffffffffffffffffffffffffff16905090565b606060078054600181600116156101000203166002900480601f01602080910402602001604051908101604052809291908181526020018280546001816001161561010002031660029004801561157f5780601f106115545761010080835404028352916020019161157f565b820191906000526020600020905b81548152906001019060200180831161156257829003601f168201915b5050505050905090565b611591613c33565b61159a82612aa4565b90508061010001516115e1576040517f08c379a00000000000000000000000000000000000000000000000000000000081526004016115d8906151af565b60405180910390fd5b600e6000838152602001908152602001600020543411611636576040517f08c379a000000000000000000000000000000000000000000000000000000000815260040161162d906150ef565b60405180910390fd5b8060e00151341161167c576040517f08c379a0000000000000000000000000000000000000000000000000000000008152600401611673906152ef565b60405180910390fd5b348160e0018181525050338160c0019073ffffffffffffffffffffffffffffffffffffffff16908173ffffffffffffffffffffffffffffffffffffffff168152505080600f60008481526020019081526020016000206000820151816000015560208201518160010160006101000a81548173ffffffffffffffffffffffffffffffffffffffff021916908373ffffffffffffffffffffffffffffffffffffffff16021790555060408201518160010160146101000a81548160ff02191690831515021790555060608201518160010160156101000a81548160ff0219169083151502179055506080820151816002015560a0820151816003015560c08201518160040160006101000a81548173ffffffffffffffffffffffffffffffffffffffff021916908373ffffffffffffffffffffffffffffffffffffffff16021790555060e082015181600501556101008201518160060160006101000a81548160ff02191690831515021790555090505060006011600084815260200190815260200160002090508073__IterableMapping_______________________63bc2b405c909133346040518463ffffffff1660e01b8152600401611840939291906153ac565b60006040518083038186803b15801561185857600080fd5b505af415801561186c573d6000803e3d6000fd5b505050507fde11ebd9a4f52f9d475e408266bfa5a8a50ebd212fd91bc37f6b438b7aaa6ad533346040516118a1929190614ec9565b60405180910390a160405180608001604052808481526020013373ffffffffffffffffffffffffffffffffffffffff1681526020013481526020014281525060106000600c5481526020019081526020016000206000820151816000015560208201518160010160006101000a81548173ffffffffffffffffffffffffffffffffffffffff021916908373ffffffffffffffffffffffffffffffffffffffff1602179055506040820151816002015560608201518160030155905050600c60008154809291906001019190505550505050565b61197c612c14565b73ffffffffffffffffffffffffffffffffffffffff168273ffffffffffffffffffffffffffffffffffffffff1614156119ea576040517f08c379a00000000000000000000000000000000000000000000000000000000081526004016119e19061506f565b60405180910390fd5b80600560006119f7612c14565b73ffffffffffffffffffffffffffffffffffffffff1673ffffffffffffffffffffffffffffffffffffffff16815260200190815260200160002060008473ffffffffffffffffffffffffffffffffffffffff1673ffffffffffffffffffffffffffffffffffffffff16815260200190815260200160002060006101000a81548160ff0219169083151502179055508173ffffffffffffffffffffffffffffffffffffffff16611aa4612c14565b73ffffffffffffffffffffffffffffffffffffffff167f17307eab39ab6107e8899845ad3d59bd9653f200f220920489ca2b5937696c3183604051611ae99190614f52565b60405180910390a35050565b611afd613cb1565b60106000838152602001908152602001600020604051806080016040529081600082015481526020016001820160009054906101000a900473ffffffffffffffffffffffffffffffffffffffff1673ffffffffffffffffffffffffffffffffffffffff1673ffffffffffffffffffffffffffffffffffffffff168152602001600282015481526020016003820154815250509050919050565b6000600e6000838152602001908152602001600020549050919050565b611bc4611bbe612c14565b83612cea565b611c03576040517f08c379a0000000000000000000000000000000000000000000000000000000008152600401611bfa9061526f565b60405180910390fd5b611c0f84848484613077565b50505050565b611c1d613c33565b611c2682612aa4565b9050806101000151611c6d576040517f08c379a0000000000000000000000000000000000000000000000000000000008152600401611c64906151af565b60405180910390fd5b8060800151421015611cb4576040517f08c379a0000000000000000000000000000000000000000000000000000000008152600401611cab906152af565b60405180910390fd5b806060015115611cf9576040517f08c379a0000000000000000000000000000000000000000000000000000000008152600401611cf0906152cf565b60405180910390fd5b600060116000848152602001908152602001600020905060008260e001511415611eb3576001826060019015159081151581525050600082604001901515908115158152505081600f60008581526020019081526020016000206000820151816000015560208201518160010160006101000a81548173ffffffffffffffffffffffffffffffffffffffff021916908373ffffffffffffffffffffffffffffffffffffffff16021790555060408201518160010160146101000a81548160ff02191690831515021790555060608201518160010160156101000a81548160ff0219169083151502179055506080820151816002015560a0820151816003015560c08201518160040160006101000a81548173ffffffffffffffffffffffffffffffffffffffff021916908373ffffffffffffffffffffffffffffffffffffffff16021790555060e082015181600501556101008201518160060160006101000a81548160ff0219169083151502179055509050507fdaec4582d5d9595688c8c98545fdd1c696d41c6aeaeb636737e84ed2f5c00eda8260c001518360e00151604051611ea6929190614f29565b60405180910390a1612171565b60018260600190151590811515815250506000826040019015159081151581525050816020015173ffffffffffffffffffffffffffffffffffffffff166108fc8360e001519081150290604051600060405180830381858888f19350505050158015611f23573d6000803e3d6000fd5b50611f3782602001518360c0015185612dc8565b8160c00151826020019073ffffffffffffffffffffffffffffffffffffffff16908173ffffffffffffffffffffffffffffffffffffffff168152505081600f60008581526020019081526020016000206000820151816000015560208201518160010160006101000a81548173ffffffffffffffffffffffffffffffffffffffff021916908373ffffffffffffffffffffffffffffffffffffffff16021790555060408201518160010160146101000a81548160ff02191690831515021790555060608201518160010160156101000a81548160ff0219169083151502179055506080820151816002015560a0820151816003015560c08201518160040160006101000a81548173ffffffffffffffffffffffffffffffffffffffff021916908373ffffffffffffffffffffffffffffffffffffffff16021790555060e082015181600501556101008201518160060160006101000a81548160ff0219169083151502179055509050508160e00151600e6000858152602001908152602001600020819055508073__IterableMapping_______________________63bc2b405c90918460c0015160006040518463ffffffff1660e01b81526004016120ff939291906153e3565b60006040518083038186803b15801561211757600080fd5b505af415801561212b573d6000803e3d6000fd5b505050507fdaec4582d5d9595688c8c98545fdd1c696d41c6aeaeb636737e84ed2f5c00eda8260c001518360e00151604051612168929190614f29565b60405180910390a15b60005b8173__IterableMapping_______________________63deb3d89690916040518263ffffffff1660e01b81526004016121ad9190615368565b60206040518083038186803b1580156121c557600080fd5b505af41580156121d9573d6000803e3d6000fd5b505050506040513d601f19601f820116820180604052508101906121fd9190614121565b8110156123395760008273__IterableMapping_______________________63d1aa9e7e9091846040518363ffffffff1660e01b815260040161224192919061541a565b60206040518083038186803b15801561225957600080fd5b505af415801561226d573d6000803e3d6000fd5b505050506040513d601f19601f820116820180604052508101906122919190613e93565b9050600061229f86836110b3565b9050600081111561232a578173ffffffffffffffffffffffffffffffffffffffff166108fc829081150290604051600060405180830381858888f193505050501580156122f0573d6000803e3d6000fd5b507e363fe256a1f2c23b39e0cfe65d691c725e83e534d368d718337b9d46b705ae8282604051612321929190614f29565b60405180910390a15b50508080600101915050612174565b50505050565b612347613cef565b600d6000838152602001908152602001600020604051806060016040529081600082018054600181600116156101000203166002900480601f0160208091040260200160405190810160405280929190818152602001828054600181600116156101000203166002900480156123fe5780601f106123d3576101008083540402835291602001916123fe565b820191906000526020600020905b8154815290600101906020018083116123e157829003601f168201915b50505050508152602001600182018054600181600116156101000203166002900480601f0160208091040260200160405190810160405280929190818152602001828054600181600116156101000203166002900480156124a05780601f10612475576101008083540402835291602001916124a0565b820191906000526020600020905b81548152906001019060200180831161248357829003601f168201915b505050505081526020016002820160009054906101000a900460ff1615151515815250509050919050565b60606124d682612bf7565b612515576040517f08c379a000000000000000000000000000000000000000000000000000000000815260040161250c9061522f565b60405180910390fd5b6060600860008481526020019081526020016000208054600181600116156101000203166002900480601f0160208091040260200160405190810160405280929190818152602001828054600181600116156101000203166002900480156125be5780601f10612593576101008083540402835291602001916125be565b820191906000526020600020905b8154815290600101906020018083116125a157829003601f168201915b5050505050905060606125cf611011565b90506000815114156125e5578192505050612649565b60008251111561261a578082604051602001612602929190614e3e565b60405160208183030381529060405292505050612649565b80612624856130d3565b604051602001612635929190614e3e565b604051602081830303815290604052925050505b919050565b6000600e6000838152602001908152602001600020549050600081116126a9576040517f08c379a00000000000000000000000000000000000000000000000000000000081526004016126a090614fef565b60405180910390fd5b8034146126eb576040517f08c379a00000000000000000000000000000000000000000000000000000000081526004016126e2906151cf565b60405180910390fd5b60006126f683610fda565b9050612703813385612dc8565b6000600e6000858152602001908152602001600020819055508073ffffffffffffffffffffffffffffffffffffffff166108fc349081150290604051600060405180830381858888f19350505050158015612762573d6000803e3d6000fd5b507f608f6ac9327c2bf4d3c77adf447d2c448ba7b0971e0aaa9aa03f7ac29d874a4481333460405161279693929190614ef2565b60405180910390a1505050565b6000600560008473ffffffffffffffffffffffffffffffffffffffff1673ffffffffffffffffffffffffffffffffffffffff16815260200190815260200160002060008373ffffffffffffffffffffffffffffffffffffffff1673ffffffffffffffffffffffffffffffffffffffff16815260200190815260200160002060009054906101000a900460ff16905092915050565b6000806011600084815260200190815260200160002090508073__IterableMapping_______________________63deb3d89690916040518263ffffffff1660e01b81526004016128889190615368565b60206040518083038186803b1580156128a057600080fd5b505af41580156128b4573d6000803e3d6000fd5b505050506040513d601f19601f820116820180604052508101906128d89190614121565b915050919050565b6128e8612c14565b73ffffffffffffffffffffffffffffffffffffffff166129066114bd565b73ffffffffffffffffffffffffffffffffffffffff161461295c576040517f08c379a0000000000000000000000000000000000000000000000000000000008152600401612953906151ef565b60405180910390fd5b600073ffffffffffffffffffffffffffffffffffffffff168173ffffffffffffffffffffffffffffffffffffffff1614156129cc576040517f08c379a00000000000000000000000000000000000000000000000000000000081526004016129c39061500f565b60405180910390fd5b8073ffffffffffffffffffffffffffffffffffffffff16600a60009054906101000a900473ffffffffffffffffffffffffffffffffffffffff1673ffffffffffffffffffffffffffffffffffffffff167f8be0079c531659141344cd1fd0a4f28419497f9722a3daafe3b4186f6b6457e060405160405180910390a380600a60006101000a81548173ffffffffffffffffffffffffffffffffffffffff021916908373ffffffffffffffffffffffffffffffffffffffff16021790555050565b600e6020528060005260406000206000915090505481565b612aac613c33565b600f600083815260200190815260200160002060405180610120016040529081600082015481526020016001820160009054906101000a900473ffffffffffffffffffffffffffffffffffffffff1673ffffffffffffffffffffffffffffffffffffffff1673ffffffffffffffffffffffffffffffffffffffff1681526020016001820160149054906101000a900460ff161515151581526020016001820160159054906101000a900460ff1615151515815260200160028201548152602001600382015481526020016004820160009054906101000a900473ffffffffffffffffffffffffffffffffffffffff1673ffffffffffffffffffffffffffffffffffffffff1673ffffffffffffffffffffffffffffffffffffffff168152602001600582015481526020016006820160009054906101000a900460ff1615151515815250509050919050565b6000612c0d82600261321a90919063ffffffff16565b9050919050565b600033905090565b816004600083815260200190815260200160002060006101000a81548173ffffffffffffffffffffffffffffffffffffffff021916908373ffffffffffffffffffffffffffffffffffffffff160217905550808273ffffffffffffffffffffffffffffffffffffffff16612c8f83610fda565b73ffffffffffffffffffffffffffffffffffffffff167f8c5be1e5ebec7d5bd14f71427d1e84f3dd0314c0f7b2291e5b200ac8c7c3b92560405160405180910390a45050565b6000612ce382600001613234565b9050919050565b6000612cf582612bf7565b612d34576040517f08c379a0000000000000000000000000000000000000000000000000000000008152600401612d2b906150af565b60405180910390fd5b6000612d3f83610fda565b90508073ffffffffffffffffffffffffffffffffffffffff168473ffffffffffffffffffffffffffffffffffffffff161480612dae57508373ffffffffffffffffffffffffffffffffffffffff16612d96846109d5565b73ffffffffffffffffffffffffffffffffffffffff16145b80612dbf5750612dbe81856127a3565b5b91505092915050565b8273ffffffffffffffffffffffffffffffffffffffff16612de882610fda565b73ffffffffffffffffffffffffffffffffffffffff1614612e3e576040517f08c379a0000000000000000000000000000000000000000000000000000000008152600401612e359061520f565b60405180910390fd5b600073ffffffffffffffffffffffffffffffffffffffff168273ffffffffffffffffffffffffffffffffffffffff161415612eae576040517f08c379a0000000000000000000000000000000000000000000000000000000008152600401612ea59061504f565b60405180910390fd5b612eb9838383613245565b612ec4600082612c1c565b612f1581600160008673ffffffffffffffffffffffffffffffffffffffff1673ffffffffffffffffffffffffffffffffffffffff16815260200190815260200160002061324a90919063ffffffff16565b50612f6781600160008573ffffffffffffffffffffffffffffffffffffffff1673ffffffffffffffffffffffffffffffffffffffff16815260200190815260200160002061326490919063ffffffff16565b50612f7e8183600261327e9092919063ffffffff16565b50808273ffffffffffffffffffffffffffffffffffffffff168473ffffffffffffffffffffffffffffffffffffffff167fddf252ad1be2c89b69c2b068fc378daa952ba7f163c4a11628f55a4df523b3ef60405160405180910390a4505050565b6000612fee83600001836132b3565b60001c905092915050565b60008060008061300c8660000186613320565b915091508160001c8160001c9350935050509250929050565b6000613038846000018460001b846133a3565b60001c90509392505050565b600061305282600001613434565b9050919050565b613073828260405180602001604052806000815250613445565b5050565b613082848484612dc8565b61308e848484846134a0565b6130cd576040517f08c379a00000000000000000000000000000000000000000000000000000000081526004016130c490614fcf565b60405180910390fd5b50505050565b6060600082141561311b576040518060400160405280600181526020017f30000000000000000000000000000000000000000000000000000000000000008152509050613215565b600082905060005b60008214613145578080600101915050600a828161313d57fe5b049150613123565b60608167ffffffffffffffff8111801561315e57600080fd5b506040519080825280601f01601f1916602001820160405280156131915781602001600182028036833780820191505090505b50905060006001830390508593505b6000841461320d57600a84816131b257fe5b0660300160f81b828280600190039350815181106131cc57fe5b60200101907effffffffffffffffffffffffffffffffffffffffffffffffffffffffffffff1916908160001a905350600a848161320557fe5b0493506131a0565b819450505050505b919050565b600061322c836000018360001b613604565b905092915050565b600081600001805490509050919050565b505050565b600061325c836000018360001b613627565b905092915050565b6000613276836000018360001b61370f565b905092915050565b60006132aa846000018460001b8473ffffffffffffffffffffffffffffffffffffffff1660001b61377f565b90509392505050565b6000818360000180549050116132fe576040517f08c379a00000000000000000000000000000000000000000000000000000000081526004016132f590614faf565b60405180910390fd5b82600001828154811061330d57fe5b9060005260206000200154905092915050565b6000808284600001805490501161336c576040517f08c379a00000000000000000000000000000000000000000000000000000000081526004016133639061514f565b60405180910390fd5b600084600001848154811061337d57fe5b906000526020600020906002020190508060000154816001015492509250509250929050565b60008084600101600085815260200190815260200160002054905060008114158390613405576040517f08c379a00000000000000000000000000000000000000000000000000000000081526004016133fc9190614f6d565b60405180910390fd5b5084600001600182038154811061341857fe5b9060005260206000209060020201600101549150509392505050565b600081600001805490509050919050565b61344f838361385b565b61345c60008484846134a0565b61349b576040517f08c379a000000000000000000000000000000000000000000000000000000000815260040161349290614fcf565b60405180910390fd5b505050565b60006134c18473ffffffffffffffffffffffffffffffffffffffff166139e9565b6134ce57600190506135fc565b606061359563150b7a0260e01b6134e3612c14565b8887876040516024016134f99493929190614e7d565b604051602081830303815290604052907bffffffffffffffffffffffffffffffffffffffffffffffffffffffff19166020820180517bffffffffffffffffffffffffffffffffffffffffffffffffffffffff83818316178352505050506040518060600160405280603281526020016156c0603291398773ffffffffffffffffffffffffffffffffffffffff166139fc9092919063ffffffff16565b90506000818060200190518101906135ad9190614063565b905063150b7a0260e01b7bffffffffffffffffffffffffffffffffffffffffffffffffffffffff1916817bffffffffffffffffffffffffffffffffffffffffffffffffffffffff191614925050505b949350505050565b600080836001016000848152602001908152602001600020541415905092915050565b60008083600101600084815260200190815260200160002054905060008114613703576000600182039050600060018660000180549050039050600086600001828154811061367257fe5b906000526020600020015490508087600001848154811061368f57fe5b90600052602060002001819055506001830187600101600083815260200190815260200160002081905550866000018054806136c757fe5b60019003818190600052602060002001600090559055866001016000878152602001908152602001600020600090556001945050505050613709565b60009150505b92915050565b600061371b8383613a14565b613774578260000182908060018154018082558091505060019003906000526020600020016000909190919091505582600001805490508360010160008481526020019081526020016000208190555060019050613779565b600090505b92915050565b600080846001016000858152602001908152602001600020549050600081141561382657846000016040518060400160405280868152602001858152509080600181540180825580915050600190039060005260206000209060020201600090919091909150600082015181600001556020820151816001015550508460000180549050856001016000868152602001908152602001600020819055506001915050613854565b8285600001600183038154811061383957fe5b90600052602060002090600202016001018190555060009150505b9392505050565b600073ffffffffffffffffffffffffffffffffffffffff168273ffffffffffffffffffffffffffffffffffffffff1614156138cb576040517f08c379a00000000000000000000000000000000000000000000000000000000081526004016138c29061516f565b60405180910390fd5b6138d481612bf7565b15613914576040517f08c379a000000000000000000000000000000000000000000000000000000000815260040161390b9061502f565b60405180910390fd5b61392060008383613245565b61397181600160008573ffffffffffffffffffffffffffffffffffffffff1673ffffffffffffffffffffffffffffffffffffffff16815260200190815260200160002061326490919063ffffffff16565b506139888183600261327e9092919063ffffffff16565b50808273ffffffffffffffffffffffffffffffffffffffff16600073ffffffffffffffffffffffffffffffffffffffff167fddf252ad1be2c89b69c2b068fc378daa952ba7f163c4a11628f55a4df523b3ef60405160405180910390a45050565b600080823b905060008111915050919050565b6060613a0b8484600085613a37565b90509392505050565b600080836001016000848152602001908152602001600020541415905092915050565b606082471015613a7c576040517f08c379a0000000000000000000000000000000000000000000000000000000008152600401613a739061508f565b60405180910390fd5b613a85856139e9565b613ac4576040517f08c379a0000000000000000000000000000000000000000000000000000000008152600401613abb9061528f565b60405180910390fd5b600060608673ffffffffffffffffffffffffffffffffffffffff168587604051613aee9190614e27565b60006040518083038185875af1925050503d8060008114613b2b576040519150601f19603f3d011682016040523d82523d6000602084013e613b30565b606091505b5091509150613b40828286613b4c565b92505050949350505050565b60608315613b5c57829050613bac565b600083511115613b6f5782518084602001fd5b816040517f08c379a0000000000000000000000000000000000000000000000000000000008152600401613ba39190614f6d565b60405180910390fd5b9392505050565b828054600181600116156101000203166002900490600052602060002090601f016020900481019282601f10613bf457805160ff1916838001178555613c22565b82800160010185558215613c22579182015b82811115613c21578251825591602001919060010190613c06565b5b509050613c2f9190613d12565b5090565b60405180610120016040528060008152602001600073ffffffffffffffffffffffffffffffffffffffff1681526020016000151581526020016000151581526020016000815260200160008152602001600073ffffffffffffffffffffffffffffffffffffffff168152602001600081526020016000151581525090565b604051806080016040528060008152602001600073ffffffffffffffffffffffffffffffffffffffff16815260200160008152602001600081525090565b604051806060016040528060608152602001606081526020016000151581525090565b5b80821115613d2b576000816000905550600101613d13565b5090565b600081359050613d3e81615663565b92915050565b600081519050613d5381615663565b92915050565b600081359050613d688161567a565b92915050565b600081359050613d7d81615691565b92915050565b600081519050613d9281615691565b92915050565b600082601f830112613da957600080fd5b8135613dbc613db78261548b565b61545e565b91508082526020830160208301858383011115613dd857600080fd5b613de3838284615610565b50505092915050565b600082601f830112613dfd57600080fd5b8135613e10613e0b826154b7565b61545e565b91508082526020830160208301858383011115613e2c57600080fd5b613e37838284615610565b50505092915050565b600081359050613e4f816156a8565b92915050565b600081519050613e64816156a8565b92915050565b600060208284031215613e7c57600080fd5b6000613e8a84828501613d2f565b91505092915050565b600060208284031215613ea557600080fd5b6000613eb384828501613d44565b91505092915050565b60008060408385031215613ecf57600080fd5b6000613edd85828601613d2f565b9250506020613eee85828601613d2f565b9150509250929050565b600080600060608486031215613f0d57600080fd5b6000613f1b86828701613d2f565b9350506020613f2c86828701613d2f565b9250506040613f3d86828701613e40565b9150509250925092565b60008060008060808587031215613f5d57600080fd5b6000613f6b87828801613d2f565b9450506020613f7c87828801613d2f565b9350506040613f8d87828801613e40565b925050606085013567ffffffffffffffff811115613faa57600080fd5b613fb687828801613d98565b91505092959194509250565b60008060408385031215613fd557600080fd5b6000613fe385828601613d2f565b9250506020613ff485828601613d59565b9150509250929050565b6000806040838503121561401157600080fd5b600061401f85828601613d2f565b925050602061403085828601613e40565b9150509250929050565b60006020828403121561404c57600080fd5b600061405a84828501613d6e565b91505092915050565b60006020828403121561407557600080fd5b600061408384828501613d83565b91505092915050565b6000806040838503121561409f57600080fd5b600083013567ffffffffffffffff8111156140b957600080fd5b6140c585828601613dec565b925050602083013567ffffffffffffffff8111156140e257600080fd5b6140ee85828601613dec565b9150509250929050565b60006020828403121561410a57600080fd5b600061411884828501613e40565b91505092915050565b60006020828403121561413357600080fd5b600061414184828501613e55565b91505092915050565b6000806040838503121561415d57600080fd5b600061416b85828601613e40565b925050602061417c85828601613d2f565b9150509250929050565b6000806040838503121561419957600080fd5b60006141a785828601613e40565b92505060206141b885828601613e40565b9150509250929050565b6141cb816155c8565b82525050565b6141da816155c8565b82525050565b6141e981615554565b82525050565b6141f881615542565b82525050565b61420781615542565b82525050565b61421681615542565b82525050565b61422581615566565b82525050565b61423481615566565b82525050565b6000614245826154e3565b61424f81856154f9565b935061425f81856020860161561f565b61426881615652565b840191505092915050565b600061427e826154e3565b614288818561550a565b935061429881856020860161561f565b80840191505092915050565b6142ad816155da565b82525050565b60006142be826154ee565b6142c88185615515565b93506142d881856020860161561f565b6142e181615652565b840191505092915050565b60006142f7826154ee565b6143018185615526565b935061431181856020860161561f565b61431a81615652565b840191505092915050565b6000614330826154ee565b61433a8185615537565b935061434a81856020860161561f565b80840191505092915050565b6000614363601383615526565b91507f546f6b656e20646f65736e2774206578697374000000000000000000000000006000830152602082019050919050565b60006143a3602283615526565b91507f456e756d657261626c655365743a20696e646578206f7574206f6620626f756e60008301527f64730000000000000000000000000000000000000000000000000000000000006020830152604082019050919050565b6000614409603283615526565b91507f4552433732313a207472616e7366657220746f206e6f6e20455243373231526560008301527f63656976657220696d706c656d656e74657200000000000000000000000000006020830152604082019050919050565b600061446f601a83615526565b91507f5468697320746f6b656e206973206e6f7420666f722073616c650000000000006000830152602082019050919050565b60006144af602683615526565b91507f4f776e61626c653a206e6577206f776e657220697320746865207a65726f206160008301527f64647265737300000000000000000000000000000000000000000000000000006020830152604082019050919050565b6000614515601c83615526565b91507f4552433732313a20746f6b656e20616c7265616479206d696e746564000000006000830152602082019050919050565b6000614555602483615526565b91507f4552433732313a207472616e7366657220746f20746865207a65726f2061646460008301527f72657373000000000000000000000000000000000000000000000000000000006020830152604082019050919050565b60006145bb601983615526565b91507f4552433732313a20617070726f766520746f2063616c6c6572000000000000006000830152602082019050919050565b60006145fb602683615526565b91507f416464726573733a20696e73756666696369656e742062616c616e636520666f60008301527f722063616c6c00000000000000000000000000000000000000000000000000006020830152604082019050919050565b6000614661602c83615526565b91507f4552433732313a206f70657261746f7220717565727920666f72206e6f6e657860008301527f697374656e7420746f6b656e00000000000000000000000000000000000000006020830152604082019050919050565b60006146c7602c83615526565b91507f43616e6e6f742073746172742061756374696f6e20666f7220746f6b656e207960008301527f6f7520646f6e2774206f776e00000000000000000000000000000000000000006020830152604082019050919050565b600061472d601883615526565b91507f426964207072696365206d7573742062652068696768657200000000000000006000830152602082019050919050565b600061476d603883615526565b91507f4552433732313a20617070726f76652063616c6c6572206973206e6f74206f7760008301527f6e6572206e6f7220617070726f76656420666f7220616c6c00000000000000006020830152604082019050919050565b60006147d3602a83615526565b91507f4552433732313a2062616c616e636520717565727920666f7220746865207a6560008301527f726f2061646472657373000000000000000000000000000000000000000000006020830152604082019050919050565b6000614839602283615526565b91507f456e756d657261626c654d61703a20696e646578206f7574206f6620626f756e60008301527f64730000000000000000000000000000000000000000000000000000000000006020830152604082019050919050565b600061489f602083615526565b91507f4552433732313a206d696e7420746f20746865207a65726f20616464726573736000830152602082019050919050565b60006148df602c83615526565b91507f4552433732313a20617070726f76656420717565727920666f72206e6f6e657860008301527f697374656e7420746f6b656e00000000000000000000000000000000000000006020830152604082019050919050565b6000614945601583615526565b91507f41756374696f6e20646f65736e277420657869737400000000000000000000006000830152602082019050919050565b6000614985600f83615526565b91507f496e636f72726563742076616c756500000000000000000000000000000000006000830152602082019050919050565b60006149c5602083615526565b91507f4f776e61626c653a2063616c6c6572206973206e6f7420746865206f776e65726000830152602082019050919050565b6000614a05602983615526565b91507f4552433732313a207472616e73666572206f6620746f6b656e2074686174206960008301527f73206e6f74206f776e00000000000000000000000000000000000000000000006020830152604082019050919050565b6000614a6b602f83615526565b91507f4552433732314d657461646174613a2055524920717565727920666f72206e6f60008301527f6e6578697374656e7420746f6b656e00000000000000000000000000000000006020830152604082019050919050565b6000614ad1602183615526565b91507f4552433732313a20617070726f76616c20746f2063757272656e74206f776e6560008301527f72000000000000000000000000000000000000000000000000000000000000006020830152604082019050919050565b6000614b37603183615526565b91507f4552433732313a207472616e736665722063616c6c6572206973206e6f74206f60008301527f776e6572206e6f7220617070726f7665640000000000000000000000000000006020830152604082019050919050565b6000614b9d601d83615526565b91507f416464726573733a2063616c6c20746f206e6f6e2d636f6e74726163740000006000830152602082019050919050565b6000614bdd601d83615526565b91507f5468652061756374696f6e20686173206e6f7420656e646564207965740000006000830152602082019050919050565b6000614c1d601583615526565b91507f5468652061756374696f6e2068617320656e64656400000000000000000000006000830152602082019050919050565b6000614c5d601183615526565b91507f48696768657220626964206578697374730000000000000000000000000000006000830152602082019050919050565b61012082016000820151614ca76000850182614dfa565b506020820151614cba60208501826141ef565b506040820151614ccd604085018261421c565b506060820151614ce0606085018261421c565b506080820151614cf36080850182614dfa565b5060a0820151614d0660a0850182614dfa565b5060c0820151614d1960c08501826141ef565b5060e0820151614d2c60e0850182614dfa565b50610100820151614d4161010085018261421c565b50505050565b608082016000820151614d5d6000850182614dfa565b506020820151614d7060208501826141ef565b506040820151614d836040850182614dfa565b506060820151614d966060850182614dfa565b50505050565b60006060830160008301518482036000860152614db982826142b3565b91505060208301518482036020860152614dd382826142b3565b9150506040830151614de8604086018261421c565b508091505092915050565b8082525050565b614e03816155be565b82525050565b614e12816155be565b82525050565b614e21816155be565b82525050565b6000614e338284614273565b915081905092915050565b6000614e4a8285614325565b9150614e568284614325565b91508190509392505050565b6000602082019050614e7760008301846141fe565b92915050565b6000608082019050614e9260008301876141e0565b614e9f60208301866141fe565b614eac6040830185614e09565b8181036060830152614ebe818461423a565b905095945050505050565b6000604082019050614ede60008301856141c2565b614eeb6020830184614e09565b9392505050565b6000606082019050614f0760008301866141fe565b614f1460208301856141c2565b614f216040830184614e09565b949350505050565b6000604082019050614f3e60008301856141fe565b614f4b6020830184614e09565b9392505050565b6000602082019050614f67600083018461422b565b92915050565b60006020820190508181036000830152614f8781846142ec565b905092915050565b60006020820190508181036000830152614fa881614356565b9050919050565b60006020820190508181036000830152614fc881614396565b9050919050565b60006020820190508181036000830152614fe8816143fc565b9050919050565b6000602082019050818103600083015261500881614462565b9050919050565b60006020820190508181036000830152615028816144a2565b9050919050565b6000602082019050818103600083015261504881614508565b9050919050565b6000602082019050818103600083015261506881614548565b9050919050565b60006020820190508181036000830152615088816145ae565b9050919050565b600060208201905081810360008301526150a8816145ee565b9050919050565b600060208201905081810360008301526150c881614654565b9050919050565b600060208201905081810360008301526150e8816146ba565b9050919050565b6000602082019050818103600083015261510881614720565b9050919050565b6000602082019050818103600083015261512881614760565b9050919050565b60006020820190508181036000830152615148816147c6565b9050919050565b600060208201905081810360008301526151688161482c565b9050919050565b6000602082019050818103600083015261518881614892565b9050919050565b600060208201905081810360008301526151a8816148d2565b9050919050565b600060208201905081810360008301526151c881614938565b9050919050565b600060208201905081810360008301526151e881614978565b9050919050565b60006020820190508181036000830152615208816149b8565b9050919050565b60006020820190508181036000830152615228816149f8565b9050919050565b6000602082019050818103600083015261524881614a5e565b9050919050565b6000602082019050818103600083015261526881614ac4565b9050919050565b6000602082019050818103600083015261528881614b2a565b9050919050565b600060208201905081810360008301526152a881614b90565b9050919050565b600060208201905081810360008301526152c881614bd0565b9050919050565b600060208201905081810360008301526152e881614c10565b9050919050565b6000602082019050818103600083015261530881614c50565b9050919050565b6000610120820190506153256000830184614c90565b92915050565b60006080820190506153406000830184614d47565b92915050565b600060208201905081810360008301526153608184614d9c565b905092915050565b600060208201905061537d6000830184614df3565b92915050565b60006040820190506153986000830185614df3565b6153a5602083018461420d565b9392505050565b60006060820190506153c16000830186614df3565b6153ce60208301856141d1565b6153db6040830184614e18565b949350505050565b60006060820190506153f86000830186614df3565b615405602083018561420d565b61541260408301846142a4565b949350505050565b600060408201905061542f6000830185614df3565b61543c6020830184614e18565b9392505050565b60006020820190506154586000830184614e09565b92915050565b6000604051905081810181811067ffffffffffffffff8211171561548157600080fd5b8060405250919050565b600067ffffffffffffffff8211156154a257600080fd5b601f19601f8301169050602081019050919050565b600067ffffffffffffffff8211156154ce57600080fd5b601f19601f8301169050602081019050919050565b600081519050919050565b600081519050919050565b600082825260208201905092915050565b600081905092915050565b600082825260208201905092915050565b600082825260208201905092915050565b600081905092915050565b600061554d8261559e565b9050919050565b600061555f8261559e565b9050919050565b60008115159050919050565b60007fffffffff0000000000000000000000000000000000000000000000000000000082169050919050565b600073ffffffffffffffffffffffffffffffffffffffff82169050919050565b6000819050919050565b60006155d3826155ec565b9050919050565b60006155e5826155be565b9050919050565b60006155f7826155fe565b9050919050565b60006156098261559e565b9050919050565b82818337600083830152505050565b60005b8381101561563d578082015181840152602081019050615622565b8381111561564c576000848401525b50505050565b6000601f19601f8301169050919050565b61566c81615542565b811461567757600080fd5b50565b61568381615566565b811461568e57600080fd5b50565b61569a81615572565b81146156a557600080fd5b50565b6156b1816155be565b81146156bc57600080fd5b5056fe4552433732313a207472616e7366657220746f206e6f6e20455243373231526563656976657220696d706c656d656e7465724552433732313a206f776e657220717565727920666f72206e6f6e6578697374656e7420746f6b656ea26469706673582212207f313e5ae5d83aa77f6e23a2345b5e85a7fd5128fdfb860fe358b4fabda94e4664736f6c634300060c0033",
  "immutableReferences": {},
  "source": "pragma solidity >=0.4.22 <0.8.0;\r\npragma experimental ABIEncoderV2;\r\n\r\nimport \"@openzeppelin/contracts/token/ERC721/ERC721.sol\";\r\nimport \"@openzeppelin/contracts/access/Ownable.sol\";\r\n\r\nlibrary IterableMapping {\r\n    // Iterable mapping from address to uint;\r\n    struct Map {\r\n        address[] keys;\r\n        mapping(address => uint) values;\r\n        mapping(address => uint) indexOf;\r\n        mapping(address => bool) inserted;\r\n    }\r\n\r\n    function get(Map storage map, address key) public view returns (uint) {\r\n        return map.values[key];\r\n    }\r\n\r\n    function getKeyAtIndex(Map storage map, uint index) public view returns (address) {\r\n        return map.keys[index];\r\n    }\r\n\r\n    function size(Map storage map) public view returns (uint) {\r\n        return map.keys.length;\r\n    }\r\n\r\n    function set(Map storage map, address key, uint val) public {\r\n        if (map.inserted[key]) {\r\n            map.values[key] = val;\r\n        } else {\r\n            map.inserted[key] = true;\r\n            map.values[key] = val;\r\n            map.indexOf[key] = map.keys.length;\r\n            map.keys.push(key);\r\n        }\r\n    }\r\n\r\n    function remove(Map storage map, address key) public {\r\n        if (!map.inserted[key]) {\r\n            return;\r\n        }\r\n\r\n        delete map.inserted[key];\r\n        delete map.values[key];\r\n\r\n        uint index = map.indexOf[key];\r\n        uint lastIndex = map.keys.length - 1;\r\n        address lastKey = map.keys[lastIndex];\r\n\r\n        map.indexOf[lastKey] = index;\r\n        delete map.indexOf[key];\r\n\r\n        map.keys[index] = lastKey;\r\n        map.keys.pop();\r\n    }\r\n}\r\n\r\ncontract WorldNFT is ERC721, Ownable {\r\n\tusing IterableMapping for IterableMapping.Map;\r\n\tconstructor() ERC721(\"WorldNFT\", \"WNFT\") public {\r\n\r\n\t}\r\n\r\n\tstruct Location {\r\n\t\tstring location_name;\r\n\t\tstring svg_image;\r\n\t\tbool isExist;\r\n\t}\r\n\tstruct Auction {\r\n\t    uint256 tokenId;\r\n\t    address beneficiary;\r\n\t    bool auctionGoingOn;\r\n\t\tbool auctionEnded;\r\n\t    uint auctionEndTime;\r\n\t\tuint biddingTime;\r\n\t    address highestBidder;\r\n\t    uint highestBid;\r\n\t    bool isExist;\r\n\t}\r\n\tstruct Bid {\r\n\t\tuint256 tokenId;\r\n\t\taddress bidder;\r\n\t\tuint bidValue;\r\n\t\tuint timeBid;\r\n\t}\r\n\r\n\tuint public nextId = 0;\r\n\tuint public acceptedBidsIdx = 0;\r\n\r\n\tevent NftBought(address _seller, address _buyer, uint256 _price);\r\n\tevent AuctionStarted(address ownerAddress, uint _biddingTime);\r\n\tevent BidIncrease(address bidAddress, uint256 bidValue);\r\n\tevent AuctionEnded(address bidAddress, uint256 bidValue);\r\n\tevent BidRejected(address bidAddress, uint256 bidValue);\r\n\r\n\tmapping(uint256 => Location) private _locationDetails;\r\n\tmapping(uint256 => uint256) public tokenIdToPrice;\r\n\tmapping(uint256 => Auction) private _auctions;\r\n\tmapping(uint256 => Bid) private _biddingLogs;\r\n\r\n\t// IterableMapping.Map private _pendingReturns;\r\n\tmapping(uint256 => IterableMapping.Map) private _tokenPendingReturns;\r\n\r\n\tfunction getTokenDetails(uint256 tokenId) public view returns (Location memory) {\r\n\t\treturn _locationDetails[tokenId];\r\n\t}\r\n\r\n\tfunction getPriceOf(uint256 tokenId) public view returns (uint256) {\r\n\t\treturn tokenIdToPrice[tokenId];\r\n\t}\r\n\r\n\tfunction getOwnerOf(uint256 tokenId) public view returns (address){\r\n\t\treturn ownerOf(tokenId);\r\n\t}\r\n\r\n\tfunction getAuctionInfo(uint256 tokenId) public view returns(Auction memory) {\r\n\t    return _auctions[tokenId];\r\n\t}\r\n\r\n\tfunction getBiddingLog(uint256 bidId) public view returns(Bid memory) {\r\n\t\treturn _biddingLogs[bidId];\r\n\t}\r\n\r\n\tfunction getPendingReturnsCount(uint tokenId) public view returns(uint) {\r\n\t    IterableMapping.Map storage pendingReturnForIdx = _tokenPendingReturns[tokenId];\r\n\t\treturn pendingReturnForIdx.size();\r\n\t}\r\n\r\n\tfunction getPendingReturnValue(uint tokenId, address addr) public view returns(uint) {\r\n\t    IterableMapping.Map storage pendingReturnForIdx = _tokenPendingReturns[tokenId];\r\n\t    return pendingReturnForIdx.get(addr);\r\n\t}\r\n\r\n\tfunction mint(string memory location_name, string memory svg_image) public onlyOwner {\r\n\t\t_locationDetails[nextId] = Location(location_name, svg_image, true);\r\n\t\ttokenIdToPrice[nextId] = 2000000000000000000; //1 ONE=1e18 wei\r\n\t\t_safeMint(msg.sender, nextId);\r\n\t\tnextId++;\r\n\t}\r\n\r\n\tfunction buy(uint256 _tokenId) external payable {\r\n\t\tuint256 price = tokenIdToPrice[_tokenId];\r\n\t\trequire(price > 0, \"This token is not for sale\");\r\n\t\trequire(msg.value == price, 'Incorrect value');\r\n\t\taddress seller = ownerOf(_tokenId);\r\n\t\t_transfer(seller, msg.sender, _tokenId);\r\n\t\ttokenIdToPrice[_tokenId] = 0;\r\n\t\tpayable(seller).transfer(msg.value);\r\n\t\temit NftBought(seller, msg.sender, msg.value);\r\n\t}\r\n\r\n\tfunction startAuction(uint256 _tokenId, uint _biddingTime) external {\r\n\t\tuint auctionEndTime = block.timestamp + _biddingTime;\r\n\t\trequire(_locationDetails[_tokenId].isExist, \"Token doesn't exist\");\r\n\t\trequire(msg.sender == ownerOf(_tokenId), \"Cannot start auction for token you don't own\");\r\n\t\tif(_auctions[_tokenId].isExist && !_auctions[_tokenId].auctionEnded) {\r\n\t\t\trevert (\"The auction has not ended yet\");\r\n\t\t}\r\n\t\t_auctions[_tokenId] = Auction(_tokenId,msg.sender,true,false,auctionEndTime,_biddingTime,address(0x0),0,true);\r\n\t\temit AuctionStarted(msg.sender, _biddingTime);\r\n\t}\r\n\r\n\r\n\tfunction endAuction(uint256 _tokenId) external {\r\n\t    Auction memory auc = getAuctionInfo(_tokenId);\r\n\t    require(auc.isExist, \"Auction doesn't exist\");\r\n\t    if(block.timestamp < auc.auctionEndTime) {\r\n\t        revert (\"The auction has not ended yet\");\r\n\t    }\r\n\t    if(auc.auctionEnded) {\r\n\t        revert (\"The auction has ended\");\r\n\t    }\r\n\t\tIterableMapping.Map storage pr = _tokenPendingReturns[_tokenId];\r\n\t\tif(auc.highestBid == 0) {\r\n\t\t\tauc.auctionEnded = true;\r\n\t    \tauc.auctionGoingOn = false;\r\n\t\t\t_auctions[_tokenId] = auc;\r\n\t\t\temit AuctionEnded(auc.highestBidder, auc.highestBid);\r\n\t\t} else {\r\n\t\t\tauc.auctionEnded = true;\r\n\t\t\tauc.auctionGoingOn = false;\r\n\t\t\tpayable(auc.beneficiary).transfer(auc.highestBid);\r\n\t\t\t_transfer(auc.beneficiary, auc.highestBidder, _tokenId);\r\n\t\t\tauc.beneficiary = auc.highestBidder;\r\n\t\t\t_auctions[_tokenId] = auc;\r\n\t\t\ttokenIdToPrice[_tokenId] = auc.highestBid;\r\n\t\t\tpr.set(auc.highestBidder, 0);\r\n\t\t\temit AuctionEnded(auc.highestBidder, auc.highestBid);\r\n\t\t}\r\n\t\t\r\n\t\tfor (uint i = 0; i < pr.size(); i++) {\r\n\t\t\taddress returnAddr = pr.getKeyAtIndex(i);\r\n\t\t\tuint returnVal = getPendingReturnValue(_tokenId, returnAddr);\r\n\t\t\tif(returnVal > 0) {\r\n\t\t\t\tpayable(returnAddr).transfer(returnVal);\r\n\t\t\t\temit BidRejected(returnAddr, returnVal);\r\n\t\t\t}\r\n\t\t}\r\n\t}\r\n\r\n\tfunction placeBid(uint256 _tokenId) external payable {\r\n\t\tAuction memory auc = getAuctionInfo(_tokenId);\r\n\t    require(auc.isExist, \"Auction doesn't exist\");\r\n\t\trequire(msg.value > tokenIdToPrice[_tokenId], \"Bid price must be higher\");\r\n\t\tif(msg.value <= auc.highestBid) {\r\n\t        revert(\"Higher bid exists\");\r\n\t    }\r\n\t\tauc.highestBid = msg.value;\r\n\t    auc.highestBidder = msg.sender;\r\n\t    _auctions[_tokenId] = auc;\r\n\t\tIterableMapping.Map storage pr = _tokenPendingReturns[_tokenId];\r\n        pr.set(msg.sender, msg.value);\r\n\t\temit BidIncrease(msg.sender, msg.value);\r\n\r\n\t\t//Log bid into bidHistory\r\n\t\t_biddingLogs[acceptedBidsIdx] = Bid(_tokenId, msg.sender, msg.value, block.timestamp);\r\n\t\tacceptedBidsIdx++;\r\n\t}\r\n\r\n\tfunction _beforeTokenTransfer(address from, address to, uint256 tokenId) internal override { \r\n\t\t\r\n\t}\r\n}",
  "sourcePath": "C:/Users/swapp/Documents/MyProjects/Crypto/world_nft/contracts/WorldNFT.sol",
  "compiler": {
    "name": "solc",
    "version": "0.6.12+commit.27d51765.Emscripten.clang"
  },
  "schemaVersion": "3.2.3",
  "updatedAt": "2021-07-10T07:27:03.960Z",
  "networkType": "ethereum",
  "devdoc": {
    "kind": "dev",
    "methods": {
      "approve(address,uint256)": {
        "details": "See {IERC721-approve}."
      },
      "balanceOf(address)": {
        "details": "See {IERC721-balanceOf}."
      },
      "baseURI()": {
        "details": "Returns the base URI set via {_setBaseURI}. This will be automatically added as a prefix in {tokenURI} to each token's URI, or to the token ID if no specific URI is set for that token ID."
      },
      "getApproved(uint256)": {
        "details": "See {IERC721-getApproved}."
      },
      "isApprovedForAll(address,address)": {
        "details": "See {IERC721-isApprovedForAll}."
      },
      "name()": {
        "details": "See {IERC721Metadata-name}."
      },
      "owner()": {
        "details": "Returns the address of the current owner."
      },
      "ownerOf(uint256)": {
        "details": "See {IERC721-ownerOf}."
      },
      "renounceOwnership()": {
        "details": "Leaves the contract without owner. It will not be possible to call `onlyOwner` functions anymore. Can only be called by the current owner. NOTE: Renouncing ownership will leave the contract without an owner, thereby removing any functionality that is only available to the owner."
      },
      "safeTransferFrom(address,address,uint256)": {
        "details": "See {IERC721-safeTransferFrom}."
      },
      "safeTransferFrom(address,address,uint256,bytes)": {
        "details": "See {IERC721-safeTransferFrom}."
      },
      "setApprovalForAll(address,bool)": {
        "details": "See {IERC721-setApprovalForAll}."
      },
      "supportsInterface(bytes4)": {
        "details": "See {IERC165-supportsInterface}. Time complexity O(1), guaranteed to always use less than 30 000 gas."
      },
      "symbol()": {
        "details": "See {IERC721Metadata-symbol}."
      },
      "tokenByIndex(uint256)": {
        "details": "See {IERC721Enumerable-tokenByIndex}."
      },
      "tokenOfOwnerByIndex(address,uint256)": {
        "details": "See {IERC721Enumerable-tokenOfOwnerByIndex}."
      },
      "tokenURI(uint256)": {
        "details": "See {IERC721Metadata-tokenURI}."
      },
      "totalSupply()": {
        "details": "See {IERC721Enumerable-totalSupply}."
      },
      "transferFrom(address,address,uint256)": {
        "details": "See {IERC721-transferFrom}."
      },
      "transferOwnership(address)": {
        "details": "Transfers ownership of the contract to a new account (`newOwner`). Can only be called by the current owner."
      }
    },
    "version": 1
  },
  "userdoc": {
    "kind": "user",
    "methods": {},
    "version": 1
  }
}