{
  "contractName": "WorldNFT",
  "abi": [
    {
      "inputs": [],
      "stateMutability": "nonpayable",
      "type": "constructor"
    },
    {
      "anonymous": false,
      "inputs": [
        {
          "indexed": true,
          "internalType": "address",
          "name": "owner",
          "type": "address"
        },
        {
          "indexed": true,
          "internalType": "address",
          "name": "approved",
          "type": "address"
        },
        {
          "indexed": true,
          "internalType": "uint256",
          "name": "tokenId",
          "type": "uint256"
        }
      ],
      "name": "Approval",
      "type": "event"
    },
    {
      "anonymous": false,
      "inputs": [
        {
          "indexed": true,
          "internalType": "address",
          "name": "owner",
          "type": "address"
        },
        {
          "indexed": true,
          "internalType": "address",
          "name": "operator",
          "type": "address"
        },
        {
          "indexed": false,
          "internalType": "bool",
          "name": "approved",
          "type": "bool"
        }
      ],
      "name": "ApprovalForAll",
      "type": "event"
    },
    {
      "anonymous": false,
      "inputs": [
        {
          "indexed": false,
          "internalType": "address",
          "name": "bidAddress",
          "type": "address"
        },
        {
          "indexed": false,
          "internalType": "uint256",
          "name": "bidValue",
          "type": "uint256"
        }
      ],
      "name": "AuctionEnded",
      "type": "event"
    },
    {
      "anonymous": false,
      "inputs": [
        {
          "indexed": false,
          "internalType": "address",
          "name": "ownerAddress",
          "type": "address"
        },
        {
          "indexed": false,
          "internalType": "uint256",
          "name": "_biddingTime",
          "type": "uint256"
        }
      ],
      "name": "AuctionStarted",
      "type": "event"
    },
    {
      "anonymous": false,
      "inputs": [
        {
          "indexed": false,
          "internalType": "address",
          "name": "bidAddress",
          "type": "address"
        },
        {
          "indexed": false,
          "internalType": "uint256",
          "name": "bidValue",
          "type": "uint256"
        }
      ],
      "name": "BidIncrease",
      "type": "event"
    },
    {
      "anonymous": false,
      "inputs": [
        {
          "indexed": false,
          "internalType": "address",
          "name": "bidAddress",
          "type": "address"
        },
        {
          "indexed": false,
          "internalType": "uint256",
          "name": "bidValue",
          "type": "uint256"
        }
      ],
      "name": "BidRejected",
      "type": "event"
    },
    {
      "anonymous": false,
      "inputs": [
        {
          "indexed": false,
          "internalType": "address",
          "name": "bidAddress",
          "type": "address"
        },
        {
          "indexed": false,
          "internalType": "uint256",
          "name": "bidValue",
          "type": "uint256"
        }
      ],
      "name": "BidWithdrawn",
      "type": "event"
    },
    {
      "anonymous": false,
      "inputs": [
        {
          "indexed": false,
          "internalType": "address",
          "name": "_seller",
          "type": "address"
        },
        {
          "indexed": false,
          "internalType": "address",
          "name": "_buyer",
          "type": "address"
        },
        {
          "indexed": false,
          "internalType": "uint256",
          "name": "_price",
          "type": "uint256"
        }
      ],
      "name": "NftBought",
      "type": "event"
    },
    {
      "anonymous": false,
      "inputs": [
        {
          "indexed": true,
          "internalType": "address",
          "name": "previousOwner",
          "type": "address"
        },
        {
          "indexed": true,
          "internalType": "address",
          "name": "newOwner",
          "type": "address"
        }
      ],
      "name": "OwnershipTransferred",
      "type": "event"
    },
    {
      "anonymous": false,
      "inputs": [
        {
          "indexed": true,
          "internalType": "address",
          "name": "from",
          "type": "address"
        },
        {
          "indexed": true,
          "internalType": "address",
          "name": "to",
          "type": "address"
        },
        {
          "indexed": true,
          "internalType": "uint256",
          "name": "tokenId",
          "type": "uint256"
        }
      ],
      "name": "Transfer",
      "type": "event"
    },
    {
      "inputs": [],
      "name": "acceptedBidsIdx",
      "outputs": [
        {
          "internalType": "uint256",
          "name": "",
          "type": "uint256"
        }
      ],
      "stateMutability": "view",
      "type": "function",
      "constant": true
    },
    {
      "inputs": [
        {
          "internalType": "address",
          "name": "to",
          "type": "address"
        },
        {
          "internalType": "uint256",
          "name": "tokenId",
          "type": "uint256"
        }
      ],
      "name": "approve",
      "outputs": [],
      "stateMutability": "nonpayable",
      "type": "function"
    },
    {
      "inputs": [
        {
          "internalType": "address",
          "name": "owner",
          "type": "address"
        }
      ],
      "name": "balanceOf",
      "outputs": [
        {
          "internalType": "uint256",
          "name": "",
          "type": "uint256"
        }
      ],
      "stateMutability": "view",
      "type": "function",
      "constant": true
    },
    {
      "inputs": [],
      "name": "baseURI",
      "outputs": [
        {
          "internalType": "string",
          "name": "",
          "type": "string"
        }
      ],
      "stateMutability": "view",
      "type": "function",
      "constant": true
    },
    {
      "inputs": [
        {
          "internalType": "uint256",
          "name": "tokenId",
          "type": "uint256"
        }
      ],
      "name": "getApproved",
      "outputs": [
        {
          "internalType": "address",
          "name": "",
          "type": "address"
        }
      ],
      "stateMutability": "view",
      "type": "function",
      "constant": true
    },
    {
      "inputs": [
        {
          "internalType": "address",
          "name": "owner",
          "type": "address"
        },
        {
          "internalType": "address",
          "name": "operator",
          "type": "address"
        }
      ],
      "name": "isApprovedForAll",
      "outputs": [
        {
          "internalType": "bool",
          "name": "",
          "type": "bool"
        }
      ],
      "stateMutability": "view",
      "type": "function",
      "constant": true
    },
    {
      "inputs": [],
      "name": "name",
      "outputs": [
        {
          "internalType": "string",
          "name": "",
          "type": "string"
        }
      ],
      "stateMutability": "view",
      "type": "function",
      "constant": true
    },
    {
      "inputs": [],
      "name": "nextId",
      "outputs": [
        {
          "internalType": "uint256",
          "name": "",
          "type": "uint256"
        }
      ],
      "stateMutability": "view",
      "type": "function",
      "constant": true
    },
    {
      "inputs": [],
      "name": "owner",
      "outputs": [
        {
          "internalType": "address",
          "name": "",
          "type": "address"
        }
      ],
      "stateMutability": "view",
      "type": "function",
      "constant": true
    },
    {
      "inputs": [
        {
          "internalType": "uint256",
          "name": "tokenId",
          "type": "uint256"
        }
      ],
      "name": "ownerOf",
      "outputs": [
        {
          "internalType": "address",
          "name": "",
          "type": "address"
        }
      ],
      "stateMutability": "view",
      "type": "function",
      "constant": true
    },
    {
      "inputs": [],
      "name": "renounceOwnership",
      "outputs": [],
      "stateMutability": "nonpayable",
      "type": "function"
    },
    {
      "inputs": [
        {
          "internalType": "address",
          "name": "from",
          "type": "address"
        },
        {
          "internalType": "address",
          "name": "to",
          "type": "address"
        },
        {
          "internalType": "uint256",
          "name": "tokenId",
          "type": "uint256"
        }
      ],
      "name": "safeTransferFrom",
      "outputs": [],
      "stateMutability": "nonpayable",
      "type": "function"
    },
    {
      "inputs": [
        {
          "internalType": "address",
          "name": "from",
          "type": "address"
        },
        {
          "internalType": "address",
          "name": "to",
          "type": "address"
        },
        {
          "internalType": "uint256",
          "name": "tokenId",
          "type": "uint256"
        },
        {
          "internalType": "bytes",
          "name": "_data",
          "type": "bytes"
        }
      ],
      "name": "safeTransferFrom",
      "outputs": [],
      "stateMutability": "nonpayable",
      "type": "function"
    },
    {
      "inputs": [
        {
          "internalType": "address",
          "name": "operator",
          "type": "address"
        },
        {
          "internalType": "bool",
          "name": "approved",
          "type": "bool"
        }
      ],
      "name": "setApprovalForAll",
      "outputs": [],
      "stateMutability": "nonpayable",
      "type": "function"
    },
    {
      "inputs": [
        {
          "internalType": "bytes4",
          "name": "interfaceId",
          "type": "bytes4"
        }
      ],
      "name": "supportsInterface",
      "outputs": [
        {
          "internalType": "bool",
          "name": "",
          "type": "bool"
        }
      ],
      "stateMutability": "view",
      "type": "function",
      "constant": true
    },
    {
      "inputs": [],
      "name": "symbol",
      "outputs": [
        {
          "internalType": "string",
          "name": "",
          "type": "string"
        }
      ],
      "stateMutability": "view",
      "type": "function",
      "constant": true
    },
    {
      "inputs": [
        {
          "internalType": "uint256",
          "name": "index",
          "type": "uint256"
        }
      ],
      "name": "tokenByIndex",
      "outputs": [
        {
          "internalType": "uint256",
          "name": "",
          "type": "uint256"
        }
      ],
      "stateMutability": "view",
      "type": "function",
      "constant": true
    },
    {
      "inputs": [
        {
          "internalType": "uint256",
          "name": "",
          "type": "uint256"
        }
      ],
      "name": "tokenIdToPrice",
      "outputs": [
        {
          "internalType": "uint256",
          "name": "",
          "type": "uint256"
        }
      ],
      "stateMutability": "view",
      "type": "function",
      "constant": true
    },
    {
      "inputs": [
        {
          "internalType": "address",
          "name": "owner",
          "type": "address"
        },
        {
          "internalType": "uint256",
          "name": "index",
          "type": "uint256"
        }
      ],
      "name": "tokenOfOwnerByIndex",
      "outputs": [
        {
          "internalType": "uint256",
          "name": "",
          "type": "uint256"
        }
      ],
      "stateMutability": "view",
      "type": "function",
      "constant": true
    },
    {
      "inputs": [
        {
          "internalType": "uint256",
          "name": "tokenId",
          "type": "uint256"
        }
      ],
      "name": "tokenURI",
      "outputs": [
        {
          "internalType": "string",
          "name": "",
          "type": "string"
        }
      ],
      "stateMutability": "view",
      "type": "function",
      "constant": true
    },
    {
      "inputs": [],
      "name": "totalSupply",
      "outputs": [
        {
          "internalType": "uint256",
          "name": "",
          "type": "uint256"
        }
      ],
      "stateMutability": "view",
      "type": "function",
      "constant": true
    },
    {
      "inputs": [
        {
          "internalType": "address",
          "name": "from",
          "type": "address"
        },
        {
          "internalType": "address",
          "name": "to",
          "type": "address"
        },
        {
          "internalType": "uint256",
          "name": "tokenId",
          "type": "uint256"
        }
      ],
      "name": "transferFrom",
      "outputs": [],
      "stateMutability": "nonpayable",
      "type": "function"
    },
    {
      "inputs": [
        {
          "internalType": "address",
          "name": "newOwner",
          "type": "address"
        }
      ],
      "name": "transferOwnership",
      "outputs": [],
      "stateMutability": "nonpayable",
      "type": "function"
    },
    {
      "inputs": [
        {
          "internalType": "uint256",
          "name": "tokenId",
          "type": "uint256"
        }
      ],
      "name": "getTokenDetails",
      "outputs": [
        {
          "components": [
            {
              "internalType": "string",
              "name": "location_name",
              "type": "string"
            },
            {
              "internalType": "string",
              "name": "svg_image",
              "type": "string"
            },
            {
              "internalType": "bool",
              "name": "isExist",
              "type": "bool"
            }
          ],
          "internalType": "struct WorldNFT.Location",
          "name": "",
          "type": "tuple"
        }
      ],
      "stateMutability": "view",
      "type": "function",
      "constant": true
    },
    {
      "inputs": [
        {
          "internalType": "uint256",
          "name": "tokenId",
          "type": "uint256"
        }
      ],
      "name": "getPriceOf",
      "outputs": [
        {
          "internalType": "uint256",
          "name": "",
          "type": "uint256"
        }
      ],
      "stateMutability": "view",
      "type": "function",
      "constant": true
    },
    {
      "inputs": [
        {
          "internalType": "uint256",
          "name": "tokenId",
          "type": "uint256"
        }
      ],
      "name": "getOwnerOf",
      "outputs": [
        {
          "internalType": "address",
          "name": "",
          "type": "address"
        }
      ],
      "stateMutability": "view",
      "type": "function",
      "constant": true
    },
    {
      "inputs": [
        {
          "internalType": "uint256",
          "name": "tokenId",
          "type": "uint256"
        }
      ],
      "name": "getAuctionInfo",
      "outputs": [
        {
          "components": [
            {
              "internalType": "uint256",
              "name": "tokenId",
              "type": "uint256"
            },
            {
              "internalType": "address",
              "name": "beneficiary",
              "type": "address"
            },
            {
              "internalType": "bool",
              "name": "auctionGoingOn",
              "type": "bool"
            },
            {
              "internalType": "bool",
              "name": "auctionEnded",
              "type": "bool"
            },
            {
              "internalType": "uint256",
              "name": "auctionEndTime",
              "type": "uint256"
            },
            {
              "internalType": "uint256",
              "name": "biddingTime",
              "type": "uint256"
            },
            {
              "internalType": "address",
              "name": "highestBidder",
              "type": "address"
            },
            {
              "internalType": "uint256",
              "name": "highestBid",
              "type": "uint256"
            },
            {
              "internalType": "bool",
              "name": "isExist",
              "type": "bool"
            }
          ],
          "internalType": "struct WorldNFT.Auction",
          "name": "",
          "type": "tuple"
        }
      ],
      "stateMutability": "view",
      "type": "function",
      "constant": true
    },
    {
      "inputs": [
        {
          "internalType": "uint256",
          "name": "bidId",
          "type": "uint256"
        }
      ],
      "name": "getBiddingLog",
      "outputs": [
        {
          "components": [
            {
              "internalType": "uint256",
              "name": "tokenId",
              "type": "uint256"
            },
            {
              "internalType": "address",
              "name": "bidder",
              "type": "address"
            },
            {
              "internalType": "uint256",
              "name": "bidValue",
              "type": "uint256"
            },
            {
              "internalType": "uint256",
              "name": "timeBid",
              "type": "uint256"
            }
          ],
          "internalType": "struct WorldNFT.Bid",
          "name": "",
          "type": "tuple"
        }
      ],
      "stateMutability": "view",
      "type": "function",
      "constant": true
    },
    {
      "inputs": [
        {
          "internalType": "uint256",
          "name": "tokenId",
          "type": "uint256"
        }
      ],
      "name": "getPendingReturnsCount",
      "outputs": [
        {
          "internalType": "uint256",
          "name": "",
          "type": "uint256"
        }
      ],
      "stateMutability": "view",
      "type": "function",
      "constant": true
    },
    {
      "inputs": [
        {
          "internalType": "uint256",
          "name": "tokenId",
          "type": "uint256"
        },
        {
          "internalType": "address",
          "name": "addr",
          "type": "address"
        }
      ],
      "name": "getPendingReturnValue",
      "outputs": [
        {
          "internalType": "uint256",
          "name": "",
          "type": "uint256"
        }
      ],
      "stateMutability": "view",
      "type": "function",
      "constant": true
    },
    {
      "inputs": [
        {
          "internalType": "string",
          "name": "location_name",
          "type": "string"
        },
        {
          "internalType": "string",
          "name": "svg_image",
          "type": "string"
        }
      ],
      "name": "mint",
      "outputs": [],
      "stateMutability": "nonpayable",
      "type": "function"
    },
    {
      "inputs": [
        {
          "internalType": "uint256",
          "name": "_tokenId",
          "type": "uint256"
        }
      ],
      "name": "buy",
      "outputs": [],
      "stateMutability": "payable",
      "type": "function",
      "payable": true
    },
    {
      "inputs": [
        {
          "internalType": "uint256",
          "name": "_tokenId",
          "type": "uint256"
        },
        {
          "internalType": "uint256",
          "name": "_biddingTime",
          "type": "uint256"
        }
      ],
      "name": "startAuction",
      "outputs": [],
      "stateMutability": "nonpayable",
      "type": "function"
    },
    {
      "inputs": [
        {
          "internalType": "uint256",
          "name": "_tokenId",
          "type": "uint256"
        }
      ],
      "name": "endAuction",
      "outputs": [],
      "stateMutability": "nonpayable",
      "type": "function"
    },
    {
      "inputs": [
        {
          "internalType": "uint256",
          "name": "_tokenId",
          "type": "uint256"
        }
      ],
      "name": "placeBid",
      "outputs": [],
      "stateMutability": "payable",
      "type": "function",
      "payable": true
    },
    {
      "inputs": [
        {
          "internalType": "uint256",
          "name": "_tokenId",
          "type": "uint256"
        }
      ],
      "name": "withdrawBid",
      "outputs": [],
      "stateMutability": "payable",
      "type": "function",
      "payable": true
    },
    {
      "inputs": [
        {
          "internalType": "uint256",
          "name": "_tokenId",
          "type": "uint256"
        }
      ],
      "name": "increaseBid",
      "outputs": [],
      "stateMutability": "payable",
      "type": "function",
      "payable": true
    }
  ],
  "bytecode": "0x60806040526000600b556000600c553480156200001b57600080fd5b506040518060400160405280600881526020017f576f726c644e46540000000000000000000000000000000000000000000000008152506040518060400160405280600481526020017f574e465400000000000000000000000000000000000000000000000000000000815250620000a06301ffc9a760e01b620001d360201b60201c565b8160069080519060200190620000b8929190620002b3565b508060079080519060200190620000d1929190620002b3565b50620000ea6380ac58cd60e01b620001d360201b60201c565b62000102635b5e139f60e01b620001d360201b60201c565b6200011a63780e9d6360e01b620001d360201b60201c565b505060006200012e620002ab60201b60201c565b905080600a60006101000a81548173ffffffffffffffffffffffffffffffffffffffff021916908373ffffffffffffffffffffffffffffffffffffffff1602179055508073ffffffffffffffffffffffffffffffffffffffff16600073ffffffffffffffffffffffffffffffffffffffff167f8be0079c531659141344cd1fd0a4f28419497f9722a3daafe3b4186f6b6457e060405160405180910390a350620003ce565b63ffffffff60e01b817bffffffffffffffffffffffffffffffffffffffffffffffffffffffff191614156200023f576040517f08c379a000000000000000000000000000000000000000000000000000000000815260040162000236906200039b565b60405180910390fd5b6001600080837bffffffffffffffffffffffffffffffffffffffffffffffffffffffff19167bffffffffffffffffffffffffffffffffffffffffffffffffffffffff1916815260200190815260200160002060006101000a81548160ff02191690831515021790555050565b600033905090565b828054600181600116156101000203166002900490600052602060002090601f016020900481019282601f10620002f657805160ff191683800117855562000327565b8280016001018555821562000327579182015b828111156200032657825182559160200191906001019062000309565b5b5090506200033691906200033a565b5090565b5b80821115620003555760008160009055506001016200033b565b5090565b600062000368601c83620003bd565b91507f4552433136353a20696e76616c696420696e74657266616365206964000000006000830152602082019050919050565b60006020820190508181036000830152620003b68162000359565b9050919050565b600082825260208201905092915050565b615c4f80620003de6000396000f3fe6080604052600436106102195760003560e01c8063715018a611610123578063b88d4fde116100ab578063e985e9c51161006f578063e985e9c5146107f6578063f07571a014610833578063f2fde38b14610870578063f4812eb914610899578063fc3fc4ed146108d657610219565b8063b88d4fde1461070e578063b9a2de3a14610737578063c1e0372814610760578063c87b56dd1461079d578063d96a094a146107da57610219565b806395d89b41116100f257806395d89b41146106245780639979ef451461064f578063a22cb4651461066b578063ad81bd1c14610694578063b54b4fb9146106d157610219565b8063715018a61461057c57806383638710146105935780638aa0fdad146105d05780638da5cb5b146105f957610219565b80632f745c59116101a657806361b8ce8c1161017557806361b8ce8c1461046f5780636352211e1461049a5780636c0360eb146104d75780636f169aa01461050257806370a082311461053f57610219565b80632f745c59146103a357806342842e0e146103e05780634f6ccce7146104095780634fee13fc1461044657610219565b8063081812fc116101ed578063081812fc146102cd578063095ea7b31461030a5780630eaaf4c81461033357806318160ddd1461034f57806323b872dd1461037a57610219565b806270c5371461021e57806301ffc9a71461023a578063067fa8fc1461027757806306fdde03146102a2575b600080fd5b610238600480360381019061023391906145f7565b610913565b005b34801561024657600080fd5b50610261600480360381019061025c9190614539565b610916565b60405161026e9190615451565b60405180910390f35b34801561028357600080fd5b5061028c61097d565b6040516102999190615942565b60405180910390f35b3480156102ae57600080fd5b506102b7610983565b6040516102c4919061546c565b60405180910390f35b3480156102d957600080fd5b506102f460048036038101906102ef91906145f7565b610a25565b6040516103019190615361565b60405180910390f35b34801561031657600080fd5b50610331600480360381019061032c91906144fd565b610aaa565b005b61034d600480360381019061034891906145f7565b610bc2565b005b34801561035b57600080fd5b50610364611071565b6040516103719190615942565b60405180910390f35b34801561038657600080fd5b506103a1600480360381019061039c91906143f7565b611082565b005b3480156103af57600080fd5b506103ca60048036038101906103c591906144fd565b6110e2565b6040516103d79190615942565b60405180910390f35b3480156103ec57600080fd5b50610407600480360381019061040291906143f7565b61113d565b005b34801561041557600080fd5b50610430600480360381019061042b91906145f7565b61115d565b60405161043d9190615942565b60405180910390f35b34801561045257600080fd5b5061046d60048036038101906104689190614685565b611180565b005b34801561047b57600080fd5b506104846114d3565b6040516104919190615942565b60405180910390f35b3480156104a657600080fd5b506104c160048036038101906104bc91906145f7565b6114d9565b6040516104ce9190615361565b60405180910390f35b3480156104e357600080fd5b506104ec611510565b6040516104f9919061546c565b60405180910390f35b34801561050e57600080fd5b5061052960048036038101906105249190614649565b6115b2565b6040516105369190615942565b60405180910390f35b34801561054b57600080fd5b5061056660048036038101906105619190614369565b61165e565b6040516105739190615942565b60405180910390f35b34801561058857600080fd5b5061059161171d565b005b34801561059f57600080fd5b506105ba60048036038101906105b591906145f7565b61185a565b6040516105c79190615361565b60405180910390f35b3480156105dc57600080fd5b506105f760048036038101906105f2919061458b565b61186c565b005b34801561060557600080fd5b5061060e6119bc565b60405161061b9190615361565b60405180910390f35b34801561063057600080fd5b506106396119e6565b604051610646919061546c565b60405180910390f35b610669600480360381019061066491906145f7565b611a88565b005b34801561067757600080fd5b50610692600480360381019061068d91906144c1565b611e73565b005b3480156106a057600080fd5b506106bb60048036038101906106b691906145f7565b611ff4565b6040516106c8919061582a565b60405180910390f35b3480156106dd57600080fd5b506106f860048036038101906106f391906145f7565b612095565b6040516107059190615942565b60405180910390f35b34801561071a57600080fd5b5061073560048036038101906107309190614446565b6120b2565b005b34801561074357600080fd5b5061075e600480360381019061075991906145f7565b612114565b005b34801561076c57600080fd5b50610787600480360381019061078291906145f7565b61283e565b6040516107949190615845565b60405180910390f35b3480156107a957600080fd5b506107c460048036038101906107bf91906145f7565b6129ca565b6040516107d1919061546c565b60405180910390f35b6107f460048036038101906107ef91906145f7565b612b4d565b005b34801561080257600080fd5b5061081d600480360381019061081891906143bb565b612ca2565b60405161082a9190615451565b60405180910390f35b34801561083f57600080fd5b5061085a600480360381019061085591906145f7565b612d36565b6040516108679190615942565b60405180910390f35b34801561087c57600080fd5b5061089760048036038101906108929190614369565b612ddf565b005b3480156108a557600080fd5b506108c060048036038101906108bb91906145f7565b612f8b565b6040516108cd9190615942565b60405180910390f35b3480156108e257600080fd5b506108fd60048036038101906108f891906145f7565b612fa3565b60405161090a919061580e565b60405180910390f35b50565b6000806000837bffffffffffffffffffffffffffffffffffffffffffffffffffffffff19167bffffffffffffffffffffffffffffffffffffffffffffffffffffffff1916815260200190815260200160002060009054906101000a900460ff169050919050565b600c5481565b606060068054600181600116156101000203166002900480601f016020809104026020016040519081016040528092919081815260200182805460018160011615610100020316600290048015610a1b5780601f106109f057610100808354040283529160200191610a1b565b820191906000526020600020905b8154815290600101906020018083116109fe57829003601f168201915b5050505050905090565b6000610a30826130f6565b610a6f576040517f08c379a0000000000000000000000000000000000000000000000000000000008152600401610a669061568e565b60405180910390fd5b6004600083815260200190815260200160002060009054906101000a900473ffffffffffffffffffffffffffffffffffffffff169050919050565b6000610ab5826114d9565b90508073ffffffffffffffffffffffffffffffffffffffff168373ffffffffffffffffffffffffffffffffffffffff161415610b26576040517f08c379a0000000000000000000000000000000000000000000000000000000008152600401610b1d9061574e565b60405180910390fd5b8073ffffffffffffffffffffffffffffffffffffffff16610b45613113565b73ffffffffffffffffffffffffffffffffffffffff161480610b745750610b7381610b6e613113565b612ca2565b5b610bb3576040517f08c379a0000000000000000000000000000000000000000000000000000000008152600401610baa9061560e565b60405180910390fd5b610bbd838361311b565b505050565b610bca6140b2565b610bd382612fa3565b9050806101000151610c1a576040517f08c379a0000000000000000000000000000000000000000000000000000000008152600401610c11906156ae565b60405180910390fd5b60006011600084815260200190815260200160002090506000805b8273__IterableMapping_______________________63deb3d89690916040518263ffffffff1660e01b8152600401610c6e9190615867565b60206040518083038186803b158015610c8657600080fd5b505af4158015610c9a573d6000803e3d6000fd5b505050506040513d601f19601f82011682018060405250810190610cbe9190614620565b811015610eee5760008373__IterableMapping_______________________63d1aa9e7e9091846040518363ffffffff1660e01b8152600401610d02929190615919565b60206040518083038186803b158015610d1a57600080fd5b505af4158015610d2e573d6000803e3d6000fd5b505050506040513d601f19601f82011682018060405250810190610d529190614392565b90506000610d6087836115b2565b90506000811115610edf573373ffffffffffffffffffffffffffffffffffffffff168273ffffffffffffffffffffffffffffffffffffffff161415610e8f578173ffffffffffffffffffffffffffffffffffffffff166108fc829081150290604051600060405180830381858888f19350505050158015610de5573d6000803e3d6000fd5b508473__IterableMapping_______________________634c60db9c9091846040518363ffffffff1660e01b8152600401610e21929190615882565b60006040518083038186803b158015610e3957600080fd5b505af4158015610e4d573d6000803e3d6000fd5b505050507f03f0427e8bcfdf5f69217150cf160ebe2dac5fa607336fd7643bfd61a90190808282604051610e82929190615428565b60405180910390a1610ede565b80841015610edd57808660e0018181525050818660c0019073ffffffffffffffffffffffffffffffffffffffff16908173ffffffffffffffffffffffffffffffffffffffff16815250508093505b5b5b50508080600101915050610c35565b506000811415610f3d5760008360e001818152505060008360c0019073ffffffffffffffffffffffffffffffffffffffff16908173ffffffffffffffffffffffffffffffffffffffff16815250505b82600f60008681526020019081526020016000206000820151816000015560208201518160010160006101000a81548173ffffffffffffffffffffffffffffffffffffffff021916908373ffffffffffffffffffffffffffffffffffffffff16021790555060408201518160010160146101000a81548160ff02191690831515021790555060608201518160010160156101000a81548160ff0219169083151502179055506080820151816002015560a0820151816003015560c08201518160040160006101000a81548173ffffffffffffffffffffffffffffffffffffffff021916908373ffffffffffffffffffffffffffffffffffffffff16021790555060e082015181600501556101008201518160060160006101000a81548160ff02191690831515021790555090505050505050565b600061107d60026131d4565b905090565b61109361108d613113565b826131e9565b6110d2576040517f08c379a00000000000000000000000000000000000000000000000000000000081526004016110c99061576e565b60405180910390fd5b6110dd8383836132c7565b505050565b600061113582600160008673ffffffffffffffffffffffffffffffffffffffff1673ffffffffffffffffffffffffffffffffffffffff1681526020019081526020016000206134de90919063ffffffff16565b905092915050565b611158838383604051806020016040528060008152506120b2565b505050565b6000806111748360026134f890919063ffffffff16565b50905080915050919050565b60008142019050600d600084815260200190815260200160002060020160009054906101000a900460ff166111ea576040517f08c379a00000000000000000000000000000000000000000000000000000000081526004016111e19061548e565b60405180910390fd5b6111f3836114d9565b73ffffffffffffffffffffffffffffffffffffffff163373ffffffffffffffffffffffffffffffffffffffff1614611260576040517f08c379a0000000000000000000000000000000000000000000000000000000008152600401611257906155ce565b60405180910390fd5b600f600084815260200190815260200160002060060160009054906101000a900460ff1680156112b15750600f600084815260200190815260200160002060010160159054906101000a900460ff16155b156112f1576040517f08c379a00000000000000000000000000000000000000000000000000000000081526004016112e8906157ae565b60405180910390fd5b6040518061012001604052808481526020013373ffffffffffffffffffffffffffffffffffffffff168152602001600115158152602001600015158152602001828152602001838152602001600073ffffffffffffffffffffffffffffffffffffffff1681526020016000815260200160011515815250600f60008581526020019081526020016000206000820151816000015560208201518160010160006101000a81548173ffffffffffffffffffffffffffffffffffffffff021916908373ffffffffffffffffffffffffffffffffffffffff16021790555060408201518160010160146101000a81548160ff02191690831515021790555060608201518160010160156101000a81548160ff0219169083151502179055506080820151816002015560a0820151816003015560c08201518160040160006101000a81548173ffffffffffffffffffffffffffffffffffffffff021916908373ffffffffffffffffffffffffffffffffffffffff16021790555060e082015181600501556101008201518160060160006101000a81548160ff0219169083151502179055509050507fc087c4cdb16906b5ff7016a6bf927618f24ff32eb1de5e86eeaeb08b94831a6833836040516114c69291906153c8565b60405180910390a1505050565b600b5481565b600061150982604051806060016040528060298152602001615bf16029913960026135249092919063ffffffff16565b9050919050565b606060098054600181600116156101000203166002900480601f0160208091040260200160405190810160405280929190818152602001828054600181600116156101000203166002900480156115a85780601f1061157d576101008083540402835291602001916115a8565b820191906000526020600020905b81548152906001019060200180831161158b57829003601f168201915b5050505050905090565b6000806011600085815260200190815260200160002090508073__IterableMapping_______________________63732a2ccf9091856040518363ffffffff1660e01b8152600401611605929190615882565b60206040518083038186803b15801561161d57600080fd5b505af4158015611631573d6000803e3d6000fd5b505050506040513d601f19601f820116820180604052508101906116559190614620565b91505092915050565b60008073ffffffffffffffffffffffffffffffffffffffff168273ffffffffffffffffffffffffffffffffffffffff1614156116cf576040517f08c379a00000000000000000000000000000000000000000000000000000000081526004016116c69061562e565b60405180910390fd5b611716600160008473ffffffffffffffffffffffffffffffffffffffff1673ffffffffffffffffffffffffffffffffffffffff168152602001908152602001600020613543565b9050919050565b611725613113565b73ffffffffffffffffffffffffffffffffffffffff166117436119bc565b73ffffffffffffffffffffffffffffffffffffffff1614611799576040517f08c379a0000000000000000000000000000000000000000000000000000000008152600401611790906156ee565b60405180910390fd5b600073ffffffffffffffffffffffffffffffffffffffff16600a60009054906101000a900473ffffffffffffffffffffffffffffffffffffffff1673ffffffffffffffffffffffffffffffffffffffff167f8be0079c531659141344cd1fd0a4f28419497f9722a3daafe3b4186f6b6457e060405160405180910390a36000600a60006101000a81548173ffffffffffffffffffffffffffffffffffffffff021916908373ffffffffffffffffffffffffffffffffffffffff160217905550565b6000611865826114d9565b9050919050565b611874613113565b73ffffffffffffffffffffffffffffffffffffffff166118926119bc565b73ffffffffffffffffffffffffffffffffffffffff16146118e8576040517f08c379a00000000000000000000000000000000000000000000000000000000081526004016118df906156ee565b60405180910390fd5b604051806060016040528083815260200182815260200160011515815250600d6000600b5481526020019081526020016000206000820151816000019080519060200190611937929190614130565b506020820151816001019080519060200190611954929190614130565b5060408201518160020160006101000a81548160ff021916908315150217905550905050671bc16d674ec80000600e6000600b548152602001908152602001600020819055506119a633600b54613558565b600b600081548092919060010191905055505050565b6000600a60009054906101000a900473ffffffffffffffffffffffffffffffffffffffff16905090565b606060078054600181600116156101000203166002900480601f016020809104026020016040519081016040528092919081815260200182805460018160011615610100020316600290048015611a7e5780601f10611a5357610100808354040283529160200191611a7e565b820191906000526020600020905b815481529060010190602001808311611a6157829003601f168201915b5050505050905090565b611a906140b2565b611a9982612fa3565b9050806101000151611ae0576040517f08c379a0000000000000000000000000000000000000000000000000000000008152600401611ad7906156ae565b60405180910390fd5b600e6000838152602001908152602001600020543411611b35576040517f08c379a0000000000000000000000000000000000000000000000000000000008152600401611b2c906155ee565b60405180910390fd5b8060e001513411611b7b576040517f08c379a0000000000000000000000000000000000000000000000000000000008152600401611b72906157ee565b60405180910390fd5b348160e0018181525050338160c0019073ffffffffffffffffffffffffffffffffffffffff16908173ffffffffffffffffffffffffffffffffffffffff168152505080600f60008481526020019081526020016000206000820151816000015560208201518160010160006101000a81548173ffffffffffffffffffffffffffffffffffffffff021916908373ffffffffffffffffffffffffffffffffffffffff16021790555060408201518160010160146101000a81548160ff02191690831515021790555060608201518160010160156101000a81548160ff0219169083151502179055506080820151816002015560a0820151816003015560c08201518160040160006101000a81548173ffffffffffffffffffffffffffffffffffffffff021916908373ffffffffffffffffffffffffffffffffffffffff16021790555060e082015181600501556101008201518160060160006101000a81548160ff02191690831515021790555090505060006011600084815260200190815260200160002090508073__IterableMapping_______________________63bc2b405c909133346040518463ffffffff1660e01b8152600401611d3f939291906158ab565b60006040518083038186803b158015611d5757600080fd5b505af4158015611d6b573d6000803e3d6000fd5b505050507fde11ebd9a4f52f9d475e408266bfa5a8a50ebd212fd91bc37f6b438b7aaa6ad53334604051611da09291906153c8565b60405180910390a160405180608001604052808481526020013373ffffffffffffffffffffffffffffffffffffffff1681526020013481526020014281525060106000600c5481526020019081526020016000206000820151816000015560208201518160010160006101000a81548173ffffffffffffffffffffffffffffffffffffffff021916908373ffffffffffffffffffffffffffffffffffffffff1602179055506040820151816002015560608201518160030155905050600c60008154809291906001019190505550505050565b611e7b613113565b73ffffffffffffffffffffffffffffffffffffffff168273ffffffffffffffffffffffffffffffffffffffff161415611ee9576040517f08c379a0000000000000000000000000000000000000000000000000000000008152600401611ee09061556e565b60405180910390fd5b8060056000611ef6613113565b73ffffffffffffffffffffffffffffffffffffffff1673ffffffffffffffffffffffffffffffffffffffff16815260200190815260200160002060008473ffffffffffffffffffffffffffffffffffffffff1673ffffffffffffffffffffffffffffffffffffffff16815260200190815260200160002060006101000a81548160ff0219169083151502179055508173ffffffffffffffffffffffffffffffffffffffff16611fa3613113565b73ffffffffffffffffffffffffffffffffffffffff167f17307eab39ab6107e8899845ad3d59bd9653f200f220920489ca2b5937696c3183604051611fe89190615451565b60405180910390a35050565b611ffc6141b0565b60106000838152602001908152602001600020604051806080016040529081600082015481526020016001820160009054906101000a900473ffffffffffffffffffffffffffffffffffffffff1673ffffffffffffffffffffffffffffffffffffffff1673ffffffffffffffffffffffffffffffffffffffff168152602001600282015481526020016003820154815250509050919050565b6000600e6000838152602001908152602001600020549050919050565b6120c36120bd613113565b836131e9565b612102576040517f08c379a00000000000000000000000000000000000000000000000000000000081526004016120f99061576e565b60405180910390fd5b61210e84848484613576565b50505050565b61211c6140b2565b61212582612fa3565b905080610100015161216c576040517f08c379a0000000000000000000000000000000000000000000000000000000008152600401612163906156ae565b60405180910390fd5b80608001514210156121b3576040517f08c379a00000000000000000000000000000000000000000000000000000000081526004016121aa906157ae565b60405180910390fd5b8060600151156121f8576040517f08c379a00000000000000000000000000000000000000000000000000000000081526004016121ef906157ce565b60405180910390fd5b600060116000848152602001908152602001600020905060008260e0015114156123b2576001826060019015159081151581525050600082604001901515908115158152505081600f60008581526020019081526020016000206000820151816000015560208201518160010160006101000a81548173ffffffffffffffffffffffffffffffffffffffff021916908373ffffffffffffffffffffffffffffffffffffffff16021790555060408201518160010160146101000a81548160ff02191690831515021790555060608201518160010160156101000a81548160ff0219169083151502179055506080820151816002015560a0820151816003015560c08201518160040160006101000a81548173ffffffffffffffffffffffffffffffffffffffff021916908373ffffffffffffffffffffffffffffffffffffffff16021790555060e082015181600501556101008201518160060160006101000a81548160ff0219169083151502179055509050507fdaec4582d5d9595688c8c98545fdd1c696d41c6aeaeb636737e84ed2f5c00eda8260c001518360e001516040516123a5929190615428565b60405180910390a1612670565b60018260600190151590811515815250506000826040019015159081151581525050816020015173ffffffffffffffffffffffffffffffffffffffff166108fc8360e001519081150290604051600060405180830381858888f19350505050158015612422573d6000803e3d6000fd5b5061243682602001518360c00151856132c7565b8160c00151826020019073ffffffffffffffffffffffffffffffffffffffff16908173ffffffffffffffffffffffffffffffffffffffff168152505081600f60008581526020019081526020016000206000820151816000015560208201518160010160006101000a81548173ffffffffffffffffffffffffffffffffffffffff021916908373ffffffffffffffffffffffffffffffffffffffff16021790555060408201518160010160146101000a81548160ff02191690831515021790555060608201518160010160156101000a81548160ff0219169083151502179055506080820151816002015560a0820151816003015560c08201518160040160006101000a81548173ffffffffffffffffffffffffffffffffffffffff021916908373ffffffffffffffffffffffffffffffffffffffff16021790555060e082015181600501556101008201518160060160006101000a81548160ff0219169083151502179055509050508160e00151600e6000858152602001908152602001600020819055508073__IterableMapping_______________________63bc2b405c90918460c0015160006040518463ffffffff1660e01b81526004016125fe939291906158e2565b60006040518083038186803b15801561261657600080fd5b505af415801561262a573d6000803e3d6000fd5b505050507fdaec4582d5d9595688c8c98545fdd1c696d41c6aeaeb636737e84ed2f5c00eda8260c001518360e00151604051612667929190615428565b60405180910390a15b60005b8173__IterableMapping_______________________63deb3d89690916040518263ffffffff1660e01b81526004016126ac9190615867565b60206040518083038186803b1580156126c457600080fd5b505af41580156126d8573d6000803e3d6000fd5b505050506040513d601f19601f820116820180604052508101906126fc9190614620565b8110156128385760008273__IterableMapping_______________________63d1aa9e7e9091846040518363ffffffff1660e01b8152600401612740929190615919565b60206040518083038186803b15801561275857600080fd5b505af415801561276c573d6000803e3d6000fd5b505050506040513d601f19601f820116820180604052508101906127909190614392565b9050600061279e86836115b2565b90506000811115612829578173ffffffffffffffffffffffffffffffffffffffff166108fc829081150290604051600060405180830381858888f193505050501580156127ef573d6000803e3d6000fd5b507e363fe256a1f2c23b39e0cfe65d691c725e83e534d368d718337b9d46b705ae8282604051612820929190615428565b60405180910390a15b50508080600101915050612673565b50505050565b6128466141ee565b600d6000838152602001908152602001600020604051806060016040529081600082018054600181600116156101000203166002900480601f0160208091040260200160405190810160405280929190818152602001828054600181600116156101000203166002900480156128fd5780601f106128d2576101008083540402835291602001916128fd565b820191906000526020600020905b8154815290600101906020018083116128e057829003601f168201915b50505050508152602001600182018054600181600116156101000203166002900480601f01602080910402602001604051908101604052809291908181526020018280546001816001161561010002031660029004801561299f5780601f106129745761010080835404028352916020019161299f565b820191906000526020600020905b81548152906001019060200180831161298257829003601f168201915b505050505081526020016002820160009054906101000a900460ff1615151515815250509050919050565b60606129d5826130f6565b612a14576040517f08c379a0000000000000000000000000000000000000000000000000000000008152600401612a0b9061572e565b60405180910390fd5b6060600860008481526020019081526020016000208054600181600116156101000203166002900480601f016020809104026020016040519081016040528092919081815260200182805460018160011615610100020316600290048015612abd5780601f10612a9257610100808354040283529160200191612abd565b820191906000526020600020905b815481529060010190602001808311612aa057829003601f168201915b505050505090506060612ace611510565b9050600081511415612ae4578192505050612b48565b600082511115612b19578082604051602001612b0192919061533d565b60405160208183030381529060405292505050612b48565b80612b23856135d2565b604051602001612b3492919061533d565b604051602081830303815290604052925050505b919050565b6000600e600083815260200190815260200160002054905060008111612ba8576040517f08c379a0000000000000000000000000000000000000000000000000000000008152600401612b9f906154ee565b60405180910390fd5b803414612bea576040517f08c379a0000000000000000000000000000000000000000000000000000000008152600401612be1906156ce565b60405180910390fd5b6000612bf5836114d9565b9050612c028133856132c7565b6000600e6000858152602001908152602001600020819055508073ffffffffffffffffffffffffffffffffffffffff166108fc349081150290604051600060405180830381858888f19350505050158015612c61573d6000803e3d6000fd5b507f608f6ac9327c2bf4d3c77adf447d2c448ba7b0971e0aaa9aa03f7ac29d874a44813334604051612c95939291906153f1565b60405180910390a1505050565b6000600560008473ffffffffffffffffffffffffffffffffffffffff1673ffffffffffffffffffffffffffffffffffffffff16815260200190815260200160002060008373ffffffffffffffffffffffffffffffffffffffff1673ffffffffffffffffffffffffffffffffffffffff16815260200190815260200160002060009054906101000a900460ff16905092915050565b6000806011600084815260200190815260200160002090508073__IterableMapping_______________________63deb3d89690916040518263ffffffff1660e01b8152600401612d879190615867565b60206040518083038186803b158015612d9f57600080fd5b505af4158015612db3573d6000803e3d6000fd5b505050506040513d601f19601f82011682018060405250810190612dd79190614620565b915050919050565b612de7613113565b73ffffffffffffffffffffffffffffffffffffffff16612e056119bc565b73ffffffffffffffffffffffffffffffffffffffff1614612e5b576040517f08c379a0000000000000000000000000000000000000000000000000000000008152600401612e52906156ee565b60405180910390fd5b600073ffffffffffffffffffffffffffffffffffffffff168173ffffffffffffffffffffffffffffffffffffffff161415612ecb576040517f08c379a0000000000000000000000000000000000000000000000000000000008152600401612ec29061550e565b60405180910390fd5b8073ffffffffffffffffffffffffffffffffffffffff16600a60009054906101000a900473ffffffffffffffffffffffffffffffffffffffff1673ffffffffffffffffffffffffffffffffffffffff167f8be0079c531659141344cd1fd0a4f28419497f9722a3daafe3b4186f6b6457e060405160405180910390a380600a60006101000a81548173ffffffffffffffffffffffffffffffffffffffff021916908373ffffffffffffffffffffffffffffffffffffffff16021790555050565b600e6020528060005260406000206000915090505481565b612fab6140b2565b600f600083815260200190815260200160002060405180610120016040529081600082015481526020016001820160009054906101000a900473ffffffffffffffffffffffffffffffffffffffff1673ffffffffffffffffffffffffffffffffffffffff1673ffffffffffffffffffffffffffffffffffffffff1681526020016001820160149054906101000a900460ff161515151581526020016001820160159054906101000a900460ff1615151515815260200160028201548152602001600382015481526020016004820160009054906101000a900473ffffffffffffffffffffffffffffffffffffffff1673ffffffffffffffffffffffffffffffffffffffff1673ffffffffffffffffffffffffffffffffffffffff168152602001600582015481526020016006820160009054906101000a900460ff1615151515815250509050919050565b600061310c82600261371990919063ffffffff16565b9050919050565b600033905090565b816004600083815260200190815260200160002060006101000a81548173ffffffffffffffffffffffffffffffffffffffff021916908373ffffffffffffffffffffffffffffffffffffffff160217905550808273ffffffffffffffffffffffffffffffffffffffff1661318e836114d9565b73ffffffffffffffffffffffffffffffffffffffff167f8c5be1e5ebec7d5bd14f71427d1e84f3dd0314c0f7b2291e5b200ac8c7c3b92560405160405180910390a45050565b60006131e282600001613733565b9050919050565b60006131f4826130f6565b613233576040517f08c379a000000000000000000000000000000000000000000000000000000000815260040161322a906155ae565b60405180910390fd5b600061323e836114d9565b90508073ffffffffffffffffffffffffffffffffffffffff168473ffffffffffffffffffffffffffffffffffffffff1614806132ad57508373ffffffffffffffffffffffffffffffffffffffff1661329584610a25565b73ffffffffffffffffffffffffffffffffffffffff16145b806132be57506132bd8185612ca2565b5b91505092915050565b8273ffffffffffffffffffffffffffffffffffffffff166132e7826114d9565b73ffffffffffffffffffffffffffffffffffffffff161461333d576040517f08c379a00000000000000000000000000000000000000000000000000000000081526004016133349061570e565b60405180910390fd5b600073ffffffffffffffffffffffffffffffffffffffff168273ffffffffffffffffffffffffffffffffffffffff1614156133ad576040517f08c379a00000000000000000000000000000000000000000000000000000000081526004016133a49061554e565b60405180910390fd5b6133b8838383613744565b6133c360008261311b565b61341481600160008673ffffffffffffffffffffffffffffffffffffffff1673ffffffffffffffffffffffffffffffffffffffff16815260200190815260200160002061374990919063ffffffff16565b5061346681600160008573ffffffffffffffffffffffffffffffffffffffff1673ffffffffffffffffffffffffffffffffffffffff16815260200190815260200160002061376390919063ffffffff16565b5061347d8183600261377d9092919063ffffffff16565b50808273ffffffffffffffffffffffffffffffffffffffff168473ffffffffffffffffffffffffffffffffffffffff167fddf252ad1be2c89b69c2b068fc378daa952ba7f163c4a11628f55a4df523b3ef60405160405180910390a4505050565b60006134ed83600001836137b2565b60001c905092915050565b60008060008061350b866000018661381f565b915091508160001c8160001c9350935050509250929050565b6000613537846000018460001b846138a2565b60001c90509392505050565b600061355182600001613933565b9050919050565b613572828260405180602001604052806000815250613944565b5050565b6135818484846132c7565b61358d8484848461399f565b6135cc576040517f08c379a00000000000000000000000000000000000000000000000000000000081526004016135c3906154ce565b60405180910390fd5b50505050565b6060600082141561361a576040518060400160405280600181526020017f30000000000000000000000000000000000000000000000000000000000000008152509050613714565b600082905060005b60008214613644578080600101915050600a828161363c57fe5b049150613622565b60608167ffffffffffffffff8111801561365d57600080fd5b506040519080825280601f01601f1916602001820160405280156136905781602001600182028036833780820191505090505b50905060006001830390508593505b6000841461370c57600a84816136b157fe5b0660300160f81b828280600190039350815181106136cb57fe5b60200101907effffffffffffffffffffffffffffffffffffffffffffffffffffffffffffff1916908160001a905350600a848161370457fe5b04935061369f565b819450505050505b919050565b600061372b836000018360001b613b03565b905092915050565b600081600001805490509050919050565b505050565b600061375b836000018360001b613b26565b905092915050565b6000613775836000018360001b613c0e565b905092915050565b60006137a9846000018460001b8473ffffffffffffffffffffffffffffffffffffffff1660001b613c7e565b90509392505050565b6000818360000180549050116137fd576040517f08c379a00000000000000000000000000000000000000000000000000000000081526004016137f4906154ae565b60405180910390fd5b82600001828154811061380c57fe5b9060005260206000200154905092915050565b6000808284600001805490501161386b576040517f08c379a00000000000000000000000000000000000000000000000000000000081526004016138629061564e565b60405180910390fd5b600084600001848154811061387c57fe5b906000526020600020906002020190508060000154816001015492509250509250929050565b60008084600101600085815260200190815260200160002054905060008114158390613904576040517f08c379a00000000000000000000000000000000000000000000000000000000081526004016138fb919061546c565b60405180910390fd5b5084600001600182038154811061391757fe5b9060005260206000209060020201600101549150509392505050565b600081600001805490509050919050565b61394e8383613d5a565b61395b600084848461399f565b61399a576040517f08c379a0000000000000000000000000000000000000000000000000000000008152600401613991906154ce565b60405180910390fd5b505050565b60006139c08473ffffffffffffffffffffffffffffffffffffffff16613ee8565b6139cd5760019050613afb565b6060613a9463150b7a0260e01b6139e2613113565b8887876040516024016139f8949392919061537c565b604051602081830303815290604052907bffffffffffffffffffffffffffffffffffffffffffffffffffffffff19166020820180517bffffffffffffffffffffffffffffffffffffffffffffffffffffffff8381831617835250505050604051806060016040528060328152602001615bbf603291398773ffffffffffffffffffffffffffffffffffffffff16613efb9092919063ffffffff16565b9050600081806020019051810190613aac9190614562565b905063150b7a0260e01b7bffffffffffffffffffffffffffffffffffffffffffffffffffffffff1916817bffffffffffffffffffffffffffffffffffffffffffffffffffffffff191614925050505b949350505050565b600080836001016000848152602001908152602001600020541415905092915050565b60008083600101600084815260200190815260200160002054905060008114613c025760006001820390506000600186600001805490500390506000866000018281548110613b7157fe5b9060005260206000200154905080876000018481548110613b8e57fe5b9060005260206000200181905550600183018760010160008381526020019081526020016000208190555086600001805480613bc657fe5b60019003818190600052602060002001600090559055866001016000878152602001908152602001600020600090556001945050505050613c08565b60009150505b92915050565b6000613c1a8383613f13565b613c73578260000182908060018154018082558091505060019003906000526020600020016000909190919091505582600001805490508360010160008481526020019081526020016000208190555060019050613c78565b600090505b92915050565b6000808460010160008581526020019081526020016000205490506000811415613d2557846000016040518060400160405280868152602001858152509080600181540180825580915050600190039060005260206000209060020201600090919091909150600082015181600001556020820151816001015550508460000180549050856001016000868152602001908152602001600020819055506001915050613d53565b82856000016001830381548110613d3857fe5b90600052602060002090600202016001018190555060009150505b9392505050565b600073ffffffffffffffffffffffffffffffffffffffff168273ffffffffffffffffffffffffffffffffffffffff161415613dca576040517f08c379a0000000000000000000000000000000000000000000000000000000008152600401613dc19061566e565b60405180910390fd5b613dd3816130f6565b15613e13576040517f08c379a0000000000000000000000000000000000000000000000000000000008152600401613e0a9061552e565b60405180910390fd5b613e1f60008383613744565b613e7081600160008573ffffffffffffffffffffffffffffffffffffffff1673ffffffffffffffffffffffffffffffffffffffff16815260200190815260200160002061376390919063ffffffff16565b50613e878183600261377d9092919063ffffffff16565b50808273ffffffffffffffffffffffffffffffffffffffff16600073ffffffffffffffffffffffffffffffffffffffff167fddf252ad1be2c89b69c2b068fc378daa952ba7f163c4a11628f55a4df523b3ef60405160405180910390a45050565b600080823b905060008111915050919050565b6060613f0a8484600085613f36565b90509392505050565b600080836001016000848152602001908152602001600020541415905092915050565b606082471015613f7b576040517f08c379a0000000000000000000000000000000000000000000000000000000008152600401613f729061558e565b60405180910390fd5b613f8485613ee8565b613fc3576040517f08c379a0000000000000000000000000000000000000000000000000000000008152600401613fba9061578e565b60405180910390fd5b600060608673ffffffffffffffffffffffffffffffffffffffff168587604051613fed9190615326565b60006040518083038185875af1925050503d806000811461402a576040519150601f19603f3d011682016040523d82523d6000602084013e61402f565b606091505b509150915061403f82828661404b565b92505050949350505050565b6060831561405b578290506140ab565b60008351111561406e5782518084602001fd5b816040517f08c379a00000000000000000000000000000000000000000000000000000000081526004016140a2919061546c565b60405180910390fd5b9392505050565b60405180610120016040528060008152602001600073ffffffffffffffffffffffffffffffffffffffff1681526020016000151581526020016000151581526020016000815260200160008152602001600073ffffffffffffffffffffffffffffffffffffffff168152602001600081526020016000151581525090565b828054600181600116156101000203166002900490600052602060002090601f016020900481019282601f1061417157805160ff191683800117855561419f565b8280016001018555821561419f579182015b8281111561419e578251825591602001919060010190614183565b5b5090506141ac9190614211565b5090565b604051806080016040528060008152602001600073ffffffffffffffffffffffffffffffffffffffff16815260200160008152602001600081525090565b604051806060016040528060608152602001606081526020016000151581525090565b5b8082111561422a576000816000905550600101614212565b5090565b60008135905061423d81615b62565b92915050565b60008151905061425281615b62565b92915050565b60008135905061426781615b79565b92915050565b60008135905061427c81615b90565b92915050565b60008151905061429181615b90565b92915050565b600082601f8301126142a857600080fd5b81356142bb6142b68261598a565b61595d565b915080825260208301602083018583830111156142d757600080fd5b6142e2838284615b0f565b50505092915050565b600082601f8301126142fc57600080fd5b813561430f61430a826159b6565b61595d565b9150808252602083016020830185838301111561432b57600080fd5b614336838284615b0f565b50505092915050565b60008135905061434e81615ba7565b92915050565b60008151905061436381615ba7565b92915050565b60006020828403121561437b57600080fd5b60006143898482850161422e565b91505092915050565b6000602082840312156143a457600080fd5b60006143b284828501614243565b91505092915050565b600080604083850312156143ce57600080fd5b60006143dc8582860161422e565b92505060206143ed8582860161422e565b9150509250929050565b60008060006060848603121561440c57600080fd5b600061441a8682870161422e565b935050602061442b8682870161422e565b925050604061443c8682870161433f565b9150509250925092565b6000806000806080858703121561445c57600080fd5b600061446a8782880161422e565b945050602061447b8782880161422e565b935050604061448c8782880161433f565b925050606085013567ffffffffffffffff8111156144a957600080fd5b6144b587828801614297565b91505092959194509250565b600080604083850312156144d457600080fd5b60006144e28582860161422e565b92505060206144f385828601614258565b9150509250929050565b6000806040838503121561451057600080fd5b600061451e8582860161422e565b925050602061452f8582860161433f565b9150509250929050565b60006020828403121561454b57600080fd5b60006145598482850161426d565b91505092915050565b60006020828403121561457457600080fd5b600061458284828501614282565b91505092915050565b6000806040838503121561459e57600080fd5b600083013567ffffffffffffffff8111156145b857600080fd5b6145c4858286016142eb565b925050602083013567ffffffffffffffff8111156145e157600080fd5b6145ed858286016142eb565b9150509250929050565b60006020828403121561460957600080fd5b60006146178482850161433f565b91505092915050565b60006020828403121561463257600080fd5b600061464084828501614354565b91505092915050565b6000806040838503121561465c57600080fd5b600061466a8582860161433f565b925050602061467b8582860161422e565b9150509250929050565b6000806040838503121561469857600080fd5b60006146a68582860161433f565b92505060206146b78582860161433f565b9150509250929050565b6146ca81615ac7565b82525050565b6146d981615ac7565b82525050565b6146e881615a53565b82525050565b6146f781615a41565b82525050565b61470681615a41565b82525050565b61471581615a41565b82525050565b61472481615a65565b82525050565b61473381615a65565b82525050565b6000614744826159e2565b61474e81856159f8565b935061475e818560208601615b1e565b61476781615b51565b840191505092915050565b600061477d826159e2565b6147878185615a09565b9350614797818560208601615b1e565b80840191505092915050565b6147ac81615ad9565b82525050565b60006147bd826159ed565b6147c78185615a14565b93506147d7818560208601615b1e565b6147e081615b51565b840191505092915050565b60006147f6826159ed565b6148008185615a25565b9350614810818560208601615b1e565b61481981615b51565b840191505092915050565b600061482f826159ed565b6148398185615a36565b9350614849818560208601615b1e565b80840191505092915050565b6000614862601383615a25565b91507f546f6b656e20646f65736e2774206578697374000000000000000000000000006000830152602082019050919050565b60006148a2602283615a25565b91507f456e756d657261626c655365743a20696e646578206f7574206f6620626f756e60008301527f64730000000000000000000000000000000000000000000000000000000000006020830152604082019050919050565b6000614908603283615a25565b91507f4552433732313a207472616e7366657220746f206e6f6e20455243373231526560008301527f63656976657220696d706c656d656e74657200000000000000000000000000006020830152604082019050919050565b600061496e601a83615a25565b91507f5468697320746f6b656e206973206e6f7420666f722073616c650000000000006000830152602082019050919050565b60006149ae602683615a25565b91507f4f776e61626c653a206e6577206f776e657220697320746865207a65726f206160008301527f64647265737300000000000000000000000000000000000000000000000000006020830152604082019050919050565b6000614a14601c83615a25565b91507f4552433732313a20746f6b656e20616c7265616479206d696e746564000000006000830152602082019050919050565b6000614a54602483615a25565b91507f4552433732313a207472616e7366657220746f20746865207a65726f2061646460008301527f72657373000000000000000000000000000000000000000000000000000000006020830152604082019050919050565b6000614aba601983615a25565b91507f4552433732313a20617070726f766520746f2063616c6c6572000000000000006000830152602082019050919050565b6000614afa602683615a25565b91507f416464726573733a20696e73756666696369656e742062616c616e636520666f60008301527f722063616c6c00000000000000000000000000000000000000000000000000006020830152604082019050919050565b6000614b60602c83615a25565b91507f4552433732313a206f70657261746f7220717565727920666f72206e6f6e657860008301527f697374656e7420746f6b656e00000000000000000000000000000000000000006020830152604082019050919050565b6000614bc6602c83615a25565b91507f43616e6e6f742073746172742061756374696f6e20666f7220746f6b656e207960008301527f6f7520646f6e2774206f776e00000000000000000000000000000000000000006020830152604082019050919050565b6000614c2c601883615a25565b91507f426964207072696365206d7573742062652068696768657200000000000000006000830152602082019050919050565b6000614c6c603883615a25565b91507f4552433732313a20617070726f76652063616c6c6572206973206e6f74206f7760008301527f6e6572206e6f7220617070726f76656420666f7220616c6c00000000000000006020830152604082019050919050565b6000614cd2602a83615a25565b91507f4552433732313a2062616c616e636520717565727920666f7220746865207a6560008301527f726f2061646472657373000000000000000000000000000000000000000000006020830152604082019050919050565b6000614d38602283615a25565b91507f456e756d657261626c654d61703a20696e646578206f7574206f6620626f756e60008301527f64730000000000000000000000000000000000000000000000000000000000006020830152604082019050919050565b6000614d9e602083615a25565b91507f4552433732313a206d696e7420746f20746865207a65726f20616464726573736000830152602082019050919050565b6000614dde602c83615a25565b91507f4552433732313a20617070726f76656420717565727920666f72206e6f6e657860008301527f697374656e7420746f6b656e00000000000000000000000000000000000000006020830152604082019050919050565b6000614e44601583615a25565b91507f41756374696f6e20646f65736e277420657869737400000000000000000000006000830152602082019050919050565b6000614e84600f83615a25565b91507f496e636f72726563742076616c756500000000000000000000000000000000006000830152602082019050919050565b6000614ec4602083615a25565b91507f4f776e61626c653a2063616c6c6572206973206e6f7420746865206f776e65726000830152602082019050919050565b6000614f04602983615a25565b91507f4552433732313a207472616e73666572206f6620746f6b656e2074686174206960008301527f73206e6f74206f776e00000000000000000000000000000000000000000000006020830152604082019050919050565b6000614f6a602f83615a25565b91507f4552433732314d657461646174613a2055524920717565727920666f72206e6f60008301527f6e6578697374656e7420746f6b656e00000000000000000000000000000000006020830152604082019050919050565b6000614fd0602183615a25565b91507f4552433732313a20617070726f76616c20746f2063757272656e74206f776e6560008301527f72000000000000000000000000000000000000000000000000000000000000006020830152604082019050919050565b6000615036603183615a25565b91507f4552433732313a207472616e736665722063616c6c6572206973206e6f74206f60008301527f776e6572206e6f7220617070726f7665640000000000000000000000000000006020830152604082019050919050565b600061509c601d83615a25565b91507f416464726573733a2063616c6c20746f206e6f6e2d636f6e74726163740000006000830152602082019050919050565b60006150dc601d83615a25565b91507f5468652061756374696f6e20686173206e6f7420656e646564207965740000006000830152602082019050919050565b600061511c601583615a25565b91507f5468652061756374696f6e2068617320656e64656400000000000000000000006000830152602082019050919050565b600061515c601183615a25565b91507f48696768657220626964206578697374730000000000000000000000000000006000830152602082019050919050565b610120820160008201516151a660008501826152f9565b5060208201516151b960208501826146ee565b5060408201516151cc604085018261471b565b5060608201516151df606085018261471b565b5060808201516151f260808501826152f9565b5060a082015161520560a08501826152f9565b5060c082015161521860c08501826146ee565b5060e082015161522b60e08501826152f9565b5061010082015161524061010085018261471b565b50505050565b60808201600082015161525c60008501826152f9565b50602082015161526f60208501826146ee565b50604082015161528260408501826152f9565b50606082015161529560608501826152f9565b50505050565b600060608301600083015184820360008601526152b882826147b2565b915050602083015184820360208601526152d282826147b2565b91505060408301516152e7604086018261471b565b508091505092915050565b8082525050565b61530281615abd565b82525050565b61531181615abd565b82525050565b61532081615abd565b82525050565b60006153328284614772565b915081905092915050565b60006153498285614824565b91506153558284614824565b91508190509392505050565b600060208201905061537660008301846146fd565b92915050565b600060808201905061539160008301876146df565b61539e60208301866146fd565b6153ab6040830185615308565b81810360608301526153bd8184614739565b905095945050505050565b60006040820190506153dd60008301856146c1565b6153ea6020830184615308565b9392505050565b600060608201905061540660008301866146fd565b61541360208301856146c1565b6154206040830184615308565b949350505050565b600060408201905061543d60008301856146fd565b61544a6020830184615308565b9392505050565b6000602082019050615466600083018461472a565b92915050565b6000602082019050818103600083015261548681846147eb565b905092915050565b600060208201905081810360008301526154a781614855565b9050919050565b600060208201905081810360008301526154c781614895565b9050919050565b600060208201905081810360008301526154e7816148fb565b9050919050565b6000602082019050818103600083015261550781614961565b9050919050565b60006020820190508181036000830152615527816149a1565b9050919050565b6000602082019050818103600083015261554781614a07565b9050919050565b6000602082019050818103600083015261556781614a47565b9050919050565b6000602082019050818103600083015261558781614aad565b9050919050565b600060208201905081810360008301526155a781614aed565b9050919050565b600060208201905081810360008301526155c781614b53565b9050919050565b600060208201905081810360008301526155e781614bb9565b9050919050565b6000602082019050818103600083015261560781614c1f565b9050919050565b6000602082019050818103600083015261562781614c5f565b9050919050565b6000602082019050818103600083015261564781614cc5565b9050919050565b6000602082019050818103600083015261566781614d2b565b9050919050565b6000602082019050818103600083015261568781614d91565b9050919050565b600060208201905081810360008301526156a781614dd1565b9050919050565b600060208201905081810360008301526156c781614e37565b9050919050565b600060208201905081810360008301526156e781614e77565b9050919050565b6000602082019050818103600083015261570781614eb7565b9050919050565b6000602082019050818103600083015261572781614ef7565b9050919050565b6000602082019050818103600083015261574781614f5d565b9050919050565b6000602082019050818103600083015261576781614fc3565b9050919050565b6000602082019050818103600083015261578781615029565b9050919050565b600060208201905081810360008301526157a78161508f565b9050919050565b600060208201905081810360008301526157c7816150cf565b9050919050565b600060208201905081810360008301526157e78161510f565b9050919050565b600060208201905081810360008301526158078161514f565b9050919050565b600061012082019050615824600083018461518f565b92915050565b600060808201905061583f6000830184615246565b92915050565b6000602082019050818103600083015261585f818461529b565b905092915050565b600060208201905061587c60008301846152f2565b92915050565b600060408201905061589760008301856152f2565b6158a4602083018461470c565b9392505050565b60006060820190506158c060008301866152f2565b6158cd60208301856146d0565b6158da6040830184615317565b949350505050565b60006060820190506158f760008301866152f2565b615904602083018561470c565b61591160408301846147a3565b949350505050565b600060408201905061592e60008301856152f2565b61593b6020830184615317565b9392505050565b60006020820190506159576000830184615308565b92915050565b6000604051905081810181811067ffffffffffffffff8211171561598057600080fd5b8060405250919050565b600067ffffffffffffffff8211156159a157600080fd5b601f19601f8301169050602081019050919050565b600067ffffffffffffffff8211156159cd57600080fd5b601f19601f8301169050602081019050919050565b600081519050919050565b600081519050919050565b600082825260208201905092915050565b600081905092915050565b600082825260208201905092915050565b600082825260208201905092915050565b600081905092915050565b6000615a4c82615a9d565b9050919050565b6000615a5e82615a9d565b9050919050565b60008115159050919050565b60007fffffffff0000000000000000000000000000000000000000000000000000000082169050919050565b600073ffffffffffffffffffffffffffffffffffffffff82169050919050565b6000819050919050565b6000615ad282615aeb565b9050919050565b6000615ae482615abd565b9050919050565b6000615af682615afd565b9050919050565b6000615b0882615a9d565b9050919050565b82818337600083830152505050565b60005b83811015615b3c578082015181840152602081019050615b21565b83811115615b4b576000848401525b50505050565b6000601f19601f8301169050919050565b615b6b81615a41565b8114615b7657600080fd5b50565b615b8281615a65565b8114615b8d57600080fd5b50565b615b9981615a71565b8114615ba457600080fd5b50565b615bb081615abd565b8114615bbb57600080fd5b5056fe4552433732313a207472616e7366657220746f206e6f6e20455243373231526563656976657220696d706c656d656e7465724552433732313a206f776e657220717565727920666f72206e6f6e6578697374656e7420746f6b656ea26469706673582212200649dba20eb1adb72ba589b218876acbce52f8a52185ccc2e3841afb6091b9ff64736f6c634300060c0033",
  "immutableReferences": {},
  "source": "pragma solidity >=0.4.22 <0.8.0;\r\npragma experimental ABIEncoderV2;\r\n\r\nimport \"@openzeppelin/contracts/token/ERC721/ERC721.sol\";\r\nimport \"@openzeppelin/contracts/access/Ownable.sol\";\r\n\r\nlibrary IterableMapping {\r\n    // Iterable mapping from address to uint;\r\n    struct Map {\r\n        address[] keys;\r\n        mapping(address => uint) values;\r\n        mapping(address => uint) indexOf;\r\n        mapping(address => bool) inserted;\r\n    }\r\n\r\n    function get(Map storage map, address key) public view returns (uint) {\r\n        return map.values[key];\r\n    }\r\n\r\n    function getKeyAtIndex(Map storage map, uint index) public view returns (address) {\r\n        return map.keys[index];\r\n    }\r\n\r\n    function size(Map storage map) public view returns (uint) {\r\n        return map.keys.length;\r\n    }\r\n\r\n    function set(Map storage map, address key, uint val) public {\r\n        if (map.inserted[key]) {\r\n            map.values[key] = val;\r\n        } else {\r\n            map.inserted[key] = true;\r\n            map.values[key] = val;\r\n            map.indexOf[key] = map.keys.length;\r\n            map.keys.push(key);\r\n        }\r\n    }\r\n\r\n    function remove(Map storage map, address key) public {\r\n        if (!map.inserted[key]) {\r\n            return;\r\n        }\r\n\r\n        delete map.inserted[key];\r\n        delete map.values[key];\r\n\r\n        uint index = map.indexOf[key];\r\n        uint lastIndex = map.keys.length - 1;\r\n        address lastKey = map.keys[lastIndex];\r\n\r\n        map.indexOf[lastKey] = index;\r\n        delete map.indexOf[key];\r\n\r\n        map.keys[index] = lastKey;\r\n        map.keys.pop();\r\n    }\r\n}\r\n\r\ncontract WorldNFT is ERC721, Ownable {\r\n\tusing IterableMapping for IterableMapping.Map;\r\n\tconstructor() ERC721(\"WorldNFT\", \"WNFT\") public {\r\n\r\n\t}\r\n\r\n\tstruct Location {\r\n\t\tstring location_name;\r\n\t\tstring svg_image;\r\n\t\tbool isExist;\r\n\t}\r\n\tstruct Auction {\r\n\t    uint256 tokenId;\r\n\t    address beneficiary;\r\n\t    bool auctionGoingOn;\r\n\t\tbool auctionEnded;\r\n\t    uint auctionEndTime;\r\n\t\tuint biddingTime;\r\n\t    address highestBidder;\r\n\t    uint highestBid;\r\n\t    bool isExist;\r\n\t}\r\n\tstruct Bid {\r\n\t\tuint256 tokenId;\r\n\t\taddress bidder;\r\n\t\tuint bidValue;\r\n\t\tuint timeBid;\r\n\t}\r\n\r\n\tuint public nextId = 0;\r\n\tuint public acceptedBidsIdx = 0;\r\n\r\n\tevent NftBought(address _seller, address _buyer, uint256 _price);\r\n\tevent AuctionStarted(address ownerAddress, uint _biddingTime);\r\n\tevent BidIncrease(address bidAddress, uint256 bidValue);\r\n\tevent AuctionEnded(address bidAddress, uint256 bidValue);\r\n\tevent BidRejected(address bidAddress, uint256 bidValue);\r\n\tevent BidWithdrawn(address bidAddress, uint256 bidValue);\r\n\r\n\tmapping(uint256 => Location) private _locationDetails;\r\n\tmapping(uint256 => uint256) public tokenIdToPrice;\r\n\tmapping(uint256 => Auction) private _auctions;\r\n\tmapping(uint256 => Bid) private _biddingLogs;\r\n\r\n\t// IterableMapping.Map private _pendingReturns;\r\n\tmapping(uint256 => IterableMapping.Map) private _tokenPendingReturns;\r\n\r\n\tfunction getTokenDetails(uint256 tokenId) public view returns (Location memory) {\r\n\t\treturn _locationDetails[tokenId];\r\n\t}\r\n\r\n\tfunction getPriceOf(uint256 tokenId) public view returns (uint256) {\r\n\t\treturn tokenIdToPrice[tokenId];\r\n\t}\r\n\r\n\tfunction getOwnerOf(uint256 tokenId) public view returns (address){\r\n\t\treturn ownerOf(tokenId);\r\n\t}\r\n\r\n\tfunction getAuctionInfo(uint256 tokenId) public view returns(Auction memory) {\r\n\t    return _auctions[tokenId];\r\n\t}\r\n\r\n\tfunction getBiddingLog(uint256 bidId) public view returns(Bid memory) {\r\n\t\treturn _biddingLogs[bidId];\r\n\t}\r\n\r\n\tfunction getPendingReturnsCount(uint tokenId) public view returns(uint) {\r\n\t    IterableMapping.Map storage pendingReturnForIdx = _tokenPendingReturns[tokenId];\r\n\t\treturn pendingReturnForIdx.size();\r\n\t}\r\n\r\n\tfunction getPendingReturnValue(uint tokenId, address addr) public view returns(uint) {\r\n\t    IterableMapping.Map storage pendingReturnForIdx = _tokenPendingReturns[tokenId];\r\n\t    return pendingReturnForIdx.get(addr);\r\n\t}\r\n\r\n\tfunction mint(string memory location_name, string memory svg_image) public onlyOwner {\r\n\t\t_locationDetails[nextId] = Location(location_name, svg_image, true);\r\n\t\ttokenIdToPrice[nextId] = 2000000000000000000; //1 ONE=1e18 wei\r\n\t\t_safeMint(msg.sender, nextId);\r\n\t\tnextId++;\r\n\t}\r\n\r\n\tfunction buy(uint256 _tokenId) external payable {\r\n\t\tuint256 price = tokenIdToPrice[_tokenId];\r\n\t\trequire(price > 0, \"This token is not for sale\");\r\n\t\trequire(msg.value == price, 'Incorrect value');\r\n\t\taddress seller = ownerOf(_tokenId);\r\n\t\t_transfer(seller, msg.sender, _tokenId);\r\n\t\ttokenIdToPrice[_tokenId] = 0;\r\n\t\tpayable(seller).transfer(msg.value);\r\n\t\temit NftBought(seller, msg.sender, msg.value);\r\n\t}\r\n\r\n\tfunction startAuction(uint256 _tokenId, uint _biddingTime) external {\r\n\t\tuint auctionEndTime = block.timestamp + _biddingTime;\r\n\t\trequire(_locationDetails[_tokenId].isExist, \"Token doesn't exist\");\r\n\t\trequire(msg.sender == ownerOf(_tokenId), \"Cannot start auction for token you don't own\");\r\n\t\tif(_auctions[_tokenId].isExist && !_auctions[_tokenId].auctionEnded) {\r\n\t\t\trevert (\"The auction has not ended yet\");\r\n\t\t}\r\n\t\t_auctions[_tokenId] = Auction(_tokenId,msg.sender,true,false,auctionEndTime,_biddingTime,address(0x0),0,true);\r\n\t\temit AuctionStarted(msg.sender, _biddingTime);\r\n\t}\r\n\r\n\r\n\tfunction endAuction(uint256 _tokenId) external {\r\n\t    Auction memory auc = getAuctionInfo(_tokenId);\r\n\t    require(auc.isExist, \"Auction doesn't exist\");\r\n\t    if(block.timestamp < auc.auctionEndTime) {\r\n\t        revert (\"The auction has not ended yet\");\r\n\t    }\r\n\t    if(auc.auctionEnded) {\r\n\t        revert (\"The auction has ended\");\r\n\t    }\r\n\t\tIterableMapping.Map storage pr = _tokenPendingReturns[_tokenId];\r\n\t\tif(auc.highestBid == 0) {\r\n\t\t\tauc.auctionEnded = true;\r\n\t    \tauc.auctionGoingOn = false;\r\n\t\t\t_auctions[_tokenId] = auc;\r\n\t\t\temit AuctionEnded(auc.highestBidder, auc.highestBid);\r\n\t\t} else {\r\n\t\t\tauc.auctionEnded = true;\r\n\t\t\tauc.auctionGoingOn = false;\r\n\t\t\tpayable(auc.beneficiary).transfer(auc.highestBid);\r\n\t\t\t_transfer(auc.beneficiary, auc.highestBidder, _tokenId);\r\n\t\t\tauc.beneficiary = auc.highestBidder;\r\n\t\t\t_auctions[_tokenId] = auc;\r\n\t\t\ttokenIdToPrice[_tokenId] = auc.highestBid;\r\n\t\t\tpr.set(auc.highestBidder, 0);\r\n\t\t\temit AuctionEnded(auc.highestBidder, auc.highestBid);\r\n\t\t}\r\n\t\t\r\n\t\tfor (uint i = 0; i < pr.size(); i++) {\r\n\t\t\taddress returnAddr = pr.getKeyAtIndex(i);\r\n\t\t\tuint returnVal = getPendingReturnValue(_tokenId, returnAddr);\r\n\t\t\tif(returnVal > 0) {\r\n\t\t\t\tpayable(returnAddr).transfer(returnVal);\r\n\t\t\t\temit BidRejected(returnAddr, returnVal);\r\n\t\t\t}\r\n\t\t}\r\n\t}\r\n\r\n\tfunction placeBid(uint256 _tokenId) external payable {\r\n\t\tAuction memory auc = getAuctionInfo(_tokenId);\r\n\t    require(auc.isExist, \"Auction doesn't exist\");\r\n\t\trequire(msg.value > tokenIdToPrice[_tokenId], \"Bid price must be higher\");\r\n\t\tif(msg.value <= auc.highestBid) {\r\n\t        revert(\"Higher bid exists\");\r\n\t    }\r\n\t\tauc.highestBid = msg.value;\r\n\t    auc.highestBidder = msg.sender;\r\n\t    _auctions[_tokenId] = auc;\r\n\t\tIterableMapping.Map storage pr = _tokenPendingReturns[_tokenId];\r\n        pr.set(msg.sender, msg.value);\r\n\t\temit BidIncrease(msg.sender, msg.value);\r\n\r\n\t\t//Log bid into bidHistory\r\n\t\t_biddingLogs[acceptedBidsIdx] = Bid(_tokenId, msg.sender, msg.value, block.timestamp);\r\n\t\tacceptedBidsIdx++;\r\n\t}\r\n\r\n\tfunction withdrawBid(uint256 _tokenId) external payable {\r\n\t\tAuction memory auc = getAuctionInfo(_tokenId);\r\n\t    require(auc.isExist, \"Auction doesn't exist\");\r\n\t\tIterableMapping.Map storage pr = _tokenPendingReturns[_tokenId];\r\n\t\tuint nextHighestBid = 0;\r\n\t\tfor (uint i = 0; i < pr.size(); i++) {\r\n\t\t\taddress returnAddr = pr.getKeyAtIndex(i);\r\n\t\t\tuint returnVal = getPendingReturnValue(_tokenId, returnAddr);\r\n\t\t\tif(returnVal > 0) {\r\n\t\t\t\tif(returnAddr == msg.sender) {\r\n\t\t\t\t\tpayable(returnAddr).transfer(returnVal);\r\n\t\t\t\t\tpr.remove(returnAddr);\r\n\t\t\t\t\temit BidWithdrawn(returnAddr, returnVal);\r\n\t\t\t\t} else {\r\n\t\t\t\t\tif(nextHighestBid < returnVal) {\r\n\t\t\t\t\t\tauc.highestBid = returnVal;\r\n\t    \t\t\t\tauc.highestBidder = returnAddr;\r\n\t\t\t\t\t\tnextHighestBid = returnVal;\r\n\t\t\t\t\t}\r\n\t\t\t\t}\r\n\t\t\t}\r\n\t\t}\r\n\t\tif(nextHighestBid == 0) {\r\n\t\t\tauc.highestBid = 0;\r\n\t\t\tauc.highestBidder = address(0);\r\n\t\t}\r\n\t\t//set highest bid as the next highest\r\n\t\t_auctions[_tokenId] = auc;\r\n\t}\r\n\r\n\tfunction increaseBid(uint256 _tokenId) external payable {\r\n\r\n\t}\r\n\r\n\tfunction _beforeTokenTransfer(address from, address to, uint256 tokenId) internal override { \r\n\t\t\r\n\t}\r\n}",
  "sourcePath": "C:/Users/swapp/Documents/MyProjects/Crypto/world_nft/truffle/contracts/WorldNFT.sol",
  "compiler": {
    "name": "solc",
    "version": "0.6.12+commit.27d51765.Emscripten.clang"
  },
  "schemaVersion": "3.2.3",
  "updatedAt": "2021-07-21T07:18:29.472Z",
  "networkType": "ethereum",
  "devdoc": {
    "kind": "dev",
    "methods": {
      "approve(address,uint256)": {
        "details": "See {IERC721-approve}."
      },
      "balanceOf(address)": {
        "details": "See {IERC721-balanceOf}."
      },
      "baseURI()": {
        "details": "Returns the base URI set via {_setBaseURI}. This will be automatically added as a prefix in {tokenURI} to each token's URI, or to the token ID if no specific URI is set for that token ID."
      },
      "getApproved(uint256)": {
        "details": "See {IERC721-getApproved}."
      },
      "isApprovedForAll(address,address)": {
        "details": "See {IERC721-isApprovedForAll}."
      },
      "name()": {
        "details": "See {IERC721Metadata-name}."
      },
      "owner()": {
        "details": "Returns the address of the current owner."
      },
      "ownerOf(uint256)": {
        "details": "See {IERC721-ownerOf}."
      },
      "renounceOwnership()": {
        "details": "Leaves the contract without owner. It will not be possible to call `onlyOwner` functions anymore. Can only be called by the current owner. NOTE: Renouncing ownership will leave the contract without an owner, thereby removing any functionality that is only available to the owner."
      },
      "safeTransferFrom(address,address,uint256)": {
        "details": "See {IERC721-safeTransferFrom}."
      },
      "safeTransferFrom(address,address,uint256,bytes)": {
        "details": "See {IERC721-safeTransferFrom}."
      },
      "setApprovalForAll(address,bool)": {
        "details": "See {IERC721-setApprovalForAll}."
      },
      "supportsInterface(bytes4)": {
        "details": "See {IERC165-supportsInterface}. Time complexity O(1), guaranteed to always use less than 30 000 gas."
      },
      "symbol()": {
        "details": "See {IERC721Metadata-symbol}."
      },
      "tokenByIndex(uint256)": {
        "details": "See {IERC721Enumerable-tokenByIndex}."
      },
      "tokenOfOwnerByIndex(address,uint256)": {
        "details": "See {IERC721Enumerable-tokenOfOwnerByIndex}."
      },
      "tokenURI(uint256)": {
        "details": "See {IERC721Metadata-tokenURI}."
      },
      "totalSupply()": {
        "details": "See {IERC721Enumerable-totalSupply}."
      },
      "transferFrom(address,address,uint256)": {
        "details": "See {IERC721-transferFrom}."
      },
      "transferOwnership(address)": {
        "details": "Transfers ownership of the contract to a new account (`newOwner`). Can only be called by the current owner."
      }
    },
    "version": 1
  },
  "userdoc": {
    "kind": "user",
    "methods": {},
    "version": 1
  }
}