{
  "contractName": "WorldNFT",
  "abi": [
    {
      "inputs": [],
      "stateMutability": "nonpayable",
      "type": "constructor"
    },
    {
      "anonymous": false,
      "inputs": [
        {
          "indexed": true,
          "internalType": "address",
          "name": "owner",
          "type": "address"
        },
        {
          "indexed": true,
          "internalType": "address",
          "name": "approved",
          "type": "address"
        },
        {
          "indexed": true,
          "internalType": "uint256",
          "name": "tokenId",
          "type": "uint256"
        }
      ],
      "name": "Approval",
      "type": "event"
    },
    {
      "anonymous": false,
      "inputs": [
        {
          "indexed": true,
          "internalType": "address",
          "name": "owner",
          "type": "address"
        },
        {
          "indexed": true,
          "internalType": "address",
          "name": "operator",
          "type": "address"
        },
        {
          "indexed": false,
          "internalType": "bool",
          "name": "approved",
          "type": "bool"
        }
      ],
      "name": "ApprovalForAll",
      "type": "event"
    },
    {
      "anonymous": false,
      "inputs": [
        {
          "indexed": false,
          "internalType": "address",
          "name": "ownerAddress",
          "type": "address"
        },
        {
          "indexed": false,
          "internalType": "uint256",
          "name": "_biddingTime",
          "type": "uint256"
        }
      ],
      "name": "AuctionStarted",
      "type": "event"
    },
    {
      "anonymous": false,
      "inputs": [
        {
          "indexed": true,
          "internalType": "address",
          "name": "previousOwner",
          "type": "address"
        },
        {
          "indexed": true,
          "internalType": "address",
          "name": "newOwner",
          "type": "address"
        }
      ],
      "name": "OwnershipTransferred",
      "type": "event"
    },
    {
      "anonymous": false,
      "inputs": [
        {
          "indexed": true,
          "internalType": "address",
          "name": "from",
          "type": "address"
        },
        {
          "indexed": true,
          "internalType": "address",
          "name": "to",
          "type": "address"
        },
        {
          "indexed": true,
          "internalType": "uint256",
          "name": "tokenId",
          "type": "uint256"
        }
      ],
      "name": "Transfer",
      "type": "event"
    },
    {
      "inputs": [
        {
          "internalType": "address",
          "name": "to",
          "type": "address"
        },
        {
          "internalType": "uint256",
          "name": "tokenId",
          "type": "uint256"
        }
      ],
      "name": "approve",
      "outputs": [],
      "stateMutability": "nonpayable",
      "type": "function"
    },
    {
      "inputs": [
        {
          "internalType": "address",
          "name": "owner",
          "type": "address"
        }
      ],
      "name": "balanceOf",
      "outputs": [
        {
          "internalType": "uint256",
          "name": "",
          "type": "uint256"
        }
      ],
      "stateMutability": "view",
      "type": "function",
      "constant": true
    },
    {
      "inputs": [],
      "name": "baseURI",
      "outputs": [
        {
          "internalType": "string",
          "name": "",
          "type": "string"
        }
      ],
      "stateMutability": "view",
      "type": "function",
      "constant": true
    },
    {
      "inputs": [
        {
          "internalType": "uint256",
          "name": "tokenId",
          "type": "uint256"
        }
      ],
      "name": "getApproved",
      "outputs": [
        {
          "internalType": "address",
          "name": "",
          "type": "address"
        }
      ],
      "stateMutability": "view",
      "type": "function",
      "constant": true
    },
    {
      "inputs": [
        {
          "internalType": "address",
          "name": "owner",
          "type": "address"
        },
        {
          "internalType": "address",
          "name": "operator",
          "type": "address"
        }
      ],
      "name": "isApprovedForAll",
      "outputs": [
        {
          "internalType": "bool",
          "name": "",
          "type": "bool"
        }
      ],
      "stateMutability": "view",
      "type": "function",
      "constant": true
    },
    {
      "inputs": [],
      "name": "name",
      "outputs": [
        {
          "internalType": "string",
          "name": "",
          "type": "string"
        }
      ],
      "stateMutability": "view",
      "type": "function",
      "constant": true
    },
    {
      "inputs": [],
      "name": "nextId",
      "outputs": [
        {
          "internalType": "uint256",
          "name": "",
          "type": "uint256"
        }
      ],
      "stateMutability": "view",
      "type": "function",
      "constant": true
    },
    {
      "inputs": [],
      "name": "owner",
      "outputs": [
        {
          "internalType": "address",
          "name": "",
          "type": "address"
        }
      ],
      "stateMutability": "view",
      "type": "function",
      "constant": true
    },
    {
      "inputs": [
        {
          "internalType": "uint256",
          "name": "tokenId",
          "type": "uint256"
        }
      ],
      "name": "ownerOf",
      "outputs": [
        {
          "internalType": "address",
          "name": "",
          "type": "address"
        }
      ],
      "stateMutability": "view",
      "type": "function",
      "constant": true
    },
    {
      "inputs": [],
      "name": "renounceOwnership",
      "outputs": [],
      "stateMutability": "nonpayable",
      "type": "function"
    },
    {
      "inputs": [
        {
          "internalType": "address",
          "name": "from",
          "type": "address"
        },
        {
          "internalType": "address",
          "name": "to",
          "type": "address"
        },
        {
          "internalType": "uint256",
          "name": "tokenId",
          "type": "uint256"
        }
      ],
      "name": "safeTransferFrom",
      "outputs": [],
      "stateMutability": "nonpayable",
      "type": "function"
    },
    {
      "inputs": [
        {
          "internalType": "address",
          "name": "from",
          "type": "address"
        },
        {
          "internalType": "address",
          "name": "to",
          "type": "address"
        },
        {
          "internalType": "uint256",
          "name": "tokenId",
          "type": "uint256"
        },
        {
          "internalType": "bytes",
          "name": "_data",
          "type": "bytes"
        }
      ],
      "name": "safeTransferFrom",
      "outputs": [],
      "stateMutability": "nonpayable",
      "type": "function"
    },
    {
      "inputs": [
        {
          "internalType": "address",
          "name": "operator",
          "type": "address"
        },
        {
          "internalType": "bool",
          "name": "approved",
          "type": "bool"
        }
      ],
      "name": "setApprovalForAll",
      "outputs": [],
      "stateMutability": "nonpayable",
      "type": "function"
    },
    {
      "inputs": [
        {
          "internalType": "bytes4",
          "name": "interfaceId",
          "type": "bytes4"
        }
      ],
      "name": "supportsInterface",
      "outputs": [
        {
          "internalType": "bool",
          "name": "",
          "type": "bool"
        }
      ],
      "stateMutability": "view",
      "type": "function",
      "constant": true
    },
    {
      "inputs": [],
      "name": "symbol",
      "outputs": [
        {
          "internalType": "string",
          "name": "",
          "type": "string"
        }
      ],
      "stateMutability": "view",
      "type": "function",
      "constant": true
    },
    {
      "inputs": [
        {
          "internalType": "uint256",
          "name": "index",
          "type": "uint256"
        }
      ],
      "name": "tokenByIndex",
      "outputs": [
        {
          "internalType": "uint256",
          "name": "",
          "type": "uint256"
        }
      ],
      "stateMutability": "view",
      "type": "function",
      "constant": true
    },
    {
      "inputs": [
        {
          "internalType": "uint256",
          "name": "",
          "type": "uint256"
        }
      ],
      "name": "tokenIdToPrice",
      "outputs": [
        {
          "internalType": "uint256",
          "name": "",
          "type": "uint256"
        }
      ],
      "stateMutability": "view",
      "type": "function",
      "constant": true
    },
    {
      "inputs": [
        {
          "internalType": "address",
          "name": "owner",
          "type": "address"
        },
        {
          "internalType": "uint256",
          "name": "index",
          "type": "uint256"
        }
      ],
      "name": "tokenOfOwnerByIndex",
      "outputs": [
        {
          "internalType": "uint256",
          "name": "",
          "type": "uint256"
        }
      ],
      "stateMutability": "view",
      "type": "function",
      "constant": true
    },
    {
      "inputs": [
        {
          "internalType": "uint256",
          "name": "tokenId",
          "type": "uint256"
        }
      ],
      "name": "tokenURI",
      "outputs": [
        {
          "internalType": "string",
          "name": "",
          "type": "string"
        }
      ],
      "stateMutability": "view",
      "type": "function",
      "constant": true
    },
    {
      "inputs": [],
      "name": "totalSupply",
      "outputs": [
        {
          "internalType": "uint256",
          "name": "",
          "type": "uint256"
        }
      ],
      "stateMutability": "view",
      "type": "function",
      "constant": true
    },
    {
      "inputs": [
        {
          "internalType": "address",
          "name": "from",
          "type": "address"
        },
        {
          "internalType": "address",
          "name": "to",
          "type": "address"
        },
        {
          "internalType": "uint256",
          "name": "tokenId",
          "type": "uint256"
        }
      ],
      "name": "transferFrom",
      "outputs": [],
      "stateMutability": "nonpayable",
      "type": "function"
    },
    {
      "inputs": [
        {
          "internalType": "address",
          "name": "newOwner",
          "type": "address"
        }
      ],
      "name": "transferOwnership",
      "outputs": [],
      "stateMutability": "nonpayable",
      "type": "function"
    },
    {
      "inputs": [
        {
          "internalType": "uint256",
          "name": "tokenId",
          "type": "uint256"
        }
      ],
      "name": "getTokenDetails",
      "outputs": [
        {
          "components": [
            {
              "internalType": "string",
              "name": "location_name",
              "type": "string"
            },
            {
              "internalType": "string",
              "name": "svg_image",
              "type": "string"
            },
            {
              "internalType": "bool",
              "name": "isExist",
              "type": "bool"
            }
          ],
          "internalType": "struct WorldNFT.Location",
          "name": "",
          "type": "tuple"
        }
      ],
      "stateMutability": "view",
      "type": "function",
      "constant": true
    },
    {
      "inputs": [
        {
          "internalType": "uint256",
          "name": "tokenId",
          "type": "uint256"
        }
      ],
      "name": "getPriceOf",
      "outputs": [
        {
          "internalType": "uint256",
          "name": "",
          "type": "uint256"
        }
      ],
      "stateMutability": "view",
      "type": "function",
      "constant": true
    },
    {
      "inputs": [
        {
          "internalType": "uint256",
          "name": "tokenId",
          "type": "uint256"
        }
      ],
      "name": "getOwnerOf",
      "outputs": [
        {
          "internalType": "address",
          "name": "",
          "type": "address"
        }
      ],
      "stateMutability": "view",
      "type": "function",
      "constant": true
    },
    {
      "inputs": [
        {
          "internalType": "uint256",
          "name": "tokenId",
          "type": "uint256"
        }
      ],
      "name": "getAuctionInfo",
      "outputs": [
        {
          "components": [
            {
              "internalType": "uint256",
              "name": "tokenId",
              "type": "uint256"
            },
            {
              "internalType": "address",
              "name": "beneficiary",
              "type": "address"
            },
            {
              "internalType": "bool",
              "name": "auctionGoingOn",
              "type": "bool"
            },
            {
              "internalType": "bool",
              "name": "auctionEnded",
              "type": "bool"
            },
            {
              "internalType": "uint256",
              "name": "auctionEndTime",
              "type": "uint256"
            },
            {
              "internalType": "uint256",
              "name": "biddingTime",
              "type": "uint256"
            },
            {
              "internalType": "address",
              "name": "highestBidder",
              "type": "address"
            },
            {
              "internalType": "uint256",
              "name": "highestBid",
              "type": "uint256"
            },
            {
              "internalType": "bool",
              "name": "isExist",
              "type": "bool"
            }
          ],
          "internalType": "struct WorldNFT.Auction",
          "name": "",
          "type": "tuple"
        }
      ],
      "stateMutability": "view",
      "type": "function",
      "constant": true
    },
    {
      "inputs": [
        {
          "internalType": "string",
          "name": "location_name",
          "type": "string"
        },
        {
          "internalType": "string",
          "name": "svg_image",
          "type": "string"
        }
      ],
      "name": "mint",
      "outputs": [],
      "stateMutability": "nonpayable",
      "type": "function"
    },
    {
      "inputs": [
        {
          "internalType": "uint256",
          "name": "_tokenId",
          "type": "uint256"
        },
        {
          "internalType": "uint256",
          "name": "_biddingTime",
          "type": "uint256"
        }
      ],
      "name": "startAuction",
      "outputs": [],
      "stateMutability": "nonpayable",
      "type": "function"
    }
  ],
  "bytecode": "0x60806040526000600b553480156200001657600080fd5b506040518060400160405280600881526020017f576f726c644e46540000000000000000000000000000000000000000000000008152506040518060400160405280600481526020017f574e4654000000000000000000000000000000000000000000000000000000008152506200009b6301ffc9a760e01b620001ce60201b60201c565b8160069080519060200190620000b3929190620002ae565b508060079080519060200190620000cc929190620002ae565b50620000e56380ac58cd60e01b620001ce60201b60201c565b620000fd635b5e139f60e01b620001ce60201b60201c565b6200011563780e9d6360e01b620001ce60201b60201c565b5050600062000129620002a660201b60201c565b905080600a60006101000a81548173ffffffffffffffffffffffffffffffffffffffff021916908373ffffffffffffffffffffffffffffffffffffffff1602179055508073ffffffffffffffffffffffffffffffffffffffff16600073ffffffffffffffffffffffffffffffffffffffff167f8be0079c531659141344cd1fd0a4f28419497f9722a3daafe3b4186f6b6457e060405160405180910390a350620003c9565b63ffffffff60e01b817bffffffffffffffffffffffffffffffffffffffffffffffffffffffff191614156200023a576040517f08c379a0000000000000000000000000000000000000000000000000000000008152600401620002319062000396565b60405180910390fd5b6001600080837bffffffffffffffffffffffffffffffffffffffffffffffffffffffff19167bffffffffffffffffffffffffffffffffffffffffffffffffffffffff1916815260200190815260200160002060006101000a81548160ff02191690831515021790555050565b600033905090565b828054600181600116156101000203166002900490600052602060002090601f016020900481019282601f10620002f157805160ff191683800117855562000322565b8280016001018555821562000322579182015b828111156200032157825182559160200191906001019062000304565b5b50905062000331919062000335565b5090565b5b808211156200035057600081600090555060010162000336565b5090565b600062000363601c83620003b8565b91507f4552433136353a20696e76616c696420696e74657266616365206964000000006000830152602082019050919050565b60006020820190508181036000830152620003b18162000354565b9050919050565b600082825260208201905092915050565b6140c580620003d96000396000f3fe608060405234801561001057600080fd5b50600436106101c45760003560e01c8063715018a6116100f9578063b88d4fde11610097578063e985e9c511610071578063e985e9c51461052b578063f2fde38b1461055b578063f4812eb914610577578063fc3fc4ed146105a7576101c4565b8063b88d4fde146104af578063c1e03728146104cb578063c87b56dd146104fb576101c4565b80638da5cb5b116100d35780638da5cb5b1461042757806395d89b4114610445578063a22cb46514610463578063b54b4fb91461047f576101c4565b8063715018a6146103d157806383638710146103db5780638aa0fdad1461040b576101c4565b806342842e0e1161016657806361b8ce8c1161014057806361b8ce8c146103355780636352211e146103535780636c0360eb1461038357806370a08231146103a1576101c4565b806342842e0e146102cd5780634f6ccce7146102e95780634fee13fc14610319576101c4565b8063095ea7b3116101a2578063095ea7b31461024757806318160ddd1461026357806323b872dd146102815780632f745c591461029d576101c4565b806301ffc9a7146101c957806306fdde03146101f9578063081812fc14610217575b600080fd5b6101e360048036038101906101de9190612e54565b6105d7565b6040516101f09190613a8f565b60405180910390f35b61020161063e565b60405161020e9190613aaa565b60405180910390f35b610231600480360381019061022c9190612f12565b6106e0565b60405161023e91906139ff565b60405180910390f35b610261600480360381019061025c9190612e18565b610765565b005b61026b61087d565b6040516102789190613dca565b60405180910390f35b61029b60048036038101906102969190612d12565b61088e565b005b6102b760048036038101906102b29190612e18565b6108ee565b6040516102c49190613dca565b60405180910390f35b6102e760048036038101906102e29190612d12565b610949565b005b61030360048036038101906102fe9190612f12565b610969565b6040516103109190613dca565b60405180910390f35b610333600480360381019061032e9190612f3b565b61098c565b005b61033d610cdf565b60405161034a9190613dca565b60405180910390f35b61036d60048036038101906103689190612f12565b610ce5565b60405161037a91906139ff565b60405180910390f35b61038b610d1c565b6040516103989190613aaa565b60405180910390f35b6103bb60048036038101906103b69190612cad565b610dbe565b6040516103c89190613dca565b60405180910390f35b6103d9610e7d565b005b6103f560048036038101906103f09190612f12565b610fba565b60405161040291906139ff565b60405180910390f35b61042560048036038101906104209190612ea6565b610fcc565b005b61042f61111c565b60405161043c91906139ff565b60405180910390f35b61044d611146565b60405161045a9190613aaa565b60405180910390f35b61047d60048036038101906104789190612ddc565b6111e8565b005b61049960048036038101906104949190612f12565b611369565b6040516104a69190613dca565b60405180910390f35b6104c960048036038101906104c49190612d61565b611386565b005b6104e560048036038101906104e09190612f12565b6113e8565b6040516104f29190613da8565b60405180910390f35b61051560048036038101906105109190612f12565b611574565b6040516105229190613aaa565b60405180910390f35b61054560048036038101906105409190612cd6565b6116f7565b6040516105529190613a8f565b60405180910390f35b61057560048036038101906105709190612cad565b61178b565b005b610591600480360381019061058c9190612f12565b611937565b60405161059e9190613dca565b60405180910390f35b6105c160048036038101906105bc9190612f12565b61194f565b6040516105ce9190613d8c565b60405180910390f35b6000806000837bffffffffffffffffffffffffffffffffffffffffffffffffffffffff19167bffffffffffffffffffffffffffffffffffffffffffffffffffffffff1916815260200190815260200160002060009054906101000a900460ff169050919050565b606060068054600181600116156101000203166002900480601f0160208091040260200160405190810160405280929190818152602001828054600181600116156101000203166002900480156106d65780601f106106ab576101008083540402835291602001916106d6565b820191906000526020600020905b8154815290600101906020018083116106b957829003601f168201915b5050505050905090565b60006106eb82611aa2565b61072a576040517f08c379a000000000000000000000000000000000000000000000000000000000815260040161072190613c8c565b60405180910390fd5b6004600083815260200190815260200160002060009054906101000a900473ffffffffffffffffffffffffffffffffffffffff169050919050565b600061077082610ce5565b90508073ffffffffffffffffffffffffffffffffffffffff168373ffffffffffffffffffffffffffffffffffffffff1614156107e1576040517f08c379a00000000000000000000000000000000000000000000000000000000081526004016107d890613d0c565b60405180910390fd5b8073ffffffffffffffffffffffffffffffffffffffff16610800611abf565b73ffffffffffffffffffffffffffffffffffffffff16148061082f575061082e81610829611abf565b6116f7565b5b61086e576040517f08c379a000000000000000000000000000000000000000000000000000000000815260040161086590613c0c565b60405180910390fd5b6108788383611ac7565b505050565b60006108896002611b80565b905090565b61089f610899611abf565b82611b95565b6108de576040517f08c379a00000000000000000000000000000000000000000000000000000000081526004016108d590613d2c565b60405180910390fd5b6108e9838383611c73565b505050565b600061094182600160008673ffffffffffffffffffffffffffffffffffffffff1673ffffffffffffffffffffffffffffffffffffffff168152602001908152602001600020611e8a90919063ffffffff16565b905092915050565b61096483838360405180602001604052806000815250611386565b505050565b600080610980836002611ea490919063ffffffff16565b50905080915050919050565b60008142019050600c600084815260200190815260200160002060020160009054906101000a900460ff166109f6576040517f08c379a00000000000000000000000000000000000000000000000000000000081526004016109ed90613acc565b60405180910390fd5b6109ff83610ce5565b73ffffffffffffffffffffffffffffffffffffffff163373ffffffffffffffffffffffffffffffffffffffff1614610a6c576040517f08c379a0000000000000000000000000000000000000000000000000000000008152600401610a6390613bec565b60405180910390fd5b600e600084815260200190815260200160002060060160009054906101000a900460ff168015610abd5750600e600084815260200190815260200160002060010160159054906101000a900460ff16155b15610afd576040517f08c379a0000000000000000000000000000000000000000000000000000000008152600401610af490613d6c565b60405180910390fd5b6040518061012001604052808481526020013373ffffffffffffffffffffffffffffffffffffffff168152602001600115158152602001600015158152602001828152602001838152602001600073ffffffffffffffffffffffffffffffffffffffff1681526020016000815260200160011515815250600e60008581526020019081526020016000206000820151816000015560208201518160010160006101000a81548173ffffffffffffffffffffffffffffffffffffffff021916908373ffffffffffffffffffffffffffffffffffffffff16021790555060408201518160010160146101000a81548160ff02191690831515021790555060608201518160010160156101000a81548160ff0219169083151502179055506080820151816002015560a0820151816003015560c08201518160040160006101000a81548173ffffffffffffffffffffffffffffffffffffffff021916908373ffffffffffffffffffffffffffffffffffffffff16021790555060e082015181600501556101008201518160060160006101000a81548160ff0219169083151502179055509050507fc087c4cdb16906b5ff7016a6bf927618f24ff32eb1de5e86eeaeb08b94831a683383604051610cd2929190613a66565b60405180910390a1505050565b600b5481565b6000610d1582604051806060016040528060298152602001614067602991396002611ed09092919063ffffffff16565b9050919050565b606060098054600181600116156101000203166002900480601f016020809104026020016040519081016040528092919081815260200182805460018160011615610100020316600290048015610db45780601f10610d8957610100808354040283529160200191610db4565b820191906000526020600020905b815481529060010190602001808311610d9757829003601f168201915b5050505050905090565b60008073ffffffffffffffffffffffffffffffffffffffff168273ffffffffffffffffffffffffffffffffffffffff161415610e2f576040517f08c379a0000000000000000000000000000000000000000000000000000000008152600401610e2690613c2c565b60405180910390fd5b610e76600160008473ffffffffffffffffffffffffffffffffffffffff1673ffffffffffffffffffffffffffffffffffffffff168152602001908152602001600020611eef565b9050919050565b610e85611abf565b73ffffffffffffffffffffffffffffffffffffffff16610ea361111c565b73ffffffffffffffffffffffffffffffffffffffff1614610ef9576040517f08c379a0000000000000000000000000000000000000000000000000000000008152600401610ef090613cac565b60405180910390fd5b600073ffffffffffffffffffffffffffffffffffffffff16600a60009054906101000a900473ffffffffffffffffffffffffffffffffffffffff1673ffffffffffffffffffffffffffffffffffffffff167f8be0079c531659141344cd1fd0a4f28419497f9722a3daafe3b4186f6b6457e060405160405180910390a36000600a60006101000a81548173ffffffffffffffffffffffffffffffffffffffff021916908373ffffffffffffffffffffffffffffffffffffffff160217905550565b6000610fc582610ce5565b9050919050565b610fd4611abf565b73ffffffffffffffffffffffffffffffffffffffff16610ff261111c565b73ffffffffffffffffffffffffffffffffffffffff1614611048576040517f08c379a000000000000000000000000000000000000000000000000000000000815260040161103f90613cac565b60405180910390fd5b604051806060016040528083815260200182815260200160011515815250600c6000600b5481526020019081526020016000206000820151816000019080519060200190611097929190612a5e565b5060208201518160010190805190602001906110b4929190612a5e565b5060408201518160020160006101000a81548160ff021916908315150217905550905050671bc16d674ec80000600d6000600b5481526020019081526020016000208190555061110633600b54611f04565b600b600081548092919060010191905055505050565b6000600a60009054906101000a900473ffffffffffffffffffffffffffffffffffffffff16905090565b606060078054600181600116156101000203166002900480601f0160208091040260200160405190810160405280929190818152602001828054600181600116156101000203166002900480156111de5780601f106111b3576101008083540402835291602001916111de565b820191906000526020600020905b8154815290600101906020018083116111c157829003601f168201915b5050505050905090565b6111f0611abf565b73ffffffffffffffffffffffffffffffffffffffff168273ffffffffffffffffffffffffffffffffffffffff16141561125e576040517f08c379a000000000000000000000000000000000000000000000000000000000815260040161125590613b8c565b60405180910390fd5b806005600061126b611abf565b73ffffffffffffffffffffffffffffffffffffffff1673ffffffffffffffffffffffffffffffffffffffff16815260200190815260200160002060008473ffffffffffffffffffffffffffffffffffffffff1673ffffffffffffffffffffffffffffffffffffffff16815260200190815260200160002060006101000a81548160ff0219169083151502179055508173ffffffffffffffffffffffffffffffffffffffff16611318611abf565b73ffffffffffffffffffffffffffffffffffffffff167f17307eab39ab6107e8899845ad3d59bd9653f200f220920489ca2b5937696c318360405161135d9190613a8f565b60405180910390a35050565b6000600d6000838152602001908152602001600020549050919050565b611397611391611abf565b83611b95565b6113d6576040517f08c379a00000000000000000000000000000000000000000000000000000000081526004016113cd90613d2c565b60405180910390fd5b6113e284848484611f22565b50505050565b6113f0612ade565b600c6000838152602001908152602001600020604051806060016040529081600082018054600181600116156101000203166002900480601f0160208091040260200160405190810160405280929190818152602001828054600181600116156101000203166002900480156114a75780601f1061147c576101008083540402835291602001916114a7565b820191906000526020600020905b81548152906001019060200180831161148a57829003601f168201915b50505050508152602001600182018054600181600116156101000203166002900480601f0160208091040260200160405190810160405280929190818152602001828054600181600116156101000203166002900480156115495780601f1061151e57610100808354040283529160200191611549565b820191906000526020600020905b81548152906001019060200180831161152c57829003601f168201915b505050505081526020016002820160009054906101000a900460ff1615151515815250509050919050565b606061157f82611aa2565b6115be576040517f08c379a00000000000000000000000000000000000000000000000000000000081526004016115b590613cec565b60405180910390fd5b6060600860008481526020019081526020016000208054600181600116156101000203166002900480601f0160208091040260200160405190810160405280929190818152602001828054600181600116156101000203166002900480156116675780601f1061163c57610100808354040283529160200191611667565b820191906000526020600020905b81548152906001019060200180831161164a57829003601f168201915b505050505090506060611678610d1c565b905060008151141561168e5781925050506116f2565b6000825111156116c35780826040516020016116ab9291906139db565b604051602081830303815290604052925050506116f2565b806116cd85611f7e565b6040516020016116de9291906139db565b604051602081830303815290604052925050505b919050565b6000600560008473ffffffffffffffffffffffffffffffffffffffff1673ffffffffffffffffffffffffffffffffffffffff16815260200190815260200160002060008373ffffffffffffffffffffffffffffffffffffffff1673ffffffffffffffffffffffffffffffffffffffff16815260200190815260200160002060009054906101000a900460ff16905092915050565b611793611abf565b73ffffffffffffffffffffffffffffffffffffffff166117b161111c565b73ffffffffffffffffffffffffffffffffffffffff1614611807576040517f08c379a00000000000000000000000000000000000000000000000000000000081526004016117fe90613cac565b60405180910390fd5b600073ffffffffffffffffffffffffffffffffffffffff168173ffffffffffffffffffffffffffffffffffffffff161415611877576040517f08c379a000000000000000000000000000000000000000000000000000000000815260040161186e90613b2c565b60405180910390fd5b8073ffffffffffffffffffffffffffffffffffffffff16600a60009054906101000a900473ffffffffffffffffffffffffffffffffffffffff1673ffffffffffffffffffffffffffffffffffffffff167f8be0079c531659141344cd1fd0a4f28419497f9722a3daafe3b4186f6b6457e060405160405180910390a380600a60006101000a81548173ffffffffffffffffffffffffffffffffffffffff021916908373ffffffffffffffffffffffffffffffffffffffff16021790555050565b600d6020528060005260406000206000915090505481565b611957612b01565b600e600083815260200190815260200160002060405180610120016040529081600082015481526020016001820160009054906101000a900473ffffffffffffffffffffffffffffffffffffffff1673ffffffffffffffffffffffffffffffffffffffff1673ffffffffffffffffffffffffffffffffffffffff1681526020016001820160149054906101000a900460ff161515151581526020016001820160159054906101000a900460ff1615151515815260200160028201548152602001600382015481526020016004820160009054906101000a900473ffffffffffffffffffffffffffffffffffffffff1673ffffffffffffffffffffffffffffffffffffffff1673ffffffffffffffffffffffffffffffffffffffff168152602001600582015481526020016006820160009054906101000a900460ff1615151515815250509050919050565b6000611ab88260026120c590919063ffffffff16565b9050919050565b600033905090565b816004600083815260200190815260200160002060006101000a81548173ffffffffffffffffffffffffffffffffffffffff021916908373ffffffffffffffffffffffffffffffffffffffff160217905550808273ffffffffffffffffffffffffffffffffffffffff16611b3a83610ce5565b73ffffffffffffffffffffffffffffffffffffffff167f8c5be1e5ebec7d5bd14f71427d1e84f3dd0314c0f7b2291e5b200ac8c7c3b92560405160405180910390a45050565b6000611b8e826000016120df565b9050919050565b6000611ba082611aa2565b611bdf576040517f08c379a0000000000000000000000000000000000000000000000000000000008152600401611bd690613bcc565b60405180910390fd5b6000611bea83610ce5565b90508073ffffffffffffffffffffffffffffffffffffffff168473ffffffffffffffffffffffffffffffffffffffff161480611c5957508373ffffffffffffffffffffffffffffffffffffffff16611c41846106e0565b73ffffffffffffffffffffffffffffffffffffffff16145b80611c6a5750611c6981856116f7565b5b91505092915050565b8273ffffffffffffffffffffffffffffffffffffffff16611c9382610ce5565b73ffffffffffffffffffffffffffffffffffffffff1614611ce9576040517f08c379a0000000000000000000000000000000000000000000000000000000008152600401611ce090613ccc565b60405180910390fd5b600073ffffffffffffffffffffffffffffffffffffffff168273ffffffffffffffffffffffffffffffffffffffff161415611d59576040517f08c379a0000000000000000000000000000000000000000000000000000000008152600401611d5090613b6c565b60405180910390fd5b611d648383836120f0565b611d6f600082611ac7565b611dc081600160008673ffffffffffffffffffffffffffffffffffffffff1673ffffffffffffffffffffffffffffffffffffffff1681526020019081526020016000206120f590919063ffffffff16565b50611e1281600160008573ffffffffffffffffffffffffffffffffffffffff1673ffffffffffffffffffffffffffffffffffffffff16815260200190815260200160002061210f90919063ffffffff16565b50611e29818360026121299092919063ffffffff16565b50808273ffffffffffffffffffffffffffffffffffffffff168473ffffffffffffffffffffffffffffffffffffffff167fddf252ad1be2c89b69c2b068fc378daa952ba7f163c4a11628f55a4df523b3ef60405160405180910390a4505050565b6000611e99836000018361215e565b60001c905092915050565b600080600080611eb786600001866121cb565b915091508160001c8160001c9350935050509250929050565b6000611ee3846000018460001b8461224e565b60001c90509392505050565b6000611efd826000016122df565b9050919050565b611f1e8282604051806020016040528060008152506122f0565b5050565b611f2d848484611c73565b611f398484848461234b565b611f78576040517f08c379a0000000000000000000000000000000000000000000000000000000008152600401611f6f90613b0c565b60405180910390fd5b50505050565b60606000821415611fc6576040518060400160405280600181526020017f300000000000000000000000000000000000000000000000000000000000000081525090506120c0565b600082905060005b60008214611ff0578080600101915050600a8281611fe857fe5b049150611fce565b60608167ffffffffffffffff8111801561200957600080fd5b506040519080825280601f01601f19166020018201604052801561203c5781602001600182028036833780820191505090505b50905060006001830390508593505b600084146120b857600a848161205d57fe5b0660300160f81b8282806001900393508151811061207757fe5b60200101907effffffffffffffffffffffffffffffffffffffffffffffffffffffffffffff1916908160001a905350600a84816120b057fe5b04935061204b565b819450505050505b919050565b60006120d7836000018360001b6124af565b905092915050565b600081600001805490509050919050565b505050565b6000612107836000018360001b6124d2565b905092915050565b6000612121836000018360001b6125ba565b905092915050565b6000612155846000018460001b8473ffffffffffffffffffffffffffffffffffffffff1660001b61262a565b90509392505050565b6000818360000180549050116121a9576040517f08c379a00000000000000000000000000000000000000000000000000000000081526004016121a090613aec565b60405180910390fd5b8260000182815481106121b857fe5b9060005260206000200154905092915050565b60008082846000018054905011612217576040517f08c379a000000000000000000000000000000000000000000000000000000000815260040161220e90613c4c565b60405180910390fd5b600084600001848154811061222857fe5b906000526020600020906002020190508060000154816001015492509250509250929050565b600080846001016000858152602001908152602001600020549050600081141583906122b0576040517f08c379a00000000000000000000000000000000000000000000000000000000081526004016122a79190613aaa565b60405180910390fd5b508460000160018203815481106122c357fe5b9060005260206000209060020201600101549150509392505050565b600081600001805490509050919050565b6122fa8383612706565b612307600084848461234b565b612346576040517f08c379a000000000000000000000000000000000000000000000000000000000815260040161233d90613b0c565b60405180910390fd5b505050565b600061236c8473ffffffffffffffffffffffffffffffffffffffff16612894565b61237957600190506124a7565b606061244063150b7a0260e01b61238e611abf565b8887876040516024016123a49493929190613a1a565b604051602081830303815290604052907bffffffffffffffffffffffffffffffffffffffffffffffffffffffff19166020820180517bffffffffffffffffffffffffffffffffffffffffffffffffffffffff8381831617835250505050604051806060016040528060328152602001614035603291398773ffffffffffffffffffffffffffffffffffffffff166128a79092919063ffffffff16565b90506000818060200190518101906124589190612e7d565b905063150b7a0260e01b7bffffffffffffffffffffffffffffffffffffffffffffffffffffffff1916817bffffffffffffffffffffffffffffffffffffffffffffffffffffffff191614925050505b949350505050565b600080836001016000848152602001908152602001600020541415905092915050565b600080836001016000848152602001908152602001600020549050600081146125ae576000600182039050600060018660000180549050039050600086600001828154811061251d57fe5b906000526020600020015490508087600001848154811061253a57fe5b906000526020600020018190555060018301876001016000838152602001908152602001600020819055508660000180548061257257fe5b600190038181906000526020600020016000905590558660010160008781526020019081526020016000206000905560019450505050506125b4565b60009150505b92915050565b60006125c683836128bf565b61261f578260000182908060018154018082558091505060019003906000526020600020016000909190919091505582600001805490508360010160008481526020019081526020016000208190555060019050612624565b600090505b92915050565b60008084600101600085815260200190815260200160002054905060008114156126d1578460000160405180604001604052808681526020018581525090806001815401808255809150506001900390600052602060002090600202016000909190919091506000820151816000015560208201518160010155505084600001805490508560010160008681526020019081526020016000208190555060019150506126ff565b828560000160018303815481106126e457fe5b90600052602060002090600202016001018190555060009150505b9392505050565b600073ffffffffffffffffffffffffffffffffffffffff168273ffffffffffffffffffffffffffffffffffffffff161415612776576040517f08c379a000000000000000000000000000000000000000000000000000000000815260040161276d90613c6c565b60405180910390fd5b61277f81611aa2565b156127bf576040517f08c379a00000000000000000000000000000000000000000000000000000000081526004016127b690613b4c565b60405180910390fd5b6127cb600083836120f0565b61281c81600160008573ffffffffffffffffffffffffffffffffffffffff1673ffffffffffffffffffffffffffffffffffffffff16815260200190815260200160002061210f90919063ffffffff16565b50612833818360026121299092919063ffffffff16565b50808273ffffffffffffffffffffffffffffffffffffffff16600073ffffffffffffffffffffffffffffffffffffffff167fddf252ad1be2c89b69c2b068fc378daa952ba7f163c4a11628f55a4df523b3ef60405160405180910390a45050565b600080823b905060008111915050919050565b60606128b684846000856128e2565b90509392505050565b600080836001016000848152602001908152602001600020541415905092915050565b606082471015612927576040517f08c379a000000000000000000000000000000000000000000000000000000000815260040161291e90613bac565b60405180910390fd5b61293085612894565b61296f576040517f08c379a000000000000000000000000000000000000000000000000000000000815260040161296690613d4c565b60405180910390fd5b600060608673ffffffffffffffffffffffffffffffffffffffff16858760405161299991906139c4565b60006040518083038185875af1925050503d80600081146129d6576040519150601f19603f3d011682016040523d82523d6000602084013e6129db565b606091505b50915091506129eb8282866129f7565b92505050949350505050565b60608315612a0757829050612a57565b600083511115612a1a5782518084602001fd5b816040517f08c379a0000000000000000000000000000000000000000000000000000000008152600401612a4e9190613aaa565b60405180910390fd5b9392505050565b828054600181600116156101000203166002900490600052602060002090601f016020900481019282601f10612a9f57805160ff1916838001178555612acd565b82800160010185558215612acd579182015b82811115612acc578251825591602001919060010190612ab1565b5b509050612ada9190612b7f565b5090565b604051806060016040528060608152602001606081526020016000151581525090565b60405180610120016040528060008152602001600073ffffffffffffffffffffffffffffffffffffffff1681526020016000151581526020016000151581526020016000815260200160008152602001600073ffffffffffffffffffffffffffffffffffffffff168152602001600081526020016000151581525090565b5b80821115612b98576000816000905550600101612b80565b5090565b600081359050612bab81613fd8565b92915050565b600081359050612bc081613fef565b92915050565b600081359050612bd581614006565b92915050565b600081519050612bea81614006565b92915050565b600082601f830112612c0157600080fd5b8135612c14612c0f82613e12565b613de5565b91508082526020830160208301858383011115612c3057600080fd5b612c3b838284613f85565b50505092915050565b600082601f830112612c5557600080fd5b8135612c68612c6382613e3e565b613de5565b91508082526020830160208301858383011115612c8457600080fd5b612c8f838284613f85565b50505092915050565b600081359050612ca78161401d565b92915050565b600060208284031215612cbf57600080fd5b6000612ccd84828501612b9c565b91505092915050565b60008060408385031215612ce957600080fd5b6000612cf785828601612b9c565b9250506020612d0885828601612b9c565b9150509250929050565b600080600060608486031215612d2757600080fd5b6000612d3586828701612b9c565b9350506020612d4686828701612b9c565b9250506040612d5786828701612c98565b9150509250925092565b60008060008060808587031215612d7757600080fd5b6000612d8587828801612b9c565b9450506020612d9687828801612b9c565b9350506040612da787828801612c98565b925050606085013567ffffffffffffffff811115612dc457600080fd5b612dd087828801612bf0565b91505092959194509250565b60008060408385031215612def57600080fd5b6000612dfd85828601612b9c565b9250506020612e0e85828601612bb1565b9150509250929050565b60008060408385031215612e2b57600080fd5b6000612e3985828601612b9c565b9250506020612e4a85828601612c98565b9150509250929050565b600060208284031215612e6657600080fd5b6000612e7484828501612bc6565b91505092915050565b600060208284031215612e8f57600080fd5b6000612e9d84828501612bdb565b91505092915050565b60008060408385031215612eb957600080fd5b600083013567ffffffffffffffff811115612ed357600080fd5b612edf85828601612c44565b925050602083013567ffffffffffffffff811115612efc57600080fd5b612f0885828601612c44565b9150509250929050565b600060208284031215612f2457600080fd5b6000612f3284828501612c98565b91505092915050565b60008060408385031215612f4e57600080fd5b6000612f5c85828601612c98565b9250506020612f6d85828601612c98565b9150509250929050565b612f8081613f4f565b82525050565b612f8f81613edb565b82525050565b612f9e81613ec9565b82525050565b612fad81613ec9565b82525050565b612fbc81613eed565b82525050565b612fcb81613eed565b82525050565b6000612fdc82613e6a565b612fe68185613e80565b9350612ff6818560208601613f94565b612fff81613fc7565b840191505092915050565b600061301582613e6a565b61301f8185613e91565b935061302f818560208601613f94565b80840191505092915050565b600061304682613e75565b6130508185613e9c565b9350613060818560208601613f94565b61306981613fc7565b840191505092915050565b600061307f82613e75565b6130898185613ead565b9350613099818560208601613f94565b6130a281613fc7565b840191505092915050565b60006130b882613e75565b6130c28185613ebe565b93506130d2818560208601613f94565b80840191505092915050565b60006130eb601383613ead565b91507f546f6b656e20646f65736e2774206578697374000000000000000000000000006000830152602082019050919050565b600061312b602283613ead565b91507f456e756d657261626c655365743a20696e646578206f7574206f6620626f756e60008301527f64730000000000000000000000000000000000000000000000000000000000006020830152604082019050919050565b6000613191603283613ead565b91507f4552433732313a207472616e7366657220746f206e6f6e20455243373231526560008301527f63656976657220696d706c656d656e74657200000000000000000000000000006020830152604082019050919050565b60006131f7602683613ead565b91507f4f776e61626c653a206e6577206f776e657220697320746865207a65726f206160008301527f64647265737300000000000000000000000000000000000000000000000000006020830152604082019050919050565b600061325d601c83613ead565b91507f4552433732313a20746f6b656e20616c7265616479206d696e746564000000006000830152602082019050919050565b600061329d602483613ead565b91507f4552433732313a207472616e7366657220746f20746865207a65726f2061646460008301527f72657373000000000000000000000000000000000000000000000000000000006020830152604082019050919050565b6000613303601983613ead565b91507f4552433732313a20617070726f766520746f2063616c6c6572000000000000006000830152602082019050919050565b6000613343602683613ead565b91507f416464726573733a20696e73756666696369656e742062616c616e636520666f60008301527f722063616c6c00000000000000000000000000000000000000000000000000006020830152604082019050919050565b60006133a9602c83613ead565b91507f4552433732313a206f70657261746f7220717565727920666f72206e6f6e657860008301527f697374656e7420746f6b656e00000000000000000000000000000000000000006020830152604082019050919050565b600061340f602c83613ead565b91507f43616e6e6f742073746172742061756374696f6e20666f7220746f6b656e207960008301527f6f7520646f6e2774206f776e00000000000000000000000000000000000000006020830152604082019050919050565b6000613475603883613ead565b91507f4552433732313a20617070726f76652063616c6c6572206973206e6f74206f7760008301527f6e6572206e6f7220617070726f76656420666f7220616c6c00000000000000006020830152604082019050919050565b60006134db602a83613ead565b91507f4552433732313a2062616c616e636520717565727920666f7220746865207a6560008301527f726f2061646472657373000000000000000000000000000000000000000000006020830152604082019050919050565b6000613541602283613ead565b91507f456e756d657261626c654d61703a20696e646578206f7574206f6620626f756e60008301527f64730000000000000000000000000000000000000000000000000000000000006020830152604082019050919050565b60006135a7602083613ead565b91507f4552433732313a206d696e7420746f20746865207a65726f20616464726573736000830152602082019050919050565b60006135e7602c83613ead565b91507f4552433732313a20617070726f76656420717565727920666f72206e6f6e657860008301527f697374656e7420746f6b656e00000000000000000000000000000000000000006020830152604082019050919050565b600061364d602083613ead565b91507f4f776e61626c653a2063616c6c6572206973206e6f7420746865206f776e65726000830152602082019050919050565b600061368d602983613ead565b91507f4552433732313a207472616e73666572206f6620746f6b656e2074686174206960008301527f73206e6f74206f776e00000000000000000000000000000000000000000000006020830152604082019050919050565b60006136f3602f83613ead565b91507f4552433732314d657461646174613a2055524920717565727920666f72206e6f60008301527f6e6578697374656e7420746f6b656e00000000000000000000000000000000006020830152604082019050919050565b6000613759602183613ead565b91507f4552433732313a20617070726f76616c20746f2063757272656e74206f776e6560008301527f72000000000000000000000000000000000000000000000000000000000000006020830152604082019050919050565b60006137bf603183613ead565b91507f4552433732313a207472616e736665722063616c6c6572206973206e6f74206f60008301527f776e6572206e6f7220617070726f7665640000000000000000000000000000006020830152604082019050919050565b6000613825601d83613ead565b91507f416464726573733a2063616c6c20746f206e6f6e2d636f6e74726163740000006000830152602082019050919050565b6000613865601d83613ead565b91507f5468652061756374696f6e20686173206e6f7420656e646564207965740000006000830152602082019050919050565b610120820160008201516138af60008501826139a6565b5060208201516138c26020850182612f95565b5060408201516138d56040850182612fb3565b5060608201516138e86060850182612fb3565b5060808201516138fb60808501826139a6565b5060a082015161390e60a08501826139a6565b5060c082015161392160c0850182612f95565b5060e082015161393460e08501826139a6565b50610100820151613949610100850182612fb3565b50505050565b6000606083016000830151848203600086015261396c828261303b565b91505060208301518482036020860152613986828261303b565b915050604083015161399b6040860182612fb3565b508091505092915050565b6139af81613f45565b82525050565b6139be81613f45565b82525050565b60006139d0828461300a565b915081905092915050565b60006139e782856130ad565b91506139f382846130ad565b91508190509392505050565b6000602082019050613a146000830184612fa4565b92915050565b6000608082019050613a2f6000830187612f86565b613a3c6020830186612fa4565b613a4960408301856139b5565b8181036060830152613a5b8184612fd1565b905095945050505050565b6000604082019050613a7b6000830185612f77565b613a8860208301846139b5565b9392505050565b6000602082019050613aa46000830184612fc2565b92915050565b60006020820190508181036000830152613ac48184613074565b905092915050565b60006020820190508181036000830152613ae5816130de565b9050919050565b60006020820190508181036000830152613b058161311e565b9050919050565b60006020820190508181036000830152613b2581613184565b9050919050565b60006020820190508181036000830152613b45816131ea565b9050919050565b60006020820190508181036000830152613b6581613250565b9050919050565b60006020820190508181036000830152613b8581613290565b9050919050565b60006020820190508181036000830152613ba5816132f6565b9050919050565b60006020820190508181036000830152613bc581613336565b9050919050565b60006020820190508181036000830152613be58161339c565b9050919050565b60006020820190508181036000830152613c0581613402565b9050919050565b60006020820190508181036000830152613c2581613468565b9050919050565b60006020820190508181036000830152613c45816134ce565b9050919050565b60006020820190508181036000830152613c6581613534565b9050919050565b60006020820190508181036000830152613c858161359a565b9050919050565b60006020820190508181036000830152613ca5816135da565b9050919050565b60006020820190508181036000830152613cc581613640565b9050919050565b60006020820190508181036000830152613ce581613680565b9050919050565b60006020820190508181036000830152613d05816136e6565b9050919050565b60006020820190508181036000830152613d258161374c565b9050919050565b60006020820190508181036000830152613d45816137b2565b9050919050565b60006020820190508181036000830152613d6581613818565b9050919050565b60006020820190508181036000830152613d8581613858565b9050919050565b600061012082019050613da26000830184613898565b92915050565b60006020820190508181036000830152613dc2818461394f565b905092915050565b6000602082019050613ddf60008301846139b5565b92915050565b6000604051905081810181811067ffffffffffffffff82111715613e0857600080fd5b8060405250919050565b600067ffffffffffffffff821115613e2957600080fd5b601f19601f8301169050602081019050919050565b600067ffffffffffffffff821115613e5557600080fd5b601f19601f8301169050602081019050919050565b600081519050919050565b600081519050919050565b600082825260208201905092915050565b600081905092915050565b600082825260208201905092915050565b600082825260208201905092915050565b600081905092915050565b6000613ed482613f25565b9050919050565b6000613ee682613f25565b9050919050565b60008115159050919050565b60007fffffffff0000000000000000000000000000000000000000000000000000000082169050919050565b600073ffffffffffffffffffffffffffffffffffffffff82169050919050565b6000819050919050565b6000613f5a82613f61565b9050919050565b6000613f6c82613f73565b9050919050565b6000613f7e82613f25565b9050919050565b82818337600083830152505050565b60005b83811015613fb2578082015181840152602081019050613f97565b83811115613fc1576000848401525b50505050565b6000601f19601f8301169050919050565b613fe181613ec9565b8114613fec57600080fd5b50565b613ff881613eed565b811461400357600080fd5b50565b61400f81613ef9565b811461401a57600080fd5b50565b61402681613f45565b811461403157600080fd5b5056fe4552433732313a207472616e7366657220746f206e6f6e20455243373231526563656976657220696d706c656d656e7465724552433732313a206f776e657220717565727920666f72206e6f6e6578697374656e7420746f6b656ea2646970667358221220d9660c8610dd76edcfe04323f2054235dc203d4fd7117f38812266ed273a41f164736f6c634300060c0033",
  "immutableReferences": {},
  "source": "pragma solidity >=0.4.22 <0.8.0;\r\npragma experimental ABIEncoderV2;\r\n\r\nimport \"@openzeppelin/contracts/token/ERC721/ERC721.sol\";\r\nimport \"@openzeppelin/contracts/access/Ownable.sol\";\r\n\r\ncontract WorldNFT is ERC721, Ownable {\r\n\tconstructor() ERC721(\"WorldNFT\", \"WNFT\") public {\r\n\r\n\t}\r\n\r\n\tstruct Location {\r\n\t\tstring location_name;\r\n\t\tstring svg_image;\r\n\t\tbool isExist;\r\n\t}\r\n\tstruct Auction {\r\n\t    uint256 tokenId;\r\n\t    address beneficiary;\r\n\t    bool auctionGoingOn;\r\n\t\tbool auctionEnded;\r\n\t    uint auctionEndTime;\r\n\t\tuint biddingTime;\r\n\t    address highestBidder;\r\n\t    uint highestBid;\r\n\t    bool isExist;\r\n\t}\r\n\r\n\tuint public nextId = 0;\r\n\r\n\tevent AuctionStarted(address ownerAddress, uint _biddingTime);\r\n\r\n\tmapping(uint256 => Location) private _locationDetails;\r\n\tmapping(uint256 => uint256) public tokenIdToPrice;\r\n\tmapping(uint256 => Auction) private _auctions;\r\n\r\n\tfunction getTokenDetails(uint256 tokenId) public view returns (Location memory) {\r\n\t\treturn _locationDetails[tokenId];\r\n\t}\r\n\r\n\tfunction getPriceOf(uint256 tokenId) public view returns (uint256) {\r\n\t\treturn tokenIdToPrice[tokenId];\r\n\t}\r\n\r\n\tfunction getOwnerOf(uint256 tokenId) public view returns (address){\r\n\t\treturn ownerOf(tokenId);\r\n\t}\r\n\r\n\tfunction getAuctionInfo(uint256 tokenId) public view returns(Auction memory) {\r\n\t    return _auctions[tokenId];\r\n\t}\r\n\r\n\tfunction mint(string memory location_name, string memory svg_image) public onlyOwner {\r\n\t\t_locationDetails[nextId] = Location(location_name, svg_image, true);\r\n\t\ttokenIdToPrice[nextId] = 2000000000000000000; //1 ONE=1e18 wei\r\n\t\t_safeMint(msg.sender, nextId);\r\n\t\tnextId++;\r\n\t}\r\n\r\n\tfunction startAuction(uint256 _tokenId, uint _biddingTime) external {\r\n\t\tuint auctionEndTime = block.timestamp + _biddingTime;\r\n\t\trequire(_locationDetails[_tokenId].isExist, \"Token doesn't exist\");\r\n\t\trequire(msg.sender == ownerOf(_tokenId), \"Cannot start auction for token you don't own\");\r\n\t\tif(_auctions[_tokenId].isExist && !_auctions[_tokenId].auctionEnded) {\r\n\t\t\trevert (\"The auction has not ended yet\");\r\n\t\t}\r\n\t\t_auctions[_tokenId] = Auction(_tokenId,msg.sender,true,false,auctionEndTime,_biddingTime,address(0x0),0,true);\r\n\t\temit AuctionStarted(msg.sender, _biddingTime);\r\n\t}\r\n\r\n\tfunction _beforeTokenTransfer(address from, address to, uint256 tokenId) internal override { \r\n\t\t\r\n\t}\r\n}",
  "sourcePath": "C:/Users/swapp/Documents/MyProjects/Crypto/world_nft/contracts/WorldNFT.sol",
  "compiler": {
    "name": "solc",
    "version": "0.6.12+commit.27d51765.Emscripten.clang"
  },
  "schemaVersion": "3.2.3",
  "updatedAt": "2021-07-09T07:55:57.893Z",
  "networkType": "ethereum",
  "devdoc": {
    "kind": "dev",
    "methods": {
      "approve(address,uint256)": {
        "details": "See {IERC721-approve}."
      },
      "balanceOf(address)": {
        "details": "See {IERC721-balanceOf}."
      },
      "baseURI()": {
        "details": "Returns the base URI set via {_setBaseURI}. This will be automatically added as a prefix in {tokenURI} to each token's URI, or to the token ID if no specific URI is set for that token ID."
      },
      "getApproved(uint256)": {
        "details": "See {IERC721-getApproved}."
      },
      "isApprovedForAll(address,address)": {
        "details": "See {IERC721-isApprovedForAll}."
      },
      "name()": {
        "details": "See {IERC721Metadata-name}."
      },
      "owner()": {
        "details": "Returns the address of the current owner."
      },
      "ownerOf(uint256)": {
        "details": "See {IERC721-ownerOf}."
      },
      "renounceOwnership()": {
        "details": "Leaves the contract without owner. It will not be possible to call `onlyOwner` functions anymore. Can only be called by the current owner. NOTE: Renouncing ownership will leave the contract without an owner, thereby removing any functionality that is only available to the owner."
      },
      "safeTransferFrom(address,address,uint256)": {
        "details": "See {IERC721-safeTransferFrom}."
      },
      "safeTransferFrom(address,address,uint256,bytes)": {
        "details": "See {IERC721-safeTransferFrom}."
      },
      "setApprovalForAll(address,bool)": {
        "details": "See {IERC721-setApprovalForAll}."
      },
      "supportsInterface(bytes4)": {
        "details": "See {IERC165-supportsInterface}. Time complexity O(1), guaranteed to always use less than 30 000 gas."
      },
      "symbol()": {
        "details": "See {IERC721Metadata-symbol}."
      },
      "tokenByIndex(uint256)": {
        "details": "See {IERC721Enumerable-tokenByIndex}."
      },
      "tokenOfOwnerByIndex(address,uint256)": {
        "details": "See {IERC721Enumerable-tokenOfOwnerByIndex}."
      },
      "tokenURI(uint256)": {
        "details": "See {IERC721Metadata-tokenURI}."
      },
      "totalSupply()": {
        "details": "See {IERC721Enumerable-totalSupply}."
      },
      "transferFrom(address,address,uint256)": {
        "details": "See {IERC721-transferFrom}."
      },
      "transferOwnership(address)": {
        "details": "Transfers ownership of the contract to a new account (`newOwner`). Can only be called by the current owner."
      }
    },
    "version": 1
  },
  "userdoc": {
    "kind": "user",
    "methods": {},
    "version": 1
  }
}